{
    "_format": "hh-sol-artifact-1",
    "contractName": "pro_pon",
    "sourceName": "contracts/pro-pon.sol",
    "abi": [
        {
            "inputs": [],
            "stateMutability": "payable",
            "type": "constructor"
        },
        {
            "anonymous": false,
            "inputs": [
                {
                    "indexed": true,
                    "internalType": "address",
                    "name": "sender",
                    "type": "address"
                },
                {
                    "indexed": false,
                    "internalType": "string",
                    "name": "id",
                    "type": "string"
                },
                {
                    "indexed": false,
                    "internalType": "string",
                    "name": "name",
                    "type": "string"
                }
            ],
            "name": "NewCompanyCreated",
            "type": "event"
        },
        {
            "inputs": [
                {
                    "internalType": "string",
                    "name": "_id",
                    "type": "string"
                },
                {
                    "internalType": "string",
                    "name": "_name",
                    "type": "string"
                }
            ],
            "name": "createCompany",
            "outputs": [],
            "stateMutability": "payable",
            "type": "function"
        },
        {
            "inputs": [],
            "name": "isOwner",
            "outputs": [
                {
                    "internalType": "bool",
                    "name": "",
                    "type": "bool"
                }
            ],
            "stateMutability": "view",
            "type": "function"
        },
        {
            "inputs": [],
            "name": "owner",
            "outputs": [
                {
                    "internalType": "address payable",
                    "name": "",
                    "type": "address"
                }
            ],
            "stateMutability": "view",
            "type": "function"
        },
        {
            "inputs": [],
            "name": "withdraw",
            "outputs": [],
            "stateMutability": "nonpayable",
            "type": "function"
        }
    ],
    "bytecode": "0x6080604052655af3107a400060005533600260006101000a81548173ffffffffffffffffffffffffffffffffffffffff021916908373ffffffffffffffffffffffffffffffffffffffff160217905550610b1b8061005e6000396000f3fe60806040526004361061003f5760003560e01c80633ccfd60b146100445780638da5cb5b1461005b5780638f32d59b14610086578063f14513f2146100b1575b600080fd5b34801561005057600080fd5b506100596100cd565b005b34801561006757600080fd5b506100706101c9565b60405161007d9190610586565b60405180910390f35b34801561009257600080fd5b5061009b6101ef565b6040516100a891906105bc565b60405180910390f35b6100cb60048036038101906100c69190610731565b610247565b005b6100d56101ef565b610114576040517f08c379a000000000000000000000000000000000000000000000000000000000815260040161010b90610806565b60405180910390fd5b600047905060003373ffffffffffffffffffffffffffffffffffffffff168260405161013f90610857565b60006040518083038185875af1925050503d806000811461017c576040519150601f19603f3d011682016040523d82523d6000602084013e610181565b606091505b50509050806101c5576040517f08c379a00000000000000000000000000000000000000000000000000000000081526004016101bc906108b8565b60405180910390fd5b5050565b600260009054906101000a900473ffffffffffffffffffffffffffffffffffffffff1681565b6000600260009054906101000a900473ffffffffffffffffffffffffffffffffffffffff1673ffffffffffffffffffffffffffffffffffffffff163373ffffffffffffffffffffffffffffffffffffffff1614905090565b60005434101561028c576040517f08c379a000000000000000000000000000000000000000000000000000000000815260040161028390610924565b60405180910390fd5b6000600160003373ffffffffffffffffffffffffffffffffffffffff1673ffffffffffffffffffffffffffffffffffffffff16815260200190815260200160002060000180546102db90610973565b80601f016020809104026020016040519081016040528092919081815260200182805461030790610973565b80156103545780601f1061032957610100808354040283529160200191610354565b820191906000526020600020905b81548152906001019060200180831161033757829003601f168201915b50505050509050600081511461039f576040517f08c379a000000000000000000000000000000000000000000000000000000000815260040161039690610a17565b60405180910390fd5b82600160003373ffffffffffffffffffffffffffffffffffffffff1673ffffffffffffffffffffffffffffffffffffffff16815260200190815260200160002060000190805190602001906103f59291906104a2565b5081600160003373ffffffffffffffffffffffffffffffffffffffff1673ffffffffffffffffffffffffffffffffffffffff168152602001908152602001600020600101908051906020019061044c9291906104a2565b503373ffffffffffffffffffffffffffffffffffffffff167fca91b92c76087c9c2ef1e3e1caa026c5de706bdbb1c952d8404727234974707b8484604051610495929190610aae565b60405180910390a2505050565b8280546104ae90610973565b90600052602060002090601f0160209004810192826104d05760008555610517565b82601f106104e957805160ff1916838001178555610517565b82800160010185558215610517579182015b828111156105165782518255916020019190600101906104fb565b5b5090506105249190610528565b5090565b5b80821115610541576000816000905550600101610529565b5090565b600073ffffffffffffffffffffffffffffffffffffffff82169050919050565b600061057082610545565b9050919050565b61058081610565565b82525050565b600060208201905061059b6000830184610577565b92915050565b60008115159050919050565b6105b6816105a1565b82525050565b60006020820190506105d160008301846105ad565b92915050565b6000604051905090565b600080fd5b600080fd5b600080fd5b600080fd5b6000601f19601f8301169050919050565b7f4e487b7100000000000000000000000000000000000000000000000000000000600052604160045260246000fd5b61063e826105f5565b810181811067ffffffffffffffff8211171561065d5761065c610606565b5b80604052505050565b60006106706105d7565b905061067c8282610635565b919050565b600067ffffffffffffffff82111561069c5761069b610606565b5b6106a5826105f5565b9050602081019050919050565b82818337600083830152505050565b60006106d46106cf84610681565b610666565b9050828152602081018484840111156106f0576106ef6105f0565b5b6106fb8482856106b2565b509392505050565b600082601f830112610718576107176105eb565b5b81356107288482602086016106c1565b91505092915050565b60008060408385031215610748576107476105e1565b5b600083013567ffffffffffffffff811115610766576107656105e6565b5b61077285828601610703565b925050602083013567ffffffffffffffff811115610793576107926105e6565b5b61079f85828601610703565b9150509250929050565b600082825260208201905092915050565b7f4f6e6c79206f776e657220616c6c6f7720746f20776974686472617700000000600082015250565b60006107f0601c836107a9565b91506107fb826107ba565b602082019050919050565b6000602082019050818103600083015261081f816107e3565b9050919050565b600081905092915050565b50565b6000610841600083610826565b915061084c82610831565b600082019050919050565b600061086282610834565b9150819050919050565b7f4661696c656420746f2077697468647261772062616c616e6365000000000000600082015250565b60006108a2601a836107a9565b91506108ad8261086c565b602082019050919050565b600060208201905081810360008301526108d181610895565b9050919050565b7f496e73756666696369656e74207061796d656e74000000000000000000000000600082015250565b600061090e6014836107a9565b9150610919826108d8565b602082019050919050565b6000602082019050818103600083015261093d81610901565b9050919050565b7f4e487b7100000000000000000000000000000000000000000000000000000000600052602260045260246000fd5b6000600282049050600182168061098b57607f821691505b6020821081141561099f5761099e610944565b5b50919050565b7f616464726573735f616c72656164795f61646d696e5f6f665f6f746865725f6360008201527f6f6d70616e790000000000000000000000000000000000000000000000000000602082015250565b6000610a016026836107a9565b9150610a0c826109a5565b604082019050919050565b60006020820190508181036000830152610a30816109f4565b9050919050565b600081519050919050565b60005b83811015610a60578082015181840152602081019050610a45565b83811115610a6f576000848401525b50505050565b6000610a8082610a37565b610a8a81856107a9565b9350610a9a818560208601610a42565b610aa3816105f5565b840191505092915050565b60006040820190508181036000830152610ac88185610a75565b90508181036020830152610adc8184610a75565b9050939250505056fea2646970667358221220bf6dc03d3d31647ba552c97d00d9e2a242f9d5d5fd63ad054053fd1b67a87d9164736f6c63430008090033",
    "linkReferences": {},
    "deployedLinkReferences": {}
}