{
  "_format": "hh-sol-artifact-1",
  "contractName": "pro_pon",
  "sourceName": "contracts/pro-pon.sol",
  "abi": [
    {
      "inputs": [],
      "stateMutability": "payable",
      "type": "constructor"
    },
    {
      "anonymous": false,
      "inputs": [
        {
          "indexed": true,
          "internalType": "address",
          "name": "sender",
          "type": "address"
        },
        {
          "indexed": false,
          "internalType": "string",
          "name": "id",
          "type": "string"
        },
        {
          "indexed": false,
          "internalType": "string",
          "name": "name",
          "type": "string"
        }
      ],
      "name": "NewCompanyCreated",
      "type": "event"
    },
    {
      "anonymous": false,
      "inputs": [
        {
          "indexed": true,
          "internalType": "address",
          "name": "sender",
          "type": "address"
        },
        {
          "indexed": false,
          "internalType": "uint256",
          "name": "id",
          "type": "uint256"
        },
        {
          "indexed": false,
          "internalType": "string",
          "name": "name",
          "type": "string"
        }
      ],
      "name": "NewRFPCreated",
      "type": "event"
    },
    {
      "inputs": [
        {
          "internalType": "string",
          "name": "_id",
          "type": "string"
        },
        {
          "internalType": "string",
          "name": "_name",
          "type": "string"
        }
      ],
      "name": "createCompany",
      "outputs": [],
      "stateMutability": "payable",
      "type": "function"
    },
    {
      "inputs": [
        {
          "internalType": "string",
          "name": "_name",
          "type": "string"
        },
        {
          "internalType": "uint256",
          "name": "_openDate",
          "type": "uint256"
        },
        {
          "internalType": "uint256",
          "name": "_endReceivingDate",
          "type": "uint256"
        },
        {
          "internalType": "uint256",
          "name": "_endDate",
          "type": "uint256"
        }
      ],
      "name": "createRFP",
      "outputs": [],
      "stateMutability": "payable",
      "type": "function"
    },
    {
      "inputs": [
        {
          "internalType": "string",
          "name": "a",
          "type": "string"
        },
        {
          "internalType": "string",
          "name": "b",
          "type": "string"
        }
      ],
      "name": "equals",
      "outputs": [
        {
          "internalType": "bool",
          "name": "",
          "type": "bool"
        }
      ],
      "stateMutability": "pure",
      "type": "function"
    },
    {
      "inputs": [
        {
          "internalType": "address",
          "name": "admin",
          "type": "address"
        }
      ],
      "name": "getCompany",
      "outputs": [
        {
          "components": [
            {
              "internalType": "string",
              "name": "id",
              "type": "string"
            },
            {
              "internalType": "string",
              "name": "name",
              "type": "string"
            },
            {
              "internalType": "uint256",
              "name": "RFPSent",
              "type": "uint256"
            },
            {
              "internalType": "uint256",
              "name": "RPFsWon",
              "type": "uint256"
            },
            {
              "internalType": "uint256[]",
              "name": "company_RFPs",
              "type": "uint256[]"
            }
          ],
          "internalType": "struct pro_pon.Company",
          "name": "",
          "type": "tuple"
        }
      ],
      "stateMutability": "view",
      "type": "function"
    },
    {
      "inputs": [
        {
          "internalType": "address",
          "name": "admin",
          "type": "address"
        }
      ],
      "name": "getCompanyId",
      "outputs": [
        {
          "internalType": "string",
          "name": "companyId",
          "type": "string"
        }
      ],
      "stateMutability": "view",
      "type": "function"
    },
    {
      "inputs": [
        {
          "internalType": "uint256",
          "name": "_rfpId",
          "type": "uint256"
        }
      ],
      "name": "getRFPbyIndex",
      "outputs": [
        {
          "components": [
            {
              "internalType": "string",
              "name": "name",
              "type": "string"
            },
            {
              "internalType": "uint256",
              "name": "openDate",
              "type": "uint256"
            },
            {
              "internalType": "uint256",
              "name": "endReceivingDate",
              "type": "uint256"
            },
            {
              "internalType": "uint256",
              "name": "endDate",
              "type": "uint256"
            },
            {
              "internalType": "string",
              "name": "IdWinner",
              "type": "string"
            },
            {
              "internalType": "bool",
              "name": "canceled",
              "type": "bool"
            },
            {
              "internalType": "string[]",
              "name": "Invited",
              "type": "string[]"
            }
          ],
          "internalType": "struct pro_pon.RFP",
          "name": "",
          "type": "tuple"
        }
      ],
      "stateMutability": "view",
      "type": "function"
    },
    {
      "inputs": [],
      "name": "getcurrentRFPIdx",
      "outputs": [
        {
          "internalType": "uint256",
          "name": "",
          "type": "uint256"
        }
      ],
      "stateMutability": "view",
      "type": "function"
    },
    {
      "inputs": [
        {
          "internalType": "uint256",
          "name": "_rfpId",
          "type": "uint256"
        },
        {
          "internalType": "string",
          "name": "companyId",
          "type": "string"
        },
        {
          "internalType": "string",
          "name": "invitedCompany",
          "type": "string"
        }
      ],
      "name": "inviteCompanytoRFP",
      "outputs": [],
      "stateMutability": "nonpayable",
      "type": "function"
    },
    {
      "inputs": [],
      "name": "isOwner",
      "outputs": [
        {
          "internalType": "bool",
          "name": "",
          "type": "bool"
        }
      ],
      "stateMutability": "view",
      "type": "function"
    },
    {
      "inputs": [],
      "name": "owner",
      "outputs": [
        {
          "internalType": "address payable",
          "name": "",
          "type": "address"
        }
      ],
      "stateMutability": "view",
      "type": "function"
    },
    {
      "inputs": [],
      "name": "withdraw",
      "outputs": [],
      "stateMutability": "nonpayable",
      "type": "function"
    }
  ],
  "bytecode": "0x6080604052655af3107a4000600055655af3107a4000600155600060025533600560006101000a81548173ffffffffffffffffffffffffffffffffffffffff021916908373ffffffffffffffffffffffffffffffffffffffff160217905550611d4d8061006d6000396000f3fe60806040526004361061009c5760003560e01c806388d8da5f1161006457806388d8da5f146101865780638da5cb5b146101c35780638f32d59b146101ee578063d5dd75c114610219578063d6f343c514610235578063f14513f2146102725761009c565b80631393b9e8146100a157806332f4b16a146100cc5780633ccfd60b1461010957806362bc56e614610120578063825557441461015d575b600080fd5b3480156100ad57600080fd5b506100b661028e565b6040516100c391906110cf565b60405180910390f35b3480156100d857600080fd5b506100f360048036038101906100ee919061112a565b610298565b6040516101009190611386565b60405180910390f35b34801561011557600080fd5b5061011e6104fb565b005b34801561012c57600080fd5b5061014760048036038101906101429190611406565b6105f7565b6040516101549190611566565b60405180910390f35b34801561016957600080fd5b50610184600480360381019061017f91906116bd565b6107e6565b005b34801561019257600080fd5b506101ad60048036038101906101a89190611748565b610950565b6040516101ba91906117cf565b60405180910390f35b3480156101cf57600080fd5b506101d86109bc565b6040516101e5919061180b565b60405180910390f35b3480156101fa57600080fd5b506102036109e2565b60405161021091906117cf565b60405180910390f35b610233600480360381019061022e9190611826565b610a3a565b005b34801561024157600080fd5b5061025c60048036038101906102579190611406565b610cbc565b60405161026991906118f3565b60405180910390f35b61028c60048036038101906102879190611748565b610d90565b005b6000600254905090565b6102a0610ee1565b600460008381526020019081526020016000206040518060e00160405290816000820180546102ce90611944565b80601f01602080910402602001604051908101604052809291908181526020018280546102fa90611944565b80156103475780601f1061031c57610100808354040283529160200191610347565b820191906000526020600020905b81548152906001019060200180831161032a57829003601f168201915b5050505050815260200160018201548152602001600282015481526020016003820154815260200160048201805461037e90611944565b80601f01602080910402602001604051908101604052809291908181526020018280546103aa90611944565b80156103f75780601f106103cc576101008083540402835291602001916103f7565b820191906000526020600020905b8154815290600101906020018083116103da57829003601f168201915b505050505081526020016005820160009054906101000a900460ff1615151515815260200160068201805480602002602001604051908101604052809291908181526020016000905b828210156104ec57838290600052602060002001805461045f90611944565b80601f016020809104026020016040519081016040528092919081815260200182805461048b90611944565b80156104d85780601f106104ad576101008083540402835291602001916104d8565b820191906000526020600020905b8154815290600101906020018083116104bb57829003601f168201915b505050505081526020019060010190610440565b50505050815250509050919050565b6105036109e2565b610542576040517f08c379a0000000000000000000000000000000000000000000000000000000008152600401610539906119c2565b60405180910390fd5b600047905060003373ffffffffffffffffffffffffffffffffffffffff168260405161056d90611a13565b60006040518083038185875af1925050503d80600081146105aa576040519150601f19603f3d011682016040523d82523d6000602084013e6105af565b606091505b50509050806105f3576040517f08c379a00000000000000000000000000000000000000000000000000000000081526004016105ea90611a74565b60405180910390fd5b5050565b6105ff610f20565b6000600360008473ffffffffffffffffffffffffffffffffffffffff1673ffffffffffffffffffffffffffffffffffffffff1681526020019081526020016000209050806040518060a001604052908160008201805461065e90611944565b80601f016020809104026020016040519081016040528092919081815260200182805461068a90611944565b80156106d75780601f106106ac576101008083540402835291602001916106d7565b820191906000526020600020905b8154815290600101906020018083116106ba57829003601f168201915b505050505081526020016001820180546106f090611944565b80601f016020809104026020016040519081016040528092919081815260200182805461071c90611944565b80156107695780601f1061073e57610100808354040283529160200191610769565b820191906000526020600020905b81548152906001019060200180831161074c57829003601f168201915b505050505081526020016002820154815260200160038201548152602001600482018054806020026020016040519081016040528092919081815260200182805480156107d557602002820191906000526020600020905b8154815260200190600101908083116107c1575b505050505081525050915050919050565b816108bb600360003373ffffffffffffffffffffffffffffffffffffffff1673ffffffffffffffffffffffffffffffffffffffff168152602001908152602001600020600001805461083790611944565b80601f016020809104026020016040519081016040528092919081815260200182805461086390611944565b80156108b05780601f10610885576101008083540402835291602001916108b0565b820191906000526020600020905b81548152906001019060200180831161089357829003601f168201915b505050505082610950565b6108fa576040517f08c379a00000000000000000000000000000000000000000000000000000000081526004016108f190611ae0565b60405180910390fd5b6004600085815260200190815260200160002060060182908060018154018082558091505060019003906000526020600020016000909190919091509080519060200190610949929190610f4f565b5050505050565b6000815183511461096457600090506109b6565b816040516020016109759190611b3c565b604051602081830303815290604052805190602001208360405160200161099c9190611b3c565b604051602081830303815290604052805190602001201490505b92915050565b600560009054906101000a900473ffffffffffffffffffffffffffffffffffffffff1681565b6000600560009054906101000a900473ffffffffffffffffffffffffffffffffffffffff1673ffffffffffffffffffffffffffffffffffffffff163373ffffffffffffffffffffffffffffffffffffffff1614905090565b6000610a45336105f7565b9050600081600001519050600081511415610a95576040517f08c379a0000000000000000000000000000000000000000000000000000000008152600401610a8c90611b9f565b60405180910390fd5b60006040518060e00160405280888152602001878152602001868152602001858152602001604051806020016040528060008152508152602001600015158152602001600067ffffffffffffffff811115610af357610af2611592565b5b604051908082528060200260200182016040528015610b2657816020015b6060815260200190600190039081610b115790505b5081525090506000610b3661028e565b905081600460008381526020019081526020016000206000820151816000019080519060200190610b68929190610f4f565b506020820151816001015560408201518160020155606082015181600301556080820151816004019080519060200190610ba3929190610f4f565b5060a08201518160050160006101000a81548160ff02191690831515021790555060c0820151816006019080519060200190610be0929190610fd5565b50905050600360003373ffffffffffffffffffffffffffffffffffffffff1673ffffffffffffffffffffffffffffffffffffffff1681526020019081526020016000206004018190806001815401808255809150506001900390600052602060002001600090919091909150553373ffffffffffffffffffffffffffffffffffffffff167fae438a3ef380e4b013ba12bcb929a59140482304040a1d8cf54d25c8e85640e9828a604051610c95929190611bbf565b60405180910390a2610cb2600182610cad9190611c1e565b610ed7565b5050505050505050565b6060600360008373ffffffffffffffffffffffffffffffffffffffff1673ffffffffffffffffffffffffffffffffffffffff1681526020019081526020016000206000018054610d0b90611944565b80601f0160208091040260200160405190810160405280929190818152602001828054610d3790611944565b8015610d845780601f10610d5957610100808354040283529160200191610d84565b820191906000526020600020905b815481529060010190602001808311610d6757829003601f168201915b50505050509050919050565b600054341015610dd5576040517f08c379a0000000000000000000000000000000000000000000000000000000008152600401610dcc90611cc0565b60405180910390fd5b81600360003373ffffffffffffffffffffffffffffffffffffffff1673ffffffffffffffffffffffffffffffffffffffff1681526020019081526020016000206000019080519060200190610e2b929190610f4f565b5080600360003373ffffffffffffffffffffffffffffffffffffffff1673ffffffffffffffffffffffffffffffffffffffff1681526020019081526020016000206001019080519060200190610e82929190610f4f565b503373ffffffffffffffffffffffffffffffffffffffff167fca91b92c76087c9c2ef1e3e1caa026c5de706bdbb1c952d8404727234974707b8383604051610ecb929190611ce0565b60405180910390a25050565b8060028190555050565b6040518060e001604052806060815260200160008152602001600081526020016000815260200160608152602001600015158152602001606081525090565b6040518060a0016040528060608152602001606081526020016000815260200160008152602001606081525090565b828054610f5b90611944565b90600052602060002090601f016020900481019282610f7d5760008555610fc4565b82601f10610f9657805160ff1916838001178555610fc4565b82800160010185558215610fc4579182015b82811115610fc3578251825591602001919060010190610fa8565b5b509050610fd19190611035565b5090565b828054828255906000526020600020908101928215611024579160200282015b82811115611023578251829080519060200190611013929190610f4f565b5091602001919060010190610ff5565b5b5090506110319190611052565b5090565b5b8082111561104e576000816000905550600101611036565b5090565b5b8082111561107257600081816110699190611076565b50600101611053565b5090565b50805461108290611944565b6000825580601f1061109457506110b3565b601f0160209004906000526020600020908101906110b29190611035565b5b50565b6000819050919050565b6110c9816110b6565b82525050565b60006020820190506110e460008301846110c0565b92915050565b6000604051905090565b600080fd5b600080fd5b611107816110b6565b811461111257600080fd5b50565b600081359050611124816110fe565b92915050565b6000602082840312156111405761113f6110f4565b5b600061114e84828501611115565b91505092915050565b600081519050919050565b600082825260208201905092915050565b60005b83811015611191578082015181840152602081019050611176565b838111156111a0576000848401525b50505050565b6000601f19601f8301169050919050565b60006111c282611157565b6111cc8185611162565b93506111dc818560208601611173565b6111e5816111a6565b840191505092915050565b6111f9816110b6565b82525050565b60008115159050919050565b611214816111ff565b82525050565b600081519050919050565b600082825260208201905092915050565b6000819050602082019050919050565b600061125283836111b7565b905092915050565b6000602082019050919050565b60006112728261121a565b61127c8185611225565b93508360208202850161128e85611236565b8060005b858110156112ca57848403895281516112ab8582611246565b94506112b68361125a565b925060208a01995050600181019050611292565b50829750879550505050505092915050565b600060e08301600083015184820360008601526112f982826111b7565b915050602083015161130e60208601826111f0565b50604083015161132160408601826111f0565b50606083015161133460608601826111f0565b506080830151848203608086015261134c82826111b7565b91505060a083015161136160a086018261120b565b5060c083015184820360c08601526113798282611267565b9150508091505092915050565b600060208201905081810360008301526113a081846112dc565b905092915050565b600073ffffffffffffffffffffffffffffffffffffffff82169050919050565b60006113d3826113a8565b9050919050565b6113e3816113c8565b81146113ee57600080fd5b50565b600081359050611400816113da565b92915050565b60006020828403121561141c5761141b6110f4565b5b600061142a848285016113f1565b91505092915050565b600081519050919050565b600082825260208201905092915050565b6000819050602082019050919050565b600061146b83836111f0565b60208301905092915050565b6000602082019050919050565b600061148f82611433565b611499818561143e565b93506114a48361144f565b8060005b838110156114d55781516114bc888261145f565b97506114c783611477565b9250506001810190506114a8565b5085935050505092915050565b600060a08301600083015184820360008601526114ff82826111b7565b9150506020830151848203602086015261151982826111b7565b915050604083015161152e60408601826111f0565b50606083015161154160608601826111f0565b50608083015184820360808601526115598282611484565b9150508091505092915050565b6000602082019050818103600083015261158081846114e2565b905092915050565b600080fd5b600080fd5b7f4e487b7100000000000000000000000000000000000000000000000000000000600052604160045260246000fd5b6115ca826111a6565b810181811067ffffffffffffffff821117156115e9576115e8611592565b5b80604052505050565b60006115fc6110ea565b905061160882826115c1565b919050565b600067ffffffffffffffff82111561162857611627611592565b5b611631826111a6565b9050602081019050919050565b82818337600083830152505050565b600061166061165b8461160d565b6115f2565b90508281526020810184848401111561167c5761167b61158d565b5b61168784828561163e565b509392505050565b600082601f8301126116a4576116a3611588565b5b81356116b484826020860161164d565b91505092915050565b6000806000606084860312156116d6576116d56110f4565b5b60006116e486828701611115565b935050602084013567ffffffffffffffff811115611705576117046110f9565b5b6117118682870161168f565b925050604084013567ffffffffffffffff811115611732576117316110f9565b5b61173e8682870161168f565b9150509250925092565b6000806040838503121561175f5761175e6110f4565b5b600083013567ffffffffffffffff81111561177d5761177c6110f9565b5b6117898582860161168f565b925050602083013567ffffffffffffffff8111156117aa576117a96110f9565b5b6117b68582860161168f565b9150509250929050565b6117c9816111ff565b82525050565b60006020820190506117e460008301846117c0565b92915050565b60006117f5826113a8565b9050919050565b611805816117ea565b82525050565b600060208201905061182060008301846117fc565b92915050565b600080600080608085870312156118405761183f6110f4565b5b600085013567ffffffffffffffff81111561185e5761185d6110f9565b5b61186a8782880161168f565b945050602061187b87828801611115565b935050604061188c87828801611115565b925050606061189d87828801611115565b91505092959194509250565b600082825260208201905092915050565b60006118c582611157565b6118cf81856118a9565b93506118df818560208601611173565b6118e8816111a6565b840191505092915050565b6000602082019050818103600083015261190d81846118ba565b905092915050565b7f4e487b7100000000000000000000000000000000000000000000000000000000600052602260045260246000fd5b6000600282049050600182168061195c57607f821691505b602082108114156119705761196f611915565b5b50919050565b7f4f6e6c795f6f776e65725f616c6c6f775f776974686472617700000000000000600082015250565b60006119ac6019836118a9565b91506119b782611976565b602082019050919050565b600060208201905081810360008301526119db8161199f565b9050919050565b600081905092915050565b50565b60006119fd6000836119e2565b9150611a08826119ed565b600082019050919050565b6000611a1e826119f0565b9150819050919050565b7f4661696c656420746f2077697468647261772062616c616e6365000000000000600082015250565b6000611a5e601a836118a9565b9150611a6982611a28565b602082019050919050565b60006020820190508181036000830152611a8d81611a51565b9050919050565b7f4f6e6c795f61646d696e5f63616e5f706572666f726d00000000000000000000600082015250565b6000611aca6016836118a9565b9150611ad582611a94565b602082019050919050565b60006020820190508181036000830152611af981611abd565b9050919050565b600081905092915050565b6000611b1682611157565b611b208185611b00565b9350611b30818560208601611173565b80840191505092915050565b6000611b488284611b0b565b915081905092915050565b7f616464726573735f6e6f745f61646d696e000000000000000000000000000000600082015250565b6000611b896011836118a9565b9150611b9482611b53565b602082019050919050565b60006020820190508181036000830152611bb881611b7c565b9050919050565b6000604082019050611bd460008301856110c0565b8181036020830152611be681846118ba565b90509392505050565b7f4e487b7100000000000000000000000000000000000000000000000000000000600052601160045260246000fd5b6000611c29826110b6565b9150611c34836110b6565b9250827fffffffffffffffffffffffffffffffffffffffffffffffffffffffffffffffff03821115611c6957611c68611bef565b5b828201905092915050565b7f496e73756666696369656e745f7061796d656e74000000000000000000000000600082015250565b6000611caa6014836118a9565b9150611cb582611c74565b602082019050919050565b60006020820190508181036000830152611cd981611c9d565b9050919050565b60006040820190508181036000830152611cfa81856118ba565b90508181036020830152611d0e81846118ba565b9050939250505056fea2646970667358221220174fed4eecd09779f8b598762f89f8a67e5c4e4701590bd8ae846a45f470992664736f6c63430008090033",
  "linkReferences": {},
  "deployedLinkReferences": {}
}