{
  "_format": "hh-sol-artifact-1",
  "contractName": "pro_pon",
  "sourceName": "contracts/pro-pon.sol",
  "abi": [
    {
      "inputs": [],
      "stateMutability": "payable",
      "type": "constructor"
    },
    {
      "anonymous": false,
      "inputs": [
        {
          "indexed": true,
          "internalType": "address",
          "name": "sender",
          "type": "address"
        },
        {
          "indexed": false,
          "internalType": "string",
          "name": "id",
          "type": "string"
        },
        {
          "indexed": false,
          "internalType": "string",
          "name": "name",
          "type": "string"
        }
      ],
      "name": "NewCompanyCreated",
      "type": "event"
    },
    {
      "anonymous": false,
      "inputs": [
        {
          "indexed": true,
          "internalType": "address",
          "name": "sender",
          "type": "address"
        },
        {
          "indexed": false,
          "internalType": "uint256",
          "name": "id",
          "type": "uint256"
        },
        {
          "indexed": false,
          "internalType": "string",
          "name": "name",
          "type": "string"
        }
      ],
      "name": "NewRFPCreated",
      "type": "event"
    },
    {
      "inputs": [
        {
          "internalType": "string",
          "name": "_id",
          "type": "string"
        },
        {
          "internalType": "string",
          "name": "_name",
          "type": "string"
        }
      ],
      "name": "createCompany",
      "outputs": [],
      "stateMutability": "payable",
      "type": "function"
    },
    {
      "inputs": [
        {
          "internalType": "string",
          "name": "_name",
          "type": "string"
        },
        {
          "internalType": "uint256",
          "name": "_openDate",
          "type": "uint256"
        },
        {
          "internalType": "uint256",
          "name": "_endReceivingDate",
          "type": "uint256"
        },
        {
          "internalType": "uint256",
          "name": "_endDate",
          "type": "uint256"
        }
      ],
      "name": "createRFP",
      "outputs": [],
      "stateMutability": "payable",
      "type": "function"
    },
    {
      "inputs": [
        {
          "internalType": "string",
          "name": "a",
          "type": "string"
        },
        {
          "internalType": "string",
          "name": "b",
          "type": "string"
        }
      ],
      "name": "equals",
      "outputs": [
        {
          "internalType": "bool",
          "name": "",
          "type": "bool"
        }
      ],
      "stateMutability": "pure",
      "type": "function"
    },
    {
      "inputs": [
        {
          "internalType": "address",
          "name": "admin",
          "type": "address"
        }
      ],
      "name": "getCompany",
      "outputs": [
        {
          "components": [
            {
              "internalType": "string",
              "name": "id",
              "type": "string"
            },
            {
              "internalType": "string",
              "name": "name",
              "type": "string"
            },
            {
              "internalType": "uint256",
              "name": "RFPSent",
              "type": "uint256"
            },
            {
              "internalType": "uint256",
              "name": "RPFsWon",
              "type": "uint256"
            },
            {
              "internalType": "uint256[]",
              "name": "company_RFPs",
              "type": "uint256[]"
            }
          ],
          "internalType": "struct pro_pon.Company",
          "name": "",
          "type": "tuple"
        }
      ],
      "stateMutability": "view",
      "type": "function"
    },
    {
      "inputs": [
        {
          "internalType": "uint256",
          "name": "_rfpId",
          "type": "uint256"
        }
      ],
      "name": "getRFPbyIndex",
      "outputs": [
        {
          "components": [
            {
              "internalType": "string",
              "name": "name",
              "type": "string"
            },
            {
              "internalType": "uint256",
              "name": "openDate",
              "type": "uint256"
            },
            {
              "internalType": "uint256",
              "name": "endReceivingDate",
              "type": "uint256"
            },
            {
              "internalType": "uint256",
              "name": "endDate",
              "type": "uint256"
            },
            {
              "internalType": "string",
              "name": "IdWinner",
              "type": "string"
            },
            {
              "internalType": "bool",
              "name": "canceled",
              "type": "bool"
            },
            {
              "internalType": "string[]",
              "name": "Invited",
              "type": "string[]"
            }
          ],
          "internalType": "struct pro_pon.RFP",
          "name": "",
          "type": "tuple"
        }
      ],
      "stateMutability": "view",
      "type": "function"
    },
    {
      "inputs": [],
      "name": "getcurrentRFPIdx",
      "outputs": [
        {
          "internalType": "uint256",
          "name": "",
          "type": "uint256"
        }
      ],
      "stateMutability": "view",
      "type": "function"
    },
    {
      "inputs": [
        {
          "internalType": "uint256",
          "name": "_rfpId",
          "type": "uint256"
        },
        {
          "internalType": "string",
          "name": "companyId",
          "type": "string"
        },
        {
          "internalType": "string",
          "name": "invitedCompany",
          "type": "string"
        }
      ],
      "name": "inviteCompanytoRFP",
      "outputs": [],
      "stateMutability": "nonpayable",
      "type": "function"
    },
    {
      "inputs": [],
      "name": "isOwner",
      "outputs": [
        {
          "internalType": "bool",
          "name": "",
          "type": "bool"
        }
      ],
      "stateMutability": "view",
      "type": "function"
    },
    {
      "inputs": [],
      "name": "owner",
      "outputs": [
        {
          "internalType": "address payable",
          "name": "",
          "type": "address"
        }
      ],
      "stateMutability": "view",
      "type": "function"
    },
    {
      "inputs": [],
      "name": "withdraw",
      "outputs": [],
      "stateMutability": "nonpayable",
      "type": "function"
    }
  ],
  "bytecode": "0x6080604052655af3107a4000600055655af3107a4000600155600060025533600560006101000a81548173ffffffffffffffffffffffffffffffffffffffff021916908373ffffffffffffffffffffffffffffffffffffffff160217905550611c0f8061006d6000396000f3fe6080604052600436106100915760003560e01c806388d8da5f1161005957806388d8da5f1461017b5780638da5cb5b146101b85780638f32d59b146101e3578063d5dd75c11461020e578063f14513f21461022a57610091565b80631393b9e81461009657806332f4b16a146100c15780633ccfd60b146100fe57806362bc56e6146101155780638255574414610152575b600080fd5b3480156100a257600080fd5b506100ab610246565b6040516100b89190610fb3565b60405180910390f35b3480156100cd57600080fd5b506100e860048036038101906100e3919061100e565b610250565b6040516100f5919061126a565b60405180910390f35b34801561010a57600080fd5b506101136104b3565b005b34801561012157600080fd5b5061013c600480360381019061013791906112ea565b6105af565b604051610149919061144a565b60405180910390f35b34801561015e57600080fd5b50610179600480360381019061017491906115a1565b61079e565b005b34801561018757600080fd5b506101a2600480360381019061019d919061162c565b610908565b6040516101af91906116b3565b60405180910390f35b3480156101c457600080fd5b506101cd610974565b6040516101da91906116ef565b60405180910390f35b3480156101ef57600080fd5b506101f861099a565b60405161020591906116b3565b60405180910390f35b6102286004803603810190610223919061170a565b6109f2565b005b610244600480360381019061023f919061162c565b610c74565b005b6000600254905090565b610258610dc5565b600460008381526020019081526020016000206040518060e0016040529081600082018054610286906117bc565b80601f01602080910402602001604051908101604052809291908181526020018280546102b2906117bc565b80156102ff5780601f106102d4576101008083540402835291602001916102ff565b820191906000526020600020905b8154815290600101906020018083116102e257829003601f168201915b50505050508152602001600182015481526020016002820154815260200160038201548152602001600482018054610336906117bc565b80601f0160208091040260200160405190810160405280929190818152602001828054610362906117bc565b80156103af5780601f10610384576101008083540402835291602001916103af565b820191906000526020600020905b81548152906001019060200180831161039257829003601f168201915b505050505081526020016005820160009054906101000a900460ff1615151515815260200160068201805480602002602001604051908101604052809291908181526020016000905b828210156104a4578382906000526020600020018054610417906117bc565b80601f0160208091040260200160405190810160405280929190818152602001828054610443906117bc565b80156104905780601f1061046557610100808354040283529160200191610490565b820191906000526020600020905b81548152906001019060200180831161047357829003601f168201915b5050505050815260200190600101906103f8565b50505050815250509050919050565b6104bb61099a565b6104fa576040517f08c379a00000000000000000000000000000000000000000000000000000000081526004016104f19061184b565b60405180910390fd5b600047905060003373ffffffffffffffffffffffffffffffffffffffff16826040516105259061189c565b60006040518083038185875af1925050503d8060008114610562576040519150601f19603f3d011682016040523d82523d6000602084013e610567565b606091505b50509050806105ab576040517f08c379a00000000000000000000000000000000000000000000000000000000081526004016105a2906118fd565b60405180910390fd5b5050565b6105b7610e04565b6000600360008473ffffffffffffffffffffffffffffffffffffffff1673ffffffffffffffffffffffffffffffffffffffff1681526020019081526020016000209050806040518060a0016040529081600082018054610616906117bc565b80601f0160208091040260200160405190810160405280929190818152602001828054610642906117bc565b801561068f5780601f106106645761010080835404028352916020019161068f565b820191906000526020600020905b81548152906001019060200180831161067257829003601f168201915b505050505081526020016001820180546106a8906117bc565b80601f01602080910402602001604051908101604052809291908181526020018280546106d4906117bc565b80156107215780601f106106f657610100808354040283529160200191610721565b820191906000526020600020905b81548152906001019060200180831161070457829003601f168201915b5050505050815260200160028201548152602001600382015481526020016004820180548060200260200160405190810160405280929190818152602001828054801561078d57602002820191906000526020600020905b815481526020019060010190808311610779575b505050505081525050915050919050565b81610873600360003373ffffffffffffffffffffffffffffffffffffffff1673ffffffffffffffffffffffffffffffffffffffff16815260200190815260200160002060000180546107ef906117bc565b80601f016020809104026020016040519081016040528092919081815260200182805461081b906117bc565b80156108685780601f1061083d57610100808354040283529160200191610868565b820191906000526020600020905b81548152906001019060200180831161084b57829003601f168201915b505050505082610908565b6108b2576040517f08c379a00000000000000000000000000000000000000000000000000000000081526004016108a990611969565b60405180910390fd5b6004600085815260200190815260200160002060060182908060018154018082558091505060019003906000526020600020016000909190919091509080519060200190610901929190610e33565b5050505050565b6000815183511461091c576000905061096e565b8160405160200161092d91906119c5565b604051602081830303815290604052805190602001208360405160200161095491906119c5565b604051602081830303815290604052805190602001201490505b92915050565b600560009054906101000a900473ffffffffffffffffffffffffffffffffffffffff1681565b6000600560009054906101000a900473ffffffffffffffffffffffffffffffffffffffff1673ffffffffffffffffffffffffffffffffffffffff163373ffffffffffffffffffffffffffffffffffffffff1614905090565b60006109fd336105af565b9050600081600001519050600081511415610a4d576040517f08c379a0000000000000000000000000000000000000000000000000000000008152600401610a4490611a28565b60405180910390fd5b60006040518060e00160405280888152602001878152602001868152602001858152602001604051806020016040528060008152508152602001600015158152602001600067ffffffffffffffff811115610aab57610aaa611476565b5b604051908082528060200260200182016040528015610ade57816020015b6060815260200190600190039081610ac95790505b5081525090506000610aee610246565b905081600460008381526020019081526020016000206000820151816000019080519060200190610b20929190610e33565b506020820151816001015560408201518160020155606082015181600301556080820151816004019080519060200190610b5b929190610e33565b5060a08201518160050160006101000a81548160ff02191690831515021790555060c0820151816006019080519060200190610b98929190610eb9565b50905050600360003373ffffffffffffffffffffffffffffffffffffffff1673ffffffffffffffffffffffffffffffffffffffff1681526020019081526020016000206004018190806001815401808255809150506001900390600052602060002001600090919091909150553373ffffffffffffffffffffffffffffffffffffffff167fae438a3ef380e4b013ba12bcb929a59140482304040a1d8cf54d25c8e85640e9828a604051610c4d929190611a81565b60405180910390a2610c6a600182610c659190611ae0565b610dbb565b5050505050505050565b600054341015610cb9576040517f08c379a0000000000000000000000000000000000000000000000000000000008152600401610cb090611b82565b60405180910390fd5b81600360003373ffffffffffffffffffffffffffffffffffffffff1673ffffffffffffffffffffffffffffffffffffffff1681526020019081526020016000206000019080519060200190610d0f929190610e33565b5080600360003373ffffffffffffffffffffffffffffffffffffffff1673ffffffffffffffffffffffffffffffffffffffff1681526020019081526020016000206001019080519060200190610d66929190610e33565b503373ffffffffffffffffffffffffffffffffffffffff167fca91b92c76087c9c2ef1e3e1caa026c5de706bdbb1c952d8404727234974707b8383604051610daf929190611ba2565b60405180910390a25050565b8060028190555050565b6040518060e001604052806060815260200160008152602001600081526020016000815260200160608152602001600015158152602001606081525090565b6040518060a0016040528060608152602001606081526020016000815260200160008152602001606081525090565b828054610e3f906117bc565b90600052602060002090601f016020900481019282610e615760008555610ea8565b82601f10610e7a57805160ff1916838001178555610ea8565b82800160010185558215610ea8579182015b82811115610ea7578251825591602001919060010190610e8c565b5b509050610eb59190610f19565b5090565b828054828255906000526020600020908101928215610f08579160200282015b82811115610f07578251829080519060200190610ef7929190610e33565b5091602001919060010190610ed9565b5b509050610f159190610f36565b5090565b5b80821115610f32576000816000905550600101610f1a565b5090565b5b80821115610f565760008181610f4d9190610f5a565b50600101610f37565b5090565b508054610f66906117bc565b6000825580601f10610f785750610f97565b601f016020900490600052602060002090810190610f969190610f19565b5b50565b6000819050919050565b610fad81610f9a565b82525050565b6000602082019050610fc86000830184610fa4565b92915050565b6000604051905090565b600080fd5b600080fd5b610feb81610f9a565b8114610ff657600080fd5b50565b60008135905061100881610fe2565b92915050565b60006020828403121561102457611023610fd8565b5b600061103284828501610ff9565b91505092915050565b600081519050919050565b600082825260208201905092915050565b60005b8381101561107557808201518184015260208101905061105a565b83811115611084576000848401525b50505050565b6000601f19601f8301169050919050565b60006110a68261103b565b6110b08185611046565b93506110c0818560208601611057565b6110c98161108a565b840191505092915050565b6110dd81610f9a565b82525050565b60008115159050919050565b6110f8816110e3565b82525050565b600081519050919050565b600082825260208201905092915050565b6000819050602082019050919050565b6000611136838361109b565b905092915050565b6000602082019050919050565b6000611156826110fe565b6111608185611109565b9350836020820285016111728561111a565b8060005b858110156111ae578484038952815161118f858261112a565b945061119a8361113e565b925060208a01995050600181019050611176565b50829750879550505050505092915050565b600060e08301600083015184820360008601526111dd828261109b565b91505060208301516111f260208601826110d4565b50604083015161120560408601826110d4565b50606083015161121860608601826110d4565b5060808301518482036080860152611230828261109b565b91505060a083015161124560a08601826110ef565b5060c083015184820360c086015261125d828261114b565b9150508091505092915050565b6000602082019050818103600083015261128481846111c0565b905092915050565b600073ffffffffffffffffffffffffffffffffffffffff82169050919050565b60006112b78261128c565b9050919050565b6112c7816112ac565b81146112d257600080fd5b50565b6000813590506112e4816112be565b92915050565b600060208284031215611300576112ff610fd8565b5b600061130e848285016112d5565b91505092915050565b600081519050919050565b600082825260208201905092915050565b6000819050602082019050919050565b600061134f83836110d4565b60208301905092915050565b6000602082019050919050565b600061137382611317565b61137d8185611322565b935061138883611333565b8060005b838110156113b95781516113a08882611343565b97506113ab8361135b565b92505060018101905061138c565b5085935050505092915050565b600060a08301600083015184820360008601526113e3828261109b565b915050602083015184820360208601526113fd828261109b565b915050604083015161141260408601826110d4565b50606083015161142560608601826110d4565b506080830151848203608086015261143d8282611368565b9150508091505092915050565b6000602082019050818103600083015261146481846113c6565b905092915050565b600080fd5b600080fd5b7f4e487b7100000000000000000000000000000000000000000000000000000000600052604160045260246000fd5b6114ae8261108a565b810181811067ffffffffffffffff821117156114cd576114cc611476565b5b80604052505050565b60006114e0610fce565b90506114ec82826114a5565b919050565b600067ffffffffffffffff82111561150c5761150b611476565b5b6115158261108a565b9050602081019050919050565b82818337600083830152505050565b600061154461153f846114f1565b6114d6565b9050828152602081018484840111156115605761155f611471565b5b61156b848285611522565b509392505050565b600082601f8301126115885761158761146c565b5b8135611598848260208601611531565b91505092915050565b6000806000606084860312156115ba576115b9610fd8565b5b60006115c886828701610ff9565b935050602084013567ffffffffffffffff8111156115e9576115e8610fdd565b5b6115f586828701611573565b925050604084013567ffffffffffffffff81111561161657611615610fdd565b5b61162286828701611573565b9150509250925092565b6000806040838503121561164357611642610fd8565b5b600083013567ffffffffffffffff81111561166157611660610fdd565b5b61166d85828601611573565b925050602083013567ffffffffffffffff81111561168e5761168d610fdd565b5b61169a85828601611573565b9150509250929050565b6116ad816110e3565b82525050565b60006020820190506116c860008301846116a4565b92915050565b60006116d98261128c565b9050919050565b6116e9816116ce565b82525050565b600060208201905061170460008301846116e0565b92915050565b6000806000806080858703121561172457611723610fd8565b5b600085013567ffffffffffffffff81111561174257611741610fdd565b5b61174e87828801611573565b945050602061175f87828801610ff9565b935050604061177087828801610ff9565b925050606061178187828801610ff9565b91505092959194509250565b7f4e487b7100000000000000000000000000000000000000000000000000000000600052602260045260246000fd5b600060028204905060018216806117d457607f821691505b602082108114156117e8576117e761178d565b5b50919050565b600082825260208201905092915050565b7f4f6e6c795f6f776e65725f616c6c6f775f776974686472617700000000000000600082015250565b60006118356019836117ee565b9150611840826117ff565b602082019050919050565b6000602082019050818103600083015261186481611828565b9050919050565b600081905092915050565b50565b600061188660008361186b565b915061189182611876565b600082019050919050565b60006118a782611879565b9150819050919050565b7f4661696c656420746f2077697468647261772062616c616e6365000000000000600082015250565b60006118e7601a836117ee565b91506118f2826118b1565b602082019050919050565b60006020820190508181036000830152611916816118da565b9050919050565b7f4f6e6c795f61646d696e5f63616e5f706572666f726d00000000000000000000600082015250565b60006119536016836117ee565b915061195e8261191d565b602082019050919050565b6000602082019050818103600083015261198281611946565b9050919050565b600081905092915050565b600061199f8261103b565b6119a98185611989565b93506119b9818560208601611057565b80840191505092915050565b60006119d18284611994565b915081905092915050565b7f616464726573735f6e6f745f61646d696e000000000000000000000000000000600082015250565b6000611a126011836117ee565b9150611a1d826119dc565b602082019050919050565b60006020820190508181036000830152611a4181611a05565b9050919050565b6000611a538261103b565b611a5d81856117ee565b9350611a6d818560208601611057565b611a768161108a565b840191505092915050565b6000604082019050611a966000830185610fa4565b8181036020830152611aa88184611a48565b90509392505050565b7f4e487b7100000000000000000000000000000000000000000000000000000000600052601160045260246000fd5b6000611aeb82610f9a565b9150611af683610f9a565b9250827fffffffffffffffffffffffffffffffffffffffffffffffffffffffffffffffff03821115611b2b57611b2a611ab1565b5b828201905092915050565b7f496e73756666696369656e745f7061796d656e74000000000000000000000000600082015250565b6000611b6c6014836117ee565b9150611b7782611b36565b602082019050919050565b60006020820190508181036000830152611b9b81611b5f565b9050919050565b60006040820190508181036000830152611bbc8185611a48565b90508181036020830152611bd08184611a48565b9050939250505056fea26469706673582212208086c1caf6ad5f61db83336f34e35d8ea967aee0fce315177425807efcbb0dd564736f6c63430008090033",
  "linkReferences": {},
  "deployedLinkReferences": {}
}