{
  "_format": "hh-sol-artifact-1",
  "contractName": "pro_pon",
  "sourceName": "contracts/pro-pon.sol",
  "abi": [
    {
      "inputs": [],
      "stateMutability": "payable",
      "type": "constructor"
    },
    {
      "anonymous": false,
      "inputs": [
        {
          "indexed": true,
          "internalType": "address",
          "name": "sender",
          "type": "address"
        },
        {
          "indexed": false,
          "internalType": "string",
          "name": "id",
          "type": "string"
        },
        {
          "indexed": false,
          "internalType": "string",
          "name": "name",
          "type": "string"
        }
      ],
      "name": "NewCompanyCreated",
      "type": "event"
    },
    {
      "anonymous": false,
      "inputs": [
        {
          "indexed": true,
          "internalType": "address",
          "name": "sender",
          "type": "address"
        },
        {
          "indexed": false,
          "internalType": "uint256",
          "name": "id",
          "type": "uint256"
        },
        {
          "indexed": false,
          "internalType": "string",
          "name": "name",
          "type": "string"
        }
      ],
      "name": "NewRFPCreated",
      "type": "event"
    },
    {
      "inputs": [
        {
          "internalType": "uint256",
          "name": "_rfpIdx",
          "type": "uint256"
        },
        {
          "internalType": "uint8",
          "name": "_docType",
          "type": "uint8"
        },
        {
          "internalType": "string",
          "name": "_name",
          "type": "string"
        },
        {
          "internalType": "string",
          "name": "_documentHash",
          "type": "string"
        },
        {
          "internalType": "string",
          "name": "_path",
          "type": "string"
        }
      ],
      "name": "addDocument",
      "outputs": [],
      "stateMutability": "nonpayable",
      "type": "function"
    },
    {
      "inputs": [
        {
          "internalType": "string",
          "name": "_id",
          "type": "string"
        },
        {
          "internalType": "string",
          "name": "_name",
          "type": "string"
        },
        {
          "internalType": "string",
          "name": "_country",
          "type": "string"
        }
      ],
      "name": "createCompany",
      "outputs": [],
      "stateMutability": "payable",
      "type": "function"
    },
    {
      "inputs": [
        {
          "internalType": "string",
          "name": "_name",
          "type": "string"
        },
        {
          "internalType": "uint256",
          "name": "_openDate",
          "type": "uint256"
        },
        {
          "internalType": "uint256",
          "name": "_endReceivingDate",
          "type": "uint256"
        },
        {
          "internalType": "uint256",
          "name": "_endDate",
          "type": "uint256"
        },
        {
          "internalType": "enum pro_pon.ContestType",
          "name": "_contestType",
          "type": "uint8"
        },
        {
          "internalType": "uint256",
          "name": "_participantLimit",
          "type": "uint256"
        },
        {
          "internalType": "string[]",
          "name": "_items",
          "type": "string[]"
        }
      ],
      "name": "createRFP",
      "outputs": [],
      "stateMutability": "payable",
      "type": "function"
    },
    {
      "inputs": [
        {
          "internalType": "string",
          "name": "a",
          "type": "string"
        },
        {
          "internalType": "string",
          "name": "b",
          "type": "string"
        }
      ],
      "name": "equals",
      "outputs": [
        {
          "internalType": "bool",
          "name": "",
          "type": "bool"
        }
      ],
      "stateMutability": "pure",
      "type": "function"
    },
    {
      "inputs": [
        {
          "internalType": "address",
          "name": "admin",
          "type": "address"
        }
      ],
      "name": "getCompany",
      "outputs": [
        {
          "components": [
            {
              "internalType": "string",
              "name": "id",
              "type": "string"
            },
            {
              "internalType": "string",
              "name": "name",
              "type": "string"
            },
            {
              "internalType": "string",
              "name": "country",
              "type": "string"
            },
            {
              "internalType": "uint256",
              "name": "RFPSent",
              "type": "uint256"
            },
            {
              "internalType": "uint256",
              "name": "RPFsWon",
              "type": "uint256"
            },
            {
              "internalType": "uint256[]",
              "name": "company_RFPs",
              "type": "uint256[]"
            }
          ],
          "internalType": "struct pro_pon.Company",
          "name": "",
          "type": "tuple"
        }
      ],
      "stateMutability": "view",
      "type": "function"
    },
    {
      "inputs": [
        {
          "internalType": "address",
          "name": "admin",
          "type": "address"
        }
      ],
      "name": "getCompanyId",
      "outputs": [
        {
          "internalType": "string",
          "name": "companyId",
          "type": "string"
        }
      ],
      "stateMutability": "view",
      "type": "function"
    },
    {
      "inputs": [
        {
          "internalType": "uint256",
          "name": "_rfpIdx",
          "type": "uint256"
        }
      ],
      "name": "getDocumentsfromRFP",
      "outputs": [
        {
          "components": [
            {
              "internalType": "uint256",
              "name": "docType",
              "type": "uint256"
            },
            {
              "internalType": "string",
              "name": "name",
              "type": "string"
            },
            {
              "internalType": "address",
              "name": "owner",
              "type": "address"
            },
            {
              "internalType": "string",
              "name": "documentHash",
              "type": "string"
            },
            {
              "internalType": "string",
              "name": "path",
              "type": "string"
            }
          ],
          "internalType": "struct pro_pon.Document[]",
          "name": "",
          "type": "tuple[]"
        }
      ],
      "stateMutability": "view",
      "type": "function"
    },
    {
      "inputs": [
        {
          "internalType": "uint256",
          "name": "_rfpId",
          "type": "uint256"
        }
      ],
      "name": "getRFPbyIndex",
      "outputs": [
        {
          "components": [
            {
              "internalType": "string",
              "name": "name",
              "type": "string"
            },
            {
              "internalType": "uint256",
              "name": "openDate",
              "type": "uint256"
            },
            {
              "internalType": "uint256",
              "name": "endReceivingDate",
              "type": "uint256"
            },
            {
              "internalType": "uint256",
              "name": "endDate",
              "type": "uint256"
            },
            {
              "internalType": "bool",
              "name": "canceled",
              "type": "bool"
            },
            {
              "internalType": "address[]",
              "name": "participants",
              "type": "address[]"
            },
            {
              "internalType": "enum pro_pon.ContestType",
              "name": "contestType",
              "type": "uint8"
            },
            {
              "internalType": "uint256",
              "name": "participantLimit",
              "type": "uint256"
            },
            {
              "internalType": "string[]",
              "name": "items",
              "type": "string[]"
            },
            {
              "internalType": "address[]",
              "name": "winners",
              "type": "address[]"
            },
            {
              "internalType": "address",
              "name": "issuer",
              "type": "address"
            }
          ],
          "internalType": "struct pro_pon.RFP",
          "name": "",
          "type": "tuple"
        }
      ],
      "stateMutability": "view",
      "type": "function"
    },
    {
      "inputs": [],
      "name": "getcurrentRFPIdx",
      "outputs": [
        {
          "internalType": "uint256",
          "name": "",
          "type": "uint256"
        }
      ],
      "stateMutability": "view",
      "type": "function"
    },
    {
      "inputs": [
        {
          "internalType": "uint256",
          "name": "_rfpId",
          "type": "uint256"
        },
        {
          "internalType": "string",
          "name": "companyId",
          "type": "string"
        },
        {
          "internalType": "address",
          "name": "invitedCompany",
          "type": "address"
        }
      ],
      "name": "inviteCompanytoRFP",
      "outputs": [],
      "stateMutability": "nonpayable",
      "type": "function"
    },
    {
      "inputs": [],
      "name": "isOwner",
      "outputs": [
        {
          "internalType": "bool",
          "name": "",
          "type": "bool"
        }
      ],
      "stateMutability": "view",
      "type": "function"
    },
    {
      "inputs": [],
      "name": "owner",
      "outputs": [
        {
          "internalType": "address payable",
          "name": "",
          "type": "address"
        }
      ],
      "stateMutability": "view",
      "type": "function"
    },
    {
      "inputs": [
        {
          "internalType": "uint256",
          "name": "RFPIdx",
          "type": "uint256"
        }
      ],
      "name": "registertoOpenRFP",
      "outputs": [],
      "stateMutability": "payable",
      "type": "function"
    },
    {
      "inputs": [],
      "name": "returnEnum",
      "outputs": [
        {
          "internalType": "enum pro_pon.ContestType",
          "name": "",
          "type": "uint8"
        },
        {
          "internalType": "enum pro_pon.ContestType",
          "name": "",
          "type": "uint8"
        }
      ],
      "stateMutability": "view",
      "type": "function"
    },
    {
      "inputs": [],
      "name": "withdraw",
      "outputs": [],
      "stateMutability": "nonpayable",
      "type": "function"
    }
  ],
  "bytecode": "0x6080604052655af3107a4000600055655af3107a4000600155655af3107a4000600255600060035533600760006101000a81548173ffffffffffffffffffffffffffffffffffffffff021916908373ffffffffffffffffffffffffffffffffffffffff16021790555061383e806100776000396000f3fe6080604052600436106100e85760003560e01c806388d8da5f1161008a578063c649289511610059578063c6492895146102c9578063cbfaf58014610306578063d6f343c51461032f578063ed72f89f1461036c576100e8565b806388d8da5f1461020d5780638da5cb5b1461024a5780638f32d59b146102755780639c9945c0146102a0576100e8565b80633ccfd60b116100c65780633ccfd60b1461017157806362b77e591461018857806362bc56e6146101b45780637b60626d146101f1576100e8565b80631393b9e8146100ed5780632072da581461011857806332f4b16a14610134575b600080fd5b3480156100f957600080fd5b50610102610388565b60405161010f919061210e565b60405180910390f35b610132600480360381019061012d91906123ba565b610392565b005b34801561014057600080fd5b5061015b60048036038101906101569190612494565b61072e565b60405161016891906128a0565b60405180910390f35b34801561017d57600080fd5b50610186610ab7565b005b34801561019457600080fd5b5061019d610bb3565b6040516101ab9291906128d1565b60405180910390f35b3480156101c057600080fd5b506101db60048036038101906101d69190612926565b610c66565b6040516101e89190612aa0565b60405180910390f35b61020b60048036038101906102069190612ac2565b610ee7565b005b34801561021957600080fd5b50610234600480360381019061022f9190612b69565b611086565b6040516102419190612bf0565b60405180910390f35b34801561025657600080fd5b5061025f6110f2565b60405161026c9190612c2c565b60405180910390f35b34801561028157600080fd5b5061028a611118565b6040516102979190612bf0565b60405180910390f35b3480156102ac57600080fd5b506102c760048036038101906102c29190612c80565b611170565b005b3480156102d557600080fd5b506102f060048036038101906102eb9190612494565b6114c7565b6040516102fd9190612e95565b60405180910390f35b34801561031257600080fd5b5061032d60048036038101906103289190612eb7565b61174f565b005b34801561033b57600080fd5b5061035660048036038101906103519190612926565b611a48565b6040516103639190612f70565b60405180910390f35b61038660048036038101906103819190612494565b611b1c565b005b6000600354905090565b600061039d33610c66565b90506000816000015190506000815114156103ed576040517f08c379a00000000000000000000000000000000000000000000000000000000081526004016103e490612fde565b60405180910390fd5b60006040518061016001604052808b81526020018a8152602001898152602001888152602001600015158152602001600067ffffffffffffffff81111561043757610436612158565b5b6040519080825280602002602001820160405280156104655781602001602082028036833780820191505090505b50815260200187600181111561047e5761047d612663565b5b8152602001868152602001858152602001600067ffffffffffffffff8111156104aa576104a9612158565b5b6040519080825280602002602001820160405280156104d85781602001602082028036833780820191505090505b5081526020013373ffffffffffffffffffffffffffffffffffffffff1681525090506000610504610388565b905081600560008381526020019081526020016000206000820151816000019080519060200190610536929190611e4a565b5060208201518160010155604082015181600201556060820151816003015560808201518160040160006101000a81548160ff02191690831515021790555060a0820151816005019080519060200190610591929190611ed0565b5060c08201518160060160006101000a81548160ff021916908360018111156105bd576105bc612663565b5b021790555060e082015181600701556101008201518160080190805190602001906105e9929190611f5a565b50610120820151816009019080519060200190610607929190611ed0565b5061014082015181600a0160006101000a81548173ffffffffffffffffffffffffffffffffffffffff021916908373ffffffffffffffffffffffffffffffffffffffff160217905550905050600460003373ffffffffffffffffffffffffffffffffffffffff1673ffffffffffffffffffffffffffffffffffffffff1681526020019081526020016000206005018190806001815401808255809150506001900390600052602060002001600090919091909150553373ffffffffffffffffffffffffffffffffffffffff167fae438a3ef380e4b013ba12bcb929a59140482304040a1d8cf54d25c8e85640e9828d604051610704929190612ffe565b60405180910390a261072160018261071c919061305d565b611d7b565b5050505050505050505050565b610736611fba565b6005600083815260200190815260200160002060405180610160016040529081600082018054610765906130e2565b80601f0160208091040260200160405190810160405280929190818152602001828054610791906130e2565b80156107de5780601f106107b3576101008083540402835291602001916107de565b820191906000526020600020905b8154815290600101906020018083116107c157829003601f168201915b505050505081526020016001820154815260200160028201548152602001600382015481526020016004820160009054906101000a900460ff16151515158152602001600582018054806020026020016040519081016040528092919081815260200182805480156108a557602002820191906000526020600020905b8160009054906101000a900473ffffffffffffffffffffffffffffffffffffffff1673ffffffffffffffffffffffffffffffffffffffff168152602001906001019080831161085b575b505050505081526020016006820160009054906101000a900460ff1660018111156108d3576108d2612663565b5b60018111156108e5576108e4612663565b5b81526020016007820154815260200160088201805480602002602001604051908101604052809291908181526020016000905b828210156109c4578382906000526020600020018054610937906130e2565b80601f0160208091040260200160405190810160405280929190818152602001828054610963906130e2565b80156109b05780601f10610985576101008083540402835291602001916109b0565b820191906000526020600020905b81548152906001019060200180831161099357829003601f168201915b505050505081526020019060010190610918565b50505050815260200160098201805480602002602001604051908101604052809291908181526020018280548015610a5157602002820191906000526020600020905b8160009054906101000a900473ffffffffffffffffffffffffffffffffffffffff1673ffffffffffffffffffffffffffffffffffffffff1681526020019060010190808311610a07575b50505050508152602001600a820160009054906101000a900473ffffffffffffffffffffffffffffffffffffffff1673ffffffffffffffffffffffffffffffffffffffff1673ffffffffffffffffffffffffffffffffffffffff16815250509050919050565b610abf611118565b610afe576040517f08c379a0000000000000000000000000000000000000000000000000000000008152600401610af590613160565b60405180910390fd5b600047905060003373ffffffffffffffffffffffffffffffffffffffff1682604051610b29906131b1565b60006040518083038185875af1925050503d8060008114610b66576040519150601f19603f3d011682016040523d82523d6000602084013e610b6b565b606091505b5050905080610baf576040517f08c379a0000000000000000000000000000000000000000000000000000000008152600401610ba690613212565b60405180910390fd5b5050565b600080610c086040518060400160405280601081526020017f436f6e74657374547970652e4f50454e0000000000000000000000000000000081525060006001811115610c0357610c02612663565b5b611d85565b610c5a6040518060400160405280600f81526020017f446f63547970652e52455155455354000000000000000000000000000000000081525060006001811115610c5557610c54612663565b5b611d85565b60006001915091509091565b610c6e61203e565b6000600460008473ffffffffffffffffffffffffffffffffffffffff1673ffffffffffffffffffffffffffffffffffffffff1681526020019081526020016000209050806040518060c0016040529081600082018054610ccd906130e2565b80601f0160208091040260200160405190810160405280929190818152602001828054610cf9906130e2565b8015610d465780601f10610d1b57610100808354040283529160200191610d46565b820191906000526020600020905b815481529060010190602001808311610d2957829003601f168201915b50505050508152602001600182018054610d5f906130e2565b80601f0160208091040260200160405190810160405280929190818152602001828054610d8b906130e2565b8015610dd85780601f10610dad57610100808354040283529160200191610dd8565b820191906000526020600020905b815481529060010190602001808311610dbb57829003601f168201915b50505050508152602001600282018054610df1906130e2565b80601f0160208091040260200160405190810160405280929190818152602001828054610e1d906130e2565b8015610e6a5780601f10610e3f57610100808354040283529160200191610e6a565b820191906000526020600020905b815481529060010190602001808311610e4d57829003601f168201915b50505050508152602001600382015481526020016004820154815260200160058201805480602002602001604051908101604052809291908181526020018280548015610ed657602002820191906000526020600020905b815481526020019060010190808311610ec2575b505050505081525050915050919050565b600054341015610f2c576040517f08c379a0000000000000000000000000000000000000000000000000000000008152600401610f239061327e565b60405180910390fd5b82600460003373ffffffffffffffffffffffffffffffffffffffff1673ffffffffffffffffffffffffffffffffffffffff1681526020019081526020016000206000019080519060200190610f82929190611e4a565b5081600460003373ffffffffffffffffffffffffffffffffffffffff1673ffffffffffffffffffffffffffffffffffffffff1681526020019081526020016000206001019080519060200190610fd9929190611e4a565b5080600460003373ffffffffffffffffffffffffffffffffffffffff1673ffffffffffffffffffffffffffffffffffffffff1681526020019081526020016000206002019080519060200190611030929190611e4a565b503373ffffffffffffffffffffffffffffffffffffffff167fca91b92c76087c9c2ef1e3e1caa026c5de706bdbb1c952d8404727234974707b848460405161107992919061329e565b60405180910390a2505050565b6000815183511461109a57600090506110ec565b816040516020016110ab9190613311565b60405160208183030381529060405280519060200120836040516020016110d29190613311565b604051602081830303815290604052805190602001201490505b92915050565b600760009054906101000a900473ffffffffffffffffffffffffffffffffffffffff1681565b6000600760009054906101000a900473ffffffffffffffffffffffffffffffffffffffff1673ffffffffffffffffffffffffffffffffffffffff163373ffffffffffffffffffffffffffffffffffffffff1614905090565b60056000868152602001908152602001600020600a0160009054906101000a900473ffffffffffffffffffffffffffffffffffffffff1673ffffffffffffffffffffffffffffffffffffffff163373ffffffffffffffffffffffffffffffffffffffff16141561123a57600060018111156111ee576111ed612663565b5b60ff168460ff1614611235576040517f08c379a000000000000000000000000000000000000000000000000000000000815260040161122c90613374565b60405180910390fd5b61139a565b60018081111561124d5761124c612663565b5b60ff168460ff1614611294576040517f08c379a000000000000000000000000000000000000000000000000000000000815260040161128b906133e0565b60405180910390fd5b6000805b6005600088815260200190815260200160002060050180549050811015611357576005600088815260200190815260200160002060050181815481106112e1576112e0613400565b5b9060005260206000200160009054906101000a900473ffffffffffffffffffffffffffffffffffffffff1673ffffffffffffffffffffffffffffffffffffffff163373ffffffffffffffffffffffffffffffffffffffff16141561134457600191505b808061134f9061342f565b915050611298565b5080611398576040517f08c379a000000000000000000000000000000000000000000000000000000000815260040161138f906134c4565b60405180910390fd5b505b600660008681526020019081526020016000206040518060a001604052808660ff1681526020018581526020013373ffffffffffffffffffffffffffffffffffffffff16815260200184815260200183815250908060018154018082558091505060019003906000526020600020906005020160009091909190915060008201518160000155602082015181600101908051906020019061143c929190611e4a565b5060408201518160020160006101000a81548173ffffffffffffffffffffffffffffffffffffffff021916908373ffffffffffffffffffffffffffffffffffffffff16021790555060608201518160030190805190602001906114a0929190611e4a565b5060808201518160040190805190602001906114bd929190611e4a565b5050505050505050565b606060066000838152602001908152602001600020805480602002602001604051908101604052809291908181526020016000905b8282101561174457838290600052602060002090600502016040518060a001604052908160008201548152602001600182018054611539906130e2565b80601f0160208091040260200160405190810160405280929190818152602001828054611565906130e2565b80156115b25780601f10611587576101008083540402835291602001916115b2565b820191906000526020600020905b81548152906001019060200180831161159557829003601f168201915b505050505081526020016002820160009054906101000a900473ffffffffffffffffffffffffffffffffffffffff1673ffffffffffffffffffffffffffffffffffffffff1673ffffffffffffffffffffffffffffffffffffffff168152602001600382018054611621906130e2565b80601f016020809104026020016040519081016040528092919081815260200182805461164d906130e2565b801561169a5780601f1061166f5761010080835404028352916020019161169a565b820191906000526020600020905b81548152906001019060200180831161167d57829003601f168201915b505050505081526020016004820180546116b3906130e2565b80601f01602080910402602001604051908101604052809291908181526020018280546116df906130e2565b801561172c5780601f106117015761010080835404028352916020019161172c565b820191906000526020600020905b81548152906001019060200180831161170f57829003601f168201915b505050505081525050815260200190600101906114fc565b505050509050919050565b81611824600460003373ffffffffffffffffffffffffffffffffffffffff1673ffffffffffffffffffffffffffffffffffffffff16815260200190815260200160002060000180546117a0906130e2565b80601f01602080910402602001604051908101604052809291908181526020018280546117cc906130e2565b80156118195780601f106117ee57610100808354040283529160200191611819565b820191906000526020600020905b8154815290600101906020018083116117fc57829003601f168201915b505050505082611086565b611863576040517f08c379a000000000000000000000000000000000000000000000000000000000815260040161185a90613530565b60405180910390fd5b8173ffffffffffffffffffffffffffffffffffffffff163373ffffffffffffffffffffffffffffffffffffffff1614156118d2576040517f08c379a00000000000000000000000000000000000000000000000000000000081526004016118c99061359c565b60405180910390fd5b60005b60056000868152602001908152602001600020600501805490508110156119ca578273ffffffffffffffffffffffffffffffffffffffff1660056000878152602001908152602001600020600501828154811061193557611934613400565b5b9060005260206000200160009054906101000a900473ffffffffffffffffffffffffffffffffffffffff1673ffffffffffffffffffffffffffffffffffffffff1614156119b7576040517f08c379a00000000000000000000000000000000000000000000000000000000081526004016119ae90613608565b60405180910390fd5b80806119c29061342f565b9150506118d5565b5060056000858152602001908152602001600020600501829080600181540180825580915050600190039060005260206000200160009091909190916101000a81548173ffffffffffffffffffffffffffffffffffffffff021916908373ffffffffffffffffffffffffffffffffffffffff16021790555050505050565b6060600460008373ffffffffffffffffffffffffffffffffffffffff1673ffffffffffffffffffffffffffffffffffffffff1681526020019081526020016000206000018054611a97906130e2565b80601f0160208091040260200160405190810160405280929190818152602001828054611ac3906130e2565b8015611b105780601f10611ae557610100808354040283529160200191611b10565b820191906000526020600020905b815481529060010190602001808311611af357829003601f168201915b50505050509050919050565b600254341015611b61576040517f08c379a0000000000000000000000000000000000000000000000000000000008152600401611b5890613674565b60405180910390fd5b60006001811115611b7557611b74612663565b5b6005600083815260200190815260200160002060060160009054906101000a900460ff166001811115611bab57611baa612663565b5b14611beb576040517f08c379a0000000000000000000000000000000000000000000000000000000008152600401611be2906136e0565b60405180910390fd5b6005600082815260200190815260200160002060070154600560008381526020019081526020016000206005018054905010611c5c576040517f08c379a0000000000000000000000000000000000000000000000000000000008152600401611c539061374c565b60405180910390fd5b60056000828152602001908152602001600020600a0160009054906101000a900473ffffffffffffffffffffffffffffffffffffffff1673ffffffffffffffffffffffffffffffffffffffff163373ffffffffffffffffffffffffffffffffffffffff161415611d01576040517f08c379a0000000000000000000000000000000000000000000000000000000008152600401611cf8906137b8565b60405180910390fd5b60056000828152602001908152602001600020600501339080600181540180825580915050600190039060005260206000200160009091909190916101000a81548173ffffffffffffffffffffffffffffffffffffffff021916908373ffffffffffffffffffffffffffffffffffffffff16021790555050565b8060038190555050565b611e1d8282604051602401611d9b9291906137d8565b6040516020818303038152906040527f9710a9d0000000000000000000000000000000000000000000000000000000007bffffffffffffffffffffffffffffffffffffffffffffffffffffffff19166020820180517bffffffffffffffffffffffffffffffffffffffffffffffffffffffff8381831617835250505050611e21565b5050565b60008151905060006a636f6e736f6c652e6c6f679050602083016000808483855afa5050505050565b828054611e56906130e2565b90600052602060002090601f016020900481019282611e785760008555611ebf565b82601f10611e9157805160ff1916838001178555611ebf565b82800160010185558215611ebf579182015b82811115611ebe578251825591602001919060010190611ea3565b5b509050611ecc9190612074565b5090565b828054828255906000526020600020908101928215611f49579160200282015b82811115611f485782518260006101000a81548173ffffffffffffffffffffffffffffffffffffffff021916908373ffffffffffffffffffffffffffffffffffffffff16021790555091602001919060010190611ef0565b5b509050611f569190612074565b5090565b828054828255906000526020600020908101928215611fa9579160200282015b82811115611fa8578251829080519060200190611f98929190611e4a565b5091602001919060010190611f7a565b5b509050611fb69190612091565b5090565b60405180610160016040528060608152602001600081526020016000815260200160008152602001600015158152602001606081526020016000600181111561200657612005612663565b5b8152602001600081526020016060815260200160608152602001600073ffffffffffffffffffffffffffffffffffffffff1681525090565b6040518060c001604052806060815260200160608152602001606081526020016000815260200160008152602001606081525090565b5b8082111561208d576000816000905550600101612075565b5090565b5b808211156120b157600081816120a891906120b5565b50600101612092565b5090565b5080546120c1906130e2565b6000825580601f106120d357506120f2565b601f0160209004906000526020600020908101906120f19190612074565b5b50565b6000819050919050565b612108816120f5565b82525050565b600060208201905061212360008301846120ff565b92915050565b6000604051905090565b600080fd5b600080fd5b600080fd5b600080fd5b6000601f19601f8301169050919050565b7f4e487b7100000000000000000000000000000000000000000000000000000000600052604160045260246000fd5b61219082612147565b810181811067ffffffffffffffff821117156121af576121ae612158565b5b80604052505050565b60006121c2612129565b90506121ce8282612187565b919050565b600067ffffffffffffffff8211156121ee576121ed612158565b5b6121f782612147565b9050602081019050919050565b82818337600083830152505050565b6000612226612221846121d3565b6121b8565b90508281526020810184848401111561224257612241612142565b5b61224d848285612204565b509392505050565b600082601f83011261226a5761226961213d565b5b813561227a848260208601612213565b91505092915050565b61228c816120f5565b811461229757600080fd5b50565b6000813590506122a981612283565b92915050565b600281106122bc57600080fd5b50565b6000813590506122ce816122af565b92915050565b600067ffffffffffffffff8211156122ef576122ee612158565b5b602082029050602081019050919050565b600080fd5b6000612318612313846122d4565b6121b8565b9050808382526020820190506020840283018581111561233b5761233a612300565b5b835b8181101561238257803567ffffffffffffffff8111156123605761235f61213d565b5b80860161236d8982612255565b8552602085019450505060208101905061233d565b5050509392505050565b600082601f8301126123a1576123a061213d565b5b81356123b1848260208601612305565b91505092915050565b600080600080600080600060e0888a0312156123d9576123d8612133565b5b600088013567ffffffffffffffff8111156123f7576123f6612138565b5b6124038a828b01612255565b97505060206124148a828b0161229a565b96505060406124258a828b0161229a565b95505060606124368a828b0161229a565b94505060806124478a828b016122bf565b93505060a06124588a828b0161229a565b92505060c088013567ffffffffffffffff81111561247957612478612138565b5b6124858a828b0161238c565b91505092959891949750929550565b6000602082840312156124aa576124a9612133565b5b60006124b88482850161229a565b91505092915050565b600081519050919050565b600082825260208201905092915050565b60005b838110156124fb5780820151818401526020810190506124e0565b8381111561250a576000848401525b50505050565b600061251b826124c1565b61252581856124cc565b93506125358185602086016124dd565b61253e81612147565b840191505092915050565b612552816120f5565b82525050565b60008115159050919050565b61256d81612558565b82525050565b600081519050919050565b600082825260208201905092915050565b6000819050602082019050919050565b600073ffffffffffffffffffffffffffffffffffffffff82169050919050565b60006125ca8261259f565b9050919050565b6125da816125bf565b82525050565b60006125ec83836125d1565b60208301905092915050565b6000602082019050919050565b600061261082612573565b61261a818561257e565b93506126258361258f565b8060005b8381101561265657815161263d88826125e0565b9750612648836125f8565b925050600181019050612629565b5085935050505092915050565b7f4e487b7100000000000000000000000000000000000000000000000000000000600052602160045260246000fd5b600281106126a3576126a2612663565b5b50565b60008190506126b482612692565b919050565b60006126c4826126a6565b9050919050565b6126d4816126b9565b82525050565b600081519050919050565b600082825260208201905092915050565b6000819050602082019050919050565b60006127128383612510565b905092915050565b6000602082019050919050565b6000612732826126da565b61273c81856126e5565b93508360208202850161274e856126f6565b8060005b8581101561278a578484038952815161276b8582612706565b94506127768361271a565b925060208a01995050600181019050612752565b50829750879550505050505092915050565b60006101608301600083015184820360008601526127ba8282612510565b91505060208301516127cf6020860182612549565b5060408301516127e26040860182612549565b5060608301516127f56060860182612549565b5060808301516128086080860182612564565b5060a083015184820360a08601526128208282612605565b91505060c083015161283560c08601826126cb565b5060e083015161284860e0860182612549565b506101008301518482036101008601526128628282612727565b91505061012083015184820361012086015261287e8282612605565b9150506101408301516128956101408601826125d1565b508091505092915050565b600060208201905081810360008301526128ba818461279c565b905092915050565b6128cb816126b9565b82525050565b60006040820190506128e660008301856128c2565b6128f360208301846128c2565b9392505050565b612903816125bf565b811461290e57600080fd5b50565b600081359050612920816128fa565b92915050565b60006020828403121561293c5761293b612133565b5b600061294a84828501612911565b91505092915050565b600081519050919050565b600082825260208201905092915050565b6000819050602082019050919050565b600061298b8383612549565b60208301905092915050565b6000602082019050919050565b60006129af82612953565b6129b9818561295e565b93506129c48361296f565b8060005b838110156129f55781516129dc888261297f565b97506129e783612997565b9250506001810190506129c8565b5085935050505092915050565b600060c0830160008301518482036000860152612a1f8282612510565b91505060208301518482036020860152612a398282612510565b91505060408301518482036040860152612a538282612510565b9150506060830151612a686060860182612549565b506080830151612a7b6080860182612549565b5060a083015184820360a0860152612a9382826129a4565b9150508091505092915050565b60006020820190508181036000830152612aba8184612a02565b905092915050565b600080600060608486031215612adb57612ada612133565b5b600084013567ffffffffffffffff811115612af957612af8612138565b5b612b0586828701612255565b935050602084013567ffffffffffffffff811115612b2657612b25612138565b5b612b3286828701612255565b925050604084013567ffffffffffffffff811115612b5357612b52612138565b5b612b5f86828701612255565b9150509250925092565b60008060408385031215612b8057612b7f612133565b5b600083013567ffffffffffffffff811115612b9e57612b9d612138565b5b612baa85828601612255565b925050602083013567ffffffffffffffff811115612bcb57612bca612138565b5b612bd785828601612255565b9150509250929050565b612bea81612558565b82525050565b6000602082019050612c056000830184612be1565b92915050565b6000612c168261259f565b9050919050565b612c2681612c0b565b82525050565b6000602082019050612c416000830184612c1d565b92915050565b600060ff82169050919050565b612c5d81612c47565b8114612c6857600080fd5b50565b600081359050612c7a81612c54565b92915050565b600080600080600060a08688031215612c9c57612c9b612133565b5b6000612caa8882890161229a565b9550506020612cbb88828901612c6b565b945050604086013567ffffffffffffffff811115612cdc57612cdb612138565b5b612ce888828901612255565b935050606086013567ffffffffffffffff811115612d0957612d08612138565b5b612d1588828901612255565b925050608086013567ffffffffffffffff811115612d3657612d35612138565b5b612d4288828901612255565b9150509295509295909350565b600081519050919050565b600082825260208201905092915050565b6000819050602082019050919050565b600060a083016000830151612d936000860182612549565b5060208301518482036020860152612dab8282612510565b9150506040830151612dc060408601826125d1565b5060608301518482036060860152612dd88282612510565b91505060808301518482036080860152612df28282612510565b9150508091505092915050565b6000612e0b8383612d7b565b905092915050565b6000602082019050919050565b6000612e2b82612d4f565b612e358185612d5a565b935083602082028501612e4785612d6b565b8060005b85811015612e835784840389528151612e648582612dff565b9450612e6f83612e13565b925060208a01995050600181019050612e4b565b50829750879550505050505092915050565b60006020820190508181036000830152612eaf8184612e20565b905092915050565b600080600060608486031215612ed057612ecf612133565b5b6000612ede8682870161229a565b935050602084013567ffffffffffffffff811115612eff57612efe612138565b5b612f0b86828701612255565b9250506040612f1c86828701612911565b9150509250925092565b600082825260208201905092915050565b6000612f42826124c1565b612f4c8185612f26565b9350612f5c8185602086016124dd565b612f6581612147565b840191505092915050565b60006020820190508181036000830152612f8a8184612f37565b905092915050565b7f616464726573735f6e6f745f61646d696e000000000000000000000000000000600082015250565b6000612fc8601183612f26565b9150612fd382612f92565b602082019050919050565b60006020820190508181036000830152612ff781612fbb565b9050919050565b600060408201905061301360008301856120ff565b81810360208301526130258184612f37565b90509392505050565b7f4e487b7100000000000000000000000000000000000000000000000000000000600052601160045260246000fd5b6000613068826120f5565b9150613073836120f5565b9250827fffffffffffffffffffffffffffffffffffffffffffffffffffffffffffffffff038211156130a8576130a761302e565b5b828201905092915050565b7f4e487b7100000000000000000000000000000000000000000000000000000000600052602260045260246000fd5b600060028204905060018216806130fa57607f821691505b6020821081141561310e5761310d6130b3565b5b50919050565b7f4f6e6c795f6f776e65725f616c6c6f775f776974686472617700000000000000600082015250565b600061314a601983612f26565b915061315582613114565b602082019050919050565b600060208201905081810360008301526131798161313d565b9050919050565b600081905092915050565b50565b600061319b600083613180565b91506131a68261318b565b600082019050919050565b60006131bc8261318e565b9150819050919050565b7f4661696c656420746f2077697468647261772062616c616e6365000000000000600082015250565b60006131fc601a83612f26565b9150613207826131c6565b602082019050919050565b6000602082019050818103600083015261322b816131ef565b9050919050565b7f496e73756666696369656e745f7061796d656e74000000000000000000000000600082015250565b6000613268601483612f26565b915061327382613232565b602082019050919050565b600060208201905081810360008301526132978161325b565b9050919050565b600060408201905081810360008301526132b88185612f37565b905081810360208301526132cc8184612f37565b90509392505050565b600081905092915050565b60006132eb826124c1565b6132f581856132d5565b93506133058185602086016124dd565b80840191505092915050565b600061331d82846132e0565b915081905092915050565b7f6973737565725f6261645f646f63747970650000000000000000000000000000600082015250565b600061335e601283612f26565b915061336982613328565b602082019050919050565b6000602082019050818103600083015261338d81613351565b9050919050565b7f7061727469636970616e745f6261645f646f6374797065000000000000000000600082015250565b60006133ca601783612f26565b91506133d582613394565b602082019050919050565b600060208201905081810360008301526133f9816133bd565b9050919050565b7f4e487b7100000000000000000000000000000000000000000000000000000000600052603260045260246000fd5b600061343a826120f5565b91507fffffffffffffffffffffffffffffffffffffffffffffffffffffffffffffffff82141561346d5761346c61302e565b5b600182019050919050565b7f6e6f745f7061727469636970616e740000000000000000000000000000000000600082015250565b60006134ae600f83612f26565b91506134b982613478565b602082019050919050565b600060208201905081810360008301526134dd816134a1565b9050919050565b7f4f6e6c795f61646d696e5f63616e5f706572666f726d00000000000000000000600082015250565b600061351a601683612f26565b9150613525826134e4565b602082019050919050565b600060208201905081810360008301526135498161350d565b9050919050565b7f63616e5f6e6f745f696e766974655f73656c6600000000000000000000000000600082015250565b6000613586601383612f26565b915061359182613550565b602082019050919050565b600060208201905081810360008301526135b581613579565b9050919050565b7f616c72656164795f70617274696369706174696e670000000000000000000000600082015250565b60006135f2601583612f26565b91506135fd826135bc565b602082019050919050565b60006020820190508181036000830152613621816135e5565b9050919050565b7f496e73756666696369656e745f7061796d656e745f6665650000000000000000600082015250565b600061365e601883612f26565b915061366982613628565b602082019050919050565b6000602082019050818103600083015261368d81613651565b9050919050565b7f6e6f745f6f70656e5f74656e6465720000000000000000000000000000000000600082015250565b60006136ca600f83612f26565b91506136d582613694565b602082019050919050565b600060208201905081810360008301526136f9816136bd565b9050919050565b7f6d61785f7061727469636970616e74735f726561636865640000000000000000600082015250565b6000613736601883612f26565b915061374182613700565b602082019050919050565b6000602082019050818103600083015261376581613729565b9050919050565b7f63616e5f6e6f745f72656769737465725f73656c660000000000000000000000600082015250565b60006137a2601583612f26565b91506137ad8261376c565b602082019050919050565b600060208201905081810360008301526137d181613795565b9050919050565b600060408201905081810360008301526137f28185612f37565b905061380160208301846120ff565b939250505056fea26469706673582212209745ab3760eb1775b1e1bbe4130fcc496af8a0a40c510f708757b67200be967964736f6c63430008090033",
  "linkReferences": {},
  "deployedLinkReferences": {}
}