{
  "_format": "hh-sol-artifact-1",
  "contractName": "pro_pon",
  "sourceName": "contracts/pro-pon.sol",
  "abi": [
    {
      "inputs": [],
      "stateMutability": "payable",
      "type": "constructor"
    },
    {
      "anonymous": false,
      "inputs": [
        {
          "indexed": true,
          "internalType": "address",
          "name": "sender",
          "type": "address"
        },
        {
          "indexed": false,
          "internalType": "string",
          "name": "id",
          "type": "string"
        },
        {
          "indexed": false,
          "internalType": "string",
          "name": "name",
          "type": "string"
        }
      ],
      "name": "NewCompanyCreated",
      "type": "event"
    },
    {
      "anonymous": false,
      "inputs": [
        {
          "indexed": true,
          "internalType": "address",
          "name": "sender",
          "type": "address"
        },
        {
          "indexed": false,
          "internalType": "uint256",
          "name": "id",
          "type": "uint256"
        },
        {
          "indexed": false,
          "internalType": "string",
          "name": "name",
          "type": "string"
        }
      ],
      "name": "NewRFPCreated",
      "type": "event"
    },
    {
      "inputs": [
        {
          "internalType": "uint256",
          "name": "_rfpIdx",
          "type": "uint256"
        },
        {
          "internalType": "uint8",
          "name": "_docType",
          "type": "uint8"
        },
        {
          "internalType": "string",
          "name": "_name",
          "type": "string"
        },
        {
          "internalType": "string",
          "name": "_documentHash",
          "type": "string"
        },
        {
          "internalType": "string",
          "name": "_path",
          "type": "string"
        }
      ],
      "name": "addDocument",
      "outputs": [],
      "stateMutability": "nonpayable",
      "type": "function"
    },
    {
      "inputs": [
        {
          "internalType": "string",
          "name": "_id",
          "type": "string"
        },
        {
          "internalType": "string",
          "name": "_name",
          "type": "string"
        },
        {
          "internalType": "string",
          "name": "_country",
          "type": "string"
        }
      ],
      "name": "createCompany",
      "outputs": [],
      "stateMutability": "payable",
      "type": "function"
    },
    {
      "inputs": [
        {
          "internalType": "string",
          "name": "_name",
          "type": "string"
        },
        {
          "internalType": "uint256",
          "name": "_openDate",
          "type": "uint256"
        },
        {
          "internalType": "uint256",
          "name": "_endReceivingDate",
          "type": "uint256"
        },
        {
          "internalType": "uint256",
          "name": "_endDate",
          "type": "uint256"
        },
        {
          "internalType": "enum pro_pon.ContestType",
          "name": "_contestType",
          "type": "uint8"
        },
        {
          "internalType": "string[]",
          "name": "_items",
          "type": "string[]"
        }
      ],
      "name": "createRFP",
      "outputs": [],
      "stateMutability": "payable",
      "type": "function"
    },
    {
      "inputs": [
        {
          "internalType": "string",
          "name": "a",
          "type": "string"
        },
        {
          "internalType": "string",
          "name": "b",
          "type": "string"
        }
      ],
      "name": "equals",
      "outputs": [
        {
          "internalType": "bool",
          "name": "",
          "type": "bool"
        }
      ],
      "stateMutability": "pure",
      "type": "function"
    },
    {
      "inputs": [
        {
          "internalType": "address",
          "name": "admin",
          "type": "address"
        }
      ],
      "name": "getCompany",
      "outputs": [
        {
          "components": [
            {
              "internalType": "string",
              "name": "id",
              "type": "string"
            },
            {
              "internalType": "string",
              "name": "name",
              "type": "string"
            },
            {
              "internalType": "string",
              "name": "country",
              "type": "string"
            },
            {
              "internalType": "uint256",
              "name": "RFPSent",
              "type": "uint256"
            },
            {
              "internalType": "uint256",
              "name": "RPFsWon",
              "type": "uint256"
            },
            {
              "internalType": "uint256[]",
              "name": "company_RFPs",
              "type": "uint256[]"
            }
          ],
          "internalType": "struct pro_pon.Company",
          "name": "",
          "type": "tuple"
        }
      ],
      "stateMutability": "view",
      "type": "function"
    },
    {
      "inputs": [
        {
          "internalType": "address",
          "name": "admin",
          "type": "address"
        }
      ],
      "name": "getCompanyId",
      "outputs": [
        {
          "internalType": "string",
          "name": "companyId",
          "type": "string"
        }
      ],
      "stateMutability": "view",
      "type": "function"
    },
    {
      "inputs": [
        {
          "internalType": "uint256",
          "name": "_rfpIdx",
          "type": "uint256"
        }
      ],
      "name": "getDocumentsfromRFP",
      "outputs": [
        {
          "components": [
            {
              "internalType": "uint256",
              "name": "docType",
              "type": "uint256"
            },
            {
              "internalType": "string",
              "name": "name",
              "type": "string"
            },
            {
              "internalType": "address",
              "name": "owner",
              "type": "address"
            },
            {
              "internalType": "string",
              "name": "documentHash",
              "type": "string"
            },
            {
              "internalType": "string",
              "name": "path",
              "type": "string"
            }
          ],
          "internalType": "struct pro_pon.Document[]",
          "name": "",
          "type": "tuple[]"
        }
      ],
      "stateMutability": "view",
      "type": "function"
    },
    {
      "inputs": [
        {
          "internalType": "uint256",
          "name": "_rfpId",
          "type": "uint256"
        }
      ],
      "name": "getRFPbyIndex",
      "outputs": [
        {
          "components": [
            {
              "internalType": "string",
              "name": "name",
              "type": "string"
            },
            {
              "internalType": "uint256",
              "name": "openDate",
              "type": "uint256"
            },
            {
              "internalType": "uint256",
              "name": "endReceivingDate",
              "type": "uint256"
            },
            {
              "internalType": "uint256",
              "name": "endDate",
              "type": "uint256"
            },
            {
              "internalType": "bool",
              "name": "canceled",
              "type": "bool"
            },
            {
              "internalType": "address[]",
              "name": "participants",
              "type": "address[]"
            },
            {
              "internalType": "enum pro_pon.ContestType",
              "name": "contestType",
              "type": "uint8"
            },
            {
              "internalType": "string[]",
              "name": "items",
              "type": "string[]"
            },
            {
              "internalType": "address[]",
              "name": "winners",
              "type": "address[]"
            },
            {
              "internalType": "address",
              "name": "issuer",
              "type": "address"
            }
          ],
          "internalType": "struct pro_pon.RFP",
          "name": "",
          "type": "tuple"
        }
      ],
      "stateMutability": "view",
      "type": "function"
    },
    {
      "inputs": [],
      "name": "getcurrentRFPIdx",
      "outputs": [
        {
          "internalType": "uint256",
          "name": "",
          "type": "uint256"
        }
      ],
      "stateMutability": "view",
      "type": "function"
    },
    {
      "inputs": [
        {
          "internalType": "uint256",
          "name": "_rfpId",
          "type": "uint256"
        },
        {
          "internalType": "string",
          "name": "companyId",
          "type": "string"
        },
        {
          "internalType": "address",
          "name": "invitedCompany",
          "type": "address"
        }
      ],
      "name": "inviteCompanytoRFP",
      "outputs": [],
      "stateMutability": "nonpayable",
      "type": "function"
    },
    {
      "inputs": [],
      "name": "isOwner",
      "outputs": [
        {
          "internalType": "bool",
          "name": "",
          "type": "bool"
        }
      ],
      "stateMutability": "view",
      "type": "function"
    },
    {
      "inputs": [],
      "name": "owner",
      "outputs": [
        {
          "internalType": "address payable",
          "name": "",
          "type": "address"
        }
      ],
      "stateMutability": "view",
      "type": "function"
    },
    {
      "inputs": [
        {
          "internalType": "uint256",
          "name": "_rfpId",
          "type": "uint256"
        }
      ],
      "name": "registertoOpenRFP",
      "outputs": [],
      "stateMutability": "payable",
      "type": "function"
    },
    {
      "inputs": [],
      "name": "returnEnum",
      "outputs": [
        {
          "internalType": "enum pro_pon.ContestType",
          "name": "",
          "type": "uint8"
        },
        {
          "internalType": "enum pro_pon.ContestType",
          "name": "",
          "type": "uint8"
        }
      ],
      "stateMutability": "view",
      "type": "function"
    },
    {
      "inputs": [],
      "name": "withdraw",
      "outputs": [],
      "stateMutability": "nonpayable",
      "type": "function"
    }
  ],
  "bytecode": "0x6080604052655af3107a4000600055655af3107a4000600155655af3107a40006002556019600355600060045533600860006101000a81548173ffffffffffffffffffffffffffffffffffffffff021916908373ffffffffffffffffffffffffffffffffffffffff1602179055506138d68061007c6000396000f3fe6080604052600436106100e85760003560e01c806388d8da5f1161008a578063c649289511610059578063c6492895146102c9578063cbfaf58014610306578063d6f343c51461032f578063ed72f89f1461036c576100e8565b806388d8da5f1461020d5780638da5cb5b1461024a5780638f32d59b146102755780639c9945c0146102a0576100e8565b8063574f750a116100c6578063574f750a1461016c57806362b77e591461018857806362bc56e6146101b45780637b60626d146101f1576100e8565b80631393b9e8146100ed57806332f4b16a146101185780633ccfd60b14610155575b600080fd5b3480156100f957600080fd5b50610102610388565b60405161010f91906121d0565b60405180910390f35b34801561012457600080fd5b5061013f600480360381019061013a919061222b565b610392565b60405161014c9190612633565b60405180910390f35b34801561016157600080fd5b5061016a610711565b005b61018660048036038101906101819190612895565b61080d565b005b34801561019457600080fd5b5061019d610b97565b6040516101ab929190612969565b60405180910390f35b3480156101c057600080fd5b506101db60048036038101906101d691906129be565b610c4a565b6040516101e89190612b38565b60405180910390f35b61020b60048036038101906102069190612b5a565b610ecb565b005b34801561021957600080fd5b50610234600480360381019061022f9190612c01565b61106a565b6040516102419190612c88565b60405180910390f35b34801561025657600080fd5b5061025f6110d6565b60405161026c9190612cc4565b60405180910390f35b34801561028157600080fd5b5061028a6110fc565b6040516102979190612c88565b60405180910390f35b3480156102ac57600080fd5b506102c760048036038101906102c29190612d18565b611154565b005b3480156102d557600080fd5b506102f060048036038101906102eb919061222b565b6114ab565b6040516102fd9190612f2d565b60405180910390f35b34801561031257600080fd5b5061032d60048036038101906103289190612f4f565b611733565b005b34801561033b57600080fd5b50610356600480360381019061035191906129be565b611a2c565b6040516103639190613008565b60405180910390f35b6103866004803603810190610381919061222b565b611b00565b005b6000600454905090565b61039a611f13565b60066000838152602001908152602001600020604051806101400160405290816000820180546103c990613059565b80601f01602080910402602001604051908101604052809291908181526020018280546103f590613059565b80156104425780601f1061041757610100808354040283529160200191610442565b820191906000526020600020905b81548152906001019060200180831161042557829003601f168201915b505050505081526020016001820154815260200160028201548152602001600382015481526020016004820160009054906101000a900460ff161515151581526020016005820180548060200260200160405190810160405280929190818152602001828054801561050957602002820191906000526020600020905b8160009054906101000a900473ffffffffffffffffffffffffffffffffffffffff1673ffffffffffffffffffffffffffffffffffffffff16815260200190600101908083116104bf575b505050505081526020016006820160009054906101000a900460ff1660018111156105375761053661240b565b5b60018111156105495761054861240b565b5b815260200160078201805480602002602001604051908101604052809291908181526020016000905b8282101561061e57838290600052602060002001805461059190613059565b80601f01602080910402602001604051908101604052809291908181526020018280546105bd90613059565b801561060a5780601f106105df5761010080835404028352916020019161060a565b820191906000526020600020905b8154815290600101906020018083116105ed57829003601f168201915b505050505081526020019060010190610572565b505050508152602001600882018054806020026020016040519081016040528092919081815260200182805480156106ab57602002820191906000526020600020905b8160009054906101000a900473ffffffffffffffffffffffffffffffffffffffff1673ffffffffffffffffffffffffffffffffffffffff1681526020019060010190808311610661575b505050505081526020016009820160009054906101000a900473ffffffffffffffffffffffffffffffffffffffff1673ffffffffffffffffffffffffffffffffffffffff1673ffffffffffffffffffffffffffffffffffffffff16815250509050919050565b6107196110fc565b610758576040517f08c379a000000000000000000000000000000000000000000000000000000000815260040161074f906130d7565b60405180910390fd5b600047905060003373ffffffffffffffffffffffffffffffffffffffff168260405161078390613128565b60006040518083038185875af1925050503d80600081146107c0576040519150601f19603f3d011682016040523d82523d6000602084013e6107c5565b606091505b5050905080610809576040517f08c379a000000000000000000000000000000000000000000000000000000000815260040161080090613189565b60405180910390fd5b5050565b600061081833610c4a565b9050600081600001519050600081511415610868576040517f08c379a000000000000000000000000000000000000000000000000000000000815260040161085f906131f5565b60405180910390fd5b60006040518061014001604052808a8152602001898152602001888152602001878152602001600015158152602001600067ffffffffffffffff8111156108b2576108b161265f565b5b6040519080825280602002602001820160405280156108e05781602001602082028036833780820191505090505b5081526020018660018111156108f9576108f861240b565b5b8152602001858152602001600067ffffffffffffffff81111561091f5761091e61265f565b5b60405190808252806020026020018201604052801561094d5781602001602082028036833780820191505090505b5081526020013373ffffffffffffffffffffffffffffffffffffffff1681525090506000610979610388565b9050816006600083815260200190815260200160002060008201518160000190805190602001906109ab929190611f90565b5060208201518160010155604082015181600201556060820151816003015560808201518160040160006101000a81548160ff02191690831515021790555060a0820151816005019080519060200190610a06929190612016565b5060c08201518160060160006101000a81548160ff02191690836001811115610a3257610a3161240b565b5b021790555060e0820151816007019080519060200190610a539291906120a0565b50610100820151816008019080519060200190610a71929190612016565b506101208201518160090160006101000a81548173ffffffffffffffffffffffffffffffffffffffff021916908373ffffffffffffffffffffffffffffffffffffffff160217905550905050600560003373ffffffffffffffffffffffffffffffffffffffff1673ffffffffffffffffffffffffffffffffffffffff1681526020019081526020016000206005018190806001815401808255809150506001900390600052602060002001600090919091909150553373ffffffffffffffffffffffffffffffffffffffff167fae438a3ef380e4b013ba12bcb929a59140482304040a1d8cf54d25c8e85640e9828c604051610b6e929190613215565b60405180910390a2610b8b600182610b869190613274565b611e44565b50505050505050505050565b600080610bec6040518060400160405280601081526020017f436f6e74657374547970652e4f50454e0000000000000000000000000000000081525060006001811115610be757610be661240b565b5b611e4e565b610c3e6040518060400160405280600f81526020017f446f63547970652e52455155455354000000000000000000000000000000000081525060006001811115610c3957610c3861240b565b5b611e4e565b60006001915091509091565b610c52612100565b6000600560008473ffffffffffffffffffffffffffffffffffffffff1673ffffffffffffffffffffffffffffffffffffffff1681526020019081526020016000209050806040518060c0016040529081600082018054610cb190613059565b80601f0160208091040260200160405190810160405280929190818152602001828054610cdd90613059565b8015610d2a5780601f10610cff57610100808354040283529160200191610d2a565b820191906000526020600020905b815481529060010190602001808311610d0d57829003601f168201915b50505050508152602001600182018054610d4390613059565b80601f0160208091040260200160405190810160405280929190818152602001828054610d6f90613059565b8015610dbc5780601f10610d9157610100808354040283529160200191610dbc565b820191906000526020600020905b815481529060010190602001808311610d9f57829003601f168201915b50505050508152602001600282018054610dd590613059565b80601f0160208091040260200160405190810160405280929190818152602001828054610e0190613059565b8015610e4e5780601f10610e2357610100808354040283529160200191610e4e565b820191906000526020600020905b815481529060010190602001808311610e3157829003601f168201915b50505050508152602001600382015481526020016004820154815260200160058201805480602002602001604051908101604052809291908181526020018280548015610eba57602002820191906000526020600020905b815481526020019060010190808311610ea6575b505050505081525050915050919050565b600054341015610f10576040517f08c379a0000000000000000000000000000000000000000000000000000000008152600401610f0790613316565b60405180910390fd5b82600560003373ffffffffffffffffffffffffffffffffffffffff1673ffffffffffffffffffffffffffffffffffffffff1681526020019081526020016000206000019080519060200190610f66929190611f90565b5081600560003373ffffffffffffffffffffffffffffffffffffffff1673ffffffffffffffffffffffffffffffffffffffff1681526020019081526020016000206001019080519060200190610fbd929190611f90565b5080600560003373ffffffffffffffffffffffffffffffffffffffff1673ffffffffffffffffffffffffffffffffffffffff1681526020019081526020016000206002019080519060200190611014929190611f90565b503373ffffffffffffffffffffffffffffffffffffffff167fca91b92c76087c9c2ef1e3e1caa026c5de706bdbb1c952d8404727234974707b848460405161105d929190613336565b60405180910390a2505050565b6000815183511461107e57600090506110d0565b8160405160200161108f91906133a9565b60405160208183030381529060405280519060200120836040516020016110b691906133a9565b604051602081830303815290604052805190602001201490505b92915050565b600860009054906101000a900473ffffffffffffffffffffffffffffffffffffffff1681565b6000600860009054906101000a900473ffffffffffffffffffffffffffffffffffffffff1673ffffffffffffffffffffffffffffffffffffffff163373ffffffffffffffffffffffffffffffffffffffff1614905090565b6006600086815260200190815260200160002060090160009054906101000a900473ffffffffffffffffffffffffffffffffffffffff1673ffffffffffffffffffffffffffffffffffffffff163373ffffffffffffffffffffffffffffffffffffffff16141561121e57600060018111156111d2576111d161240b565b5b60ff168460ff1614611219576040517f08c379a00000000000000000000000000000000000000000000000000000000081526004016112109061340c565b60405180910390fd5b61137e565b6001808111156112315761123061240b565b5b60ff168460ff1614611278576040517f08c379a000000000000000000000000000000000000000000000000000000000815260040161126f90613478565b60405180910390fd5b6000805b600660008881526020019081526020016000206005018054905081101561133b576006600088815260200190815260200160002060050181815481106112c5576112c4613498565b5b9060005260206000200160009054906101000a900473ffffffffffffffffffffffffffffffffffffffff1673ffffffffffffffffffffffffffffffffffffffff163373ffffffffffffffffffffffffffffffffffffffff16141561132857600191505b8080611333906134c7565b91505061127c565b508061137c576040517f08c379a00000000000000000000000000000000000000000000000000000000081526004016113739061355c565b60405180910390fd5b505b600760008681526020019081526020016000206040518060a001604052808660ff1681526020018581526020013373ffffffffffffffffffffffffffffffffffffffff168152602001848152602001838152509080600181540180825580915050600190039060005260206000209060050201600090919091909150600082015181600001556020820151816001019080519060200190611420929190611f90565b5060408201518160020160006101000a81548173ffffffffffffffffffffffffffffffffffffffff021916908373ffffffffffffffffffffffffffffffffffffffff1602179055506060820151816003019080519060200190611484929190611f90565b5060808201518160040190805190602001906114a1929190611f90565b5050505050505050565b606060076000838152602001908152602001600020805480602002602001604051908101604052809291908181526020016000905b8282101561172857838290600052602060002090600502016040518060a00160405290816000820154815260200160018201805461151d90613059565b80601f016020809104026020016040519081016040528092919081815260200182805461154990613059565b80156115965780601f1061156b57610100808354040283529160200191611596565b820191906000526020600020905b81548152906001019060200180831161157957829003601f168201915b505050505081526020016002820160009054906101000a900473ffffffffffffffffffffffffffffffffffffffff1673ffffffffffffffffffffffffffffffffffffffff1673ffffffffffffffffffffffffffffffffffffffff16815260200160038201805461160590613059565b80601f016020809104026020016040519081016040528092919081815260200182805461163190613059565b801561167e5780601f106116535761010080835404028352916020019161167e565b820191906000526020600020905b81548152906001019060200180831161166157829003601f168201915b5050505050815260200160048201805461169790613059565b80601f01602080910402602001604051908101604052809291908181526020018280546116c390613059565b80156117105780601f106116e557610100808354040283529160200191611710565b820191906000526020600020905b8154815290600101906020018083116116f357829003601f168201915b505050505081525050815260200190600101906114e0565b505050509050919050565b81611808600560003373ffffffffffffffffffffffffffffffffffffffff1673ffffffffffffffffffffffffffffffffffffffff168152602001908152602001600020600001805461178490613059565b80601f01602080910402602001604051908101604052809291908181526020018280546117b090613059565b80156117fd5780601f106117d2576101008083540402835291602001916117fd565b820191906000526020600020905b8154815290600101906020018083116117e057829003601f168201915b50505050508261106a565b611847576040517f08c379a000000000000000000000000000000000000000000000000000000000815260040161183e906135c8565b60405180910390fd5b8173ffffffffffffffffffffffffffffffffffffffff163373ffffffffffffffffffffffffffffffffffffffff1614156118b6576040517f08c379a00000000000000000000000000000000000000000000000000000000081526004016118ad90613634565b60405180910390fd5b60005b60066000868152602001908152602001600020600501805490508110156119ae578273ffffffffffffffffffffffffffffffffffffffff1660066000878152602001908152602001600020600501828154811061191957611918613498565b5b9060005260206000200160009054906101000a900473ffffffffffffffffffffffffffffffffffffffff1673ffffffffffffffffffffffffffffffffffffffff16141561199b576040517f08c379a0000000000000000000000000000000000000000000000000000000008152600401611992906136a0565b60405180910390fd5b80806119a6906134c7565b9150506118b9565b5060066000858152602001908152602001600020600501829080600181540180825580915050600190039060005260206000200160009091909190916101000a81548173ffffffffffffffffffffffffffffffffffffffff021916908373ffffffffffffffffffffffffffffffffffffffff16021790555050505050565b6060600560008373ffffffffffffffffffffffffffffffffffffffff1673ffffffffffffffffffffffffffffffffffffffff1681526020019081526020016000206000018054611a7b90613059565b80601f0160208091040260200160405190810160405280929190818152602001828054611aa790613059565b8015611af45780601f10611ac957610100808354040283529160200191611af4565b820191906000526020600020905b815481529060010190602001808311611ad757829003601f168201915b50505050509050919050565b600254341015611b45576040517f08c379a0000000000000000000000000000000000000000000000000000000008152600401611b3c9061370c565b60405180910390fd5b60006001811115611b5957611b5861240b565b5b6006600083815260200190815260200160002060060160009054906101000a900460ff166001811115611b8f57611b8e61240b565b5b14611bcf576040517f08c379a0000000000000000000000000000000000000000000000000000000008152600401611bc690613778565b60405180910390fd5b600354600660008381526020019081526020016000206005018054905010611c2c576040517f08c379a0000000000000000000000000000000000000000000000000000000008152600401611c23906137e4565b60405180910390fd5b6006600082815260200190815260200160002060090160009054906101000a900473ffffffffffffffffffffffffffffffffffffffff1673ffffffffffffffffffffffffffffffffffffffff163373ffffffffffffffffffffffffffffffffffffffff161415611cd1576040517f08c379a0000000000000000000000000000000000000000000000000000000008152600401611cc890613850565b60405180910390fd5b60005b6006600083815260200190815260200160002060050180549050811015611dc9573373ffffffffffffffffffffffffffffffffffffffff16600660008481526020019081526020016000206005018281548110611d3457611d33613498565b5b9060005260206000200160009054906101000a900473ffffffffffffffffffffffffffffffffffffffff1673ffffffffffffffffffffffffffffffffffffffff161415611db6576040517f08c379a0000000000000000000000000000000000000000000000000000000008152600401611dad906136a0565b60405180910390fd5b8080611dc1906134c7565b915050611cd4565b5060066000828152602001908152602001600020600501339080600181540180825580915050600190039060005260206000200160009091909190916101000a81548173ffffffffffffffffffffffffffffffffffffffff021916908373ffffffffffffffffffffffffffffffffffffffff16021790555050565b8060048190555050565b611ee68282604051602401611e64929190613870565b6040516020818303038152906040527f9710a9d0000000000000000000000000000000000000000000000000000000007bffffffffffffffffffffffffffffffffffffffffffffffffffffffff19166020820180517bffffffffffffffffffffffffffffffffffffffffffffffffffffffff8381831617835250505050611eea565b5050565b60008151905060006a636f6e736f6c652e6c6f679050602083016000808483855afa5050505050565b604051806101400160405280606081526020016000815260200160008152602001600081526020016000151581526020016060815260200160006001811115611f5f57611f5e61240b565b5b81526020016060815260200160608152602001600073ffffffffffffffffffffffffffffffffffffffff1681525090565b828054611f9c90613059565b90600052602060002090601f016020900481019282611fbe5760008555612005565b82601f10611fd757805160ff1916838001178555612005565b82800160010185558215612005579182015b82811115612004578251825591602001919060010190611fe9565b5b5090506120129190612136565b5090565b82805482825590600052602060002090810192821561208f579160200282015b8281111561208e5782518260006101000a81548173ffffffffffffffffffffffffffffffffffffffff021916908373ffffffffffffffffffffffffffffffffffffffff16021790555091602001919060010190612036565b5b50905061209c9190612136565b5090565b8280548282559060005260206000209081019282156120ef579160200282015b828111156120ee5782518290805190602001906120de929190611f90565b50916020019190600101906120c0565b5b5090506120fc9190612153565b5090565b6040518060c001604052806060815260200160608152602001606081526020016000815260200160008152602001606081525090565b5b8082111561214f576000816000905550600101612137565b5090565b5b80821115612173576000818161216a9190612177565b50600101612154565b5090565b50805461218390613059565b6000825580601f1061219557506121b4565b601f0160209004906000526020600020908101906121b39190612136565b5b50565b6000819050919050565b6121ca816121b7565b82525050565b60006020820190506121e560008301846121c1565b92915050565b6000604051905090565b600080fd5b600080fd5b612208816121b7565b811461221357600080fd5b50565b600081359050612225816121ff565b92915050565b600060208284031215612241576122406121f5565b5b600061224f84828501612216565b91505092915050565b600081519050919050565b600082825260208201905092915050565b60005b83811015612292578082015181840152602081019050612277565b838111156122a1576000848401525b50505050565b6000601f19601f8301169050919050565b60006122c382612258565b6122cd8185612263565b93506122dd818560208601612274565b6122e6816122a7565b840191505092915050565b6122fa816121b7565b82525050565b60008115159050919050565b61231581612300565b82525050565b600081519050919050565b600082825260208201905092915050565b6000819050602082019050919050565b600073ffffffffffffffffffffffffffffffffffffffff82169050919050565b600061237282612347565b9050919050565b61238281612367565b82525050565b60006123948383612379565b60208301905092915050565b6000602082019050919050565b60006123b88261231b565b6123c28185612326565b93506123cd83612337565b8060005b838110156123fe5781516123e58882612388565b97506123f0836123a0565b9250506001810190506123d1565b5085935050505092915050565b7f4e487b7100000000000000000000000000000000000000000000000000000000600052602160045260246000fd5b6002811061244b5761244a61240b565b5b50565b600081905061245c8261243a565b919050565b600061246c8261244e565b9050919050565b61247c81612461565b82525050565b600081519050919050565b600082825260208201905092915050565b6000819050602082019050919050565b60006124ba83836122b8565b905092915050565b6000602082019050919050565b60006124da82612482565b6124e4818561248d565b9350836020820285016124f68561249e565b8060005b85811015612532578484038952815161251385826124ae565b945061251e836124c2565b925060208a019950506001810190506124fa565b50829750879550505050505092915050565b600061014083016000830151848203600086015261256282826122b8565b915050602083015161257760208601826122f1565b50604083015161258a60408601826122f1565b50606083015161259d60608601826122f1565b5060808301516125b0608086018261230c565b5060a083015184820360a08601526125c882826123ad565b91505060c08301516125dd60c0860182612473565b5060e083015184820360e08601526125f582826124cf565b91505061010083015184820361010086015261261182826123ad565b915050610120830151612628610120860182612379565b508091505092915050565b6000602082019050818103600083015261264d8184612544565b905092915050565b600080fd5b600080fd5b7f4e487b7100000000000000000000000000000000000000000000000000000000600052604160045260246000fd5b612697826122a7565b810181811067ffffffffffffffff821117156126b6576126b561265f565b5b80604052505050565b60006126c96121eb565b90506126d5828261268e565b919050565b600067ffffffffffffffff8211156126f5576126f461265f565b5b6126fe826122a7565b9050602081019050919050565b82818337600083830152505050565b600061272d612728846126da565b6126bf565b9050828152602081018484840111156127495761274861265a565b5b61275484828561270b565b509392505050565b600082601f83011261277157612770612655565b5b813561278184826020860161271a565b91505092915050565b6002811061279757600080fd5b50565b6000813590506127a98161278a565b92915050565b600067ffffffffffffffff8211156127ca576127c961265f565b5b602082029050602081019050919050565b600080fd5b60006127f36127ee846127af565b6126bf565b90508083825260208201905060208402830185811115612816576128156127db565b5b835b8181101561285d57803567ffffffffffffffff81111561283b5761283a612655565b5b808601612848898261275c565b85526020850194505050602081019050612818565b5050509392505050565b600082601f83011261287c5761287b612655565b5b813561288c8482602086016127e0565b91505092915050565b60008060008060008060c087890312156128b2576128b16121f5565b5b600087013567ffffffffffffffff8111156128d0576128cf6121fa565b5b6128dc89828a0161275c565b96505060206128ed89828a01612216565b95505060406128fe89828a01612216565b945050606061290f89828a01612216565b935050608061292089828a0161279a565b92505060a087013567ffffffffffffffff811115612941576129406121fa565b5b61294d89828a01612867565b9150509295509295509295565b61296381612461565b82525050565b600060408201905061297e600083018561295a565b61298b602083018461295a565b9392505050565b61299b81612367565b81146129a657600080fd5b50565b6000813590506129b881612992565b92915050565b6000602082840312156129d4576129d36121f5565b5b60006129e2848285016129a9565b91505092915050565b600081519050919050565b600082825260208201905092915050565b6000819050602082019050919050565b6000612a2383836122f1565b60208301905092915050565b6000602082019050919050565b6000612a47826129eb565b612a5181856129f6565b9350612a5c83612a07565b8060005b83811015612a8d578151612a748882612a17565b9750612a7f83612a2f565b925050600181019050612a60565b5085935050505092915050565b600060c0830160008301518482036000860152612ab782826122b8565b91505060208301518482036020860152612ad182826122b8565b91505060408301518482036040860152612aeb82826122b8565b9150506060830151612b0060608601826122f1565b506080830151612b1360808601826122f1565b5060a083015184820360a0860152612b2b8282612a3c565b9150508091505092915050565b60006020820190508181036000830152612b528184612a9a565b905092915050565b600080600060608486031215612b7357612b726121f5565b5b600084013567ffffffffffffffff811115612b9157612b906121fa565b5b612b9d8682870161275c565b935050602084013567ffffffffffffffff811115612bbe57612bbd6121fa565b5b612bca8682870161275c565b925050604084013567ffffffffffffffff811115612beb57612bea6121fa565b5b612bf78682870161275c565b9150509250925092565b60008060408385031215612c1857612c176121f5565b5b600083013567ffffffffffffffff811115612c3657612c356121fa565b5b612c428582860161275c565b925050602083013567ffffffffffffffff811115612c6357612c626121fa565b5b612c6f8582860161275c565b9150509250929050565b612c8281612300565b82525050565b6000602082019050612c9d6000830184612c79565b92915050565b6000612cae82612347565b9050919050565b612cbe81612ca3565b82525050565b6000602082019050612cd96000830184612cb5565b92915050565b600060ff82169050919050565b612cf581612cdf565b8114612d0057600080fd5b50565b600081359050612d1281612cec565b92915050565b600080600080600060a08688031215612d3457612d336121f5565b5b6000612d4288828901612216565b9550506020612d5388828901612d03565b945050604086013567ffffffffffffffff811115612d7457612d736121fa565b5b612d808882890161275c565b935050606086013567ffffffffffffffff811115612da157612da06121fa565b5b612dad8882890161275c565b925050608086013567ffffffffffffffff811115612dce57612dcd6121fa565b5b612dda8882890161275c565b9150509295509295909350565b600081519050919050565b600082825260208201905092915050565b6000819050602082019050919050565b600060a083016000830151612e2b60008601826122f1565b5060208301518482036020860152612e4382826122b8565b9150506040830151612e586040860182612379565b5060608301518482036060860152612e7082826122b8565b91505060808301518482036080860152612e8a82826122b8565b9150508091505092915050565b6000612ea38383612e13565b905092915050565b6000602082019050919050565b6000612ec382612de7565b612ecd8185612df2565b935083602082028501612edf85612e03565b8060005b85811015612f1b5784840389528151612efc8582612e97565b9450612f0783612eab565b925060208a01995050600181019050612ee3565b50829750879550505050505092915050565b60006020820190508181036000830152612f478184612eb8565b905092915050565b600080600060608486031215612f6857612f676121f5565b5b6000612f7686828701612216565b935050602084013567ffffffffffffffff811115612f9757612f966121fa565b5b612fa38682870161275c565b9250506040612fb4868287016129a9565b9150509250925092565b600082825260208201905092915050565b6000612fda82612258565b612fe48185612fbe565b9350612ff4818560208601612274565b612ffd816122a7565b840191505092915050565b600060208201905081810360008301526130228184612fcf565b905092915050565b7f4e487b7100000000000000000000000000000000000000000000000000000000600052602260045260246000fd5b6000600282049050600182168061307157607f821691505b602082108114156130855761308461302a565b5b50919050565b7f4f6e6c795f6f776e65725f616c6c6f775f776974686472617700000000000000600082015250565b60006130c1601983612fbe565b91506130cc8261308b565b602082019050919050565b600060208201905081810360008301526130f0816130b4565b9050919050565b600081905092915050565b50565b60006131126000836130f7565b915061311d82613102565b600082019050919050565b600061313382613105565b9150819050919050565b7f4661696c656420746f2077697468647261772062616c616e6365000000000000600082015250565b6000613173601a83612fbe565b915061317e8261313d565b602082019050919050565b600060208201905081810360008301526131a281613166565b9050919050565b7f616464726573735f6e6f745f61646d696e000000000000000000000000000000600082015250565b60006131df601183612fbe565b91506131ea826131a9565b602082019050919050565b6000602082019050818103600083015261320e816131d2565b9050919050565b600060408201905061322a60008301856121c1565b818103602083015261323c8184612fcf565b90509392505050565b7f4e487b7100000000000000000000000000000000000000000000000000000000600052601160045260246000fd5b600061327f826121b7565b915061328a836121b7565b9250827fffffffffffffffffffffffffffffffffffffffffffffffffffffffffffffffff038211156132bf576132be613245565b5b828201905092915050565b7f496e73756666696369656e745f7061796d656e74000000000000000000000000600082015250565b6000613300601483612fbe565b915061330b826132ca565b602082019050919050565b6000602082019050818103600083015261332f816132f3565b9050919050565b600060408201905081810360008301526133508185612fcf565b905081810360208301526133648184612fcf565b90509392505050565b600081905092915050565b600061338382612258565b61338d818561336d565b935061339d818560208601612274565b80840191505092915050565b60006133b58284613378565b915081905092915050565b7f6973737565725f6261645f646f63747970650000000000000000000000000000600082015250565b60006133f6601283612fbe565b9150613401826133c0565b602082019050919050565b60006020820190508181036000830152613425816133e9565b9050919050565b7f7061727469636970616e745f6261645f646f6374797065000000000000000000600082015250565b6000613462601783612fbe565b915061346d8261342c565b602082019050919050565b6000602082019050818103600083015261349181613455565b9050919050565b7f4e487b7100000000000000000000000000000000000000000000000000000000600052603260045260246000fd5b60006134d2826121b7565b91507fffffffffffffffffffffffffffffffffffffffffffffffffffffffffffffffff82141561350557613504613245565b5b600182019050919050565b7f6e6f745f7061727469636970616e740000000000000000000000000000000000600082015250565b6000613546600f83612fbe565b915061355182613510565b602082019050919050565b6000602082019050818103600083015261357581613539565b9050919050565b7f4f6e6c795f61646d696e5f63616e5f706572666f726d00000000000000000000600082015250565b60006135b2601683612fbe565b91506135bd8261357c565b602082019050919050565b600060208201905081810360008301526135e1816135a5565b9050919050565b7f63616e5f6e6f745f696e766974655f73656c6600000000000000000000000000600082015250565b600061361e601383612fbe565b9150613629826135e8565b602082019050919050565b6000602082019050818103600083015261364d81613611565b9050919050565b7f616c72656164795f70617274696369706174696e670000000000000000000000600082015250565b600061368a601583612fbe565b915061369582613654565b602082019050919050565b600060208201905081810360008301526136b98161367d565b9050919050565b7f496e73756666696369656e745f7061796d656e745f6665650000000000000000600082015250565b60006136f6601883612fbe565b9150613701826136c0565b602082019050919050565b60006020820190508181036000830152613725816136e9565b9050919050565b7f6e6f745f6f70656e5f74656e6465720000000000000000000000000000000000600082015250565b6000613762600f83612fbe565b915061376d8261372c565b602082019050919050565b6000602082019050818103600083015261379181613755565b9050919050565b7f6d61785f7061727469636970616e74735f726561636865640000000000000000600082015250565b60006137ce601883612fbe565b91506137d982613798565b602082019050919050565b600060208201905081810360008301526137fd816137c1565b9050919050565b7f63616e5f6e6f745f72656769737465725f73656c660000000000000000000000600082015250565b600061383a601583612fbe565b915061384582613804565b602082019050919050565b600060208201905081810360008301526138698161382d565b9050919050565b6000604082019050818103600083015261388a8185612fcf565b905061389960208301846121c1565b939250505056fea2646970667358221220ae3186349cae7d34df6aa0540b8b9a12b5c2cf3b70ff9e9b5fdebd2cce28719764736f6c63430008090033",
  "linkReferences": {},
  "deployedLinkReferences": {}
}