{
  "_format": "hh-sol-artifact-1",
  "contractName": "pro_pon",
  "sourceName": "contracts/pro-pon.sol",
  "abi": [
    {
      "inputs": [],
      "stateMutability": "payable",
      "type": "constructor"
    },
    {
      "anonymous": false,
      "inputs": [
        {
          "indexed": true,
          "internalType": "address",
          "name": "sender",
          "type": "address"
        },
        {
          "indexed": false,
          "internalType": "string",
          "name": "id",
          "type": "string"
        },
        {
          "indexed": false,
          "internalType": "string",
          "name": "name",
          "type": "string"
        }
      ],
      "name": "NewCompanyCreated",
      "type": "event"
    },
    {
      "anonymous": false,
      "inputs": [
        {
          "indexed": true,
          "internalType": "address",
          "name": "sender",
          "type": "address"
        },
        {
          "indexed": false,
          "internalType": "uint256",
          "name": "id",
          "type": "uint256"
        },
        {
          "indexed": false,
          "internalType": "string",
          "name": "name",
          "type": "string"
        }
      ],
      "name": "NewRFPCreated",
      "type": "event"
    },
    {
      "inputs": [],
      "name": "CREATE_COMPANY_PRICE",
      "outputs": [
        {
          "internalType": "uint256",
          "name": "",
          "type": "uint256"
        }
      ],
      "stateMutability": "view",
      "type": "function"
    },
    {
      "inputs": [],
      "name": "CREATE_INVITATION_RFP_PRICE",
      "outputs": [
        {
          "internalType": "uint256",
          "name": "",
          "type": "uint256"
        }
      ],
      "stateMutability": "view",
      "type": "function"
    },
    {
      "inputs": [],
      "name": "CREATE_OPEN_RFP_PRICE",
      "outputs": [
        {
          "internalType": "uint256",
          "name": "",
          "type": "uint256"
        }
      ],
      "stateMutability": "view",
      "type": "function"
    },
    {
      "inputs": [],
      "name": "MAX_GUEST_INVITATION_TENDER",
      "outputs": [
        {
          "internalType": "uint256",
          "name": "",
          "type": "uint256"
        }
      ],
      "stateMutability": "view",
      "type": "function"
    },
    {
      "inputs": [],
      "name": "MAX_GUEST_OPEN_TENDER",
      "outputs": [
        {
          "internalType": "uint256",
          "name": "",
          "type": "uint256"
        }
      ],
      "stateMutability": "view",
      "type": "function"
    },
    {
      "inputs": [],
      "name": "REGISTER_OPEN_RFP_PRICE",
      "outputs": [
        {
          "internalType": "uint256",
          "name": "",
          "type": "uint256"
        }
      ],
      "stateMutability": "view",
      "type": "function"
    },
    {
      "inputs": [
        {
          "internalType": "uint256",
          "name": "_rfpIdx",
          "type": "uint256"
        },
        {
          "internalType": "uint8[]",
          "name": "_docTypes",
          "type": "uint8[]"
        },
        {
          "internalType": "string[]",
          "name": "_names",
          "type": "string[]"
        },
        {
          "internalType": "string[]",
          "name": "_documentHashes",
          "type": "string[]"
        },
        {
          "internalType": "string[]",
          "name": "_idxs",
          "type": "string[]"
        }
      ],
      "name": "addDocuments",
      "outputs": [],
      "stateMutability": "nonpayable",
      "type": "function"
    },
    {
      "inputs": [
        {
          "internalType": "string",
          "name": "_string",
          "type": "string"
        },
        {
          "internalType": "address",
          "name": "_address",
          "type": "address"
        }
      ],
      "name": "concatStringAndAddress",
      "outputs": [
        {
          "internalType": "bytes32",
          "name": "",
          "type": "bytes32"
        }
      ],
      "stateMutability": "pure",
      "type": "function"
    },
    {
      "inputs": [
        {
          "internalType": "string",
          "name": "_id",
          "type": "string"
        },
        {
          "internalType": "string",
          "name": "_name",
          "type": "string"
        },
        {
          "internalType": "string",
          "name": "_country",
          "type": "string"
        }
      ],
      "name": "createCompany",
      "outputs": [],
      "stateMutability": "payable",
      "type": "function"
    },
    {
      "inputs": [
        {
          "internalType": "string",
          "name": "_name",
          "type": "string"
        },
        {
          "internalType": "string",
          "name": "_description",
          "type": "string"
        },
        {
          "internalType": "string",
          "name": "_rfpwebsite",
          "type": "string"
        },
        {
          "internalType": "uint256",
          "name": "_openDate",
          "type": "uint256"
        },
        {
          "internalType": "uint256",
          "name": "_endReceivingDate",
          "type": "uint256"
        },
        {
          "internalType": "uint256",
          "name": "_endDate",
          "type": "uint256"
        },
        {
          "internalType": "enum pro_pon.ContestType",
          "name": "_contestType",
          "type": "uint8"
        },
        {
          "internalType": "string[]",
          "name": "_items",
          "type": "string[]"
        }
      ],
      "name": "createRFP",
      "outputs": [],
      "stateMutability": "payable",
      "type": "function"
    },
    {
      "inputs": [
        {
          "internalType": "uint256",
          "name": "_rfpIndex",
          "type": "uint256"
        },
        {
          "internalType": "string",
          "name": "_companyId",
          "type": "string"
        },
        {
          "internalType": "address[]",
          "name": "winners",
          "type": "address[]"
        }
      ],
      "name": "declareWinners",
      "outputs": [],
      "stateMutability": "nonpayable",
      "type": "function"
    },
    {
      "inputs": [],
      "name": "destroy",
      "outputs": [],
      "stateMutability": "nonpayable",
      "type": "function"
    },
    {
      "inputs": [
        {
          "internalType": "address",
          "name": "admin",
          "type": "address"
        }
      ],
      "name": "getCompany",
      "outputs": [
        {
          "components": [
            {
              "internalType": "string",
              "name": "id",
              "type": "string"
            },
            {
              "internalType": "string",
              "name": "name",
              "type": "string"
            },
            {
              "internalType": "string",
              "name": "country",
              "type": "string"
            },
            {
              "internalType": "uint256",
              "name": "RFPSent",
              "type": "uint256"
            },
            {
              "internalType": "uint256[]",
              "name": "RFPsWins",
              "type": "uint256[]"
            },
            {
              "internalType": "uint256[]",
              "name": "company_RFPs",
              "type": "uint256[]"
            }
          ],
          "internalType": "struct pro_pon.Company",
          "name": "",
          "type": "tuple"
        }
      ],
      "stateMutability": "view",
      "type": "function"
    },
    {
      "inputs": [
        {
          "internalType": "address",
          "name": "admin",
          "type": "address"
        }
      ],
      "name": "getCompanyId",
      "outputs": [
        {
          "internalType": "string",
          "name": "companyId",
          "type": "string"
        }
      ],
      "stateMutability": "view",
      "type": "function"
    },
    {
      "inputs": [
        {
          "internalType": "address",
          "name": "account",
          "type": "address"
        }
      ],
      "name": "getCompanyRFPs",
      "outputs": [
        {
          "internalType": "uint256[]",
          "name": "",
          "type": "uint256[]"
        }
      ],
      "stateMutability": "view",
      "type": "function"
    },
    {
      "inputs": [],
      "name": "getCompanyWins",
      "outputs": [
        {
          "internalType": "uint256[]",
          "name": "",
          "type": "uint256[]"
        }
      ],
      "stateMutability": "view",
      "type": "function"
    },
    {
      "inputs": [],
      "name": "getCreateCompanyPrice",
      "outputs": [
        {
          "internalType": "uint256",
          "name": "",
          "type": "uint256"
        }
      ],
      "stateMutability": "view",
      "type": "function"
    },
    {
      "inputs": [],
      "name": "getCreateInvitationRfpPrice",
      "outputs": [
        {
          "internalType": "uint256",
          "name": "",
          "type": "uint256"
        }
      ],
      "stateMutability": "view",
      "type": "function"
    },
    {
      "inputs": [],
      "name": "getCreateOpenRfpPrice",
      "outputs": [
        {
          "internalType": "uint256",
          "name": "",
          "type": "uint256"
        }
      ],
      "stateMutability": "view",
      "type": "function"
    },
    {
      "inputs": [
        {
          "internalType": "uint256",
          "name": "_rfpIdx",
          "type": "uint256"
        }
      ],
      "name": "getDocumentsfromRFP",
      "outputs": [
        {
          "components": [
            {
              "internalType": "uint256",
              "name": "docType",
              "type": "uint256"
            },
            {
              "internalType": "string",
              "name": "name",
              "type": "string"
            },
            {
              "internalType": "address",
              "name": "owner",
              "type": "address"
            },
            {
              "internalType": "string",
              "name": "documentHash",
              "type": "string"
            },
            {
              "internalType": "string",
              "name": "idx",
              "type": "string"
            }
          ],
          "internalType": "struct pro_pon.Document[]",
          "name": "",
          "type": "tuple[]"
        }
      ],
      "stateMutability": "view",
      "type": "function"
    },
    {
      "inputs": [],
      "name": "getMaxGuestOpenTender",
      "outputs": [
        {
          "internalType": "uint256",
          "name": "",
          "type": "uint256"
        }
      ],
      "stateMutability": "view",
      "type": "function"
    },
    {
      "inputs": [
        {
          "internalType": "uint256",
          "name": "_rfpId",
          "type": "uint256"
        }
      ],
      "name": "getRFPbyIndex",
      "outputs": [
        {
          "components": [
            {
              "internalType": "string",
              "name": "name",
              "type": "string"
            },
            {
              "internalType": "string",
              "name": "description",
              "type": "string"
            },
            {
              "internalType": "uint256",
              "name": "rfpIndex",
              "type": "uint256"
            },
            {
              "internalType": "string",
              "name": "rfpwebsite",
              "type": "string"
            },
            {
              "internalType": "uint256",
              "name": "openDate",
              "type": "uint256"
            },
            {
              "internalType": "uint256",
              "name": "endReceivingDate",
              "type": "uint256"
            },
            {
              "internalType": "uint256",
              "name": "endDate",
              "type": "uint256"
            },
            {
              "internalType": "bool",
              "name": "canceled",
              "type": "bool"
            },
            {
              "internalType": "address[]",
              "name": "participants",
              "type": "address[]"
            },
            {
              "internalType": "enum pro_pon.ContestType",
              "name": "contestType",
              "type": "uint8"
            },
            {
              "internalType": "string[]",
              "name": "items",
              "type": "string[]"
            },
            {
              "internalType": "address[]",
              "name": "winners",
              "type": "address[]"
            },
            {
              "internalType": "address",
              "name": "issuer",
              "type": "address"
            }
          ],
          "internalType": "struct pro_pon.RFP",
          "name": "",
          "type": "tuple"
        }
      ],
      "stateMutability": "view",
      "type": "function"
    },
    {
      "inputs": [],
      "name": "getRegisterOpenRfpPrice",
      "outputs": [
        {
          "internalType": "uint256",
          "name": "",
          "type": "uint256"
        }
      ],
      "stateMutability": "view",
      "type": "function"
    },
    {
      "inputs": [
        {
          "internalType": "uint256",
          "name": "_rfpIndex",
          "type": "uint256"
        }
      ],
      "name": "getWinners",
      "outputs": [
        {
          "internalType": "address[]",
          "name": "",
          "type": "address[]"
        }
      ],
      "stateMutability": "view",
      "type": "function"
    },
    {
      "inputs": [],
      "name": "getcurrentRFPIdx",
      "outputs": [
        {
          "internalType": "uint256",
          "name": "",
          "type": "uint256"
        }
      ],
      "stateMutability": "view",
      "type": "function"
    },
    {
      "inputs": [
        {
          "internalType": "uint256",
          "name": "_rfpId",
          "type": "uint256"
        },
        {
          "internalType": "string",
          "name": "companyId",
          "type": "string"
        },
        {
          "internalType": "address[]",
          "name": "invitedCompanies",
          "type": "address[]"
        }
      ],
      "name": "inviteCompaniestoRFP",
      "outputs": [],
      "stateMutability": "nonpayable",
      "type": "function"
    },
    {
      "inputs": [
        {
          "internalType": "address[]",
          "name": "container",
          "type": "address[]"
        },
        {
          "internalType": "address",
          "name": "tocheck",
          "type": "address"
        }
      ],
      "name": "isContainedAddress",
      "outputs": [
        {
          "internalType": "bool",
          "name": "",
          "type": "bool"
        }
      ],
      "stateMutability": "pure",
      "type": "function"
    },
    {
      "inputs": [],
      "name": "isOwner",
      "outputs": [
        {
          "internalType": "bool",
          "name": "",
          "type": "bool"
        }
      ],
      "stateMutability": "view",
      "type": "function"
    },
    {
      "inputs": [],
      "name": "owner",
      "outputs": [
        {
          "internalType": "address payable",
          "name": "",
          "type": "address"
        }
      ],
      "stateMutability": "view",
      "type": "function"
    },
    {
      "inputs": [
        {
          "internalType": "uint256",
          "name": "_rfpId",
          "type": "uint256"
        }
      ],
      "name": "registertoOpenRFP",
      "outputs": [],
      "stateMutability": "payable",
      "type": "function"
    },
    {
      "inputs": [
        {
          "internalType": "uint256",
          "name": "newprice",
          "type": "uint256"
        }
      ],
      "name": "setCreateCompanyPrice",
      "outputs": [],
      "stateMutability": "nonpayable",
      "type": "function"
    },
    {
      "inputs": [
        {
          "internalType": "uint256",
          "name": "price",
          "type": "uint256"
        }
      ],
      "name": "setCreateInvitationRfpPrice",
      "outputs": [],
      "stateMutability": "nonpayable",
      "type": "function"
    },
    {
      "inputs": [
        {
          "internalType": "uint256",
          "name": "price",
          "type": "uint256"
        }
      ],
      "name": "setCreateOpenRfpPrice",
      "outputs": [],
      "stateMutability": "nonpayable",
      "type": "function"
    },
    {
      "inputs": [
        {
          "internalType": "uint256",
          "name": "MaxGuest",
          "type": "uint256"
        }
      ],
      "name": "setMaxGuestOpenTender",
      "outputs": [],
      "stateMutability": "nonpayable",
      "type": "function"
    },
    {
      "inputs": [
        {
          "internalType": "uint256",
          "name": "price",
          "type": "uint256"
        }
      ],
      "name": "setRegisterOpenRfpPrice",
      "outputs": [],
      "stateMutability": "nonpayable",
      "type": "function"
    },
    {
      "inputs": [],
      "name": "withdraw",
      "outputs": [],
      "stateMutability": "nonpayable",
      "type": "function"
    }
  ],
  "bytecode": "0x6080604052655af3107a4000600055655af3107a400060015565b5e620f48000600255655af3107a4000600355600a600455600a600555600060065533600b60006101000a81548173ffffffffffffffffffffffffffffffffffffffff021916908373ffffffffffffffffffffffffffffffffffffffff160217905550615c8f8061008b6000396000f3fe60806040526004361061020f5760003560e01c80637b60626d11610118578063c6492895116100a0578063ea1b4b1d1161006f578063ea1b4b1d14610787578063ecbb7b4a146107b0578063ed72f89f146107db578063f1e60d2b146107f7578063fb720761146108205761020f565b8063c6492895146106b9578063d6f343c5146106f6578063d7a8529e14610733578063da2e18601461075c5761020f565b806390646692116100e757806390646692146105e2578063ad26a9ad1461060d578063afeff8d914610638578063b929e7d914610663578063be38013b1461068e5761020f565b80637b60626d1461055957806383197ef0146105755780638da5cb5b1461058c5780638f32d59b146105b75761020f565b8063482baf931161019b5780635b6a96dc1161016a5780635b6a96dc1461043c5780635d9c47f51461047957806362bc56e6146104a257806367aabb1a146104df5780636b1426a41461051c5761020f565b8063482baf93146103945780634ccba247146103bd5780634e289b88146103e65780635a6167c9146104115761020f565b80632d714f23116101e25780632d714f23146102af578063325236fe146102ec57806332f4b16a146103175780633ccfd60b14610354578063466c51fc1461036b5761020f565b80630a2a406c146102145780630adc596e1461023d5780631393b9e814610259578063215cf05d14610284575b600080fd5b34801561022057600080fd5b5061023b60048036038101906102369190613e66565b61084b565b005b61025760048036038101906102529190613f76565b610d2a565b005b34801561026557600080fd5b5061026e6112ec565b60405161027b91906140ab565b60405180910390f35b34801561029057600080fd5b506102996112f6565b6040516102a691906140ab565b60405180910390f35b3480156102bb57600080fd5b506102d660048036038101906102d19190614124565b6112fc565b6040516102e39190614199565b60405180910390f35b3480156102f857600080fd5b50610301611347565b60405161030e91906140ab565b60405180910390f35b34801561032357600080fd5b5061033e600480360381019061033991906141b4565b611351565b60405161034b91906145c6565b60405180910390f35b34801561036057600080fd5b506103696117fe565b005b34801561037757600080fd5b50610392600480360381019061038d91906141b4565b6118fa565b005b3480156103a057600080fd5b506103bb60048036038101906103b691906146ab565b61194b565b005b3480156103c957600080fd5b506103e460048036038101906103df91906141b4565b611df3565b005b3480156103f257600080fd5b506103fb611e44565b60405161040891906140ab565b60405180910390f35b34801561041d57600080fd5b50610426611e4a565b60405161043391906140ab565b60405180910390f35b34801561044857600080fd5b50610463600480360381019061045e9190614736565b611e50565b60405161047091906147a1565b60405180910390f35b34801561048557600080fd5b506104a0600480360381019061049b91906141b4565b611ed8565b005b3480156104ae57600080fd5b506104c960048036038101906104c491906147bc565b611f29565b6040516104d6919061493d565b60405180910390f35b3480156104eb57600080fd5b50610506600480360381019061050191906147bc565b6121f2565b60405161051391906149ce565b60405180910390f35b34801561052857600080fd5b50610543600480360381019061053e91906141b4565b61228c565b6040516105509190614a5f565b60405180910390f35b610573600480360381019061056e9190614a81565b612330565b005b34801561058157600080fd5b5061058a612686565b005b34801561059857600080fd5b506105a1612708565b6040516105ae9190614b49565b60405180910390f35b3480156105c357600080fd5b506105cc61272e565b6040516105d991906147a1565b60405180910390f35b3480156105ee57600080fd5b506105f7612786565b60405161060491906140ab565b60405180910390f35b34801561061957600080fd5b50610622612790565b60405161062f91906140ab565b60405180910390f35b34801561064457600080fd5b5061064d61279a565b60405161065a91906140ab565b60405180910390f35b34801561066f57600080fd5b506106786127a0565b60405161068591906140ab565b60405180910390f35b34801561069a57600080fd5b506106a36127aa565b6040516106b091906140ab565b60405180910390f35b3480156106c557600080fd5b506106e060048036038101906106db91906141b4565b6127b0565b6040516106ed9190614caa565b60405180910390f35b34801561070257600080fd5b5061071d600480360381019061071891906147bc565b612a38565b60405161072a9190614d16565b60405180910390f35b34801561073f57600080fd5b5061075a600480360381019061075591906141b4565b612b0c565b005b34801561076857600080fd5b50610771612b5d565b60405161077e91906140ab565b60405180910390f35b34801561079357600080fd5b506107ae60048036038101906107a991906141b4565b612b66565b005b3480156107bc57600080fd5b506107c5612bb7565b6040516107d291906140ab565b60405180910390f35b6107f560048036038101906107f091906141b4565b612bbd565b005b34801561080357600080fd5b5061081e600480360381019061081991906146ab565b612f01565b005b34801561082c57600080fd5b5061083561366e565b60405161084291906149ce565b60405180910390f35b600060096000878152602001908152602001600020600c0160009054906101000a900473ffffffffffffffffffffffffffffffffffffffff1673ffffffffffffffffffffffffffffffffffffffff163373ffffffffffffffffffffffffffffffffffffffff16149050806109c3576000805b60096000898152602001908152602001600020600801805490508110156109805760096000898152602001908152602001600020600801818154811061090657610905614d38565b5b9060005260206000200160009054906101000a900473ffffffffffffffffffffffffffffffffffffffff1673ffffffffffffffffffffffffffffffffffffffff163373ffffffffffffffffffffffffffffffffffffffff16141561096d5760019150610980565b808061097890614d96565b9150506108bd565b50806109c1576040517f08c379a00000000000000000000000000000000000000000000000000000000081526004016109b890614e2b565b60405180910390fd5b505b6000805b85518160ff161015610d2057600060078111156109e7576109e6614351565b5b60ff16878260ff1681518110610a00576109ff614d38565b5b602002602001015160ff161480610a4c575060016007811115610a2657610a25614351565b5b60ff16878260ff1681518110610a3f57610a3e614d38565b5b602002602001015160ff16145b80610a8c575060026007811115610a6657610a65614351565b5b60ff16878260ff1681518110610a7f57610a7e614d38565b5b602002602001015160ff16145b91508215610ad95781610ad4576040517f08c379a0000000000000000000000000000000000000000000000000000000008152600401610acb90614e97565b60405180910390fd5b610b73565b8115610b1a576040517f08c379a0000000000000000000000000000000000000000000000000000000008152600401610b1190614f03565b60405180910390fd5b42600960008a81526020019081526020016000206005015411610b72576040517f08c379a0000000000000000000000000000000000000000000000000000000008152600401610b6990614f6f565b60405180910390fd5b5b600a60008981526020019081526020016000206040518060a00160405280898460ff1681518110610ba757610ba6614d38565b5b602002602001015160ff168152602001888460ff1681518110610bcd57610bcc614d38565b5b602002602001015181526020013373ffffffffffffffffffffffffffffffffffffffff168152602001878460ff1681518110610c0c57610c0b614d38565b5b60200260200101518152602001868460ff1681518110610c2f57610c2e614d38565b5b60200260200101518152509080600181540180825580915050600190039060005260206000209060050201600090919091909150600082015181600001556020820151816001019080519060200190610c8992919061383b565b5060408201518160020160006101000a81548173ffffffffffffffffffffffffffffffffffffffff021916908373ffffffffffffffffffffffffffffffffffffffff1602179055506060820151816003019080519060200190610ced92919061383b565b506080820151816004019080519060200190610d0a92919061383b565b5050508080610d1890614f8f565b9150506109c7565b5050505050505050565b6000610d3689336112fc565b9050600c600082815260200190815260200160002060009054906101000a900460ff1615610d99576040517f08c379a0000000000000000000000000000000000000000000000000000000008152600401610d9090615005565b60405180910390fd5b60006001811115610dad57610dac614351565b5b836001811115610dc057610dbf614351565b5b1415610e1057600154341015610e0b576040517f08c379a0000000000000000000000000000000000000000000000000000000008152600401610e0290615071565b60405180910390fd5b610e56565b600254341015610e55576040517f08c379a0000000000000000000000000000000000000000000000000000000008152600401610e4c90615071565b60405180910390fd5b5b6000610e6133611f29565b9050600081600001519050600081511415610eb1576040517f08c379a0000000000000000000000000000000000000000000000000000000008152600401610ea8906150dd565b60405180910390fd5b868810610ef3576040517f08c379a0000000000000000000000000000000000000000000000000000000008152600401610eea90615149565b60405180910390fd5b858710610f35576040517f08c379a0000000000000000000000000000000000000000000000000000000008152600401610f2c906151b5565b60405180910390fd5b6000610f3f6112ec565b90506000604051806101a001604052808e81526020018d81526020018381526020018c81526020018b81526020018a8152602001898152602001600015158152602001600067ffffffffffffffff811115610f9d57610f9c613b54565b5b604051908082528060200260200182016040528015610fcb5781602001602082028036833780820191505090505b508152602001886001811115610fe457610fe3614351565b5b8152602001878152602001600067ffffffffffffffff81111561100a57611009613b54565b5b6040519080825280602002602001820160405280156110385781602001602082028036833780820191505090505b5081526020013373ffffffffffffffffffffffffffffffffffffffff1681525090506001600c600087815260200190815260200160002060006101000a81548160ff021916908315150217905550806009600084815260200190815260200160002060008201518160000190805190602001906110b692919061383b565b5060208201518160010190805190602001906110d392919061383b565b506040820151816002015560608201518160030190805190602001906110fa92919061383b565b506080820151816004015560a0820151816005015560c0820151816006015560e08201518160070160006101000a81548160ff0219169083151502179055506101008201518160080190805190602001906111569291906138c1565b506101208201518160090160006101000a81548160ff0219169083600181111561118357611182614351565b5b021790555061014082015181600a0190805190602001906111a592919061394b565b5061016082015181600b0190805190602001906111c39291906138c1565b5061018082015181600c0160006101000a81548173ffffffffffffffffffffffffffffffffffffffff021916908373ffffffffffffffffffffffffffffffffffffffff160217905550905050600760003373ffffffffffffffffffffffffffffffffffffffff1673ffffffffffffffffffffffffffffffffffffffff1681526020019081526020016000206005018290806001815401808255809150506001900390600052602060002001600090919091909150553373ffffffffffffffffffffffffffffffffffffffff167fae438a3ef380e4b013ba12bcb929a59140482304040a1d8cf54d25c8e85640e9838f6040516112c09291906151d5565b60405180910390a26112dd6001836112d89190615205565b613706565b50505050505050505050505050565b6000600654905090565b60005481565b600080838051906020012090506000818460405160200161131e9291906152c4565b604051602081830303815290604052905060008180519060200120905080935050505092915050565b6000600454905090565b6113596139ab565b60096000838152602001908152602001600020604051806101a00160405290816000820180546113889061531f565b80601f01602080910402602001604051908101604052809291908181526020018280546113b49061531f565b80156114015780601f106113d657610100808354040283529160200191611401565b820191906000526020600020905b8154815290600101906020018083116113e457829003601f168201915b5050505050815260200160018201805461141a9061531f565b80601f01602080910402602001604051908101604052809291908181526020018280546114469061531f565b80156114935780601f1061146857610100808354040283529160200191611493565b820191906000526020600020905b81548152906001019060200180831161147657829003601f168201915b50505050508152602001600282015481526020016003820180546114b69061531f565b80601f01602080910402602001604051908101604052809291908181526020018280546114e29061531f565b801561152f5780601f106115045761010080835404028352916020019161152f565b820191906000526020600020905b81548152906001019060200180831161151257829003601f168201915b505050505081526020016004820154815260200160058201548152602001600682015481526020016007820160009054906101000a900460ff16151515158152602001600882018054806020026020016040519081016040528092919081815260200182805480156115f657602002820191906000526020600020905b8160009054906101000a900473ffffffffffffffffffffffffffffffffffffffff1673ffffffffffffffffffffffffffffffffffffffff16815260200190600101908083116115ac575b505050505081526020016009820160009054906101000a900460ff16600181111561162457611623614351565b5b600181111561163657611635614351565b5b8152602001600a8201805480602002602001604051908101604052809291908181526020016000905b8282101561170b57838290600052602060002001805461167e9061531f565b80601f01602080910402602001604051908101604052809291908181526020018280546116aa9061531f565b80156116f75780601f106116cc576101008083540402835291602001916116f7565b820191906000526020600020905b8154815290600101906020018083116116da57829003601f168201915b50505050508152602001906001019061165f565b505050508152602001600b820180548060200260200160405190810160405280929190818152602001828054801561179857602002820191906000526020600020905b8160009054906101000a900473ffffffffffffffffffffffffffffffffffffffff1673ffffffffffffffffffffffffffffffffffffffff168152602001906001019080831161174e575b50505050508152602001600c820160009054906101000a900473ffffffffffffffffffffffffffffffffffffffff1673ffffffffffffffffffffffffffffffffffffffff1673ffffffffffffffffffffffffffffffffffffffff16815250509050919050565b61180661272e565b611845576040517f08c379a000000000000000000000000000000000000000000000000000000000815260040161183c9061539d565b60405180910390fd5b600047905060003373ffffffffffffffffffffffffffffffffffffffff1682604051611870906153ee565b60006040518083038185875af1925050503d80600081146118ad576040519150601f19603f3d011682016040523d82523d6000602084013e6118b2565b606091505b50509050806118f6576040517f08c379a00000000000000000000000000000000000000000000000000000000081526004016118ed9061544f565b60405180910390fd5b5050565b61190261272e565b611941576040517f08c379a00000000000000000000000000000000000000000000000000000000081526004016119389061539d565b60405180910390fd5b8060008190555050565b81611a20600760003373ffffffffffffffffffffffffffffffffffffffff1673ffffffffffffffffffffffffffffffffffffffff168152602001908152602001600020600001805461199c9061531f565b80601f01602080910402602001604051908101604052809291908181526020018280546119c89061531f565b8015611a155780601f106119ea57610100808354040283529160200191611a15565b820191906000526020600020905b8154815290600101906020018083116119f857829003601f168201915b505050505082613710565b611a5f576040517f08c379a0000000000000000000000000000000000000000000000000000000008152600401611a56906154bb565b60405180910390fd5b833373ffffffffffffffffffffffffffffffffffffffff1660096000838152602001908152602001600020600c0160009054906101000a900473ffffffffffffffffffffffffffffffffffffffff1673ffffffffffffffffffffffffffffffffffffffff1614611b04576040517f08c379a0000000000000000000000000000000000000000000000000000000008152600401611afb90615527565b60405180910390fd5b600180811115611b1757611b16614351565b5b6009600087815260200190815260200160002060090160009054906101000a900460ff166001811115611b4d57611b4c614351565b5b14611b8d576040517f08c379a0000000000000000000000000000000000000000000000000000000008152600401611b8490615593565b60405180910390fd5b60055483516009600088815260200190815260200160002060080180549050611bb69190615205565b1115611bf7576040517f08c379a0000000000000000000000000000000000000000000000000000000008152600401611bee906155ff565b60405180910390fd5b60005b8351811015611deb57600060019050848281518110611c1c57611c1b614d38565b5b602002602001015173ffffffffffffffffffffffffffffffffffffffff163373ffffffffffffffffffffffffffffffffffffffff161415611c5d5750611dd8565b60005b6009600089815260200190815260200160002060080180549050811015611d3d57858381518110611c9457611c93614d38565b5b602002602001015173ffffffffffffffffffffffffffffffffffffffff16600960008a81526020019081526020016000206008018281548110611cda57611cd9614d38565b5b9060005260206000200160009054906101000a900473ffffffffffffffffffffffffffffffffffffffff1673ffffffffffffffffffffffffffffffffffffffff161415611d2a5760009150611d3d565b8080611d3590614d96565b915050611c60565b508015611dd65760096000888152602001908152602001600020600801858381518110611d6d57611d6c614d38565b5b60200260200101519080600181540180825580915050600190039060005260206000200160009091909190916101000a81548173ffffffffffffffffffffffffffffffffffffffff021916908373ffffffffffffffffffffffffffffffffffffffff1602179055505b505b8080611de390614d96565b915050611bfa565b505050505050565b611dfb61272e565b611e3a576040517f08c379a0000000000000000000000000000000000000000000000000000000008152600401611e319061539d565b60405180910390fd5b8060048190555050565b60015481565b60055481565b600080600090505b8351811015611ecc578273ffffffffffffffffffffffffffffffffffffffff16848281518110611e8b57611e8a614d38565b5b602002602001015173ffffffffffffffffffffffffffffffffffffffff161415611eb9576001915050611ed2565b8080611ec490614d96565b915050611e58565b50600090505b92915050565b611ee061272e565b611f1f576040517f08c379a0000000000000000000000000000000000000000000000000000000008152600401611f169061539d565b60405180910390fd5b8060018190555050565b611f31613a3d565b600760008373ffffffffffffffffffffffffffffffffffffffff1673ffffffffffffffffffffffffffffffffffffffff1681526020019081526020016000206040518060c0016040529081600082018054611f8b9061531f565b80601f0160208091040260200160405190810160405280929190818152602001828054611fb79061531f565b80156120045780601f10611fd957610100808354040283529160200191612004565b820191906000526020600020905b815481529060010190602001808311611fe757829003601f168201915b5050505050815260200160018201805461201d9061531f565b80601f01602080910402602001604051908101604052809291908181526020018280546120499061531f565b80156120965780601f1061206b57610100808354040283529160200191612096565b820191906000526020600020905b81548152906001019060200180831161207957829003601f168201915b505050505081526020016002820180546120af9061531f565b80601f01602080910402602001604051908101604052809291908181526020018280546120db9061531f565b80156121285780601f106120fd57610100808354040283529160200191612128565b820191906000526020600020905b81548152906001019060200180831161210b57829003601f168201915b50505050508152602001600382015481526020016004820180548060200260200160405190810160405280929190818152602001828054801561218a57602002820191906000526020600020905b815481526020019060010190808311612176575b50505050508152602001600582018054806020026020016040519081016040528092919081815260200182805480156121e257602002820191906000526020600020905b8154815260200190600101908083116121ce575b5050505050815250509050919050565b6060600760008373ffffffffffffffffffffffffffffffffffffffff1673ffffffffffffffffffffffffffffffffffffffff16815260200190815260200160002060050180548060200260200160405190810160405280929190818152602001828054801561228057602002820191906000526020600020905b81548152602001906001019080831161226c575b50505050509050919050565b606060096000838152602001908152602001600020600b0180548060200260200160405190810160405280929190818152602001828054801561232457602002820191906000526020600020905b8160009054906101000a900473ffffffffffffffffffffffffffffffffffffffff1673ffffffffffffffffffffffffffffffffffffffff16815260200190600101908083116122da575b50505050509050919050565b600883604051612340919061565b565b908152602001604051809103902060009054906101000a900460ff161561239c576040517f08c379a0000000000000000000000000000000000000000000000000000000008152600401612393906156be565b60405180910390fd5b6000543410156123e1576040517f08c379a00000000000000000000000000000000000000000000000000000000081526004016123d890615071565b60405180910390fd5b6000600760003373ffffffffffffffffffffffffffffffffffffffff1673ffffffffffffffffffffffffffffffffffffffff16815260200190815260200160002060000180546124309061531f565b80601f016020809104026020016040519081016040528092919081815260200182805461245c9061531f565b80156124a95780601f1061247e576101008083540402835291602001916124a9565b820191906000526020600020905b81548152906001019060200180831161248c57829003601f168201915b5050505050905060008151146124f4576040517f08c379a00000000000000000000000000000000000000000000000000000000081526004016124eb9061572a565b60405180910390fd5b83600760003373ffffffffffffffffffffffffffffffffffffffff1673ffffffffffffffffffffffffffffffffffffffff168152602001908152602001600020600001908051906020019061254a92919061383b565b5082600760003373ffffffffffffffffffffffffffffffffffffffff1673ffffffffffffffffffffffffffffffffffffffff16815260200190815260200160002060010190805190602001906125a192919061383b565b5081600760003373ffffffffffffffffffffffffffffffffffffffff1673ffffffffffffffffffffffffffffffffffffffff16815260200190815260200160002060020190805190602001906125f892919061383b565b50600160088560405161260b919061565b565b908152602001604051809103902060006101000a81548160ff0219169083151502179055503373ffffffffffffffffffffffffffffffffffffffff167fca91b92c76087c9c2ef1e3e1caa026c5de706bdbb1c952d8404727234974707b858560405161267892919061574a565b60405180910390a250505050565b61268e61272e565b6126cd576040517f08c379a00000000000000000000000000000000000000000000000000000000081526004016126c49061539d565b60405180910390fd5b600b60009054906101000a900473ffffffffffffffffffffffffffffffffffffffff1673ffffffffffffffffffffffffffffffffffffffff16ff5b600b60009054906101000a900473ffffffffffffffffffffffffffffffffffffffff1681565b6000600b60009054906101000a900473ffffffffffffffffffffffffffffffffffffffff1673ffffffffffffffffffffffffffffffffffffffff163373ffffffffffffffffffffffffffffffffffffffff1614905090565b6000600354905090565b6000600254905090565b60025481565b6000600154905090565b60035481565b6060600a6000838152602001908152602001600020805480602002602001604051908101604052809291908181526020016000905b82821015612a2d57838290600052602060002090600502016040518060a0016040529081600082015481526020016001820180546128229061531f565b80601f016020809104026020016040519081016040528092919081815260200182805461284e9061531f565b801561289b5780601f106128705761010080835404028352916020019161289b565b820191906000526020600020905b81548152906001019060200180831161287e57829003601f168201915b505050505081526020016002820160009054906101000a900473ffffffffffffffffffffffffffffffffffffffff1673ffffffffffffffffffffffffffffffffffffffff1673ffffffffffffffffffffffffffffffffffffffff16815260200160038201805461290a9061531f565b80601f01602080910402602001604051908101604052809291908181526020018280546129369061531f565b80156129835780601f1061295857610100808354040283529160200191612983565b820191906000526020600020905b81548152906001019060200180831161296657829003601f168201915b5050505050815260200160048201805461299c9061531f565b80601f01602080910402602001604051908101604052809291908181526020018280546129c89061531f565b8015612a155780601f106129ea57610100808354040283529160200191612a15565b820191906000526020600020905b8154815290600101906020018083116129f857829003601f168201915b505050505081525050815260200190600101906127e5565b505050509050919050565b6060600760008373ffffffffffffffffffffffffffffffffffffffff1673ffffffffffffffffffffffffffffffffffffffff1681526020019081526020016000206000018054612a879061531f565b80601f0160208091040260200160405190810160405280929190818152602001828054612ab39061531f565b8015612b005780601f10612ad557610100808354040283529160200191612b00565b820191906000526020600020905b815481529060010190602001808311612ae357829003601f168201915b50505050509050919050565b612b1461272e565b612b53576040517f08c379a0000000000000000000000000000000000000000000000000000000008152600401612b4a9061539d565b60405180910390fd5b8060038190555050565b60008054905090565b612b6e61272e565b612bad576040517f08c379a0000000000000000000000000000000000000000000000000000000008152600401612ba49061539d565b60405180910390fd5b8060028190555050565b60045481565b600354341015612c02576040517f08c379a0000000000000000000000000000000000000000000000000000000008152600401612bf9906157cd565b60405180910390fd5b60006001811115612c1657612c15614351565b5b6009600083815260200190815260200160002060090160009054906101000a900460ff166001811115612c4c57612c4b614351565b5b14612c8c576040517f08c379a0000000000000000000000000000000000000000000000000000000008152600401612c8390615839565b60405180910390fd5b600454600960008381526020019081526020016000206008018054905010612ce9576040517f08c379a0000000000000000000000000000000000000000000000000000000008152600401612ce0906158a5565b60405180910390fd5b60096000828152602001908152602001600020600c0160009054906101000a900473ffffffffffffffffffffffffffffffffffffffff1673ffffffffffffffffffffffffffffffffffffffff163373ffffffffffffffffffffffffffffffffffffffff161415612d8e576040517f08c379a0000000000000000000000000000000000000000000000000000000008152600401612d8590615911565b60405180910390fd5b60005b6009600083815260200190815260200160002060080180549050811015612e86573373ffffffffffffffffffffffffffffffffffffffff16600960008481526020019081526020016000206008018281548110612df157612df0614d38565b5b9060005260206000200160009054906101000a900473ffffffffffffffffffffffffffffffffffffffff1673ffffffffffffffffffffffffffffffffffffffff161415612e73576040517f08c379a0000000000000000000000000000000000000000000000000000000008152600401612e6a9061597d565b60405180910390fd5b8080612e7e90614d96565b915050612d91565b5060096000828152602001908152602001600020600801339080600181540180825580915050600190039060005260206000200160009091909190916101000a81548173ffffffffffffffffffffffffffffffffffffffff021916908373ffffffffffffffffffffffffffffffffffffffff16021790555050565b81612fd6600760003373ffffffffffffffffffffffffffffffffffffffff1673ffffffffffffffffffffffffffffffffffffffff1681526020019081526020016000206000018054612f529061531f565b80601f0160208091040260200160405190810160405280929190818152602001828054612f7e9061531f565b8015612fcb5780601f10612fa057610100808354040283529160200191612fcb565b820191906000526020600020905b815481529060010190602001808311612fae57829003601f168201915b505050505082613710565b613015576040517f08c379a000000000000000000000000000000000000000000000000000000000815260040161300c906154bb565b60405180910390fd5b833373ffffffffffffffffffffffffffffffffffffffff1660096000838152602001908152602001600020600c0160009054906101000a900473ffffffffffffffffffffffffffffffffffffffff1673ffffffffffffffffffffffffffffffffffffffff16146130ba576040517f08c379a00000000000000000000000000000000000000000000000000000000081526004016130b190615527565b60405180910390fd5b600060096000878152602001908152602001600020600b018054905014613116576040517f08c379a000000000000000000000000000000000000000000000000000000000815260040161310d906159e9565b60405180910390fd5b600060096000878152602001908152602001600020600a018054905090506000811415613186576001845114613181576040517f08c379a000000000000000000000000000000000000000000000000000000000815260040161317890615a55565b60405180910390fd5b6131ca565b835181146131c9576040517f08c379a00000000000000000000000000000000000000000000000000000000081526004016131c090615ac1565b60405180910390fd5b5b60004290506009600088815260200190815260200160002060060154811015613228576040517f08c379a000000000000000000000000000000000000000000000000000000000815260040161321f90615b2d565b60405180910390fd5b60005b8551811015613664573373ffffffffffffffffffffffffffffffffffffffff1686828151811061325e5761325d614d38565b5b602002602001015173ffffffffffffffffffffffffffffffffffffffff1614156132bd576040517f08c379a00000000000000000000000000000000000000000000000000000000081526004016132b490615b99565b60405180910390fd5b61337b8682815181106132d3576132d2614d38565b5b6020026020010151600960008b815260200190815260200160002060080180548060200260200160405190810160405280929190818152602001828054801561337157602002820191906000526020600020905b8160009054906101000a900473ffffffffffffffffffffffffffffffffffffffff1673ffffffffffffffffffffffffffffffffffffffff1681526020019060010190808311613327575b505050505061377c565b6133ba576040517f08c379a00000000000000000000000000000000000000000000000000000000081526004016133b190615c05565b60405180910390fd5b60096000898152602001908152602001600020600b018682815181106133e3576133e2614d38565b5b60200260200101519080600181540180825580915050600190039060005260206000200160009091909190916101000a81548173ffffffffffffffffffffffffffffffffffffffff021916908373ffffffffffffffffffffffffffffffffffffffff16021790555060006007600088848151811061346457613463614d38565b5b602002602001015173ffffffffffffffffffffffffffffffffffffffff1673ffffffffffffffffffffffffffffffffffffffff168152602001908152602001600020600401805490509050600081141561354057600760008884815181106134cf576134ce614d38565b5b602002602001015173ffffffffffffffffffffffffffffffffffffffff1673ffffffffffffffffffffffffffffffffffffffff168152602001908152602001600020600401899080600181540180825580915050600190039060005260206000200160009091909190915055613650565b886007600089858151811061355857613557614d38565b5b602002602001015173ffffffffffffffffffffffffffffffffffffffff1673ffffffffffffffffffffffffffffffffffffffff1681526020019081526020016000206004016001836135aa9190615c25565b815481106135bb576135ba614d38565b5b90600052602060002001541461364f57600760008884815181106135e2576135e1614d38565b5b602002602001015173ffffffffffffffffffffffffffffffffffffffff1673ffffffffffffffffffffffffffffffffffffffff1681526020019081526020016000206004018990806001815401808255809150506001900390600052602060002001600090919091909150555b5b50808061365c90614d96565b91505061322b565b5050505050505050565b6060600760003373ffffffffffffffffffffffffffffffffffffffff1673ffffffffffffffffffffffffffffffffffffffff1681526020019081526020016000206004018054806020026020016040519081016040528092919081815260200182805480156136fc57602002820191906000526020600020905b8154815260200190600101908083116136e8575b5050505050905090565b8060068190555050565b600081518351146137245760009050613776565b81604051602001613735919061565b565b604051602081830303815290604052805190602001208360405160200161375c919061565b565b604051602081830303815290604052805190602001201490505b92915050565b600080600090505b825181101561382f578281815181106137a05761379f614d38565b5b602002602001015173ffffffffffffffffffffffffffffffffffffffff168473ffffffffffffffffffffffffffffffffffffffff16148061380d5750600073ffffffffffffffffffffffffffffffffffffffff168473ffffffffffffffffffffffffffffffffffffffff16145b1561381c576001915050613835565b808061382790614d96565b915050613784565b50600090505b92915050565b8280546138479061531f565b90600052602060002090601f01602090048101928261386957600085556138b0565b82601f1061388257805160ff19168380011785556138b0565b828001600101855582156138b0579182015b828111156138af578251825591602001919060010190613894565b5b5090506138bd9190613a73565b5090565b82805482825590600052602060002090810192821561393a579160200282015b828111156139395782518260006101000a81548173ffffffffffffffffffffffffffffffffffffffff021916908373ffffffffffffffffffffffffffffffffffffffff160217905550916020019190600101906138e1565b5b5090506139479190613a73565b5090565b82805482825590600052602060002090810192821561399a579160200282015b8281111561399957825182908051906020019061398992919061383b565b509160200191906001019061396b565b5b5090506139a79190613a90565b5090565b604051806101a00160405280606081526020016060815260200160008152602001606081526020016000815260200160008152602001600081526020016000151581526020016060815260200160006001811115613a0c57613a0b614351565b5b81526020016060815260200160608152602001600073ffffffffffffffffffffffffffffffffffffffff1681525090565b6040518060c001604052806060815260200160608152602001606081526020016000815260200160608152602001606081525090565b5b80821115613a8c576000816000905550600101613a74565b5090565b5b80821115613ab05760008181613aa79190613ab4565b50600101613a91565b5090565b508054613ac09061531f565b6000825580601f10613ad25750613af1565b601f016020900490600052602060002090810190613af09190613a73565b5b50565b6000604051905090565b600080fd5b600080fd5b6000819050919050565b613b1b81613b08565b8114613b2657600080fd5b50565b600081359050613b3881613b12565b92915050565b600080fd5b6000601f19601f8301169050919050565b7f4e487b7100000000000000000000000000000000000000000000000000000000600052604160045260246000fd5b613b8c82613b43565b810181811067ffffffffffffffff82111715613bab57613baa613b54565b5b80604052505050565b6000613bbe613af4565b9050613bca8282613b83565b919050565b600067ffffffffffffffff821115613bea57613be9613b54565b5b602082029050602081019050919050565b600080fd5b600060ff82169050919050565b613c1681613c00565b8114613c2157600080fd5b50565b600081359050613c3381613c0d565b92915050565b6000613c4c613c4784613bcf565b613bb4565b90508083825260208201905060208402830185811115613c6f57613c6e613bfb565b5b835b81811015613c985780613c848882613c24565b845260208401935050602081019050613c71565b5050509392505050565b600082601f830112613cb757613cb6613b3e565b5b8135613cc7848260208601613c39565b91505092915050565b600067ffffffffffffffff821115613ceb57613cea613b54565b5b602082029050602081019050919050565b600080fd5b600067ffffffffffffffff821115613d1c57613d1b613b54565b5b613d2582613b43565b9050602081019050919050565b82818337600083830152505050565b6000613d54613d4f84613d01565b613bb4565b905082815260208101848484011115613d7057613d6f613cfc565b5b613d7b848285613d32565b509392505050565b600082601f830112613d9857613d97613b3e565b5b8135613da8848260208601613d41565b91505092915050565b6000613dc4613dbf84613cd0565b613bb4565b90508083825260208201905060208402830185811115613de757613de6613bfb565b5b835b81811015613e2e57803567ffffffffffffffff811115613e0c57613e0b613b3e565b5b808601613e198982613d83565b85526020850194505050602081019050613de9565b5050509392505050565b600082601f830112613e4d57613e4c613b3e565b5b8135613e5d848260208601613db1565b91505092915050565b600080600080600060a08688031215613e8257613e81613afe565b5b6000613e9088828901613b29565b955050602086013567ffffffffffffffff811115613eb157613eb0613b03565b5b613ebd88828901613ca2565b945050604086013567ffffffffffffffff811115613ede57613edd613b03565b5b613eea88828901613e38565b935050606086013567ffffffffffffffff811115613f0b57613f0a613b03565b5b613f1788828901613e38565b925050608086013567ffffffffffffffff811115613f3857613f37613b03565b5b613f4488828901613e38565b9150509295509295909350565b60028110613f5e57600080fd5b50565b600081359050613f7081613f51565b92915050565b600080600080600080600080610100898b031215613f9757613f96613afe565b5b600089013567ffffffffffffffff811115613fb557613fb4613b03565b5b613fc18b828c01613d83565b985050602089013567ffffffffffffffff811115613fe257613fe1613b03565b5b613fee8b828c01613d83565b975050604089013567ffffffffffffffff81111561400f5761400e613b03565b5b61401b8b828c01613d83565b965050606061402c8b828c01613b29565b955050608061403d8b828c01613b29565b94505060a061404e8b828c01613b29565b93505060c061405f8b828c01613f61565b92505060e089013567ffffffffffffffff8111156140805761407f613b03565b5b61408c8b828c01613e38565b9150509295985092959890939650565b6140a581613b08565b82525050565b60006020820190506140c0600083018461409c565b92915050565b600073ffffffffffffffffffffffffffffffffffffffff82169050919050565b60006140f1826140c6565b9050919050565b614101816140e6565b811461410c57600080fd5b50565b60008135905061411e816140f8565b92915050565b6000806040838503121561413b5761413a613afe565b5b600083013567ffffffffffffffff81111561415957614158613b03565b5b61416585828601613d83565b92505060206141768582860161410f565b9150509250929050565b6000819050919050565b61419381614180565b82525050565b60006020820190506141ae600083018461418a565b92915050565b6000602082840312156141ca576141c9613afe565b5b60006141d884828501613b29565b91505092915050565b600081519050919050565b600082825260208201905092915050565b60005b8381101561421b578082015181840152602081019050614200565b8381111561422a576000848401525b50505050565b600061423b826141e1565b61424581856141ec565b93506142558185602086016141fd565b61425e81613b43565b840191505092915050565b61427281613b08565b82525050565b60008115159050919050565b61428d81614278565b82525050565b600081519050919050565b600082825260208201905092915050565b6000819050602082019050919050565b6142c8816140e6565b82525050565b60006142da83836142bf565b60208301905092915050565b6000602082019050919050565b60006142fe82614293565b614308818561429e565b9350614313836142af565b8060005b8381101561434457815161432b88826142ce565b9750614336836142e6565b925050600181019050614317565b5085935050505092915050565b7f4e487b7100000000000000000000000000000000000000000000000000000000600052602160045260246000fd5b6002811061439157614390614351565b5b50565b60008190506143a282614380565b919050565b60006143b282614394565b9050919050565b6143c2816143a7565b82525050565b600081519050919050565b600082825260208201905092915050565b6000819050602082019050919050565b60006144008383614230565b905092915050565b6000602082019050919050565b6000614420826143c8565b61442a81856143d3565b93508360208202850161443c856143e4565b8060005b85811015614478578484038952815161445985826143f4565b945061446483614408565b925060208a01995050600181019050614440565b50829750879550505050505092915050565b60006101a08301600083015184820360008601526144a88282614230565b915050602083015184820360208601526144c28282614230565b91505060408301516144d76040860182614269565b50606083015184820360608601526144ef8282614230565b91505060808301516145046080860182614269565b5060a083015161451760a0860182614269565b5060c083015161452a60c0860182614269565b5060e083015161453d60e0860182614284565b5061010083015184820361010086015261455782826142f3565b91505061012083015161456e6101208601826143b9565b506101408301518482036101408601526145888282614415565b9150506101608301518482036101608601526145a482826142f3565b9150506101808301516145bb6101808601826142bf565b508091505092915050565b600060208201905081810360008301526145e0818461448a565b905092915050565b600067ffffffffffffffff82111561460357614602613b54565b5b602082029050602081019050919050565b6000614627614622846145e8565b613bb4565b9050808382526020820190506020840283018581111561464a57614649613bfb565b5b835b81811015614673578061465f888261410f565b84526020840193505060208101905061464c565b5050509392505050565b600082601f83011261469257614691613b3e565b5b81356146a2848260208601614614565b91505092915050565b6000806000606084860312156146c4576146c3613afe565b5b60006146d286828701613b29565b935050602084013567ffffffffffffffff8111156146f3576146f2613b03565b5b6146ff86828701613d83565b925050604084013567ffffffffffffffff8111156147205761471f613b03565b5b61472c8682870161467d565b9150509250925092565b6000806040838503121561474d5761474c613afe565b5b600083013567ffffffffffffffff81111561476b5761476a613b03565b5b6147778582860161467d565b92505060206147888582860161410f565b9150509250929050565b61479b81614278565b82525050565b60006020820190506147b66000830184614792565b92915050565b6000602082840312156147d2576147d1613afe565b5b60006147e08482850161410f565b91505092915050565b600081519050919050565b600082825260208201905092915050565b6000819050602082019050919050565b60006148218383614269565b60208301905092915050565b6000602082019050919050565b6000614845826147e9565b61484f81856147f4565b935061485a83614805565b8060005b8381101561488b5781516148728882614815565b975061487d8361482d565b92505060018101905061485e565b5085935050505092915050565b600060c08301600083015184820360008601526148b58282614230565b915050602083015184820360208601526148cf8282614230565b915050604083015184820360408601526148e98282614230565b91505060608301516148fe6060860182614269565b5060808301518482036080860152614916828261483a565b91505060a083015184820360a0860152614930828261483a565b9150508091505092915050565b600060208201905081810360008301526149578184614898565b905092915050565b600082825260208201905092915050565b600061497b826147e9565b614985818561495f565b935061499083614805565b8060005b838110156149c15781516149a88882614815565b97506149b38361482d565b925050600181019050614994565b5085935050505092915050565b600060208201905081810360008301526149e88184614970565b905092915050565b600082825260208201905092915050565b6000614a0c82614293565b614a1681856149f0565b9350614a21836142af565b8060005b83811015614a52578151614a3988826142ce565b9750614a44836142e6565b925050600181019050614a25565b5085935050505092915050565b60006020820190508181036000830152614a798184614a01565b905092915050565b600080600060608486031215614a9a57614a99613afe565b5b600084013567ffffffffffffffff811115614ab857614ab7613b03565b5b614ac486828701613d83565b935050602084013567ffffffffffffffff811115614ae557614ae4613b03565b5b614af186828701613d83565b925050604084013567ffffffffffffffff811115614b1257614b11613b03565b5b614b1e86828701613d83565b9150509250925092565b6000614b33826140c6565b9050919050565b614b4381614b28565b82525050565b6000602082019050614b5e6000830184614b3a565b92915050565b600081519050919050565b600082825260208201905092915050565b6000819050602082019050919050565b600060a083016000830151614ba86000860182614269565b5060208301518482036020860152614bc08282614230565b9150506040830151614bd560408601826142bf565b5060608301518482036060860152614bed8282614230565b91505060808301518482036080860152614c078282614230565b9150508091505092915050565b6000614c208383614b90565b905092915050565b6000602082019050919050565b6000614c4082614b64565b614c4a8185614b6f565b935083602082028501614c5c85614b80565b8060005b85811015614c985784840389528151614c798582614c14565b9450614c8483614c28565b925060208a01995050600181019050614c60565b50829750879550505050505092915050565b60006020820190508181036000830152614cc48184614c35565b905092915050565b600082825260208201905092915050565b6000614ce8826141e1565b614cf28185614ccc565b9350614d028185602086016141fd565b614d0b81613b43565b840191505092915050565b60006020820190508181036000830152614d308184614cdd565b905092915050565b7f4e487b7100000000000000000000000000000000000000000000000000000000600052603260045260246000fd5b7f4e487b7100000000000000000000000000000000000000000000000000000000600052601160045260246000fd5b6000614da182613b08565b91507fffffffffffffffffffffffffffffffffffffffffffffffffffffffffffffffff821415614dd457614dd3614d67565b5b600182019050919050565b7f6e6f745f7061727469636970616e740000000000000000000000000000000000600082015250565b6000614e15600f83614ccc565b9150614e2082614ddf565b602082019050919050565b60006020820190508181036000830152614e4481614e08565b9050919050565b7f6973737565725f6261645f646f63747970650000000000000000000000000000600082015250565b6000614e81601283614ccc565b9150614e8c82614e4b565b602082019050919050565b60006020820190508181036000830152614eb081614e74565b9050919050565b7f7061727469636970616e745f6261645f646f6374797065000000000000000000600082015250565b6000614eed601783614ccc565b9150614ef882614eb7565b602082019050919050565b60006020820190508181036000830152614f1c81614ee0565b9050919050565b7f656e645f726563656976696e675f726561636865640000000000000000000000600082015250565b6000614f59601583614ccc565b9150614f6482614f23565b602082019050919050565b60006020820190508181036000830152614f8881614f4c565b9050919050565b6000614f9a82613c00565b915060ff821415614fae57614fad614d67565b5b600182019050919050565b7f72667069645f616c72656164795f74616b656e00000000000000000000000000600082015250565b6000614fef601383614ccc565b9150614ffa82614fb9565b602082019050919050565b6000602082019050818103600083015261501e81614fe2565b9050919050565b7f496e73756666696369656e745f7061796d656e74000000000000000000000000600082015250565b600061505b601483614ccc565b915061506682615025565b602082019050919050565b6000602082019050818103600083015261508a8161504e565b9050919050565b7f616464726573735f6e6f745f61646d696e000000000000000000000000000000600082015250565b60006150c7601183614ccc565b91506150d282615091565b602082019050919050565b600060208201905081810360008301526150f6816150ba565b9050919050565b7f696e697469616c5f646174655f77726f6e670000000000000000000000000000600082015250565b6000615133601283614ccc565b915061513e826150fd565b602082019050919050565b6000602082019050818103600083015261516281615126565b9050919050565b7f726563656976696e675f646174655f77726f6e67000000000000000000000000600082015250565b600061519f601483614ccc565b91506151aa82615169565b602082019050919050565b600060208201905081810360008301526151ce81615192565b9050919050565b60006040820190506151ea600083018561409c565b81810360208301526151fc8184614cdd565b90509392505050565b600061521082613b08565b915061521b83613b08565b9250827fffffffffffffffffffffffffffffffffffffffffffffffffffffffffffffffff038211156152505761524f614d67565b5b828201905092915050565b6000819050919050565b61527661527182614180565b61525b565b82525050565b60008160601b9050919050565b60006152948261527c565b9050919050565b60006152a682615289565b9050919050565b6152be6152b9826140e6565b61529b565b82525050565b60006152d08285615265565b6020820191506152e082846152ad565b6014820191508190509392505050565b7f4e487b7100000000000000000000000000000000000000000000000000000000600052602260045260246000fd5b6000600282049050600182168061533757607f821691505b6020821081141561534b5761534a6152f0565b5b50919050565b7f4f6e6c795f6f776e65725f616c6c6f7765640000000000000000000000000000600082015250565b6000615387601283614ccc565b915061539282615351565b602082019050919050565b600060208201905081810360008301526153b68161537a565b9050919050565b600081905092915050565b50565b60006153d86000836153bd565b91506153e3826153c8565b600082019050919050565b60006153f9826153cb565b9150819050919050565b7f6661696c65645f77697468647261770000000000000000000000000000000000600082015250565b6000615439600f83614ccc565b915061544482615403565b602082019050919050565b600060208201905081810360008301526154688161542c565b9050919050565b7f4f6e6c795f61646d696e5f63616e5f706572666f726d00000000000000000000600082015250565b60006154a5601683614ccc565b91506154b08261546f565b602082019050919050565b600060208201905081810360008301526154d481615498565b9050919050565b7f4f6e6c795f6973737565725f63616e5f706572666f726d000000000000000000600082015250565b6000615511601783614ccc565b915061551c826154db565b602082019050919050565b6000602082019050818103600083015261554081615504565b9050919050565b7f77726f6e675f636f6e746573745f747970650000000000000000000000000000600082015250565b600061557d601283614ccc565b915061558882615547565b602082019050919050565b600060208201905081810360008301526155ac81615570565b9050919050565b7f746f6f5f6d616e795f6775657374730000000000000000000000000000000000600082015250565b60006155e9600f83614ccc565b91506155f4826155b3565b602082019050919050565b60006020820190508181036000830152615618816155dc565b9050919050565b600081905092915050565b6000615635826141e1565b61563f818561561f565b935061564f8185602086016141fd565b80840191505092915050565b6000615667828461562a565b915081905092915050565b7f69645f616c72656164795f657869737473000000000000000000000000000000600082015250565b60006156a8601183614ccc565b91506156b382615672565b602082019050919050565b600060208201905081810360008301526156d78161569b565b9050919050565b7f616464726573735f616c72656164795f61646d696e5f6f665f636f6d70616e79600082015250565b6000615714602083614ccc565b915061571f826156de565b602082019050919050565b6000602082019050818103600083015261574381615707565b9050919050565b600060408201905081810360008301526157648185614cdd565b905081810360208301526157788184614cdd565b90509392505050565b7f496e73756666696369656e745f7061796d656e745f6665650000000000000000600082015250565b60006157b7601883614ccc565b91506157c282615781565b602082019050919050565b600060208201905081810360008301526157e6816157aa565b9050919050565b7f6e6f745f6f70656e5f74656e6465720000000000000000000000000000000000600082015250565b6000615823600f83614ccc565b915061582e826157ed565b602082019050919050565b6000602082019050818103600083015261585281615816565b9050919050565b7f6d61785f7061727469636970616e74735f726561636865640000000000000000600082015250565b600061588f601883614ccc565b915061589a82615859565b602082019050919050565b600060208201905081810360008301526158be81615882565b9050919050565b7f63616e5f6e6f745f72656769737465725f73656c660000000000000000000000600082015250565b60006158fb601583614ccc565b9150615906826158c5565b602082019050919050565b6000602082019050818103600083015261592a816158ee565b9050919050565b7f616c72656164795f70617274696369706174696e670000000000000000000000600082015250565b6000615967601583614ccc565b915061597282615931565b602082019050919050565b600060208201905081810360008301526159968161595a565b9050919050565b7f7266705f616c72656164795f6177617264656400000000000000000000000000600082015250565b60006159d3601383614ccc565b91506159de8261599d565b602082019050919050565b60006020820190508181036000830152615a02816159c6565b9050919050565b7f746f6f5f6d616e795f77696e6e65727300000000000000000000000000000000600082015250565b6000615a3f601083614ccc565b9150615a4a82615a09565b602082019050919050565b60006020820190508181036000830152615a6e81615a32565b9050919050565b7f6e6f745f6d61746368696e675f77696e6e657273000000000000000000000000600082015250565b6000615aab601483614ccc565b9150615ab682615a75565b602082019050919050565b60006020820190508181036000830152615ada81615a9e565b9050919050565b7f656e64646174655f6e6f745f726561636865645f796574000000000000000000600082015250565b6000615b17601783614ccc565b9150615b2282615ae1565b602082019050919050565b60006020820190508181036000830152615b4681615b0a565b9050919050565b7f63616e6e6f745f73656c665f6177617264000000000000000000000000000000600082015250565b6000615b83601183614ccc565b9150615b8e82615b4d565b602082019050919050565b60006020820190508181036000830152615bb281615b76565b9050919050565b7f696e76616c69645f77696e6e6572000000000000000000000000000000000000600082015250565b6000615bef600e83614ccc565b9150615bfa82615bb9565b602082019050919050565b60006020820190508181036000830152615c1e81615be2565b9050919050565b6000615c3082613b08565b9150615c3b83613b08565b925082821015615c4e57615c4d614d67565b5b82820390509291505056fea26469706673582212204b59b8216dc21ab796a6794a42eaa806c722c208f62ba8753fde48536792b5e164736f6c63430008090033",
  "linkReferences": {},
  "deployedLinkReferences": {}
}