{
  "_format": "hh-sol-artifact-1",
  "contractName": "pro_pon",
  "sourceName": "contracts/pro-pon.sol",
  "abi": [
    {
      "inputs": [],
      "stateMutability": "payable",
      "type": "constructor"
    },
    {
      "anonymous": false,
      "inputs": [
        {
          "indexed": true,
          "internalType": "address",
          "name": "sender",
          "type": "address"
        },
        {
          "indexed": false,
          "internalType": "string",
          "name": "id",
          "type": "string"
        },
        {
          "indexed": false,
          "internalType": "string",
          "name": "name",
          "type": "string"
        }
      ],
      "name": "NewCompanyCreated",
      "type": "event"
    },
    {
      "anonymous": false,
      "inputs": [
        {
          "indexed": true,
          "internalType": "address",
          "name": "sender",
          "type": "address"
        },
        {
          "indexed": false,
          "internalType": "uint256",
          "name": "id",
          "type": "uint256"
        },
        {
          "indexed": false,
          "internalType": "string",
          "name": "name",
          "type": "string"
        }
      ],
      "name": "NewRFPCreated",
      "type": "event"
    },
    {
      "inputs": [],
      "name": "CREATE_COMPANY_PRICE",
      "outputs": [
        {
          "internalType": "uint256",
          "name": "",
          "type": "uint256"
        }
      ],
      "stateMutability": "view",
      "type": "function"
    },
    {
      "inputs": [],
      "name": "CREATE_INVITATION_RFP_PRICE",
      "outputs": [
        {
          "internalType": "uint256",
          "name": "",
          "type": "uint256"
        }
      ],
      "stateMutability": "view",
      "type": "function"
    },
    {
      "inputs": [],
      "name": "CREATE_OPEN_RFP_PRICE",
      "outputs": [
        {
          "internalType": "uint256",
          "name": "",
          "type": "uint256"
        }
      ],
      "stateMutability": "view",
      "type": "function"
    },
    {
      "inputs": [],
      "name": "MAX_GUEST_INVITATION_TENDER",
      "outputs": [
        {
          "internalType": "uint256",
          "name": "",
          "type": "uint256"
        }
      ],
      "stateMutability": "view",
      "type": "function"
    },
    {
      "inputs": [],
      "name": "MAX_GUEST_OPEN_TENDER",
      "outputs": [
        {
          "internalType": "uint256",
          "name": "",
          "type": "uint256"
        }
      ],
      "stateMutability": "view",
      "type": "function"
    },
    {
      "inputs": [],
      "name": "REGISTER_OPEN_RFP_PRICE",
      "outputs": [
        {
          "internalType": "uint256",
          "name": "",
          "type": "uint256"
        }
      ],
      "stateMutability": "view",
      "type": "function"
    },
    {
      "inputs": [
        {
          "internalType": "uint256",
          "name": "_rfpIdx",
          "type": "uint256"
        },
        {
          "internalType": "uint8[]",
          "name": "_docTypes",
          "type": "uint8[]"
        },
        {
          "internalType": "string[]",
          "name": "_names",
          "type": "string[]"
        },
        {
          "internalType": "string[]",
          "name": "_documentHashes",
          "type": "string[]"
        },
        {
          "internalType": "string[]",
          "name": "_idxs",
          "type": "string[]"
        }
      ],
      "name": "addDocuments",
      "outputs": [],
      "stateMutability": "nonpayable",
      "type": "function"
    },
    {
      "inputs": [
        {
          "internalType": "string",
          "name": "_string",
          "type": "string"
        },
        {
          "internalType": "address",
          "name": "_address",
          "type": "address"
        }
      ],
      "name": "concatStringAndAddress",
      "outputs": [
        {
          "internalType": "bytes32",
          "name": "",
          "type": "bytes32"
        }
      ],
      "stateMutability": "pure",
      "type": "function"
    },
    {
      "inputs": [
        {
          "internalType": "string",
          "name": "_id",
          "type": "string"
        },
        {
          "internalType": "string",
          "name": "_name",
          "type": "string"
        },
        {
          "internalType": "string",
          "name": "_country",
          "type": "string"
        }
      ],
      "name": "createCompany",
      "outputs": [],
      "stateMutability": "payable",
      "type": "function"
    },
    {
      "inputs": [
        {
          "internalType": "string",
          "name": "_name",
          "type": "string"
        },
        {
          "internalType": "string",
          "name": "_description",
          "type": "string"
        },
        {
          "internalType": "string",
          "name": "_rfpwebsite",
          "type": "string"
        },
        {
          "internalType": "uint256",
          "name": "_openDate",
          "type": "uint256"
        },
        {
          "internalType": "uint256",
          "name": "_endReceivingDate",
          "type": "uint256"
        },
        {
          "internalType": "uint256",
          "name": "_endDate",
          "type": "uint256"
        },
        {
          "internalType": "enum pro_pon.ContestType",
          "name": "_contestType",
          "type": "uint8"
        },
        {
          "internalType": "string[]",
          "name": "_items",
          "type": "string[]"
        }
      ],
      "name": "createRFP",
      "outputs": [],
      "stateMutability": "payable",
      "type": "function"
    },
    {
      "inputs": [
        {
          "internalType": "uint256",
          "name": "_rfpIndex",
          "type": "uint256"
        },
        {
          "internalType": "string",
          "name": "_companyId",
          "type": "string"
        },
        {
          "internalType": "address[]",
          "name": "winners",
          "type": "address[]"
        }
      ],
      "name": "declareWinners",
      "outputs": [],
      "stateMutability": "nonpayable",
      "type": "function"
    },
    {
      "inputs": [],
      "name": "destroy",
      "outputs": [],
      "stateMutability": "nonpayable",
      "type": "function"
    },
    {
      "inputs": [
        {
          "internalType": "address",
          "name": "admin",
          "type": "address"
        }
      ],
      "name": "getCompany",
      "outputs": [
        {
          "components": [
            {
              "internalType": "string",
              "name": "id",
              "type": "string"
            },
            {
              "internalType": "string",
              "name": "name",
              "type": "string"
            },
            {
              "internalType": "string",
              "name": "country",
              "type": "string"
            },
            {
              "internalType": "uint256",
              "name": "RFPSent",
              "type": "uint256"
            },
            {
              "internalType": "uint256[]",
              "name": "RFPsWins",
              "type": "uint256[]"
            },
            {
              "internalType": "uint256[]",
              "name": "company_RFPs",
              "type": "uint256[]"
            }
          ],
          "internalType": "struct pro_pon.Company",
          "name": "",
          "type": "tuple"
        }
      ],
      "stateMutability": "view",
      "type": "function"
    },
    {
      "inputs": [
        {
          "internalType": "address",
          "name": "admin",
          "type": "address"
        }
      ],
      "name": "getCompanyId",
      "outputs": [
        {
          "internalType": "string",
          "name": "companyId",
          "type": "string"
        }
      ],
      "stateMutability": "view",
      "type": "function"
    },
    {
      "inputs": [],
      "name": "getCompanyWins",
      "outputs": [
        {
          "internalType": "uint256[]",
          "name": "",
          "type": "uint256[]"
        }
      ],
      "stateMutability": "view",
      "type": "function"
    },
    {
      "inputs": [],
      "name": "getCreateCompanyPrice",
      "outputs": [
        {
          "internalType": "uint256",
          "name": "",
          "type": "uint256"
        }
      ],
      "stateMutability": "view",
      "type": "function"
    },
    {
      "inputs": [],
      "name": "getCreateInvitationRfpPrice",
      "outputs": [
        {
          "internalType": "uint256",
          "name": "",
          "type": "uint256"
        }
      ],
      "stateMutability": "view",
      "type": "function"
    },
    {
      "inputs": [],
      "name": "getCreateOpenRfpPrice",
      "outputs": [
        {
          "internalType": "uint256",
          "name": "",
          "type": "uint256"
        }
      ],
      "stateMutability": "view",
      "type": "function"
    },
    {
      "inputs": [
        {
          "internalType": "uint256",
          "name": "_rfpIdx",
          "type": "uint256"
        }
      ],
      "name": "getDocumentsfromRFP",
      "outputs": [
        {
          "components": [
            {
              "internalType": "uint256",
              "name": "docType",
              "type": "uint256"
            },
            {
              "internalType": "string",
              "name": "name",
              "type": "string"
            },
            {
              "internalType": "address",
              "name": "owner",
              "type": "address"
            },
            {
              "internalType": "string",
              "name": "documentHash",
              "type": "string"
            },
            {
              "internalType": "string",
              "name": "idx",
              "type": "string"
            }
          ],
          "internalType": "struct pro_pon.Document[]",
          "name": "",
          "type": "tuple[]"
        }
      ],
      "stateMutability": "view",
      "type": "function"
    },
    {
      "inputs": [],
      "name": "getMaxGuestOpenTender",
      "outputs": [
        {
          "internalType": "uint256",
          "name": "",
          "type": "uint256"
        }
      ],
      "stateMutability": "view",
      "type": "function"
    },
    {
      "inputs": [
        {
          "internalType": "uint256",
          "name": "_rfpId",
          "type": "uint256"
        }
      ],
      "name": "getRFPbyIndex",
      "outputs": [
        {
          "components": [
            {
              "internalType": "string",
              "name": "name",
              "type": "string"
            },
            {
              "internalType": "string",
              "name": "description",
              "type": "string"
            },
            {
              "internalType": "uint256",
              "name": "rfpIndex",
              "type": "uint256"
            },
            {
              "internalType": "string",
              "name": "rfpwebsite",
              "type": "string"
            },
            {
              "internalType": "uint256",
              "name": "openDate",
              "type": "uint256"
            },
            {
              "internalType": "uint256",
              "name": "endReceivingDate",
              "type": "uint256"
            },
            {
              "internalType": "uint256",
              "name": "endDate",
              "type": "uint256"
            },
            {
              "internalType": "bool",
              "name": "canceled",
              "type": "bool"
            },
            {
              "internalType": "address[]",
              "name": "participants",
              "type": "address[]"
            },
            {
              "internalType": "enum pro_pon.ContestType",
              "name": "contestType",
              "type": "uint8"
            },
            {
              "internalType": "string[]",
              "name": "items",
              "type": "string[]"
            },
            {
              "internalType": "address[]",
              "name": "winners",
              "type": "address[]"
            },
            {
              "internalType": "address",
              "name": "issuer",
              "type": "address"
            }
          ],
          "internalType": "struct pro_pon.RFP",
          "name": "",
          "type": "tuple"
        }
      ],
      "stateMutability": "view",
      "type": "function"
    },
    {
      "inputs": [],
      "name": "getRegisterOpenRfpPrice",
      "outputs": [
        {
          "internalType": "uint256",
          "name": "",
          "type": "uint256"
        }
      ],
      "stateMutability": "view",
      "type": "function"
    },
    {
      "inputs": [
        {
          "internalType": "uint256",
          "name": "_rfpIndex",
          "type": "uint256"
        }
      ],
      "name": "getWinners",
      "outputs": [
        {
          "internalType": "address[]",
          "name": "",
          "type": "address[]"
        }
      ],
      "stateMutability": "view",
      "type": "function"
    },
    {
      "inputs": [],
      "name": "getcurrentRFPIdx",
      "outputs": [
        {
          "internalType": "uint256",
          "name": "",
          "type": "uint256"
        }
      ],
      "stateMutability": "view",
      "type": "function"
    },
    {
      "inputs": [
        {
          "internalType": "uint256",
          "name": "_rfpId",
          "type": "uint256"
        },
        {
          "internalType": "string",
          "name": "companyId",
          "type": "string"
        },
        {
          "internalType": "address[]",
          "name": "invitedCompanies",
          "type": "address[]"
        }
      ],
      "name": "inviteCompaniestoRFP",
      "outputs": [],
      "stateMutability": "nonpayable",
      "type": "function"
    },
    {
      "inputs": [
        {
          "internalType": "address[]",
          "name": "container",
          "type": "address[]"
        },
        {
          "internalType": "address",
          "name": "tocheck",
          "type": "address"
        }
      ],
      "name": "isContainedAddress",
      "outputs": [
        {
          "internalType": "bool",
          "name": "",
          "type": "bool"
        }
      ],
      "stateMutability": "pure",
      "type": "function"
    },
    {
      "inputs": [],
      "name": "isOwner",
      "outputs": [
        {
          "internalType": "bool",
          "name": "",
          "type": "bool"
        }
      ],
      "stateMutability": "view",
      "type": "function"
    },
    {
      "inputs": [],
      "name": "owner",
      "outputs": [
        {
          "internalType": "address payable",
          "name": "",
          "type": "address"
        }
      ],
      "stateMutability": "view",
      "type": "function"
    },
    {
      "inputs": [
        {
          "internalType": "uint256",
          "name": "_rfpId",
          "type": "uint256"
        }
      ],
      "name": "registertoOpenRFP",
      "outputs": [],
      "stateMutability": "payable",
      "type": "function"
    },
    {
      "inputs": [
        {
          "internalType": "uint256",
          "name": "newprice",
          "type": "uint256"
        }
      ],
      "name": "setCreateCompanyPrice",
      "outputs": [],
      "stateMutability": "nonpayable",
      "type": "function"
    },
    {
      "inputs": [
        {
          "internalType": "uint256",
          "name": "price",
          "type": "uint256"
        }
      ],
      "name": "setCreateInvitationRfpPrice",
      "outputs": [],
      "stateMutability": "nonpayable",
      "type": "function"
    },
    {
      "inputs": [
        {
          "internalType": "uint256",
          "name": "price",
          "type": "uint256"
        }
      ],
      "name": "setCreateOpenRfpPrice",
      "outputs": [],
      "stateMutability": "nonpayable",
      "type": "function"
    },
    {
      "inputs": [
        {
          "internalType": "uint256",
          "name": "MaxGuest",
          "type": "uint256"
        }
      ],
      "name": "setMaxGuestOpenTender",
      "outputs": [],
      "stateMutability": "nonpayable",
      "type": "function"
    },
    {
      "inputs": [
        {
          "internalType": "uint256",
          "name": "price",
          "type": "uint256"
        }
      ],
      "name": "setRegisterOpenRfpPrice",
      "outputs": [],
      "stateMutability": "nonpayable",
      "type": "function"
    },
    {
      "inputs": [],
      "name": "withdraw",
      "outputs": [],
      "stateMutability": "nonpayable",
      "type": "function"
    }
  ],
  "bytecode": "0x6080604052655af3107a4000600055655af3107a400060015565b5e620f48000600255655af3107a4000600355600a600455600a600555600060065533600b60006101000a81548173ffffffffffffffffffffffffffffffffffffffff021916908373ffffffffffffffffffffffffffffffffffffffff160217905550615bb38061008b6000396000f3fe6080604052600436106102045760003560e01c80637b60626d11610118578063c6492895116100a0578063ea1b4b1d1161006f578063ea1b4b1d1461073f578063ecbb7b4a14610768578063ed72f89f14610793578063f1e60d2b146107af578063fb720761146107d857610204565b8063c649289514610671578063d6f343c5146106ae578063d7a8529e146106eb578063da2e18601461071457610204565b806390646692116100e7578063906466921461059a578063ad26a9ad146105c5578063afeff8d9146105f0578063b929e7d91461061b578063be38013b1461064657610204565b80637b60626d1461051157806383197ef01461052d5780638da5cb5b146105445780638f32d59b1461056f57610204565b8063466c51fc1161019b5780635a6167c91161016a5780635a6167c9146104065780635b6a96dc146104315780635d9c47f51461046e57806362bc56e6146104975780636b1426a4146104d457610204565b8063466c51fc14610360578063482baf93146103895780634ccba247146103b25780634e289b88146103db57610204565b80632d714f23116101d75780632d714f23146102a4578063325236fe146102e157806332f4b16a1461030c5780633ccfd60b1461034957610204565b80630a2a406c146102095780630adc596e146102325780631393b9e81461024e578063215cf05d14610279575b600080fd5b34801561021557600080fd5b50610230600480360381019061022b9190613d8a565b610803565b005b61024c60048036038101906102479190613e9a565b610ce2565b005b34801561025a57600080fd5b506102636112a4565b6040516102709190613fcf565b60405180910390f35b34801561028557600080fd5b5061028e6112ae565b60405161029b9190613fcf565b60405180910390f35b3480156102b057600080fd5b506102cb60048036038101906102c69190614048565b6112b4565b6040516102d891906140bd565b60405180910390f35b3480156102ed57600080fd5b506102f66112ff565b6040516103039190613fcf565b60405180910390f35b34801561031857600080fd5b50610333600480360381019061032e91906140d8565b611309565b60405161034091906144ea565b60405180910390f35b34801561035557600080fd5b5061035e6117b6565b005b34801561036c57600080fd5b50610387600480360381019061038291906140d8565b6118b2565b005b34801561039557600080fd5b506103b060048036038101906103ab91906145cf565b611903565b005b3480156103be57600080fd5b506103d960048036038101906103d491906140d8565b611dab565b005b3480156103e757600080fd5b506103f0611dfc565b6040516103fd9190613fcf565b60405180910390f35b34801561041257600080fd5b5061041b611e02565b6040516104289190613fcf565b60405180910390f35b34801561043d57600080fd5b506104586004803603810190610453919061465a565b611e08565b60405161046591906146c5565b60405180910390f35b34801561047a57600080fd5b50610495600480360381019061049091906140d8565b611e90565b005b3480156104a357600080fd5b506104be60048036038101906104b991906146e0565b611ee1565b6040516104cb9190614861565b60405180910390f35b3480156104e057600080fd5b506104fb60048036038101906104f691906140d8565b6121b0565b60405161050891906148f2565b60405180910390f35b61052b60048036038101906105269190614914565b612254565b005b34801561053957600080fd5b506105426125aa565b005b34801561055057600080fd5b5061055961262c565b60405161056691906149dc565b60405180910390f35b34801561057b57600080fd5b50610584612652565b60405161059191906146c5565b60405180910390f35b3480156105a657600080fd5b506105af6126aa565b6040516105bc9190613fcf565b60405180910390f35b3480156105d157600080fd5b506105da6126b4565b6040516105e79190613fcf565b60405180910390f35b3480156105fc57600080fd5b506106056126be565b6040516106129190613fcf565b60405180910390f35b34801561062757600080fd5b506106306126c4565b60405161063d9190613fcf565b60405180910390f35b34801561065257600080fd5b5061065b6126ce565b6040516106689190613fcf565b60405180910390f35b34801561067d57600080fd5b50610698600480360381019061069391906140d8565b6126d4565b6040516106a59190614b3d565b60405180910390f35b3480156106ba57600080fd5b506106d560048036038101906106d091906146e0565b61295c565b6040516106e29190614ba9565b60405180910390f35b3480156106f757600080fd5b50610712600480360381019061070d91906140d8565b612a30565b005b34801561072057600080fd5b50610729612a81565b6040516107369190613fcf565b60405180910390f35b34801561074b57600080fd5b50610766600480360381019061076191906140d8565b612a8a565b005b34801561077457600080fd5b5061077d612adb565b60405161078a9190613fcf565b60405180910390f35b6107ad60048036038101906107a891906140d8565b612ae1565b005b3480156107bb57600080fd5b506107d660048036038101906107d191906145cf565b612e25565b005b3480156107e457600080fd5b506107ed613592565b6040516107fa9190614c3a565b60405180910390f35b600060096000878152602001908152602001600020600c0160009054906101000a900473ffffffffffffffffffffffffffffffffffffffff1673ffffffffffffffffffffffffffffffffffffffff163373ffffffffffffffffffffffffffffffffffffffff161490508061097b576000805b6009600089815260200190815260200160002060080180549050811015610938576009600089815260200190815260200160002060080181815481106108be576108bd614c5c565b5b9060005260206000200160009054906101000a900473ffffffffffffffffffffffffffffffffffffffff1673ffffffffffffffffffffffffffffffffffffffff163373ffffffffffffffffffffffffffffffffffffffff1614156109255760019150610938565b808061093090614cba565b915050610875565b5080610979576040517f08c379a000000000000000000000000000000000000000000000000000000000815260040161097090614d4f565b60405180910390fd5b505b6000805b85518160ff161015610cd8576000600781111561099f5761099e614275565b5b60ff16878260ff16815181106109b8576109b7614c5c565b5b602002602001015160ff161480610a045750600160078111156109de576109dd614275565b5b60ff16878260ff16815181106109f7576109f6614c5c565b5b602002602001015160ff16145b80610a44575060026007811115610a1e57610a1d614275565b5b60ff16878260ff1681518110610a3757610a36614c5c565b5b602002602001015160ff16145b91508215610a915781610a8c576040517f08c379a0000000000000000000000000000000000000000000000000000000008152600401610a8390614dbb565b60405180910390fd5b610b2b565b8115610ad2576040517f08c379a0000000000000000000000000000000000000000000000000000000008152600401610ac990614e27565b60405180910390fd5b42600960008a81526020019081526020016000206005015411610b2a576040517f08c379a0000000000000000000000000000000000000000000000000000000008152600401610b2190614e93565b60405180910390fd5b5b600a60008981526020019081526020016000206040518060a00160405280898460ff1681518110610b5f57610b5e614c5c565b5b602002602001015160ff168152602001888460ff1681518110610b8557610b84614c5c565b5b602002602001015181526020013373ffffffffffffffffffffffffffffffffffffffff168152602001878460ff1681518110610bc457610bc3614c5c565b5b60200260200101518152602001868460ff1681518110610be757610be6614c5c565b5b60200260200101518152509080600181540180825580915050600190039060005260206000209060050201600090919091909150600082015181600001556020820151816001019080519060200190610c4192919061375f565b5060408201518160020160006101000a81548173ffffffffffffffffffffffffffffffffffffffff021916908373ffffffffffffffffffffffffffffffffffffffff1602179055506060820151816003019080519060200190610ca592919061375f565b506080820151816004019080519060200190610cc292919061375f565b5050508080610cd090614eb3565b91505061097f565b5050505050505050565b6000610cee89336112b4565b9050600c600082815260200190815260200160002060009054906101000a900460ff1615610d51576040517f08c379a0000000000000000000000000000000000000000000000000000000008152600401610d4890614f29565b60405180910390fd5b60006001811115610d6557610d64614275565b5b836001811115610d7857610d77614275565b5b1415610dc857600154341015610dc3576040517f08c379a0000000000000000000000000000000000000000000000000000000008152600401610dba90614f95565b60405180910390fd5b610e0e565b600254341015610e0d576040517f08c379a0000000000000000000000000000000000000000000000000000000008152600401610e0490614f95565b60405180910390fd5b5b6000610e1933611ee1565b9050600081600001519050600081511415610e69576040517f08c379a0000000000000000000000000000000000000000000000000000000008152600401610e6090615001565b60405180910390fd5b868810610eab576040517f08c379a0000000000000000000000000000000000000000000000000000000008152600401610ea29061506d565b60405180910390fd5b858710610eed576040517f08c379a0000000000000000000000000000000000000000000000000000000008152600401610ee4906150d9565b60405180910390fd5b6000610ef76112a4565b90506000604051806101a001604052808e81526020018d81526020018381526020018c81526020018b81526020018a8152602001898152602001600015158152602001600067ffffffffffffffff811115610f5557610f54613a78565b5b604051908082528060200260200182016040528015610f835781602001602082028036833780820191505090505b508152602001886001811115610f9c57610f9b614275565b5b8152602001878152602001600067ffffffffffffffff811115610fc257610fc1613a78565b5b604051908082528060200260200182016040528015610ff05781602001602082028036833780820191505090505b5081526020013373ffffffffffffffffffffffffffffffffffffffff1681525090506001600c600087815260200190815260200160002060006101000a81548160ff0219169083151502179055508060096000848152602001908152602001600020600082015181600001908051906020019061106e92919061375f565b50602082015181600101908051906020019061108b92919061375f565b506040820151816002015560608201518160030190805190602001906110b292919061375f565b506080820151816004015560a0820151816005015560c0820151816006015560e08201518160070160006101000a81548160ff02191690831515021790555061010082015181600801908051906020019061110e9291906137e5565b506101208201518160090160006101000a81548160ff0219169083600181111561113b5761113a614275565b5b021790555061014082015181600a01908051906020019061115d92919061386f565b5061016082015181600b01908051906020019061117b9291906137e5565b5061018082015181600c0160006101000a81548173ffffffffffffffffffffffffffffffffffffffff021916908373ffffffffffffffffffffffffffffffffffffffff160217905550905050600760003373ffffffffffffffffffffffffffffffffffffffff1673ffffffffffffffffffffffffffffffffffffffff1681526020019081526020016000206005018290806001815401808255809150506001900390600052602060002001600090919091909150553373ffffffffffffffffffffffffffffffffffffffff167fae438a3ef380e4b013ba12bcb929a59140482304040a1d8cf54d25c8e85640e9838f6040516112789291906150f9565b60405180910390a26112956001836112909190615129565b61362a565b50505050505050505050505050565b6000600654905090565b60005481565b60008083805190602001209050600081846040516020016112d69291906151e8565b604051602081830303815290604052905060008180519060200120905080935050505092915050565b6000600454905090565b6113116138cf565b60096000838152602001908152602001600020604051806101a001604052908160008201805461134090615243565b80601f016020809104026020016040519081016040528092919081815260200182805461136c90615243565b80156113b95780601f1061138e576101008083540402835291602001916113b9565b820191906000526020600020905b81548152906001019060200180831161139c57829003601f168201915b505050505081526020016001820180546113d290615243565b80601f01602080910402602001604051908101604052809291908181526020018280546113fe90615243565b801561144b5780601f106114205761010080835404028352916020019161144b565b820191906000526020600020905b81548152906001019060200180831161142e57829003601f168201915b505050505081526020016002820154815260200160038201805461146e90615243565b80601f016020809104026020016040519081016040528092919081815260200182805461149a90615243565b80156114e75780601f106114bc576101008083540402835291602001916114e7565b820191906000526020600020905b8154815290600101906020018083116114ca57829003601f168201915b505050505081526020016004820154815260200160058201548152602001600682015481526020016007820160009054906101000a900460ff16151515158152602001600882018054806020026020016040519081016040528092919081815260200182805480156115ae57602002820191906000526020600020905b8160009054906101000a900473ffffffffffffffffffffffffffffffffffffffff1673ffffffffffffffffffffffffffffffffffffffff1681526020019060010190808311611564575b505050505081526020016009820160009054906101000a900460ff1660018111156115dc576115db614275565b5b60018111156115ee576115ed614275565b5b8152602001600a8201805480602002602001604051908101604052809291908181526020016000905b828210156116c357838290600052602060002001805461163690615243565b80601f016020809104026020016040519081016040528092919081815260200182805461166290615243565b80156116af5780601f10611684576101008083540402835291602001916116af565b820191906000526020600020905b81548152906001019060200180831161169257829003601f168201915b505050505081526020019060010190611617565b505050508152602001600b820180548060200260200160405190810160405280929190818152602001828054801561175057602002820191906000526020600020905b8160009054906101000a900473ffffffffffffffffffffffffffffffffffffffff1673ffffffffffffffffffffffffffffffffffffffff1681526020019060010190808311611706575b50505050508152602001600c820160009054906101000a900473ffffffffffffffffffffffffffffffffffffffff1673ffffffffffffffffffffffffffffffffffffffff1673ffffffffffffffffffffffffffffffffffffffff16815250509050919050565b6117be612652565b6117fd576040517f08c379a00000000000000000000000000000000000000000000000000000000081526004016117f4906152c1565b60405180910390fd5b600047905060003373ffffffffffffffffffffffffffffffffffffffff168260405161182890615312565b60006040518083038185875af1925050503d8060008114611865576040519150601f19603f3d011682016040523d82523d6000602084013e61186a565b606091505b50509050806118ae576040517f08c379a00000000000000000000000000000000000000000000000000000000081526004016118a590615373565b60405180910390fd5b5050565b6118ba612652565b6118f9576040517f08c379a00000000000000000000000000000000000000000000000000000000081526004016118f0906152c1565b60405180910390fd5b8060008190555050565b816119d8600760003373ffffffffffffffffffffffffffffffffffffffff1673ffffffffffffffffffffffffffffffffffffffff168152602001908152602001600020600001805461195490615243565b80601f016020809104026020016040519081016040528092919081815260200182805461198090615243565b80156119cd5780601f106119a2576101008083540402835291602001916119cd565b820191906000526020600020905b8154815290600101906020018083116119b057829003601f168201915b505050505082613634565b611a17576040517f08c379a0000000000000000000000000000000000000000000000000000000008152600401611a0e906153df565b60405180910390fd5b833373ffffffffffffffffffffffffffffffffffffffff1660096000838152602001908152602001600020600c0160009054906101000a900473ffffffffffffffffffffffffffffffffffffffff1673ffffffffffffffffffffffffffffffffffffffff1614611abc576040517f08c379a0000000000000000000000000000000000000000000000000000000008152600401611ab39061544b565b60405180910390fd5b600180811115611acf57611ace614275565b5b6009600087815260200190815260200160002060090160009054906101000a900460ff166001811115611b0557611b04614275565b5b14611b45576040517f08c379a0000000000000000000000000000000000000000000000000000000008152600401611b3c906154b7565b60405180910390fd5b60055483516009600088815260200190815260200160002060080180549050611b6e9190615129565b1115611baf576040517f08c379a0000000000000000000000000000000000000000000000000000000008152600401611ba690615523565b60405180910390fd5b60005b8351811015611da357600060019050848281518110611bd457611bd3614c5c565b5b602002602001015173ffffffffffffffffffffffffffffffffffffffff163373ffffffffffffffffffffffffffffffffffffffff161415611c155750611d90565b60005b6009600089815260200190815260200160002060080180549050811015611cf557858381518110611c4c57611c4b614c5c565b5b602002602001015173ffffffffffffffffffffffffffffffffffffffff16600960008a81526020019081526020016000206008018281548110611c9257611c91614c5c565b5b9060005260206000200160009054906101000a900473ffffffffffffffffffffffffffffffffffffffff1673ffffffffffffffffffffffffffffffffffffffff161415611ce25760009150611cf5565b8080611ced90614cba565b915050611c18565b508015611d8e5760096000888152602001908152602001600020600801858381518110611d2557611d24614c5c565b5b60200260200101519080600181540180825580915050600190039060005260206000200160009091909190916101000a81548173ffffffffffffffffffffffffffffffffffffffff021916908373ffffffffffffffffffffffffffffffffffffffff1602179055505b505b8080611d9b90614cba565b915050611bb2565b505050505050565b611db3612652565b611df2576040517f08c379a0000000000000000000000000000000000000000000000000000000008152600401611de9906152c1565b60405180910390fd5b8060048190555050565b60015481565b60055481565b600080600090505b8351811015611e84578273ffffffffffffffffffffffffffffffffffffffff16848281518110611e4357611e42614c5c565b5b602002602001015173ffffffffffffffffffffffffffffffffffffffff161415611e71576001915050611e8a565b8080611e7c90614cba565b915050611e10565b50600090505b92915050565b611e98612652565b611ed7576040517f08c379a0000000000000000000000000000000000000000000000000000000008152600401611ece906152c1565b60405180910390fd5b8060018190555050565b611ee9613961565b6000600760008473ffffffffffffffffffffffffffffffffffffffff1673ffffffffffffffffffffffffffffffffffffffff1681526020019081526020016000209050806040518060c0016040529081600082018054611f4890615243565b80601f0160208091040260200160405190810160405280929190818152602001828054611f7490615243565b8015611fc15780601f10611f9657610100808354040283529160200191611fc1565b820191906000526020600020905b815481529060010190602001808311611fa457829003601f168201915b50505050508152602001600182018054611fda90615243565b80601f016020809104026020016040519081016040528092919081815260200182805461200690615243565b80156120535780601f1061202857610100808354040283529160200191612053565b820191906000526020600020905b81548152906001019060200180831161203657829003601f168201915b5050505050815260200160028201805461206c90615243565b80601f016020809104026020016040519081016040528092919081815260200182805461209890615243565b80156120e55780601f106120ba576101008083540402835291602001916120e5565b820191906000526020600020905b8154815290600101906020018083116120c857829003601f168201915b50505050508152602001600382015481526020016004820180548060200260200160405190810160405280929190818152602001828054801561214757602002820191906000526020600020905b815481526020019060010190808311612133575b505050505081526020016005820180548060200260200160405190810160405280929190818152602001828054801561219f57602002820191906000526020600020905b81548152602001906001019080831161218b575b505050505081525050915050919050565b606060096000838152602001908152602001600020600b0180548060200260200160405190810160405280929190818152602001828054801561224857602002820191906000526020600020905b8160009054906101000a900473ffffffffffffffffffffffffffffffffffffffff1673ffffffffffffffffffffffffffffffffffffffff16815260200190600101908083116121fe575b50505050509050919050565b600883604051612264919061557f565b908152602001604051809103902060009054906101000a900460ff16156122c0576040517f08c379a00000000000000000000000000000000000000000000000000000000081526004016122b7906155e2565b60405180910390fd5b600054341015612305576040517f08c379a00000000000000000000000000000000000000000000000000000000081526004016122fc90614f95565b60405180910390fd5b6000600760003373ffffffffffffffffffffffffffffffffffffffff1673ffffffffffffffffffffffffffffffffffffffff168152602001908152602001600020600001805461235490615243565b80601f016020809104026020016040519081016040528092919081815260200182805461238090615243565b80156123cd5780601f106123a2576101008083540402835291602001916123cd565b820191906000526020600020905b8154815290600101906020018083116123b057829003601f168201915b505050505090506000815114612418576040517f08c379a000000000000000000000000000000000000000000000000000000000815260040161240f9061564e565b60405180910390fd5b83600760003373ffffffffffffffffffffffffffffffffffffffff1673ffffffffffffffffffffffffffffffffffffffff168152602001908152602001600020600001908051906020019061246e92919061375f565b5082600760003373ffffffffffffffffffffffffffffffffffffffff1673ffffffffffffffffffffffffffffffffffffffff16815260200190815260200160002060010190805190602001906124c592919061375f565b5081600760003373ffffffffffffffffffffffffffffffffffffffff1673ffffffffffffffffffffffffffffffffffffffff168152602001908152602001600020600201908051906020019061251c92919061375f565b50600160088560405161252f919061557f565b908152602001604051809103902060006101000a81548160ff0219169083151502179055503373ffffffffffffffffffffffffffffffffffffffff167fca91b92c76087c9c2ef1e3e1caa026c5de706bdbb1c952d8404727234974707b858560405161259c92919061566e565b60405180910390a250505050565b6125b2612652565b6125f1576040517f08c379a00000000000000000000000000000000000000000000000000000000081526004016125e8906152c1565b60405180910390fd5b600b60009054906101000a900473ffffffffffffffffffffffffffffffffffffffff1673ffffffffffffffffffffffffffffffffffffffff16ff5b600b60009054906101000a900473ffffffffffffffffffffffffffffffffffffffff1681565b6000600b60009054906101000a900473ffffffffffffffffffffffffffffffffffffffff1673ffffffffffffffffffffffffffffffffffffffff163373ffffffffffffffffffffffffffffffffffffffff1614905090565b6000600354905090565b6000600254905090565b60025481565b6000600154905090565b60035481565b6060600a6000838152602001908152602001600020805480602002602001604051908101604052809291908181526020016000905b8282101561295157838290600052602060002090600502016040518060a00160405290816000820154815260200160018201805461274690615243565b80601f016020809104026020016040519081016040528092919081815260200182805461277290615243565b80156127bf5780601f10612794576101008083540402835291602001916127bf565b820191906000526020600020905b8154815290600101906020018083116127a257829003601f168201915b505050505081526020016002820160009054906101000a900473ffffffffffffffffffffffffffffffffffffffff1673ffffffffffffffffffffffffffffffffffffffff1673ffffffffffffffffffffffffffffffffffffffff16815260200160038201805461282e90615243565b80601f016020809104026020016040519081016040528092919081815260200182805461285a90615243565b80156128a75780601f1061287c576101008083540402835291602001916128a7565b820191906000526020600020905b81548152906001019060200180831161288a57829003601f168201915b505050505081526020016004820180546128c090615243565b80601f01602080910402602001604051908101604052809291908181526020018280546128ec90615243565b80156129395780601f1061290e57610100808354040283529160200191612939565b820191906000526020600020905b81548152906001019060200180831161291c57829003601f168201915b50505050508152505081526020019060010190612709565b505050509050919050565b6060600760008373ffffffffffffffffffffffffffffffffffffffff1673ffffffffffffffffffffffffffffffffffffffff16815260200190815260200160002060000180546129ab90615243565b80601f01602080910402602001604051908101604052809291908181526020018280546129d790615243565b8015612a245780601f106129f957610100808354040283529160200191612a24565b820191906000526020600020905b815481529060010190602001808311612a0757829003601f168201915b50505050509050919050565b612a38612652565b612a77576040517f08c379a0000000000000000000000000000000000000000000000000000000008152600401612a6e906152c1565b60405180910390fd5b8060038190555050565b60008054905090565b612a92612652565b612ad1576040517f08c379a0000000000000000000000000000000000000000000000000000000008152600401612ac8906152c1565b60405180910390fd5b8060028190555050565b60045481565b600354341015612b26576040517f08c379a0000000000000000000000000000000000000000000000000000000008152600401612b1d906156f1565b60405180910390fd5b60006001811115612b3a57612b39614275565b5b6009600083815260200190815260200160002060090160009054906101000a900460ff166001811115612b7057612b6f614275565b5b14612bb0576040517f08c379a0000000000000000000000000000000000000000000000000000000008152600401612ba79061575d565b60405180910390fd5b600454600960008381526020019081526020016000206008018054905010612c0d576040517f08c379a0000000000000000000000000000000000000000000000000000000008152600401612c04906157c9565b60405180910390fd5b60096000828152602001908152602001600020600c0160009054906101000a900473ffffffffffffffffffffffffffffffffffffffff1673ffffffffffffffffffffffffffffffffffffffff163373ffffffffffffffffffffffffffffffffffffffff161415612cb2576040517f08c379a0000000000000000000000000000000000000000000000000000000008152600401612ca990615835565b60405180910390fd5b60005b6009600083815260200190815260200160002060080180549050811015612daa573373ffffffffffffffffffffffffffffffffffffffff16600960008481526020019081526020016000206008018281548110612d1557612d14614c5c565b5b9060005260206000200160009054906101000a900473ffffffffffffffffffffffffffffffffffffffff1673ffffffffffffffffffffffffffffffffffffffff161415612d97576040517f08c379a0000000000000000000000000000000000000000000000000000000008152600401612d8e906158a1565b60405180910390fd5b8080612da290614cba565b915050612cb5565b5060096000828152602001908152602001600020600801339080600181540180825580915050600190039060005260206000200160009091909190916101000a81548173ffffffffffffffffffffffffffffffffffffffff021916908373ffffffffffffffffffffffffffffffffffffffff16021790555050565b81612efa600760003373ffffffffffffffffffffffffffffffffffffffff1673ffffffffffffffffffffffffffffffffffffffff1681526020019081526020016000206000018054612e7690615243565b80601f0160208091040260200160405190810160405280929190818152602001828054612ea290615243565b8015612eef5780601f10612ec457610100808354040283529160200191612eef565b820191906000526020600020905b815481529060010190602001808311612ed257829003601f168201915b505050505082613634565b612f39576040517f08c379a0000000000000000000000000000000000000000000000000000000008152600401612f30906153df565b60405180910390fd5b833373ffffffffffffffffffffffffffffffffffffffff1660096000838152602001908152602001600020600c0160009054906101000a900473ffffffffffffffffffffffffffffffffffffffff1673ffffffffffffffffffffffffffffffffffffffff1614612fde576040517f08c379a0000000000000000000000000000000000000000000000000000000008152600401612fd59061544b565b60405180910390fd5b600060096000878152602001908152602001600020600b01805490501461303a576040517f08c379a00000000000000000000000000000000000000000000000000000000081526004016130319061590d565b60405180910390fd5b600060096000878152602001908152602001600020600a0180549050905060008114156130aa5760018451146130a5576040517f08c379a000000000000000000000000000000000000000000000000000000000815260040161309c90615979565b60405180910390fd5b6130ee565b835181146130ed576040517f08c379a00000000000000000000000000000000000000000000000000000000081526004016130e4906159e5565b60405180910390fd5b5b6000429050600960008881526020019081526020016000206006015481101561314c576040517f08c379a000000000000000000000000000000000000000000000000000000000815260040161314390615a51565b60405180910390fd5b60005b8551811015613588573373ffffffffffffffffffffffffffffffffffffffff1686828151811061318257613181614c5c565b5b602002602001015173ffffffffffffffffffffffffffffffffffffffff1614156131e1576040517f08c379a00000000000000000000000000000000000000000000000000000000081526004016131d890615abd565b60405180910390fd5b61329f8682815181106131f7576131f6614c5c565b5b6020026020010151600960008b815260200190815260200160002060080180548060200260200160405190810160405280929190818152602001828054801561329557602002820191906000526020600020905b8160009054906101000a900473ffffffffffffffffffffffffffffffffffffffff1673ffffffffffffffffffffffffffffffffffffffff168152602001906001019080831161324b575b50505050506136a0565b6132de576040517f08c379a00000000000000000000000000000000000000000000000000000000081526004016132d590615b29565b60405180910390fd5b60096000898152602001908152602001600020600b0186828151811061330757613306614c5c565b5b60200260200101519080600181540180825580915050600190039060005260206000200160009091909190916101000a81548173ffffffffffffffffffffffffffffffffffffffff021916908373ffffffffffffffffffffffffffffffffffffffff16021790555060006007600088848151811061338857613387614c5c565b5b602002602001015173ffffffffffffffffffffffffffffffffffffffff1673ffffffffffffffffffffffffffffffffffffffff168152602001908152602001600020600401805490509050600081141561346457600760008884815181106133f3576133f2614c5c565b5b602002602001015173ffffffffffffffffffffffffffffffffffffffff1673ffffffffffffffffffffffffffffffffffffffff168152602001908152602001600020600401899080600181540180825580915050600190039060005260206000200160009091909190915055613574565b886007600089858151811061347c5761347b614c5c565b5b602002602001015173ffffffffffffffffffffffffffffffffffffffff1673ffffffffffffffffffffffffffffffffffffffff1681526020019081526020016000206004016001836134ce9190615b49565b815481106134df576134de614c5c565b5b906000526020600020015414613573576007600088848151811061350657613505614c5c565b5b602002602001015173ffffffffffffffffffffffffffffffffffffffff1673ffffffffffffffffffffffffffffffffffffffff1681526020019081526020016000206004018990806001815401808255809150506001900390600052602060002001600090919091909150555b5b50808061358090614cba565b91505061314f565b5050505050505050565b6060600760003373ffffffffffffffffffffffffffffffffffffffff1673ffffffffffffffffffffffffffffffffffffffff16815260200190815260200160002060040180548060200260200160405190810160405280929190818152602001828054801561362057602002820191906000526020600020905b81548152602001906001019080831161360c575b5050505050905090565b8060068190555050565b60008151835114613648576000905061369a565b81604051602001613659919061557f565b6040516020818303038152906040528051906020012083604051602001613680919061557f565b604051602081830303815290604052805190602001201490505b92915050565b600080600090505b8251811015613753578281815181106136c4576136c3614c5c565b5b602002602001015173ffffffffffffffffffffffffffffffffffffffff168473ffffffffffffffffffffffffffffffffffffffff1614806137315750600073ffffffffffffffffffffffffffffffffffffffff168473ffffffffffffffffffffffffffffffffffffffff16145b15613740576001915050613759565b808061374b90614cba565b9150506136a8565b50600090505b92915050565b82805461376b90615243565b90600052602060002090601f01602090048101928261378d57600085556137d4565b82601f106137a657805160ff19168380011785556137d4565b828001600101855582156137d4579182015b828111156137d35782518255916020019190600101906137b8565b5b5090506137e19190613997565b5090565b82805482825590600052602060002090810192821561385e579160200282015b8281111561385d5782518260006101000a81548173ffffffffffffffffffffffffffffffffffffffff021916908373ffffffffffffffffffffffffffffffffffffffff16021790555091602001919060010190613805565b5b50905061386b9190613997565b5090565b8280548282559060005260206000209081019282156138be579160200282015b828111156138bd5782518290805190602001906138ad92919061375f565b509160200191906001019061388f565b5b5090506138cb91906139b4565b5090565b604051806101a001604052806060815260200160608152602001600081526020016060815260200160008152602001600081526020016000815260200160001515815260200160608152602001600060018111156139305761392f614275565b5b81526020016060815260200160608152602001600073ffffffffffffffffffffffffffffffffffffffff1681525090565b6040518060c001604052806060815260200160608152602001606081526020016000815260200160608152602001606081525090565b5b808211156139b0576000816000905550600101613998565b5090565b5b808211156139d457600081816139cb91906139d8565b506001016139b5565b5090565b5080546139e490615243565b6000825580601f106139f65750613a15565b601f016020900490600052602060002090810190613a149190613997565b5b50565b6000604051905090565b600080fd5b600080fd5b6000819050919050565b613a3f81613a2c565b8114613a4a57600080fd5b50565b600081359050613a5c81613a36565b92915050565b600080fd5b6000601f19601f8301169050919050565b7f4e487b7100000000000000000000000000000000000000000000000000000000600052604160045260246000fd5b613ab082613a67565b810181811067ffffffffffffffff82111715613acf57613ace613a78565b5b80604052505050565b6000613ae2613a18565b9050613aee8282613aa7565b919050565b600067ffffffffffffffff821115613b0e57613b0d613a78565b5b602082029050602081019050919050565b600080fd5b600060ff82169050919050565b613b3a81613b24565b8114613b4557600080fd5b50565b600081359050613b5781613b31565b92915050565b6000613b70613b6b84613af3565b613ad8565b90508083825260208201905060208402830185811115613b9357613b92613b1f565b5b835b81811015613bbc5780613ba88882613b48565b845260208401935050602081019050613b95565b5050509392505050565b600082601f830112613bdb57613bda613a62565b5b8135613beb848260208601613b5d565b91505092915050565b600067ffffffffffffffff821115613c0f57613c0e613a78565b5b602082029050602081019050919050565b600080fd5b600067ffffffffffffffff821115613c4057613c3f613a78565b5b613c4982613a67565b9050602081019050919050565b82818337600083830152505050565b6000613c78613c7384613c25565b613ad8565b905082815260208101848484011115613c9457613c93613c20565b5b613c9f848285613c56565b509392505050565b600082601f830112613cbc57613cbb613a62565b5b8135613ccc848260208601613c65565b91505092915050565b6000613ce8613ce384613bf4565b613ad8565b90508083825260208201905060208402830185811115613d0b57613d0a613b1f565b5b835b81811015613d5257803567ffffffffffffffff811115613d3057613d2f613a62565b5b808601613d3d8982613ca7565b85526020850194505050602081019050613d0d565b5050509392505050565b600082601f830112613d7157613d70613a62565b5b8135613d81848260208601613cd5565b91505092915050565b600080600080600060a08688031215613da657613da5613a22565b5b6000613db488828901613a4d565b955050602086013567ffffffffffffffff811115613dd557613dd4613a27565b5b613de188828901613bc6565b945050604086013567ffffffffffffffff811115613e0257613e01613a27565b5b613e0e88828901613d5c565b935050606086013567ffffffffffffffff811115613e2f57613e2e613a27565b5b613e3b88828901613d5c565b925050608086013567ffffffffffffffff811115613e5c57613e5b613a27565b5b613e6888828901613d5c565b9150509295509295909350565b60028110613e8257600080fd5b50565b600081359050613e9481613e75565b92915050565b600080600080600080600080610100898b031215613ebb57613eba613a22565b5b600089013567ffffffffffffffff811115613ed957613ed8613a27565b5b613ee58b828c01613ca7565b985050602089013567ffffffffffffffff811115613f0657613f05613a27565b5b613f128b828c01613ca7565b975050604089013567ffffffffffffffff811115613f3357613f32613a27565b5b613f3f8b828c01613ca7565b9650506060613f508b828c01613a4d565b9550506080613f618b828c01613a4d565b94505060a0613f728b828c01613a4d565b93505060c0613f838b828c01613e85565b92505060e089013567ffffffffffffffff811115613fa457613fa3613a27565b5b613fb08b828c01613d5c565b9150509295985092959890939650565b613fc981613a2c565b82525050565b6000602082019050613fe46000830184613fc0565b92915050565b600073ffffffffffffffffffffffffffffffffffffffff82169050919050565b600061401582613fea565b9050919050565b6140258161400a565b811461403057600080fd5b50565b6000813590506140428161401c565b92915050565b6000806040838503121561405f5761405e613a22565b5b600083013567ffffffffffffffff81111561407d5761407c613a27565b5b61408985828601613ca7565b925050602061409a85828601614033565b9150509250929050565b6000819050919050565b6140b7816140a4565b82525050565b60006020820190506140d260008301846140ae565b92915050565b6000602082840312156140ee576140ed613a22565b5b60006140fc84828501613a4d565b91505092915050565b600081519050919050565b600082825260208201905092915050565b60005b8381101561413f578082015181840152602081019050614124565b8381111561414e576000848401525b50505050565b600061415f82614105565b6141698185614110565b9350614179818560208601614121565b61418281613a67565b840191505092915050565b61419681613a2c565b82525050565b60008115159050919050565b6141b18161419c565b82525050565b600081519050919050565b600082825260208201905092915050565b6000819050602082019050919050565b6141ec8161400a565b82525050565b60006141fe83836141e3565b60208301905092915050565b6000602082019050919050565b6000614222826141b7565b61422c81856141c2565b9350614237836141d3565b8060005b8381101561426857815161424f88826141f2565b975061425a8361420a565b92505060018101905061423b565b5085935050505092915050565b7f4e487b7100000000000000000000000000000000000000000000000000000000600052602160045260246000fd5b600281106142b5576142b4614275565b5b50565b60008190506142c6826142a4565b919050565b60006142d6826142b8565b9050919050565b6142e6816142cb565b82525050565b600081519050919050565b600082825260208201905092915050565b6000819050602082019050919050565b60006143248383614154565b905092915050565b6000602082019050919050565b6000614344826142ec565b61434e81856142f7565b93508360208202850161436085614308565b8060005b8581101561439c578484038952815161437d8582614318565b94506143888361432c565b925060208a01995050600181019050614364565b50829750879550505050505092915050565b60006101a08301600083015184820360008601526143cc8282614154565b915050602083015184820360208601526143e68282614154565b91505060408301516143fb604086018261418d565b50606083015184820360608601526144138282614154565b9150506080830151614428608086018261418d565b5060a083015161443b60a086018261418d565b5060c083015161444e60c086018261418d565b5060e083015161446160e08601826141a8565b5061010083015184820361010086015261447b8282614217565b9150506101208301516144926101208601826142dd565b506101408301518482036101408601526144ac8282614339565b9150506101608301518482036101608601526144c88282614217565b9150506101808301516144df6101808601826141e3565b508091505092915050565b6000602082019050818103600083015261450481846143ae565b905092915050565b600067ffffffffffffffff82111561452757614526613a78565b5b602082029050602081019050919050565b600061454b6145468461450c565b613ad8565b9050808382526020820190506020840283018581111561456e5761456d613b1f565b5b835b8181101561459757806145838882614033565b845260208401935050602081019050614570565b5050509392505050565b600082601f8301126145b6576145b5613a62565b5b81356145c6848260208601614538565b91505092915050565b6000806000606084860312156145e8576145e7613a22565b5b60006145f686828701613a4d565b935050602084013567ffffffffffffffff81111561461757614616613a27565b5b61462386828701613ca7565b925050604084013567ffffffffffffffff81111561464457614643613a27565b5b614650868287016145a1565b9150509250925092565b6000806040838503121561467157614670613a22565b5b600083013567ffffffffffffffff81111561468f5761468e613a27565b5b61469b858286016145a1565b92505060206146ac85828601614033565b9150509250929050565b6146bf8161419c565b82525050565b60006020820190506146da60008301846146b6565b92915050565b6000602082840312156146f6576146f5613a22565b5b600061470484828501614033565b91505092915050565b600081519050919050565b600082825260208201905092915050565b6000819050602082019050919050565b6000614745838361418d565b60208301905092915050565b6000602082019050919050565b60006147698261470d565b6147738185614718565b935061477e83614729565b8060005b838110156147af5781516147968882614739565b97506147a183614751565b925050600181019050614782565b5085935050505092915050565b600060c08301600083015184820360008601526147d98282614154565b915050602083015184820360208601526147f38282614154565b9150506040830151848203604086015261480d8282614154565b9150506060830151614822606086018261418d565b506080830151848203608086015261483a828261475e565b91505060a083015184820360a0860152614854828261475e565b9150508091505092915050565b6000602082019050818103600083015261487b81846147bc565b905092915050565b600082825260208201905092915050565b600061489f826141b7565b6148a98185614883565b93506148b4836141d3565b8060005b838110156148e55781516148cc88826141f2565b97506148d78361420a565b9250506001810190506148b8565b5085935050505092915050565b6000602082019050818103600083015261490c8184614894565b905092915050565b60008060006060848603121561492d5761492c613a22565b5b600084013567ffffffffffffffff81111561494b5761494a613a27565b5b61495786828701613ca7565b935050602084013567ffffffffffffffff81111561497857614977613a27565b5b61498486828701613ca7565b925050604084013567ffffffffffffffff8111156149a5576149a4613a27565b5b6149b186828701613ca7565b9150509250925092565b60006149c682613fea565b9050919050565b6149d6816149bb565b82525050565b60006020820190506149f160008301846149cd565b92915050565b600081519050919050565b600082825260208201905092915050565b6000819050602082019050919050565b600060a083016000830151614a3b600086018261418d565b5060208301518482036020860152614a538282614154565b9150506040830151614a6860408601826141e3565b5060608301518482036060860152614a808282614154565b91505060808301518482036080860152614a9a8282614154565b9150508091505092915050565b6000614ab38383614a23565b905092915050565b6000602082019050919050565b6000614ad3826149f7565b614add8185614a02565b935083602082028501614aef85614a13565b8060005b85811015614b2b5784840389528151614b0c8582614aa7565b9450614b1783614abb565b925060208a01995050600181019050614af3565b50829750879550505050505092915050565b60006020820190508181036000830152614b578184614ac8565b905092915050565b600082825260208201905092915050565b6000614b7b82614105565b614b858185614b5f565b9350614b95818560208601614121565b614b9e81613a67565b840191505092915050565b60006020820190508181036000830152614bc38184614b70565b905092915050565b600082825260208201905092915050565b6000614be78261470d565b614bf18185614bcb565b9350614bfc83614729565b8060005b83811015614c2d578151614c148882614739565b9750614c1f83614751565b925050600181019050614c00565b5085935050505092915050565b60006020820190508181036000830152614c548184614bdc565b905092915050565b7f4e487b7100000000000000000000000000000000000000000000000000000000600052603260045260246000fd5b7f4e487b7100000000000000000000000000000000000000000000000000000000600052601160045260246000fd5b6000614cc582613a2c565b91507fffffffffffffffffffffffffffffffffffffffffffffffffffffffffffffffff821415614cf857614cf7614c8b565b5b600182019050919050565b7f6e6f745f7061727469636970616e740000000000000000000000000000000000600082015250565b6000614d39600f83614b5f565b9150614d4482614d03565b602082019050919050565b60006020820190508181036000830152614d6881614d2c565b9050919050565b7f6973737565725f6261645f646f63747970650000000000000000000000000000600082015250565b6000614da5601283614b5f565b9150614db082614d6f565b602082019050919050565b60006020820190508181036000830152614dd481614d98565b9050919050565b7f7061727469636970616e745f6261645f646f6374797065000000000000000000600082015250565b6000614e11601783614b5f565b9150614e1c82614ddb565b602082019050919050565b60006020820190508181036000830152614e4081614e04565b9050919050565b7f656e645f726563656976696e675f726561636865640000000000000000000000600082015250565b6000614e7d601583614b5f565b9150614e8882614e47565b602082019050919050565b60006020820190508181036000830152614eac81614e70565b9050919050565b6000614ebe82613b24565b915060ff821415614ed257614ed1614c8b565b5b600182019050919050565b7f72667069645f616c72656164795f74616b656e00000000000000000000000000600082015250565b6000614f13601383614b5f565b9150614f1e82614edd565b602082019050919050565b60006020820190508181036000830152614f4281614f06565b9050919050565b7f496e73756666696369656e745f7061796d656e74000000000000000000000000600082015250565b6000614f7f601483614b5f565b9150614f8a82614f49565b602082019050919050565b60006020820190508181036000830152614fae81614f72565b9050919050565b7f616464726573735f6e6f745f61646d696e000000000000000000000000000000600082015250565b6000614feb601183614b5f565b9150614ff682614fb5565b602082019050919050565b6000602082019050818103600083015261501a81614fde565b9050919050565b7f696e697469616c5f646174655f77726f6e670000000000000000000000000000600082015250565b6000615057601283614b5f565b915061506282615021565b602082019050919050565b600060208201905081810360008301526150868161504a565b9050919050565b7f726563656976696e675f646174655f77726f6e67000000000000000000000000600082015250565b60006150c3601483614b5f565b91506150ce8261508d565b602082019050919050565b600060208201905081810360008301526150f2816150b6565b9050919050565b600060408201905061510e6000830185613fc0565b81810360208301526151208184614b70565b90509392505050565b600061513482613a2c565b915061513f83613a2c565b9250827fffffffffffffffffffffffffffffffffffffffffffffffffffffffffffffffff0382111561517457615173614c8b565b5b828201905092915050565b6000819050919050565b61519a615195826140a4565b61517f565b82525050565b60008160601b9050919050565b60006151b8826151a0565b9050919050565b60006151ca826151ad565b9050919050565b6151e26151dd8261400a565b6151bf565b82525050565b60006151f48285615189565b60208201915061520482846151d1565b6014820191508190509392505050565b7f4e487b7100000000000000000000000000000000000000000000000000000000600052602260045260246000fd5b6000600282049050600182168061525b57607f821691505b6020821081141561526f5761526e615214565b5b50919050565b7f4f6e6c795f6f776e65725f616c6c6f7765640000000000000000000000000000600082015250565b60006152ab601283614b5f565b91506152b682615275565b602082019050919050565b600060208201905081810360008301526152da8161529e565b9050919050565b600081905092915050565b50565b60006152fc6000836152e1565b9150615307826152ec565b600082019050919050565b600061531d826152ef565b9150819050919050565b7f6661696c65645f77697468647261770000000000000000000000000000000000600082015250565b600061535d600f83614b5f565b915061536882615327565b602082019050919050565b6000602082019050818103600083015261538c81615350565b9050919050565b7f4f6e6c795f61646d696e5f63616e5f706572666f726d00000000000000000000600082015250565b60006153c9601683614b5f565b91506153d482615393565b602082019050919050565b600060208201905081810360008301526153f8816153bc565b9050919050565b7f4f6e6c795f6973737565725f63616e5f706572666f726d000000000000000000600082015250565b6000615435601783614b5f565b9150615440826153ff565b602082019050919050565b6000602082019050818103600083015261546481615428565b9050919050565b7f77726f6e675f636f6e746573745f747970650000000000000000000000000000600082015250565b60006154a1601283614b5f565b91506154ac8261546b565b602082019050919050565b600060208201905081810360008301526154d081615494565b9050919050565b7f746f6f5f6d616e795f6775657374730000000000000000000000000000000000600082015250565b600061550d600f83614b5f565b9150615518826154d7565b602082019050919050565b6000602082019050818103600083015261553c81615500565b9050919050565b600081905092915050565b600061555982614105565b6155638185615543565b9350615573818560208601614121565b80840191505092915050565b600061558b828461554e565b915081905092915050565b7f69645f616c72656164795f657869737473000000000000000000000000000000600082015250565b60006155cc601183614b5f565b91506155d782615596565b602082019050919050565b600060208201905081810360008301526155fb816155bf565b9050919050565b7f616464726573735f616c72656164795f61646d696e5f6f665f636f6d70616e79600082015250565b6000615638602083614b5f565b915061564382615602565b602082019050919050565b600060208201905081810360008301526156678161562b565b9050919050565b600060408201905081810360008301526156888185614b70565b9050818103602083015261569c8184614b70565b90509392505050565b7f496e73756666696369656e745f7061796d656e745f6665650000000000000000600082015250565b60006156db601883614b5f565b91506156e6826156a5565b602082019050919050565b6000602082019050818103600083015261570a816156ce565b9050919050565b7f6e6f745f6f70656e5f74656e6465720000000000000000000000000000000000600082015250565b6000615747600f83614b5f565b915061575282615711565b602082019050919050565b600060208201905081810360008301526157768161573a565b9050919050565b7f6d61785f7061727469636970616e74735f726561636865640000000000000000600082015250565b60006157b3601883614b5f565b91506157be8261577d565b602082019050919050565b600060208201905081810360008301526157e2816157a6565b9050919050565b7f63616e5f6e6f745f72656769737465725f73656c660000000000000000000000600082015250565b600061581f601583614b5f565b915061582a826157e9565b602082019050919050565b6000602082019050818103600083015261584e81615812565b9050919050565b7f616c72656164795f70617274696369706174696e670000000000000000000000600082015250565b600061588b601583614b5f565b915061589682615855565b602082019050919050565b600060208201905081810360008301526158ba8161587e565b9050919050565b7f7266705f616c72656164795f6177617264656400000000000000000000000000600082015250565b60006158f7601383614b5f565b9150615902826158c1565b602082019050919050565b60006020820190508181036000830152615926816158ea565b9050919050565b7f746f6f5f6d616e795f77696e6e65727300000000000000000000000000000000600082015250565b6000615963601083614b5f565b915061596e8261592d565b602082019050919050565b6000602082019050818103600083015261599281615956565b9050919050565b7f6e6f745f6d61746368696e675f77696e6e657273000000000000000000000000600082015250565b60006159cf601483614b5f565b91506159da82615999565b602082019050919050565b600060208201905081810360008301526159fe816159c2565b9050919050565b7f656e64646174655f6e6f745f726561636865645f796574000000000000000000600082015250565b6000615a3b601783614b5f565b9150615a4682615a05565b602082019050919050565b60006020820190508181036000830152615a6a81615a2e565b9050919050565b7f63616e6e6f745f73656c665f6177617264000000000000000000000000000000600082015250565b6000615aa7601183614b5f565b9150615ab282615a71565b602082019050919050565b60006020820190508181036000830152615ad681615a9a565b9050919050565b7f696e76616c69645f77696e6e6572000000000000000000000000000000000000600082015250565b6000615b13600e83614b5f565b9150615b1e82615add565b602082019050919050565b60006020820190508181036000830152615b4281615b06565b9050919050565b6000615b5482613a2c565b9150615b5f83613a2c565b925082821015615b7257615b71614c8b565b5b82820390509291505056fea264697066735822122002eeef397075b8cc580d2b65f00ab7c9d1dfc86ddc0e9b50e34546625f93af3c64736f6c63430008090033",
  "linkReferences": {},
  "deployedLinkReferences": {}
}