{
  "_format": "hh-sol-artifact-1",
  "contractName": "pro_pon",
  "sourceName": "contracts/pro-pon.sol",
  "abi": [
    {
      "inputs": [],
      "stateMutability": "payable",
      "type": "constructor"
    },
    {
      "anonymous": false,
      "inputs": [
        {
          "indexed": true,
          "internalType": "address",
          "name": "sender",
          "type": "address"
        },
        {
          "indexed": false,
          "internalType": "string",
          "name": "id",
          "type": "string"
        },
        {
          "indexed": false,
          "internalType": "string",
          "name": "name",
          "type": "string"
        }
      ],
      "name": "NewCompanyCreated",
      "type": "event"
    },
    {
      "anonymous": false,
      "inputs": [
        {
          "indexed": true,
          "internalType": "address",
          "name": "sender",
          "type": "address"
        },
        {
          "indexed": false,
          "internalType": "uint256",
          "name": "id",
          "type": "uint256"
        },
        {
          "indexed": false,
          "internalType": "string",
          "name": "name",
          "type": "string"
        }
      ],
      "name": "NewRFPCreated",
      "type": "event"
    },
    {
      "inputs": [],
      "name": "CREATE_COMPANY_PRICE",
      "outputs": [
        {
          "internalType": "uint256",
          "name": "",
          "type": "uint256"
        }
      ],
      "stateMutability": "view",
      "type": "function"
    },
    {
      "inputs": [],
      "name": "CREATE_INVITATION_RFP_PRICE",
      "outputs": [
        {
          "internalType": "uint256",
          "name": "",
          "type": "uint256"
        }
      ],
      "stateMutability": "view",
      "type": "function"
    },
    {
      "inputs": [],
      "name": "CREATE_OPEN_RFP_PRICE",
      "outputs": [
        {
          "internalType": "uint256",
          "name": "",
          "type": "uint256"
        }
      ],
      "stateMutability": "view",
      "type": "function"
    },
    {
      "inputs": [],
      "name": "MAX_GUEST_INVITATION_TENDER",
      "outputs": [
        {
          "internalType": "uint256",
          "name": "",
          "type": "uint256"
        }
      ],
      "stateMutability": "view",
      "type": "function"
    },
    {
      "inputs": [],
      "name": "MAX_GUEST_OPEN_TENDER",
      "outputs": [
        {
          "internalType": "uint256",
          "name": "",
          "type": "uint256"
        }
      ],
      "stateMutability": "view",
      "type": "function"
    },
    {
      "inputs": [],
      "name": "REGISTER_OPEN_RFP_PRICE",
      "outputs": [
        {
          "internalType": "uint256",
          "name": "",
          "type": "uint256"
        }
      ],
      "stateMutability": "view",
      "type": "function"
    },
    {
      "inputs": [
        {
          "internalType": "uint256",
          "name": "_rfpIdx",
          "type": "uint256"
        },
        {
          "internalType": "uint8[]",
          "name": "_docTypes",
          "type": "uint8[]"
        },
        {
          "internalType": "string[]",
          "name": "_names",
          "type": "string[]"
        },
        {
          "internalType": "string[]",
          "name": "_documentHashes",
          "type": "string[]"
        },
        {
          "internalType": "string[]",
          "name": "_idxs",
          "type": "string[]"
        }
      ],
      "name": "addDocuments",
      "outputs": [],
      "stateMutability": "nonpayable",
      "type": "function"
    },
    {
      "inputs": [
        {
          "internalType": "string",
          "name": "_companyId",
          "type": "string"
        },
        {
          "internalType": "uint256",
          "name": "_rfpIndex",
          "type": "uint256"
        }
      ],
      "name": "cancelRFP",
      "outputs": [],
      "stateMutability": "nonpayable",
      "type": "function"
    },
    {
      "inputs": [
        {
          "internalType": "string",
          "name": "_string",
          "type": "string"
        },
        {
          "internalType": "address",
          "name": "_address",
          "type": "address"
        }
      ],
      "name": "concatStringAndAddress",
      "outputs": [
        {
          "internalType": "bytes32",
          "name": "",
          "type": "bytes32"
        }
      ],
      "stateMutability": "pure",
      "type": "function"
    },
    {
      "inputs": [
        {
          "internalType": "string",
          "name": "_id",
          "type": "string"
        },
        {
          "internalType": "string",
          "name": "_name",
          "type": "string"
        },
        {
          "internalType": "string",
          "name": "_country",
          "type": "string"
        }
      ],
      "name": "createCompany",
      "outputs": [],
      "stateMutability": "payable",
      "type": "function"
    },
    {
      "inputs": [
        {
          "internalType": "string",
          "name": "_name",
          "type": "string"
        },
        {
          "internalType": "string",
          "name": "_description",
          "type": "string"
        },
        {
          "internalType": "string",
          "name": "_rfpwebsite",
          "type": "string"
        },
        {
          "internalType": "uint256",
          "name": "_openDate",
          "type": "uint256"
        },
        {
          "internalType": "uint256",
          "name": "_endReceivingDate",
          "type": "uint256"
        },
        {
          "internalType": "uint256",
          "name": "_endDate",
          "type": "uint256"
        },
        {
          "internalType": "enum pro_pon.ContestType",
          "name": "_contestType",
          "type": "uint8"
        },
        {
          "internalType": "string[]",
          "name": "_items",
          "type": "string[]"
        }
      ],
      "name": "createRFP",
      "outputs": [],
      "stateMutability": "payable",
      "type": "function"
    },
    {
      "inputs": [
        {
          "internalType": "uint256",
          "name": "_rfpIndex",
          "type": "uint256"
        },
        {
          "internalType": "string",
          "name": "_companyId",
          "type": "string"
        },
        {
          "internalType": "address[]",
          "name": "winners",
          "type": "address[]"
        }
      ],
      "name": "declareWinners",
      "outputs": [],
      "stateMutability": "nonpayable",
      "type": "function"
    },
    {
      "inputs": [],
      "name": "destroy",
      "outputs": [],
      "stateMutability": "nonpayable",
      "type": "function"
    },
    {
      "inputs": [
        {
          "internalType": "address",
          "name": "admin",
          "type": "address"
        }
      ],
      "name": "getCompany",
      "outputs": [
        {
          "components": [
            {
              "internalType": "string",
              "name": "id",
              "type": "string"
            },
            {
              "internalType": "string",
              "name": "name",
              "type": "string"
            },
            {
              "internalType": "string",
              "name": "country",
              "type": "string"
            },
            {
              "internalType": "uint256",
              "name": "RFPSent",
              "type": "uint256"
            },
            {
              "internalType": "uint256[]",
              "name": "RFPsWins",
              "type": "uint256[]"
            },
            {
              "internalType": "uint256[]",
              "name": "company_RFPs",
              "type": "uint256[]"
            }
          ],
          "internalType": "struct pro_pon.Company",
          "name": "",
          "type": "tuple"
        }
      ],
      "stateMutability": "view",
      "type": "function"
    },
    {
      "inputs": [
        {
          "internalType": "address",
          "name": "admin",
          "type": "address"
        }
      ],
      "name": "getCompanyId",
      "outputs": [
        {
          "internalType": "string",
          "name": "companyId",
          "type": "string"
        }
      ],
      "stateMutability": "view",
      "type": "function"
    },
    {
      "inputs": [
        {
          "internalType": "address",
          "name": "account",
          "type": "address"
        }
      ],
      "name": "getCompanyRFPs",
      "outputs": [
        {
          "internalType": "uint256[]",
          "name": "",
          "type": "uint256[]"
        }
      ],
      "stateMutability": "view",
      "type": "function"
    },
    {
      "inputs": [],
      "name": "getCompanyWins",
      "outputs": [
        {
          "internalType": "uint256[]",
          "name": "",
          "type": "uint256[]"
        }
      ],
      "stateMutability": "view",
      "type": "function"
    },
    {
      "inputs": [
        {
          "internalType": "uint256",
          "name": "_rfpIdx",
          "type": "uint256"
        }
      ],
      "name": "getDocumentsfromRFP",
      "outputs": [
        {
          "components": [
            {
              "internalType": "uint256",
              "name": "docType",
              "type": "uint256"
            },
            {
              "internalType": "string",
              "name": "name",
              "type": "string"
            },
            {
              "internalType": "address",
              "name": "owner",
              "type": "address"
            },
            {
              "internalType": "string",
              "name": "documentHash",
              "type": "string"
            },
            {
              "internalType": "string",
              "name": "idx",
              "type": "string"
            }
          ],
          "internalType": "struct pro_pon.Document[]",
          "name": "",
          "type": "tuple[]"
        }
      ],
      "stateMutability": "view",
      "type": "function"
    },
    {
      "inputs": [
        {
          "internalType": "uint256",
          "name": "_rfpId",
          "type": "uint256"
        }
      ],
      "name": "getRFPbyIndex",
      "outputs": [
        {
          "components": [
            {
              "internalType": "string",
              "name": "name",
              "type": "string"
            },
            {
              "internalType": "string",
              "name": "description",
              "type": "string"
            },
            {
              "internalType": "uint256",
              "name": "rfpIndex",
              "type": "uint256"
            },
            {
              "internalType": "string",
              "name": "rfpwebsite",
              "type": "string"
            },
            {
              "internalType": "uint256",
              "name": "openDate",
              "type": "uint256"
            },
            {
              "internalType": "uint256",
              "name": "endReceivingDate",
              "type": "uint256"
            },
            {
              "internalType": "uint256",
              "name": "endDate",
              "type": "uint256"
            },
            {
              "internalType": "bool",
              "name": "canceled",
              "type": "bool"
            },
            {
              "internalType": "address[]",
              "name": "participants",
              "type": "address[]"
            },
            {
              "internalType": "enum pro_pon.ContestType",
              "name": "contestType",
              "type": "uint8"
            },
            {
              "internalType": "string[]",
              "name": "items",
              "type": "string[]"
            },
            {
              "internalType": "address[]",
              "name": "winners",
              "type": "address[]"
            },
            {
              "internalType": "address",
              "name": "issuer",
              "type": "address"
            }
          ],
          "internalType": "struct pro_pon.RFP",
          "name": "",
          "type": "tuple"
        }
      ],
      "stateMutability": "view",
      "type": "function"
    },
    {
      "inputs": [
        {
          "internalType": "uint256",
          "name": "_rfpIndex",
          "type": "uint256"
        }
      ],
      "name": "getWinners",
      "outputs": [
        {
          "internalType": "address[]",
          "name": "",
          "type": "address[]"
        }
      ],
      "stateMutability": "view",
      "type": "function"
    },
    {
      "inputs": [],
      "name": "getcurrentRFPIdx",
      "outputs": [
        {
          "internalType": "uint256",
          "name": "",
          "type": "uint256"
        }
      ],
      "stateMutability": "view",
      "type": "function"
    },
    {
      "inputs": [
        {
          "internalType": "uint256",
          "name": "_rfpId",
          "type": "uint256"
        },
        {
          "internalType": "string",
          "name": "companyId",
          "type": "string"
        },
        {
          "internalType": "address[]",
          "name": "invitedCompanies",
          "type": "address[]"
        }
      ],
      "name": "inviteCompaniestoRFP",
      "outputs": [],
      "stateMutability": "nonpayable",
      "type": "function"
    },
    {
      "inputs": [
        {
          "internalType": "address[]",
          "name": "container",
          "type": "address[]"
        },
        {
          "internalType": "address",
          "name": "tocheck",
          "type": "address"
        }
      ],
      "name": "isContainedAddress",
      "outputs": [
        {
          "internalType": "bool",
          "name": "",
          "type": "bool"
        }
      ],
      "stateMutability": "pure",
      "type": "function"
    },
    {
      "inputs": [],
      "name": "isOwner",
      "outputs": [
        {
          "internalType": "bool",
          "name": "",
          "type": "bool"
        }
      ],
      "stateMutability": "view",
      "type": "function"
    },
    {
      "inputs": [],
      "name": "owner",
      "outputs": [
        {
          "internalType": "address payable",
          "name": "",
          "type": "address"
        }
      ],
      "stateMutability": "view",
      "type": "function"
    },
    {
      "inputs": [
        {
          "internalType": "uint256",
          "name": "_rfpId",
          "type": "uint256"
        }
      ],
      "name": "registertoOpenRFP",
      "outputs": [],
      "stateMutability": "payable",
      "type": "function"
    },
    {
      "inputs": [
        {
          "internalType": "uint256",
          "name": "newprice",
          "type": "uint256"
        }
      ],
      "name": "setCreateCompanyPrice",
      "outputs": [],
      "stateMutability": "nonpayable",
      "type": "function"
    },
    {
      "inputs": [
        {
          "internalType": "uint256",
          "name": "price",
          "type": "uint256"
        }
      ],
      "name": "setCreateInvitationRfpPrice",
      "outputs": [],
      "stateMutability": "nonpayable",
      "type": "function"
    },
    {
      "inputs": [
        {
          "internalType": "uint256",
          "name": "price",
          "type": "uint256"
        }
      ],
      "name": "setCreateOpenRfpPrice",
      "outputs": [],
      "stateMutability": "nonpayable",
      "type": "function"
    },
    {
      "inputs": [
        {
          "internalType": "uint256",
          "name": "MaxGuest",
          "type": "uint256"
        }
      ],
      "name": "setMaxGuestInvitationTender",
      "outputs": [],
      "stateMutability": "nonpayable",
      "type": "function"
    },
    {
      "inputs": [
        {
          "internalType": "uint256",
          "name": "MaxGuest",
          "type": "uint256"
        }
      ],
      "name": "setMaxGuestOpenTender",
      "outputs": [],
      "stateMutability": "nonpayable",
      "type": "function"
    },
    {
      "inputs": [
        {
          "internalType": "uint256",
          "name": "price",
          "type": "uint256"
        }
      ],
      "name": "setRegisterOpenRfpPrice",
      "outputs": [],
      "stateMutability": "nonpayable",
      "type": "function"
    },
    {
      "inputs": [],
      "name": "withdraw",
      "outputs": [],
      "stateMutability": "nonpayable",
      "type": "function"
    }
  ],
  "bytecode": "0x6080604052655af3107a4000600055655af3107a400060015565b5e620f48000600255655af3107a4000600355600a600455600a600555600060065533600b60006101000a81548173ffffffffffffffffffffffffffffffffffffffff021916908373ffffffffffffffffffffffffffffffffffffffff160217905550615ef08061008b6000396000f3fe6080604052600436106101ee5760003560e01c806367aabb1a1161010d578063be38013b116100a0578063ea1b4b1d1161006f578063ea1b4b1d146106e1578063ecbb7b4a1461070a578063ed72f89f14610735578063f1e60d2b14610751578063fb7207611461077a576101ee565b8063be38013b14610613578063c64928951461063e578063d6f343c51461067b578063d7a8529e146106b8576101ee565b80638da5cb5b116100dc5780638da5cb5b146105695780638e2999e4146105945780638f32d59b146105bd578063afeff8d9146105e8576101ee565b806367aabb1a146104bc5780636b1426a4146104f95780637b60626d1461053657806383197ef014610552576101ee565b8063482baf93116101855780635a6167c9116101545780635a6167c9146103ee5780635b6a96dc146104195780635d9c47f51461045657806362bc56e61461047f576101ee565b8063482baf93146103485780634ccba247146103715780634e289b881461039a57806357c4cab4146103c5576101ee565b80632d714f23116101c15780632d714f231461028e57806332f4b16a146102cb5780633ccfd60b14610308578063466c51fc1461031f576101ee565b80630a2a406c146101f35780630adc596e1461021c5780631393b9e814610238578063215cf05d14610263575b600080fd5b3480156101ff57600080fd5b5061021a6004803603810190610215919061406b565b6107a5565b005b6102366004803603810190610231919061417b565b610c84565b005b34801561024457600080fd5b5061024d611246565b60405161025a91906142b0565b60405180910390f35b34801561026f57600080fd5b50610278611250565b60405161028591906142b0565b60405180910390f35b34801561029a57600080fd5b506102b560048036038101906102b09190614329565b611256565b6040516102c2919061439e565b60405180910390f35b3480156102d757600080fd5b506102f260048036038101906102ed91906143b9565b6112a1565b6040516102ff91906147cb565b60405180910390f35b34801561031457600080fd5b5061031d61174e565b005b34801561032b57600080fd5b50610346600480360381019061034191906143b9565b61184a565b005b34801561035457600080fd5b5061036f600480360381019061036a91906148b0565b61189b565b005b34801561037d57600080fd5b50610398600480360381019061039391906143b9565b611d43565b005b3480156103a657600080fd5b506103af611d94565b6040516103bc91906142b0565b60405180910390f35b3480156103d157600080fd5b506103ec60048036038101906103e7919061493b565b611d9a565b005b3480156103fa57600080fd5b50610403611fe4565b60405161041091906142b0565b60405180910390f35b34801561042557600080fd5b50610440600480360381019061043b9190614997565b611fea565b60405161044d9190614a02565b60405180910390f35b34801561046257600080fd5b5061047d600480360381019061047891906143b9565b612072565b005b34801561048b57600080fd5b506104a660048036038101906104a19190614a1d565b6120c3565b6040516104b39190614b9e565b60405180910390f35b3480156104c857600080fd5b506104e360048036038101906104de9190614a1d565b61238c565b6040516104f09190614c2f565b60405180910390f35b34801561050557600080fd5b50610520600480360381019061051b91906143b9565b612426565b60405161052d9190614cc0565b60405180910390f35b610550600480360381019061054b9190614ce2565b6124ca565b005b34801561055e57600080fd5b50610567612820565b005b34801561057557600080fd5b5061057e6128a2565b60405161058b9190614daa565b60405180910390f35b3480156105a057600080fd5b506105bb60048036038101906105b691906143b9565b6128c8565b005b3480156105c957600080fd5b506105d2612919565b6040516105df9190614a02565b60405180910390f35b3480156105f457600080fd5b506105fd612971565b60405161060a91906142b0565b60405180910390f35b34801561061f57600080fd5b50610628612977565b60405161063591906142b0565b60405180910390f35b34801561064a57600080fd5b50610665600480360381019061066091906143b9565b61297d565b6040516106729190614f0b565b60405180910390f35b34801561068757600080fd5b506106a2600480360381019061069d9190614a1d565b612c05565b6040516106af9190614f77565b60405180910390f35b3480156106c457600080fd5b506106df60048036038101906106da91906143b9565b612cd9565b005b3480156106ed57600080fd5b50610708600480360381019061070391906143b9565b612d2a565b005b34801561071657600080fd5b5061071f612d7b565b60405161072c91906142b0565b60405180910390f35b61074f600480360381019061074a91906143b9565b612d81565b005b34801561075d57600080fd5b50610778600480360381019061077391906148b0565b6130c5565b005b34801561078657600080fd5b5061078f613873565b60405161079c9190614c2f565b60405180910390f35b600060096000878152602001908152602001600020600c0160009054906101000a900473ffffffffffffffffffffffffffffffffffffffff1673ffffffffffffffffffffffffffffffffffffffff163373ffffffffffffffffffffffffffffffffffffffff161490508061091d576000805b60096000898152602001908152602001600020600801805490508110156108da576009600089815260200190815260200160002060080181815481106108605761085f614f99565b5b9060005260206000200160009054906101000a900473ffffffffffffffffffffffffffffffffffffffff1673ffffffffffffffffffffffffffffffffffffffff163373ffffffffffffffffffffffffffffffffffffffff1614156108c757600191506108da565b80806108d290614ff7565b915050610817565b508061091b576040517f08c379a00000000000000000000000000000000000000000000000000000000081526004016109129061508c565b60405180910390fd5b505b6000805b85518160ff161015610c7a576000600781111561094157610940614556565b5b60ff16878260ff168151811061095a57610959614f99565b5b602002602001015160ff1614806109a65750600160078111156109805761097f614556565b5b60ff16878260ff168151811061099957610998614f99565b5b602002602001015160ff16145b806109e65750600260078111156109c0576109bf614556565b5b60ff16878260ff16815181106109d9576109d8614f99565b5b602002602001015160ff16145b91508215610a335781610a2e576040517f08c379a0000000000000000000000000000000000000000000000000000000008152600401610a25906150f8565b60405180910390fd5b610acd565b8115610a74576040517f08c379a0000000000000000000000000000000000000000000000000000000008152600401610a6b90615164565b60405180910390fd5b42600960008a81526020019081526020016000206005015411610acc576040517f08c379a0000000000000000000000000000000000000000000000000000000008152600401610ac3906151d0565b60405180910390fd5b5b600a60008981526020019081526020016000206040518060a00160405280898460ff1681518110610b0157610b00614f99565b5b602002602001015160ff168152602001888460ff1681518110610b2757610b26614f99565b5b602002602001015181526020013373ffffffffffffffffffffffffffffffffffffffff168152602001878460ff1681518110610b6657610b65614f99565b5b60200260200101518152602001868460ff1681518110610b8957610b88614f99565b5b60200260200101518152509080600181540180825580915050600190039060005260206000209060050201600090919091909150600082015181600001556020820151816001019080519060200190610be3929190613a40565b5060408201518160020160006101000a81548173ffffffffffffffffffffffffffffffffffffffff021916908373ffffffffffffffffffffffffffffffffffffffff1602179055506060820151816003019080519060200190610c47929190613a40565b506080820151816004019080519060200190610c64929190613a40565b5050508080610c72906151f0565b915050610921565b5050505050505050565b6000610c908933611256565b9050600c600082815260200190815260200160002060009054906101000a900460ff1615610cf3576040517f08c379a0000000000000000000000000000000000000000000000000000000008152600401610cea90615266565b60405180910390fd5b60006001811115610d0757610d06614556565b5b836001811115610d1a57610d19614556565b5b1415610d6a57600154341015610d65576040517f08c379a0000000000000000000000000000000000000000000000000000000008152600401610d5c906152d2565b60405180910390fd5b610db0565b600254341015610daf576040517f08c379a0000000000000000000000000000000000000000000000000000000008152600401610da6906152d2565b60405180910390fd5b5b6000610dbb336120c3565b9050600081600001519050600081511415610e0b576040517f08c379a0000000000000000000000000000000000000000000000000000000008152600401610e029061533e565b60405180910390fd5b868810610e4d576040517f08c379a0000000000000000000000000000000000000000000000000000000008152600401610e44906153aa565b60405180910390fd5b858710610e8f576040517f08c379a0000000000000000000000000000000000000000000000000000000008152600401610e8690615416565b60405180910390fd5b6000610e99611246565b90506000604051806101a001604052808e81526020018d81526020018381526020018c81526020018b81526020018a8152602001898152602001600015158152602001600067ffffffffffffffff811115610ef757610ef6613d59565b5b604051908082528060200260200182016040528015610f255781602001602082028036833780820191505090505b508152602001886001811115610f3e57610f3d614556565b5b8152602001878152602001600067ffffffffffffffff811115610f6457610f63613d59565b5b604051908082528060200260200182016040528015610f925781602001602082028036833780820191505090505b5081526020013373ffffffffffffffffffffffffffffffffffffffff1681525090506001600c600087815260200190815260200160002060006101000a81548160ff02191690831515021790555080600960008481526020019081526020016000206000820151816000019080519060200190611010929190613a40565b50602082015181600101908051906020019061102d929190613a40565b50604082015181600201556060820151816003019080519060200190611054929190613a40565b506080820151816004015560a0820151816005015560c0820151816006015560e08201518160070160006101000a81548160ff0219169083151502179055506101008201518160080190805190602001906110b0929190613ac6565b506101208201518160090160006101000a81548160ff021916908360018111156110dd576110dc614556565b5b021790555061014082015181600a0190805190602001906110ff929190613b50565b5061016082015181600b01908051906020019061111d929190613ac6565b5061018082015181600c0160006101000a81548173ffffffffffffffffffffffffffffffffffffffff021916908373ffffffffffffffffffffffffffffffffffffffff160217905550905050600760003373ffffffffffffffffffffffffffffffffffffffff1673ffffffffffffffffffffffffffffffffffffffff1681526020019081526020016000206005018290806001815401808255809150506001900390600052602060002001600090919091909150553373ffffffffffffffffffffffffffffffffffffffff167fae438a3ef380e4b013ba12bcb929a59140482304040a1d8cf54d25c8e85640e9838f60405161121a929190615436565b60405180910390a26112376001836112329190615466565b61390b565b50505050505050505050505050565b6000600654905090565b60005481565b6000808380519060200120905060008184604051602001611278929190615525565b604051602081830303815290604052905060008180519060200120905080935050505092915050565b6112a9613bb0565b60096000838152602001908152602001600020604051806101a00160405290816000820180546112d890615580565b80601f016020809104026020016040519081016040528092919081815260200182805461130490615580565b80156113515780601f1061132657610100808354040283529160200191611351565b820191906000526020600020905b81548152906001019060200180831161133457829003601f168201915b5050505050815260200160018201805461136a90615580565b80601f016020809104026020016040519081016040528092919081815260200182805461139690615580565b80156113e35780601f106113b8576101008083540402835291602001916113e3565b820191906000526020600020905b8154815290600101906020018083116113c657829003601f168201915b505050505081526020016002820154815260200160038201805461140690615580565b80601f016020809104026020016040519081016040528092919081815260200182805461143290615580565b801561147f5780601f106114545761010080835404028352916020019161147f565b820191906000526020600020905b81548152906001019060200180831161146257829003601f168201915b505050505081526020016004820154815260200160058201548152602001600682015481526020016007820160009054906101000a900460ff161515151581526020016008820180548060200260200160405190810160405280929190818152602001828054801561154657602002820191906000526020600020905b8160009054906101000a900473ffffffffffffffffffffffffffffffffffffffff1673ffffffffffffffffffffffffffffffffffffffff16815260200190600101908083116114fc575b505050505081526020016009820160009054906101000a900460ff16600181111561157457611573614556565b5b600181111561158657611585614556565b5b8152602001600a8201805480602002602001604051908101604052809291908181526020016000905b8282101561165b5783829060005260206000200180546115ce90615580565b80601f01602080910402602001604051908101604052809291908181526020018280546115fa90615580565b80156116475780601f1061161c57610100808354040283529160200191611647565b820191906000526020600020905b81548152906001019060200180831161162a57829003601f168201915b5050505050815260200190600101906115af565b505050508152602001600b82018054806020026020016040519081016040528092919081815260200182805480156116e857602002820191906000526020600020905b8160009054906101000a900473ffffffffffffffffffffffffffffffffffffffff1673ffffffffffffffffffffffffffffffffffffffff168152602001906001019080831161169e575b50505050508152602001600c820160009054906101000a900473ffffffffffffffffffffffffffffffffffffffff1673ffffffffffffffffffffffffffffffffffffffff1673ffffffffffffffffffffffffffffffffffffffff16815250509050919050565b611756612919565b611795576040517f08c379a000000000000000000000000000000000000000000000000000000000815260040161178c906155fe565b60405180910390fd5b600047905060003373ffffffffffffffffffffffffffffffffffffffff16826040516117c09061564f565b60006040518083038185875af1925050503d80600081146117fd576040519150601f19603f3d011682016040523d82523d6000602084013e611802565b606091505b5050905080611846576040517f08c379a000000000000000000000000000000000000000000000000000000000815260040161183d906156b0565b60405180910390fd5b5050565b611852612919565b611891576040517f08c379a0000000000000000000000000000000000000000000000000000000008152600401611888906155fe565b60405180910390fd5b8060008190555050565b81611970600760003373ffffffffffffffffffffffffffffffffffffffff1673ffffffffffffffffffffffffffffffffffffffff16815260200190815260200160002060000180546118ec90615580565b80601f016020809104026020016040519081016040528092919081815260200182805461191890615580565b80156119655780601f1061193a57610100808354040283529160200191611965565b820191906000526020600020905b81548152906001019060200180831161194857829003601f168201915b505050505082613915565b6119af576040517f08c379a00000000000000000000000000000000000000000000000000000000081526004016119a69061571c565b60405180910390fd5b833373ffffffffffffffffffffffffffffffffffffffff1660096000838152602001908152602001600020600c0160009054906101000a900473ffffffffffffffffffffffffffffffffffffffff1673ffffffffffffffffffffffffffffffffffffffff1614611a54576040517f08c379a0000000000000000000000000000000000000000000000000000000008152600401611a4b90615788565b60405180910390fd5b600180811115611a6757611a66614556565b5b6009600087815260200190815260200160002060090160009054906101000a900460ff166001811115611a9d57611a9c614556565b5b14611add576040517f08c379a0000000000000000000000000000000000000000000000000000000008152600401611ad4906157f4565b60405180910390fd5b60055483516009600088815260200190815260200160002060080180549050611b069190615466565b1115611b47576040517f08c379a0000000000000000000000000000000000000000000000000000000008152600401611b3e90615860565b60405180910390fd5b60005b8351811015611d3b57600060019050848281518110611b6c57611b6b614f99565b5b602002602001015173ffffffffffffffffffffffffffffffffffffffff163373ffffffffffffffffffffffffffffffffffffffff161415611bad5750611d28565b60005b6009600089815260200190815260200160002060080180549050811015611c8d57858381518110611be457611be3614f99565b5b602002602001015173ffffffffffffffffffffffffffffffffffffffff16600960008a81526020019081526020016000206008018281548110611c2a57611c29614f99565b5b9060005260206000200160009054906101000a900473ffffffffffffffffffffffffffffffffffffffff1673ffffffffffffffffffffffffffffffffffffffff161415611c7a5760009150611c8d565b8080611c8590614ff7565b915050611bb0565b508015611d265760096000888152602001908152602001600020600801858381518110611cbd57611cbc614f99565b5b60200260200101519080600181540180825580915050600190039060005260206000200160009091909190916101000a81548173ffffffffffffffffffffffffffffffffffffffff021916908373ffffffffffffffffffffffffffffffffffffffff1602179055505b505b8080611d3390614ff7565b915050611b4a565b505050505050565b611d4b612919565b611d8a576040517f08c379a0000000000000000000000000000000000000000000000000000000008152600401611d81906155fe565b60405180910390fd5b8060048190555050565b60015481565b81611e6f600760003373ffffffffffffffffffffffffffffffffffffffff1673ffffffffffffffffffffffffffffffffffffffff1681526020019081526020016000206000018054611deb90615580565b80601f0160208091040260200160405190810160405280929190818152602001828054611e1790615580565b8015611e645780601f10611e3957610100808354040283529160200191611e64565b820191906000526020600020905b815481529060010190602001808311611e4757829003601f168201915b505050505082613915565b611eae576040517f08c379a0000000000000000000000000000000000000000000000000000000008152600401611ea59061571c565b60405180910390fd5b813373ffffffffffffffffffffffffffffffffffffffff1660096000838152602001908152602001600020600c0160009054906101000a900473ffffffffffffffffffffffffffffffffffffffff1673ffffffffffffffffffffffffffffffffffffffff1614611f53576040517f08c379a0000000000000000000000000000000000000000000000000000000008152600401611f4a90615788565b60405180910390fd5b600060096000858152602001908152602001600020600b018054905014611faf576040517f08c379a0000000000000000000000000000000000000000000000000000000008152600401611fa6906158cc565b60405180910390fd5b60016009600085815260200190815260200160002060070160006101000a81548160ff02191690831515021790555050505050565b60055481565b600080600090505b8351811015612066578273ffffffffffffffffffffffffffffffffffffffff1684828151811061202557612024614f99565b5b602002602001015173ffffffffffffffffffffffffffffffffffffffff16141561205357600191505061206c565b808061205e90614ff7565b915050611ff2565b50600090505b92915050565b61207a612919565b6120b9576040517f08c379a00000000000000000000000000000000000000000000000000000000081526004016120b0906155fe565b60405180910390fd5b8060018190555050565b6120cb613c42565b600760008373ffffffffffffffffffffffffffffffffffffffff1673ffffffffffffffffffffffffffffffffffffffff1681526020019081526020016000206040518060c001604052908160008201805461212590615580565b80601f016020809104026020016040519081016040528092919081815260200182805461215190615580565b801561219e5780601f106121735761010080835404028352916020019161219e565b820191906000526020600020905b81548152906001019060200180831161218157829003601f168201915b505050505081526020016001820180546121b790615580565b80601f01602080910402602001604051908101604052809291908181526020018280546121e390615580565b80156122305780601f1061220557610100808354040283529160200191612230565b820191906000526020600020905b81548152906001019060200180831161221357829003601f168201915b5050505050815260200160028201805461224990615580565b80601f016020809104026020016040519081016040528092919081815260200182805461227590615580565b80156122c25780601f10612297576101008083540402835291602001916122c2565b820191906000526020600020905b8154815290600101906020018083116122a557829003601f168201915b50505050508152602001600382015481526020016004820180548060200260200160405190810160405280929190818152602001828054801561232457602002820191906000526020600020905b815481526020019060010190808311612310575b505050505081526020016005820180548060200260200160405190810160405280929190818152602001828054801561237c57602002820191906000526020600020905b815481526020019060010190808311612368575b5050505050815250509050919050565b6060600760008373ffffffffffffffffffffffffffffffffffffffff1673ffffffffffffffffffffffffffffffffffffffff16815260200190815260200160002060050180548060200260200160405190810160405280929190818152602001828054801561241a57602002820191906000526020600020905b815481526020019060010190808311612406575b50505050509050919050565b606060096000838152602001908152602001600020600b018054806020026020016040519081016040528092919081815260200182805480156124be57602002820191906000526020600020905b8160009054906101000a900473ffffffffffffffffffffffffffffffffffffffff1673ffffffffffffffffffffffffffffffffffffffff1681526020019060010190808311612474575b50505050509050919050565b6008836040516124da9190615928565b908152602001604051809103902060009054906101000a900460ff1615612536576040517f08c379a000000000000000000000000000000000000000000000000000000000815260040161252d9061598b565b60405180910390fd5b60005434101561257b576040517f08c379a0000000000000000000000000000000000000000000000000000000008152600401612572906152d2565b60405180910390fd5b6000600760003373ffffffffffffffffffffffffffffffffffffffff1673ffffffffffffffffffffffffffffffffffffffff16815260200190815260200160002060000180546125ca90615580565b80601f01602080910402602001604051908101604052809291908181526020018280546125f690615580565b80156126435780601f1061261857610100808354040283529160200191612643565b820191906000526020600020905b81548152906001019060200180831161262657829003601f168201915b50505050509050600081511461268e576040517f08c379a0000000000000000000000000000000000000000000000000000000008152600401612685906159f7565b60405180910390fd5b83600760003373ffffffffffffffffffffffffffffffffffffffff1673ffffffffffffffffffffffffffffffffffffffff16815260200190815260200160002060000190805190602001906126e4929190613a40565b5082600760003373ffffffffffffffffffffffffffffffffffffffff1673ffffffffffffffffffffffffffffffffffffffff168152602001908152602001600020600101908051906020019061273b929190613a40565b5081600760003373ffffffffffffffffffffffffffffffffffffffff1673ffffffffffffffffffffffffffffffffffffffff1681526020019081526020016000206002019080519060200190612792929190613a40565b5060016008856040516127a59190615928565b908152602001604051809103902060006101000a81548160ff0219169083151502179055503373ffffffffffffffffffffffffffffffffffffffff167fca91b92c76087c9c2ef1e3e1caa026c5de706bdbb1c952d8404727234974707b8585604051612812929190615a17565b60405180910390a250505050565b612828612919565b612867576040517f08c379a000000000000000000000000000000000000000000000000000000000815260040161285e906155fe565b60405180910390fd5b600b60009054906101000a900473ffffffffffffffffffffffffffffffffffffffff1673ffffffffffffffffffffffffffffffffffffffff16ff5b600b60009054906101000a900473ffffffffffffffffffffffffffffffffffffffff1681565b6128d0612919565b61290f576040517f08c379a0000000000000000000000000000000000000000000000000000000008152600401612906906155fe565b60405180910390fd5b8060058190555050565b6000600b60009054906101000a900473ffffffffffffffffffffffffffffffffffffffff1673ffffffffffffffffffffffffffffffffffffffff163373ffffffffffffffffffffffffffffffffffffffff1614905090565b60025481565b60035481565b6060600a6000838152602001908152602001600020805480602002602001604051908101604052809291908181526020016000905b82821015612bfa57838290600052602060002090600502016040518060a0016040529081600082015481526020016001820180546129ef90615580565b80601f0160208091040260200160405190810160405280929190818152602001828054612a1b90615580565b8015612a685780601f10612a3d57610100808354040283529160200191612a68565b820191906000526020600020905b815481529060010190602001808311612a4b57829003601f168201915b505050505081526020016002820160009054906101000a900473ffffffffffffffffffffffffffffffffffffffff1673ffffffffffffffffffffffffffffffffffffffff1673ffffffffffffffffffffffffffffffffffffffff168152602001600382018054612ad790615580565b80601f0160208091040260200160405190810160405280929190818152602001828054612b0390615580565b8015612b505780601f10612b2557610100808354040283529160200191612b50565b820191906000526020600020905b815481529060010190602001808311612b3357829003601f168201915b50505050508152602001600482018054612b6990615580565b80601f0160208091040260200160405190810160405280929190818152602001828054612b9590615580565b8015612be25780601f10612bb757610100808354040283529160200191612be2565b820191906000526020600020905b815481529060010190602001808311612bc557829003601f168201915b505050505081525050815260200190600101906129b2565b505050509050919050565b6060600760008373ffffffffffffffffffffffffffffffffffffffff1673ffffffffffffffffffffffffffffffffffffffff1681526020019081526020016000206000018054612c5490615580565b80601f0160208091040260200160405190810160405280929190818152602001828054612c8090615580565b8015612ccd5780601f10612ca257610100808354040283529160200191612ccd565b820191906000526020600020905b815481529060010190602001808311612cb057829003601f168201915b50505050509050919050565b612ce1612919565b612d20576040517f08c379a0000000000000000000000000000000000000000000000000000000008152600401612d17906155fe565b60405180910390fd5b8060038190555050565b612d32612919565b612d71576040517f08c379a0000000000000000000000000000000000000000000000000000000008152600401612d68906155fe565b60405180910390fd5b8060028190555050565b60045481565b600354341015612dc6576040517f08c379a0000000000000000000000000000000000000000000000000000000008152600401612dbd90615a9a565b60405180910390fd5b60006001811115612dda57612dd9614556565b5b6009600083815260200190815260200160002060090160009054906101000a900460ff166001811115612e1057612e0f614556565b5b14612e50576040517f08c379a0000000000000000000000000000000000000000000000000000000008152600401612e4790615b06565b60405180910390fd5b600454600960008381526020019081526020016000206008018054905010612ead576040517f08c379a0000000000000000000000000000000000000000000000000000000008152600401612ea490615b72565b60405180910390fd5b60096000828152602001908152602001600020600c0160009054906101000a900473ffffffffffffffffffffffffffffffffffffffff1673ffffffffffffffffffffffffffffffffffffffff163373ffffffffffffffffffffffffffffffffffffffff161415612f52576040517f08c379a0000000000000000000000000000000000000000000000000000000008152600401612f4990615bde565b60405180910390fd5b60005b600960008381526020019081526020016000206008018054905081101561304a573373ffffffffffffffffffffffffffffffffffffffff16600960008481526020019081526020016000206008018281548110612fb557612fb4614f99565b5b9060005260206000200160009054906101000a900473ffffffffffffffffffffffffffffffffffffffff1673ffffffffffffffffffffffffffffffffffffffff161415613037576040517f08c379a000000000000000000000000000000000000000000000000000000000815260040161302e90615c4a565b60405180910390fd5b808061304290614ff7565b915050612f55565b5060096000828152602001908152602001600020600801339080600181540180825580915050600190039060005260206000200160009091909190916101000a81548173ffffffffffffffffffffffffffffffffffffffff021916908373ffffffffffffffffffffffffffffffffffffffff16021790555050565b8161319a600760003373ffffffffffffffffffffffffffffffffffffffff1673ffffffffffffffffffffffffffffffffffffffff168152602001908152602001600020600001805461311690615580565b80601f016020809104026020016040519081016040528092919081815260200182805461314290615580565b801561318f5780601f106131645761010080835404028352916020019161318f565b820191906000526020600020905b81548152906001019060200180831161317257829003601f168201915b505050505082613915565b6131d9576040517f08c379a00000000000000000000000000000000000000000000000000000000081526004016131d09061571c565b60405180910390fd5b833373ffffffffffffffffffffffffffffffffffffffff1660096000838152602001908152602001600020600c0160009054906101000a900473ffffffffffffffffffffffffffffffffffffffff1673ffffffffffffffffffffffffffffffffffffffff161461327e576040517f08c379a000000000000000000000000000000000000000000000000000000000815260040161327590615788565b60405180910390fd5b600060096000878152602001908152602001600020600b0180549050146132da576040517f08c379a00000000000000000000000000000000000000000000000000000000081526004016132d1906158cc565b60405180910390fd5b6009600086815260200190815260200160002060070160009054906101000a900460ff161561333e576040517f08c379a000000000000000000000000000000000000000000000000000000000815260040161333590615cb6565b60405180910390fd5b600060096000878152602001908152602001600020600a01805490509050600081148061336b5750600181145b8015613378575060018451145b8061339057506002811015801561338f5750808451145b5b6133cf576040517f08c379a00000000000000000000000000000000000000000000000000000000081526004016133c690615d22565b60405180910390fd5b6000429050600960008881526020019081526020016000206006015481101561342d576040517f08c379a000000000000000000000000000000000000000000000000000000000815260040161342490615d8e565b60405180910390fd5b60005b8551811015613869573373ffffffffffffffffffffffffffffffffffffffff1686828151811061346357613462614f99565b5b602002602001015173ffffffffffffffffffffffffffffffffffffffff1614156134c2576040517f08c379a00000000000000000000000000000000000000000000000000000000081526004016134b990615dfa565b60405180910390fd5b6135808682815181106134d8576134d7614f99565b5b6020026020010151600960008b815260200190815260200160002060080180548060200260200160405190810160405280929190818152602001828054801561357657602002820191906000526020600020905b8160009054906101000a900473ffffffffffffffffffffffffffffffffffffffff1673ffffffffffffffffffffffffffffffffffffffff168152602001906001019080831161352c575b5050505050613981565b6135bf576040517f08c379a00000000000000000000000000000000000000000000000000000000081526004016135b690615e66565b60405180910390fd5b60096000898152602001908152602001600020600b018682815181106135e8576135e7614f99565b5b60200260200101519080600181540180825580915050600190039060005260206000200160009091909190916101000a81548173ffffffffffffffffffffffffffffffffffffffff021916908373ffffffffffffffffffffffffffffffffffffffff16021790555060006007600088848151811061366957613668614f99565b5b602002602001015173ffffffffffffffffffffffffffffffffffffffff1673ffffffffffffffffffffffffffffffffffffffff168152602001908152602001600020600401805490509050600081141561374557600760008884815181106136d4576136d3614f99565b5b602002602001015173ffffffffffffffffffffffffffffffffffffffff1673ffffffffffffffffffffffffffffffffffffffff168152602001908152602001600020600401899080600181540180825580915050600190039060005260206000200160009091909190915055613855565b886007600089858151811061375d5761375c614f99565b5b602002602001015173ffffffffffffffffffffffffffffffffffffffff1673ffffffffffffffffffffffffffffffffffffffff1681526020019081526020016000206004016001836137af9190615e86565b815481106137c0576137bf614f99565b5b90600052602060002001541461385457600760008884815181106137e7576137e6614f99565b5b602002602001015173ffffffffffffffffffffffffffffffffffffffff1673ffffffffffffffffffffffffffffffffffffffff1681526020019081526020016000206004018990806001815401808255809150506001900390600052602060002001600090919091909150555b5b50808061386190614ff7565b915050613430565b5050505050505050565b6060600760003373ffffffffffffffffffffffffffffffffffffffff1673ffffffffffffffffffffffffffffffffffffffff16815260200190815260200160002060040180548060200260200160405190810160405280929190818152602001828054801561390157602002820191906000526020600020905b8154815260200190600101908083116138ed575b5050505050905090565b8060068190555050565b60008151835114613929576000905061397b565b8160405160200161393a9190615928565b60405160208183030381529060405280519060200120836040516020016139619190615928565b604051602081830303815290604052805190602001201490505b92915050565b600080600090505b8251811015613a34578281815181106139a5576139a4614f99565b5b602002602001015173ffffffffffffffffffffffffffffffffffffffff168473ffffffffffffffffffffffffffffffffffffffff161480613a125750600073ffffffffffffffffffffffffffffffffffffffff168473ffffffffffffffffffffffffffffffffffffffff16145b15613a21576001915050613a3a565b8080613a2c90614ff7565b915050613989565b50600090505b92915050565b828054613a4c90615580565b90600052602060002090601f016020900481019282613a6e5760008555613ab5565b82601f10613a8757805160ff1916838001178555613ab5565b82800160010185558215613ab5579182015b82811115613ab4578251825591602001919060010190613a99565b5b509050613ac29190613c78565b5090565b828054828255906000526020600020908101928215613b3f579160200282015b82811115613b3e5782518260006101000a81548173ffffffffffffffffffffffffffffffffffffffff021916908373ffffffffffffffffffffffffffffffffffffffff16021790555091602001919060010190613ae6565b5b509050613b4c9190613c78565b5090565b828054828255906000526020600020908101928215613b9f579160200282015b82811115613b9e578251829080519060200190613b8e929190613a40565b5091602001919060010190613b70565b5b509050613bac9190613c95565b5090565b604051806101a00160405280606081526020016060815260200160008152602001606081526020016000815260200160008152602001600081526020016000151581526020016060815260200160006001811115613c1157613c10614556565b5b81526020016060815260200160608152602001600073ffffffffffffffffffffffffffffffffffffffff1681525090565b6040518060c001604052806060815260200160608152602001606081526020016000815260200160608152602001606081525090565b5b80821115613c91576000816000905550600101613c79565b5090565b5b80821115613cb55760008181613cac9190613cb9565b50600101613c96565b5090565b508054613cc590615580565b6000825580601f10613cd75750613cf6565b601f016020900490600052602060002090810190613cf59190613c78565b5b50565b6000604051905090565b600080fd5b600080fd5b6000819050919050565b613d2081613d0d565b8114613d2b57600080fd5b50565b600081359050613d3d81613d17565b92915050565b600080fd5b6000601f19601f8301169050919050565b7f4e487b7100000000000000000000000000000000000000000000000000000000600052604160045260246000fd5b613d9182613d48565b810181811067ffffffffffffffff82111715613db057613daf613d59565b5b80604052505050565b6000613dc3613cf9565b9050613dcf8282613d88565b919050565b600067ffffffffffffffff821115613def57613dee613d59565b5b602082029050602081019050919050565b600080fd5b600060ff82169050919050565b613e1b81613e05565b8114613e2657600080fd5b50565b600081359050613e3881613e12565b92915050565b6000613e51613e4c84613dd4565b613db9565b90508083825260208201905060208402830185811115613e7457613e73613e00565b5b835b81811015613e9d5780613e898882613e29565b845260208401935050602081019050613e76565b5050509392505050565b600082601f830112613ebc57613ebb613d43565b5b8135613ecc848260208601613e3e565b91505092915050565b600067ffffffffffffffff821115613ef057613eef613d59565b5b602082029050602081019050919050565b600080fd5b600067ffffffffffffffff821115613f2157613f20613d59565b5b613f2a82613d48565b9050602081019050919050565b82818337600083830152505050565b6000613f59613f5484613f06565b613db9565b905082815260208101848484011115613f7557613f74613f01565b5b613f80848285613f37565b509392505050565b600082601f830112613f9d57613f9c613d43565b5b8135613fad848260208601613f46565b91505092915050565b6000613fc9613fc484613ed5565b613db9565b90508083825260208201905060208402830185811115613fec57613feb613e00565b5b835b8181101561403357803567ffffffffffffffff81111561401157614010613d43565b5b80860161401e8982613f88565b85526020850194505050602081019050613fee565b5050509392505050565b600082601f83011261405257614051613d43565b5b8135614062848260208601613fb6565b91505092915050565b600080600080600060a0868803121561408757614086613d03565b5b600061409588828901613d2e565b955050602086013567ffffffffffffffff8111156140b6576140b5613d08565b5b6140c288828901613ea7565b945050604086013567ffffffffffffffff8111156140e3576140e2613d08565b5b6140ef8882890161403d565b935050606086013567ffffffffffffffff8111156141105761410f613d08565b5b61411c8882890161403d565b925050608086013567ffffffffffffffff81111561413d5761413c613d08565b5b6141498882890161403d565b9150509295509295909350565b6002811061416357600080fd5b50565b60008135905061417581614156565b92915050565b600080600080600080600080610100898b03121561419c5761419b613d03565b5b600089013567ffffffffffffffff8111156141ba576141b9613d08565b5b6141c68b828c01613f88565b985050602089013567ffffffffffffffff8111156141e7576141e6613d08565b5b6141f38b828c01613f88565b975050604089013567ffffffffffffffff81111561421457614213613d08565b5b6142208b828c01613f88565b96505060606142318b828c01613d2e565b95505060806142428b828c01613d2e565b94505060a06142538b828c01613d2e565b93505060c06142648b828c01614166565b92505060e089013567ffffffffffffffff81111561428557614284613d08565b5b6142918b828c0161403d565b9150509295985092959890939650565b6142aa81613d0d565b82525050565b60006020820190506142c560008301846142a1565b92915050565b600073ffffffffffffffffffffffffffffffffffffffff82169050919050565b60006142f6826142cb565b9050919050565b614306816142eb565b811461431157600080fd5b50565b600081359050614323816142fd565b92915050565b600080604083850312156143405761433f613d03565b5b600083013567ffffffffffffffff81111561435e5761435d613d08565b5b61436a85828601613f88565b925050602061437b85828601614314565b9150509250929050565b6000819050919050565b61439881614385565b82525050565b60006020820190506143b3600083018461438f565b92915050565b6000602082840312156143cf576143ce613d03565b5b60006143dd84828501613d2e565b91505092915050565b600081519050919050565b600082825260208201905092915050565b60005b83811015614420578082015181840152602081019050614405565b8381111561442f576000848401525b50505050565b6000614440826143e6565b61444a81856143f1565b935061445a818560208601614402565b61446381613d48565b840191505092915050565b61447781613d0d565b82525050565b60008115159050919050565b6144928161447d565b82525050565b600081519050919050565b600082825260208201905092915050565b6000819050602082019050919050565b6144cd816142eb565b82525050565b60006144df83836144c4565b60208301905092915050565b6000602082019050919050565b600061450382614498565b61450d81856144a3565b9350614518836144b4565b8060005b8381101561454957815161453088826144d3565b975061453b836144eb565b92505060018101905061451c565b5085935050505092915050565b7f4e487b7100000000000000000000000000000000000000000000000000000000600052602160045260246000fd5b6002811061459657614595614556565b5b50565b60008190506145a782614585565b919050565b60006145b782614599565b9050919050565b6145c7816145ac565b82525050565b600081519050919050565b600082825260208201905092915050565b6000819050602082019050919050565b60006146058383614435565b905092915050565b6000602082019050919050565b6000614625826145cd565b61462f81856145d8565b935083602082028501614641856145e9565b8060005b8581101561467d578484038952815161465e85826145f9565b94506146698361460d565b925060208a01995050600181019050614645565b50829750879550505050505092915050565b60006101a08301600083015184820360008601526146ad8282614435565b915050602083015184820360208601526146c78282614435565b91505060408301516146dc604086018261446e565b50606083015184820360608601526146f48282614435565b9150506080830151614709608086018261446e565b5060a083015161471c60a086018261446e565b5060c083015161472f60c086018261446e565b5060e083015161474260e0860182614489565b5061010083015184820361010086015261475c82826144f8565b9150506101208301516147736101208601826145be565b5061014083015184820361014086015261478d828261461a565b9150506101608301518482036101608601526147a982826144f8565b9150506101808301516147c06101808601826144c4565b508091505092915050565b600060208201905081810360008301526147e5818461468f565b905092915050565b600067ffffffffffffffff82111561480857614807613d59565b5b602082029050602081019050919050565b600061482c614827846147ed565b613db9565b9050808382526020820190506020840283018581111561484f5761484e613e00565b5b835b8181101561487857806148648882614314565b845260208401935050602081019050614851565b5050509392505050565b600082601f83011261489757614896613d43565b5b81356148a7848260208601614819565b91505092915050565b6000806000606084860312156148c9576148c8613d03565b5b60006148d786828701613d2e565b935050602084013567ffffffffffffffff8111156148f8576148f7613d08565b5b61490486828701613f88565b925050604084013567ffffffffffffffff81111561492557614924613d08565b5b61493186828701614882565b9150509250925092565b6000806040838503121561495257614951613d03565b5b600083013567ffffffffffffffff8111156149705761496f613d08565b5b61497c85828601613f88565b925050602061498d85828601613d2e565b9150509250929050565b600080604083850312156149ae576149ad613d03565b5b600083013567ffffffffffffffff8111156149cc576149cb613d08565b5b6149d885828601614882565b92505060206149e985828601614314565b9150509250929050565b6149fc8161447d565b82525050565b6000602082019050614a1760008301846149f3565b92915050565b600060208284031215614a3357614a32613d03565b5b6000614a4184828501614314565b91505092915050565b600081519050919050565b600082825260208201905092915050565b6000819050602082019050919050565b6000614a82838361446e565b60208301905092915050565b6000602082019050919050565b6000614aa682614a4a565b614ab08185614a55565b9350614abb83614a66565b8060005b83811015614aec578151614ad38882614a76565b9750614ade83614a8e565b925050600181019050614abf565b5085935050505092915050565b600060c0830160008301518482036000860152614b168282614435565b91505060208301518482036020860152614b308282614435565b91505060408301518482036040860152614b4a8282614435565b9150506060830151614b5f606086018261446e565b5060808301518482036080860152614b778282614a9b565b91505060a083015184820360a0860152614b918282614a9b565b9150508091505092915050565b60006020820190508181036000830152614bb88184614af9565b905092915050565b600082825260208201905092915050565b6000614bdc82614a4a565b614be68185614bc0565b9350614bf183614a66565b8060005b83811015614c22578151614c098882614a76565b9750614c1483614a8e565b925050600181019050614bf5565b5085935050505092915050565b60006020820190508181036000830152614c498184614bd1565b905092915050565b600082825260208201905092915050565b6000614c6d82614498565b614c778185614c51565b9350614c82836144b4565b8060005b83811015614cb3578151614c9a88826144d3565b9750614ca5836144eb565b925050600181019050614c86565b5085935050505092915050565b60006020820190508181036000830152614cda8184614c62565b905092915050565b600080600060608486031215614cfb57614cfa613d03565b5b600084013567ffffffffffffffff811115614d1957614d18613d08565b5b614d2586828701613f88565b935050602084013567ffffffffffffffff811115614d4657614d45613d08565b5b614d5286828701613f88565b925050604084013567ffffffffffffffff811115614d7357614d72613d08565b5b614d7f86828701613f88565b9150509250925092565b6000614d94826142cb565b9050919050565b614da481614d89565b82525050565b6000602082019050614dbf6000830184614d9b565b92915050565b600081519050919050565b600082825260208201905092915050565b6000819050602082019050919050565b600060a083016000830151614e09600086018261446e565b5060208301518482036020860152614e218282614435565b9150506040830151614e3660408601826144c4565b5060608301518482036060860152614e4e8282614435565b91505060808301518482036080860152614e688282614435565b9150508091505092915050565b6000614e818383614df1565b905092915050565b6000602082019050919050565b6000614ea182614dc5565b614eab8185614dd0565b935083602082028501614ebd85614de1565b8060005b85811015614ef95784840389528151614eda8582614e75565b9450614ee583614e89565b925060208a01995050600181019050614ec1565b50829750879550505050505092915050565b60006020820190508181036000830152614f258184614e96565b905092915050565b600082825260208201905092915050565b6000614f49826143e6565b614f538185614f2d565b9350614f63818560208601614402565b614f6c81613d48565b840191505092915050565b60006020820190508181036000830152614f918184614f3e565b905092915050565b7f4e487b7100000000000000000000000000000000000000000000000000000000600052603260045260246000fd5b7f4e487b7100000000000000000000000000000000000000000000000000000000600052601160045260246000fd5b600061500282613d0d565b91507fffffffffffffffffffffffffffffffffffffffffffffffffffffffffffffffff82141561503557615034614fc8565b5b600182019050919050565b7f6e6f745f7061727469636970616e740000000000000000000000000000000000600082015250565b6000615076600f83614f2d565b915061508182615040565b602082019050919050565b600060208201905081810360008301526150a581615069565b9050919050565b7f6973737565725f6261645f646f63747970650000000000000000000000000000600082015250565b60006150e2601283614f2d565b91506150ed826150ac565b602082019050919050565b60006020820190508181036000830152615111816150d5565b9050919050565b7f7061727469636970616e745f6261645f646f6374797065000000000000000000600082015250565b600061514e601783614f2d565b915061515982615118565b602082019050919050565b6000602082019050818103600083015261517d81615141565b9050919050565b7f656e645f726563656976696e675f726561636865640000000000000000000000600082015250565b60006151ba601583614f2d565b91506151c582615184565b602082019050919050565b600060208201905081810360008301526151e9816151ad565b9050919050565b60006151fb82613e05565b915060ff82141561520f5761520e614fc8565b5b600182019050919050565b7f72667069645f616c72656164795f74616b656e00000000000000000000000000600082015250565b6000615250601383614f2d565b915061525b8261521a565b602082019050919050565b6000602082019050818103600083015261527f81615243565b9050919050565b7f496e73756666696369656e745f7061796d656e74000000000000000000000000600082015250565b60006152bc601483614f2d565b91506152c782615286565b602082019050919050565b600060208201905081810360008301526152eb816152af565b9050919050565b7f616464726573735f6e6f745f61646d696e000000000000000000000000000000600082015250565b6000615328601183614f2d565b9150615333826152f2565b602082019050919050565b600060208201905081810360008301526153578161531b565b9050919050565b7f696e697469616c5f646174655f77726f6e670000000000000000000000000000600082015250565b6000615394601283614f2d565b915061539f8261535e565b602082019050919050565b600060208201905081810360008301526153c381615387565b9050919050565b7f726563656976696e675f646174655f77726f6e67000000000000000000000000600082015250565b6000615400601483614f2d565b915061540b826153ca565b602082019050919050565b6000602082019050818103600083015261542f816153f3565b9050919050565b600060408201905061544b60008301856142a1565b818103602083015261545d8184614f3e565b90509392505050565b600061547182613d0d565b915061547c83613d0d565b9250827fffffffffffffffffffffffffffffffffffffffffffffffffffffffffffffffff038211156154b1576154b0614fc8565b5b828201905092915050565b6000819050919050565b6154d76154d282614385565b6154bc565b82525050565b60008160601b9050919050565b60006154f5826154dd565b9050919050565b6000615507826154ea565b9050919050565b61551f61551a826142eb565b6154fc565b82525050565b600061553182856154c6565b602082019150615541828461550e565b6014820191508190509392505050565b7f4e487b7100000000000000000000000000000000000000000000000000000000600052602260045260246000fd5b6000600282049050600182168061559857607f821691505b602082108114156155ac576155ab615551565b5b50919050565b7f4f6e6c795f6f776e65725f616c6c6f7765640000000000000000000000000000600082015250565b60006155e8601283614f2d565b91506155f3826155b2565b602082019050919050565b60006020820190508181036000830152615617816155db565b9050919050565b600081905092915050565b50565b600061563960008361561e565b915061564482615629565b600082019050919050565b600061565a8261562c565b9150819050919050565b7f6661696c65645f77697468647261770000000000000000000000000000000000600082015250565b600061569a600f83614f2d565b91506156a582615664565b602082019050919050565b600060208201905081810360008301526156c98161568d565b9050919050565b7f4f6e6c795f61646d696e5f63616e5f706572666f726d00000000000000000000600082015250565b6000615706601683614f2d565b9150615711826156d0565b602082019050919050565b60006020820190508181036000830152615735816156f9565b9050919050565b7f4f6e6c795f6973737565725f63616e5f706572666f726d000000000000000000600082015250565b6000615772601783614f2d565b915061577d8261573c565b602082019050919050565b600060208201905081810360008301526157a181615765565b9050919050565b7f77726f6e675f636f6e746573745f747970650000000000000000000000000000600082015250565b60006157de601283614f2d565b91506157e9826157a8565b602082019050919050565b6000602082019050818103600083015261580d816157d1565b9050919050565b7f746f6f5f6d616e795f6775657374730000000000000000000000000000000000600082015250565b600061584a600f83614f2d565b915061585582615814565b602082019050919050565b600060208201905081810360008301526158798161583d565b9050919050565b7f7266705f616c72656164795f6177617264656400000000000000000000000000600082015250565b60006158b6601383614f2d565b91506158c182615880565b602082019050919050565b600060208201905081810360008301526158e5816158a9565b9050919050565b600081905092915050565b6000615902826143e6565b61590c81856158ec565b935061591c818560208601614402565b80840191505092915050565b600061593482846158f7565b915081905092915050565b7f69645f616c72656164795f657869737473000000000000000000000000000000600082015250565b6000615975601183614f2d565b91506159808261593f565b602082019050919050565b600060208201905081810360008301526159a481615968565b9050919050565b7f616464726573735f616c72656164795f61646d696e5f6f665f636f6d70616e79600082015250565b60006159e1602083614f2d565b91506159ec826159ab565b602082019050919050565b60006020820190508181036000830152615a10816159d4565b9050919050565b60006040820190508181036000830152615a318185614f3e565b90508181036020830152615a458184614f3e565b90509392505050565b7f496e73756666696369656e745f7061796d656e745f6665650000000000000000600082015250565b6000615a84601883614f2d565b9150615a8f82615a4e565b602082019050919050565b60006020820190508181036000830152615ab381615a77565b9050919050565b7f6e6f745f6f70656e5f74656e6465720000000000000000000000000000000000600082015250565b6000615af0600f83614f2d565b9150615afb82615aba565b602082019050919050565b60006020820190508181036000830152615b1f81615ae3565b9050919050565b7f6d61785f7061727469636970616e74735f726561636865640000000000000000600082015250565b6000615b5c601883614f2d565b9150615b6782615b26565b602082019050919050565b60006020820190508181036000830152615b8b81615b4f565b9050919050565b7f63616e5f6e6f745f72656769737465725f73656c660000000000000000000000600082015250565b6000615bc8601583614f2d565b9150615bd382615b92565b602082019050919050565b60006020820190508181036000830152615bf781615bbb565b9050919050565b7f616c72656164795f70617274696369706174696e670000000000000000000000600082015250565b6000615c34601583614f2d565b9150615c3f82615bfe565b602082019050919050565b60006020820190508181036000830152615c6381615c27565b9050919050565b7f616c72656164795f63616e63656c656400000000000000000000000000000000600082015250565b6000615ca0601083614f2d565b9150615cab82615c6a565b602082019050919050565b60006020820190508181036000830152615ccf81615c93565b9050919050565b7f6e6f745f6d61746368696e675f77696e6e657273000000000000000000000000600082015250565b6000615d0c601483614f2d565b9150615d1782615cd6565b602082019050919050565b60006020820190508181036000830152615d3b81615cff565b9050919050565b7f656e64646174655f6e6f745f726561636865645f796574000000000000000000600082015250565b6000615d78601783614f2d565b9150615d8382615d42565b602082019050919050565b60006020820190508181036000830152615da781615d6b565b9050919050565b7f63616e6e6f745f73656c665f6177617264000000000000000000000000000000600082015250565b6000615de4601183614f2d565b9150615def82615dae565b602082019050919050565b60006020820190508181036000830152615e1381615dd7565b9050919050565b7f696e76616c69645f77696e6e6572000000000000000000000000000000000000600082015250565b6000615e50600e83614f2d565b9150615e5b82615e1a565b602082019050919050565b60006020820190508181036000830152615e7f81615e43565b9050919050565b6000615e9182613d0d565b9150615e9c83613d0d565b925082821015615eaf57615eae614fc8565b5b82820390509291505056fea26469706673582212206810b08e68309a2521d494040013f97a5173557264c00f000dc0c2f9735767eb64736f6c63430008090033",
  "linkReferences": {},
  "deployedLinkReferences": {}
}