{
  "_format": "hh-sol-artifact-1",
  "contractName": "pro_pon",
  "sourceName": "contracts/pro-pon.sol",
  "abi": [
    {
      "inputs": [],
      "stateMutability": "payable",
      "type": "constructor"
    },
    {
      "anonymous": false,
      "inputs": [
        {
          "indexed": true,
          "internalType": "address",
          "name": "sender",
          "type": "address"
        },
        {
          "indexed": false,
          "internalType": "string",
          "name": "id",
          "type": "string"
        },
        {
          "indexed": false,
          "internalType": "string",
          "name": "name",
          "type": "string"
        }
      ],
      "name": "NewCompanyCreated",
      "type": "event"
    },
    {
      "anonymous": false,
      "inputs": [
        {
          "indexed": true,
          "internalType": "address",
          "name": "sender",
          "type": "address"
        },
        {
          "indexed": false,
          "internalType": "uint256",
          "name": "id",
          "type": "uint256"
        },
        {
          "indexed": false,
          "internalType": "string",
          "name": "name",
          "type": "string"
        }
      ],
      "name": "NewRFPCreated",
      "type": "event"
    },
    {
      "inputs": [],
      "name": "CREATE_COMPANY_PRICE",
      "outputs": [
        {
          "internalType": "uint256",
          "name": "",
          "type": "uint256"
        }
      ],
      "stateMutability": "view",
      "type": "function"
    },
    {
      "inputs": [],
      "name": "CREATE_INVITATION_RFP_PRICE",
      "outputs": [
        {
          "internalType": "uint256",
          "name": "",
          "type": "uint256"
        }
      ],
      "stateMutability": "view",
      "type": "function"
    },
    {
      "inputs": [],
      "name": "CREATE_OPEN_RFP_PRICE",
      "outputs": [
        {
          "internalType": "uint256",
          "name": "",
          "type": "uint256"
        }
      ],
      "stateMutability": "view",
      "type": "function"
    },
    {
      "inputs": [],
      "name": "MAX_GUEST_INVITATION_TENDER",
      "outputs": [
        {
          "internalType": "uint256",
          "name": "",
          "type": "uint256"
        }
      ],
      "stateMutability": "view",
      "type": "function"
    },
    {
      "inputs": [],
      "name": "MAX_GUEST_OPEN_TENDER",
      "outputs": [
        {
          "internalType": "uint256",
          "name": "",
          "type": "uint256"
        }
      ],
      "stateMutability": "view",
      "type": "function"
    },
    {
      "inputs": [],
      "name": "REGISTER_OPEN_RFP_PRICE",
      "outputs": [
        {
          "internalType": "uint256",
          "name": "",
          "type": "uint256"
        }
      ],
      "stateMutability": "view",
      "type": "function"
    },
    {
      "inputs": [
        {
          "internalType": "uint256",
          "name": "_rfpIdx",
          "type": "uint256"
        },
        {
          "internalType": "uint8[]",
          "name": "_docTypes",
          "type": "uint8[]"
        },
        {
          "internalType": "string[]",
          "name": "_names",
          "type": "string[]"
        },
        {
          "internalType": "string[]",
          "name": "_documentHashes",
          "type": "string[]"
        },
        {
          "internalType": "string[]",
          "name": "_idxs",
          "type": "string[]"
        }
      ],
      "name": "addDocuments",
      "outputs": [],
      "stateMutability": "nonpayable",
      "type": "function"
    },
    {
      "inputs": [
        {
          "internalType": "string",
          "name": "_id",
          "type": "string"
        },
        {
          "internalType": "string",
          "name": "_name",
          "type": "string"
        },
        {
          "internalType": "string",
          "name": "_country",
          "type": "string"
        }
      ],
      "name": "createCompany",
      "outputs": [],
      "stateMutability": "payable",
      "type": "function"
    },
    {
      "inputs": [
        {
          "internalType": "string",
          "name": "_name",
          "type": "string"
        },
        {
          "internalType": "uint256",
          "name": "_openDate",
          "type": "uint256"
        },
        {
          "internalType": "uint256",
          "name": "_endReceivingDate",
          "type": "uint256"
        },
        {
          "internalType": "uint256",
          "name": "_endDate",
          "type": "uint256"
        },
        {
          "internalType": "enum pro_pon.ContestType",
          "name": "_contestType",
          "type": "uint8"
        },
        {
          "internalType": "string[]",
          "name": "_items",
          "type": "string[]"
        }
      ],
      "name": "createRFP",
      "outputs": [],
      "stateMutability": "payable",
      "type": "function"
    },
    {
      "inputs": [
        {
          "internalType": "uint256",
          "name": "_rfpIndex",
          "type": "uint256"
        },
        {
          "internalType": "string",
          "name": "_companyId",
          "type": "string"
        },
        {
          "internalType": "address[]",
          "name": "winners",
          "type": "address[]"
        }
      ],
      "name": "declareWinners",
      "outputs": [],
      "stateMutability": "nonpayable",
      "type": "function"
    },
    {
      "inputs": [
        {
          "internalType": "address",
          "name": "admin",
          "type": "address"
        }
      ],
      "name": "getCompany",
      "outputs": [
        {
          "components": [
            {
              "internalType": "string",
              "name": "id",
              "type": "string"
            },
            {
              "internalType": "string",
              "name": "name",
              "type": "string"
            },
            {
              "internalType": "string",
              "name": "country",
              "type": "string"
            },
            {
              "internalType": "uint256",
              "name": "RFPSent",
              "type": "uint256"
            },
            {
              "internalType": "uint256",
              "name": "RPFsWon",
              "type": "uint256"
            },
            {
              "internalType": "uint256[]",
              "name": "company_RFPs",
              "type": "uint256[]"
            }
          ],
          "internalType": "struct pro_pon.Company",
          "name": "",
          "type": "tuple"
        }
      ],
      "stateMutability": "view",
      "type": "function"
    },
    {
      "inputs": [
        {
          "internalType": "address",
          "name": "admin",
          "type": "address"
        }
      ],
      "name": "getCompanyId",
      "outputs": [
        {
          "internalType": "string",
          "name": "companyId",
          "type": "string"
        }
      ],
      "stateMutability": "view",
      "type": "function"
    },
    {
      "inputs": [],
      "name": "getCreateCompanyPrice",
      "outputs": [
        {
          "internalType": "uint256",
          "name": "",
          "type": "uint256"
        }
      ],
      "stateMutability": "view",
      "type": "function"
    },
    {
      "inputs": [],
      "name": "getCreateInvitationRfpPrice",
      "outputs": [
        {
          "internalType": "uint256",
          "name": "",
          "type": "uint256"
        }
      ],
      "stateMutability": "view",
      "type": "function"
    },
    {
      "inputs": [],
      "name": "getCreateOpenRfpPrice",
      "outputs": [
        {
          "internalType": "uint256",
          "name": "",
          "type": "uint256"
        }
      ],
      "stateMutability": "view",
      "type": "function"
    },
    {
      "inputs": [
        {
          "internalType": "uint256",
          "name": "_rfpIdx",
          "type": "uint256"
        }
      ],
      "name": "getDocumentsfromRFP",
      "outputs": [
        {
          "components": [
            {
              "internalType": "uint256",
              "name": "docType",
              "type": "uint256"
            },
            {
              "internalType": "string",
              "name": "name",
              "type": "string"
            },
            {
              "internalType": "address",
              "name": "owner",
              "type": "address"
            },
            {
              "internalType": "string",
              "name": "documentHash",
              "type": "string"
            },
            {
              "internalType": "string",
              "name": "idx",
              "type": "string"
            }
          ],
          "internalType": "struct pro_pon.Document[]",
          "name": "",
          "type": "tuple[]"
        }
      ],
      "stateMutability": "view",
      "type": "function"
    },
    {
      "inputs": [],
      "name": "getMaxGuestOpenTender",
      "outputs": [
        {
          "internalType": "uint256",
          "name": "",
          "type": "uint256"
        }
      ],
      "stateMutability": "view",
      "type": "function"
    },
    {
      "inputs": [
        {
          "internalType": "uint256",
          "name": "_rfpId",
          "type": "uint256"
        }
      ],
      "name": "getRFPbyIndex",
      "outputs": [
        {
          "components": [
            {
              "internalType": "string",
              "name": "name",
              "type": "string"
            },
            {
              "internalType": "uint256",
              "name": "openDate",
              "type": "uint256"
            },
            {
              "internalType": "uint256",
              "name": "endReceivingDate",
              "type": "uint256"
            },
            {
              "internalType": "uint256",
              "name": "endDate",
              "type": "uint256"
            },
            {
              "internalType": "bool",
              "name": "canceled",
              "type": "bool"
            },
            {
              "internalType": "address[]",
              "name": "participants",
              "type": "address[]"
            },
            {
              "internalType": "enum pro_pon.ContestType",
              "name": "contestType",
              "type": "uint8"
            },
            {
              "internalType": "string[]",
              "name": "items",
              "type": "string[]"
            },
            {
              "internalType": "address[]",
              "name": "winners",
              "type": "address[]"
            },
            {
              "internalType": "address",
              "name": "issuer",
              "type": "address"
            }
          ],
          "internalType": "struct pro_pon.RFP",
          "name": "",
          "type": "tuple"
        }
      ],
      "stateMutability": "view",
      "type": "function"
    },
    {
      "inputs": [],
      "name": "getRegisterOpenRfpPrice",
      "outputs": [
        {
          "internalType": "uint256",
          "name": "",
          "type": "uint256"
        }
      ],
      "stateMutability": "view",
      "type": "function"
    },
    {
      "inputs": [
        {
          "internalType": "uint256",
          "name": "_rfpIndex",
          "type": "uint256"
        }
      ],
      "name": "getWinners",
      "outputs": [
        {
          "internalType": "address[]",
          "name": "",
          "type": "address[]"
        }
      ],
      "stateMutability": "view",
      "type": "function"
    },
    {
      "inputs": [],
      "name": "getcurrentRFPIdx",
      "outputs": [
        {
          "internalType": "uint256",
          "name": "",
          "type": "uint256"
        }
      ],
      "stateMutability": "view",
      "type": "function"
    },
    {
      "inputs": [
        {
          "internalType": "uint256",
          "name": "_rfpId",
          "type": "uint256"
        },
        {
          "internalType": "string",
          "name": "companyId",
          "type": "string"
        },
        {
          "internalType": "address[]",
          "name": "invitedCompanies",
          "type": "address[]"
        }
      ],
      "name": "inviteCompaniestoRFP",
      "outputs": [],
      "stateMutability": "nonpayable",
      "type": "function"
    },
    {
      "inputs": [
        {
          "internalType": "address[]",
          "name": "container",
          "type": "address[]"
        },
        {
          "internalType": "address",
          "name": "tocheck",
          "type": "address"
        }
      ],
      "name": "isContainedAddress",
      "outputs": [
        {
          "internalType": "bool",
          "name": "",
          "type": "bool"
        }
      ],
      "stateMutability": "pure",
      "type": "function"
    },
    {
      "inputs": [],
      "name": "isOwner",
      "outputs": [
        {
          "internalType": "bool",
          "name": "",
          "type": "bool"
        }
      ],
      "stateMutability": "view",
      "type": "function"
    },
    {
      "inputs": [],
      "name": "owner",
      "outputs": [
        {
          "internalType": "address payable",
          "name": "",
          "type": "address"
        }
      ],
      "stateMutability": "view",
      "type": "function"
    },
    {
      "inputs": [
        {
          "internalType": "uint256",
          "name": "_rfpId",
          "type": "uint256"
        }
      ],
      "name": "registertoOpenRFP",
      "outputs": [],
      "stateMutability": "payable",
      "type": "function"
    },
    {
      "inputs": [
        {
          "internalType": "uint256",
          "name": "newprice",
          "type": "uint256"
        }
      ],
      "name": "setCreateCompanyPrice",
      "outputs": [],
      "stateMutability": "nonpayable",
      "type": "function"
    },
    {
      "inputs": [
        {
          "internalType": "uint256",
          "name": "price",
          "type": "uint256"
        }
      ],
      "name": "setCreateInvitationRfpPrice",
      "outputs": [],
      "stateMutability": "nonpayable",
      "type": "function"
    },
    {
      "inputs": [
        {
          "internalType": "uint256",
          "name": "price",
          "type": "uint256"
        }
      ],
      "name": "setCreateOpenRfpPrice",
      "outputs": [],
      "stateMutability": "nonpayable",
      "type": "function"
    },
    {
      "inputs": [
        {
          "internalType": "uint256",
          "name": "MaxGuest",
          "type": "uint256"
        }
      ],
      "name": "setMaxGuestOpenTender",
      "outputs": [],
      "stateMutability": "nonpayable",
      "type": "function"
    },
    {
      "inputs": [
        {
          "internalType": "uint256",
          "name": "price",
          "type": "uint256"
        }
      ],
      "name": "setRegisterOpenRfpPrice",
      "outputs": [],
      "stateMutability": "nonpayable",
      "type": "function"
    },
    {
      "inputs": [],
      "name": "withdraw",
      "outputs": [],
      "stateMutability": "nonpayable",
      "type": "function"
    }
  ],
  "bytecode": "0x6080604052655af3107a4000600055655af3107a400060015565b5e620f48000600255655af3107a4000600355600560045560058055600060065533600a60006101000a81548173ffffffffffffffffffffffffffffffffffffffff021916908373ffffffffffffffffffffffffffffffffffffffff160217905550614e878061008a6000396000f3fe6080604052600436106101e35760003560e01c80637b60626d11610102578063c649289511610095578063ea1b4b1d11610064578063ea1b4b1d146106ca578063ecbb7b4a146106f3578063ed72f89f1461071e578063f1e60d2b1461073a576101e3565b8063c6492895146105fc578063d6f343c514610639578063d7a8529e14610676578063da2e18601461069f576101e3565b8063ad26a9ad116100d1578063ad26a9ad14610550578063afeff8d91461057b578063b929e7d9146105a6578063be38013b146105d1576101e3565b80637b60626d146104b35780638da5cb5b146104cf5780638f32d59b146104fa5780639064669214610525576101e3565b80634ccba2471161017a5780635b6a96dc116101495780635b6a96dc146103d35780635d9c47f51461041057806362bc56e6146104395780636b1426a414610476576101e3565b80634ccba247146103385780634e289b8814610361578063574f750a1461038c5780635a6167c9146103a8576101e3565b806332f4b16a116101b657806332f4b16a146102925780633ccfd60b146102cf578063466c51fc146102e6578063482baf931461030f576101e3565b80630a2a406c146101e85780631393b9e814610211578063215cf05d1461023c578063325236fe14610267575b600080fd5b3480156101f457600080fd5b5061020f600480360381019061020a91906134ad565b610763565b005b34801561021d57600080fd5b50610226610c42565b60405161023391906135a7565b60405180910390f35b34801561024857600080fd5b50610251610c4c565b60405161025e91906135a7565b60405180910390f35b34801561027357600080fd5b5061027c610c52565b60405161028991906135a7565b60405180910390f35b34801561029e57600080fd5b506102b960048036038101906102b491906135c2565b610c5c565b6040516102c691906139b9565b60405180910390f35b3480156102db57600080fd5b506102e4610fdb565b005b3480156102f257600080fd5b5061030d600480360381019061030891906135c2565b6110d7565b005b34801561031b57600080fd5b5061033660048036038101906103319190613aca565b611128565b005b34801561034457600080fd5b5061035f600480360381019061035a91906135c2565b6115d0565b005b34801561036d57600080fd5b50610376611621565b60405161038391906135a7565b60405180910390f35b6103a660048036038101906103a19190613b7a565b611627565b005b3480156103b457600080fd5b506103bd611af2565b6040516103ca91906135a7565b60405180910390f35b3480156103df57600080fd5b506103fa60048036038101906103f59190613c3f565b611af8565b6040516104079190613caa565b60405180910390f35b34801561041c57600080fd5b50610437600480360381019061043291906135c2565b611b80565b005b34801561044557600080fd5b50610460600480360381019061045b9190613cc5565b611bd1565b60405161046d9190613e3f565b60405180910390f35b34801561048257600080fd5b5061049d600480360381019061049891906135c2565b611e52565b6040516104aa9190613ed0565b60405180910390f35b6104cd60048036038101906104c89190613ef2565b611ef6565b005b3480156104db57600080fd5b506104e4612095565b6040516104f19190613fba565b60405180910390f35b34801561050657600080fd5b5061050f6120bb565b60405161051c9190613caa565b60405180910390f35b34801561053157600080fd5b5061053a612113565b60405161054791906135a7565b60405180910390f35b34801561055c57600080fd5b5061056561211d565b60405161057291906135a7565b60405180910390f35b34801561058757600080fd5b50610590612127565b60405161059d91906135a7565b60405180910390f35b3480156105b257600080fd5b506105bb61212d565b6040516105c891906135a7565b60405180910390f35b3480156105dd57600080fd5b506105e6612137565b6040516105f391906135a7565b60405180910390f35b34801561060857600080fd5b50610623600480360381019061061e91906135c2565b61213d565b604051610630919061411b565b60405180910390f35b34801561064557600080fd5b50610660600480360381019061065b9190613cc5565b6123c5565b60405161066d9190614187565b60405180910390f35b34801561068257600080fd5b5061069d600480360381019061069891906135c2565b612499565b005b3480156106ab57600080fd5b506106b46124ea565b6040516106c191906135a7565b60405180910390f35b3480156106d657600080fd5b506106f160048036038101906106ec91906135c2565b6124f3565b005b3480156106ff57600080fd5b50610708612544565b60405161071591906135a7565b60405180910390f35b610738600480360381019061073391906135c2565b61254a565b005b34801561074657600080fd5b50610761600480360381019061075c9190613aca565b61288e565b005b60006008600087815260200190815260200160002060090160009054906101000a900473ffffffffffffffffffffffffffffffffffffffff1673ffffffffffffffffffffffffffffffffffffffff163373ffffffffffffffffffffffffffffffffffffffff16149050806108db576000805b60086000898152602001908152602001600020600501805490508110156108985760086000898152602001908152602001600020600501818154811061081e5761081d6141a9565b5b9060005260206000200160009054906101000a900473ffffffffffffffffffffffffffffffffffffffff1673ffffffffffffffffffffffffffffffffffffffff163373ffffffffffffffffffffffffffffffffffffffff1614156108855760019150610898565b808061089090614207565b9150506107d5565b50806108d9576040517f08c379a00000000000000000000000000000000000000000000000000000000081526004016108d09061429c565b60405180910390fd5b505b6000805b85518160ff161015610c3857600060078111156108ff576108fe613791565b5b60ff16878260ff1681518110610918576109176141a9565b5b602002602001015160ff16148061096457506001600781111561093e5761093d613791565b5b60ff16878260ff1681518110610957576109566141a9565b5b602002602001015160ff16145b806109a457506002600781111561097e5761097d613791565b5b60ff16878260ff1681518110610997576109966141a9565b5b602002602001015160ff16145b915082156109f157816109ec576040517f08c379a00000000000000000000000000000000000000000000000000000000081526004016109e390614308565b60405180910390fd5b610a8b565b8115610a32576040517f08c379a0000000000000000000000000000000000000000000000000000000008152600401610a2990614374565b60405180910390fd5b42600860008a81526020019081526020016000206002015411610a8a576040517f08c379a0000000000000000000000000000000000000000000000000000000008152600401610a81906143e0565b60405180910390fd5b5b600960008981526020019081526020016000206040518060a00160405280898460ff1681518110610abf57610abe6141a9565b5b602002602001015160ff168152602001888460ff1681518110610ae557610ae46141a9565b5b602002602001015181526020013373ffffffffffffffffffffffffffffffffffffffff168152602001878460ff1681518110610b2457610b236141a9565b5b60200260200101518152602001868460ff1681518110610b4757610b466141a9565b5b60200260200101518152509080600181540180825580915050600190039060005260206000209060050201600090919091909150600082015181600001556020820151816001019080519060200190610ba1929190612e97565b5060408201518160020160006101000a81548173ffffffffffffffffffffffffffffffffffffffff021916908373ffffffffffffffffffffffffffffffffffffffff1602179055506060820151816003019080519060200190610c05929190612e97565b506080820151816004019080519060200190610c22929190612e97565b5050508080610c3090614400565b9150506108df565b5050505050505050565b6000600654905090565b60005481565b6000600454905090565b610c64612f1d565b6008600083815260200190815260200160002060405180610140016040529081600082018054610c9390614459565b80601f0160208091040260200160405190810160405280929190818152602001828054610cbf90614459565b8015610d0c5780601f10610ce157610100808354040283529160200191610d0c565b820191906000526020600020905b815481529060010190602001808311610cef57829003601f168201915b505050505081526020016001820154815260200160028201548152602001600382015481526020016004820160009054906101000a900460ff1615151515815260200160058201805480602002602001604051908101604052809291908181526020018280548015610dd357602002820191906000526020600020905b8160009054906101000a900473ffffffffffffffffffffffffffffffffffffffff1673ffffffffffffffffffffffffffffffffffffffff1681526020019060010190808311610d89575b505050505081526020016006820160009054906101000a900460ff166001811115610e0157610e00613791565b5b6001811115610e1357610e12613791565b5b815260200160078201805480602002602001604051908101604052809291908181526020016000905b82821015610ee8578382906000526020600020018054610e5b90614459565b80601f0160208091040260200160405190810160405280929190818152602001828054610e8790614459565b8015610ed45780601f10610ea957610100808354040283529160200191610ed4565b820191906000526020600020905b815481529060010190602001808311610eb757829003601f168201915b505050505081526020019060010190610e3c565b50505050815260200160088201805480602002602001604051908101604052809291908181526020018280548015610f7557602002820191906000526020600020905b8160009054906101000a900473ffffffffffffffffffffffffffffffffffffffff1673ffffffffffffffffffffffffffffffffffffffff1681526020019060010190808311610f2b575b505050505081526020016009820160009054906101000a900473ffffffffffffffffffffffffffffffffffffffff1673ffffffffffffffffffffffffffffffffffffffff1673ffffffffffffffffffffffffffffffffffffffff16815250509050919050565b610fe36120bb565b611022576040517f08c379a0000000000000000000000000000000000000000000000000000000008152600401611019906144d7565b60405180910390fd5b600047905060003373ffffffffffffffffffffffffffffffffffffffff168260405161104d90614528565b60006040518083038185875af1925050503d806000811461108a576040519150601f19603f3d011682016040523d82523d6000602084013e61108f565b606091505b50509050806110d3576040517f08c379a00000000000000000000000000000000000000000000000000000000081526004016110ca90614589565b60405180910390fd5b5050565b6110df6120bb565b61111e576040517f08c379a0000000000000000000000000000000000000000000000000000000008152600401611115906144d7565b60405180910390fd5b8060008190555050565b816111fd600760003373ffffffffffffffffffffffffffffffffffffffff1673ffffffffffffffffffffffffffffffffffffffff168152602001908152602001600020600001805461117990614459565b80601f01602080910402602001604051908101604052809291908181526020018280546111a590614459565b80156111f25780601f106111c7576101008083540402835291602001916111f2565b820191906000526020600020905b8154815290600101906020018083116111d557829003601f168201915b505050505082612d99565b61123c576040517f08c379a0000000000000000000000000000000000000000000000000000000008152600401611233906145f5565b60405180910390fd5b833373ffffffffffffffffffffffffffffffffffffffff166008600083815260200190815260200160002060090160009054906101000a900473ffffffffffffffffffffffffffffffffffffffff1673ffffffffffffffffffffffffffffffffffffffff16146112e1576040517f08c379a00000000000000000000000000000000000000000000000000000000081526004016112d890614661565b60405180910390fd5b6001808111156112f4576112f3613791565b5b6008600087815260200190815260200160002060060160009054906101000a900460ff16600181111561132a57611329613791565b5b1461136a576040517f08c379a0000000000000000000000000000000000000000000000000000000008152600401611361906146cd565b60405180910390fd5b6005548351600860008881526020019081526020016000206005018054905061139391906146ed565b11156113d4576040517f08c379a00000000000000000000000000000000000000000000000000000000081526004016113cb9061478f565b60405180910390fd5b60005b83518110156115c8576000600190508482815181106113f9576113f86141a9565b5b602002602001015173ffffffffffffffffffffffffffffffffffffffff163373ffffffffffffffffffffffffffffffffffffffff16141561143a57506115b5565b60005b600860008981526020019081526020016000206005018054905081101561151a57858381518110611471576114706141a9565b5b602002602001015173ffffffffffffffffffffffffffffffffffffffff16600860008a815260200190815260200160002060050182815481106114b7576114b66141a9565b5b9060005260206000200160009054906101000a900473ffffffffffffffffffffffffffffffffffffffff1673ffffffffffffffffffffffffffffffffffffffff161415611507576000915061151a565b808061151290614207565b91505061143d565b5080156115b3576008600088815260200190815260200160002060050185838151811061154a576115496141a9565b5b60200260200101519080600181540180825580915050600190039060005260206000200160009091909190916101000a81548173ffffffffffffffffffffffffffffffffffffffff021916908373ffffffffffffffffffffffffffffffffffffffff1602179055505b505b80806115c090614207565b9150506113d7565b505050505050565b6115d86120bb565b611617576040517f08c379a000000000000000000000000000000000000000000000000000000000815260040161160e906144d7565b60405180910390fd5b8060048190555050565b60015481565b6000600181111561163b5761163a613791565b5b82600181111561164e5761164d613791565b5b141561169e57600154341015611699576040517f08c379a0000000000000000000000000000000000000000000000000000000008152600401611690906147fb565b60405180910390fd5b6116e4565b6002543410156116e3576040517f08c379a00000000000000000000000000000000000000000000000000000000081526004016116da906147fb565b60405180910390fd5b5b60006116ef33611bd1565b905060008160000151905060008151141561173f576040517f08c379a000000000000000000000000000000000000000000000000000000000815260040161173690614867565b60405180910390fd5b858710611781576040517f08c379a0000000000000000000000000000000000000000000000000000000008152600401611778906148d3565b60405180910390fd5b8486106117c3576040517f08c379a00000000000000000000000000000000000000000000000000000000081526004016117ba9061493f565b60405180910390fd5b60006040518061014001604052808a8152602001898152602001888152602001878152602001600015158152602001600067ffffffffffffffff81111561180d5761180c61319b565b5b60405190808252806020026020018201604052801561183b5781602001602082028036833780820191505090505b50815260200186600181111561185457611853613791565b5b8152602001858152602001600067ffffffffffffffff81111561187a5761187961319b565b5b6040519080825280602002602001820160405280156118a85781602001602082028036833780820191505090505b5081526020013373ffffffffffffffffffffffffffffffffffffffff16815250905060006118d4610c42565b905081600860008381526020019081526020016000206000820151816000019080519060200190611906929190612e97565b5060208201518160010155604082015181600201556060820151816003015560808201518160040160006101000a81548160ff02191690831515021790555060a0820151816005019080519060200190611961929190612f9a565b5060c08201518160060160006101000a81548160ff0219169083600181111561198d5761198c613791565b5b021790555060e08201518160070190805190602001906119ae929190613024565b506101008201518160080190805190602001906119cc929190612f9a565b506101208201518160090160006101000a81548173ffffffffffffffffffffffffffffffffffffffff021916908373ffffffffffffffffffffffffffffffffffffffff160217905550905050600760003373ffffffffffffffffffffffffffffffffffffffff1673ffffffffffffffffffffffffffffffffffffffff1681526020019081526020016000206005018190806001815401808255809150506001900390600052602060002001600090919091909150553373ffffffffffffffffffffffffffffffffffffffff167fae438a3ef380e4b013ba12bcb929a59140482304040a1d8cf54d25c8e85640e9828c604051611ac992919061495f565b60405180910390a2611ae6600182611ae191906146ed565b612e05565b50505050505050505050565b60055481565b600080600090505b8351811015611b74578273ffffffffffffffffffffffffffffffffffffffff16848281518110611b3357611b326141a9565b5b602002602001015173ffffffffffffffffffffffffffffffffffffffff161415611b61576001915050611b7a565b8080611b6c90614207565b915050611b00565b50600090505b92915050565b611b886120bb565b611bc7576040517f08c379a0000000000000000000000000000000000000000000000000000000008152600401611bbe906144d7565b60405180910390fd5b8060018190555050565b611bd9613084565b6000600760008473ffffffffffffffffffffffffffffffffffffffff1673ffffffffffffffffffffffffffffffffffffffff1681526020019081526020016000209050806040518060c0016040529081600082018054611c3890614459565b80601f0160208091040260200160405190810160405280929190818152602001828054611c6490614459565b8015611cb15780601f10611c8657610100808354040283529160200191611cb1565b820191906000526020600020905b815481529060010190602001808311611c9457829003601f168201915b50505050508152602001600182018054611cca90614459565b80601f0160208091040260200160405190810160405280929190818152602001828054611cf690614459565b8015611d435780601f10611d1857610100808354040283529160200191611d43565b820191906000526020600020905b815481529060010190602001808311611d2657829003601f168201915b50505050508152602001600282018054611d5c90614459565b80601f0160208091040260200160405190810160405280929190818152602001828054611d8890614459565b8015611dd55780601f10611daa57610100808354040283529160200191611dd5565b820191906000526020600020905b815481529060010190602001808311611db857829003601f168201915b50505050508152602001600382015481526020016004820154815260200160058201805480602002602001604051908101604052809291908181526020018280548015611e4157602002820191906000526020600020905b815481526020019060010190808311611e2d575b505050505081525050915050919050565b606060086000838152602001908152602001600020600801805480602002602001604051908101604052809291908181526020018280548015611eea57602002820191906000526020600020905b8160009054906101000a900473ffffffffffffffffffffffffffffffffffffffff1673ffffffffffffffffffffffffffffffffffffffff1681526020019060010190808311611ea0575b50505050509050919050565b600054341015611f3b576040517f08c379a0000000000000000000000000000000000000000000000000000000008152600401611f32906147fb565b60405180910390fd5b82600760003373ffffffffffffffffffffffffffffffffffffffff1673ffffffffffffffffffffffffffffffffffffffff1681526020019081526020016000206000019080519060200190611f91929190612e97565b5081600760003373ffffffffffffffffffffffffffffffffffffffff1673ffffffffffffffffffffffffffffffffffffffff1681526020019081526020016000206001019080519060200190611fe8929190612e97565b5080600760003373ffffffffffffffffffffffffffffffffffffffff1673ffffffffffffffffffffffffffffffffffffffff168152602001908152602001600020600201908051906020019061203f929190612e97565b503373ffffffffffffffffffffffffffffffffffffffff167fca91b92c76087c9c2ef1e3e1caa026c5de706bdbb1c952d8404727234974707b848460405161208892919061498f565b60405180910390a2505050565b600a60009054906101000a900473ffffffffffffffffffffffffffffffffffffffff1681565b6000600a60009054906101000a900473ffffffffffffffffffffffffffffffffffffffff1673ffffffffffffffffffffffffffffffffffffffff163373ffffffffffffffffffffffffffffffffffffffff1614905090565b6000600354905090565b6000600254905090565b60025481565b6000600154905090565b60035481565b606060096000838152602001908152602001600020805480602002602001604051908101604052809291908181526020016000905b828210156123ba57838290600052602060002090600502016040518060a0016040529081600082015481526020016001820180546121af90614459565b80601f01602080910402602001604051908101604052809291908181526020018280546121db90614459565b80156122285780601f106121fd57610100808354040283529160200191612228565b820191906000526020600020905b81548152906001019060200180831161220b57829003601f168201915b505050505081526020016002820160009054906101000a900473ffffffffffffffffffffffffffffffffffffffff1673ffffffffffffffffffffffffffffffffffffffff1673ffffffffffffffffffffffffffffffffffffffff16815260200160038201805461229790614459565b80601f01602080910402602001604051908101604052809291908181526020018280546122c390614459565b80156123105780601f106122e557610100808354040283529160200191612310565b820191906000526020600020905b8154815290600101906020018083116122f357829003601f168201915b5050505050815260200160048201805461232990614459565b80601f016020809104026020016040519081016040528092919081815260200182805461235590614459565b80156123a25780601f10612377576101008083540402835291602001916123a2565b820191906000526020600020905b81548152906001019060200180831161238557829003601f168201915b50505050508152505081526020019060010190612172565b505050509050919050565b6060600760008373ffffffffffffffffffffffffffffffffffffffff1673ffffffffffffffffffffffffffffffffffffffff168152602001908152602001600020600001805461241490614459565b80601f016020809104026020016040519081016040528092919081815260200182805461244090614459565b801561248d5780601f106124625761010080835404028352916020019161248d565b820191906000526020600020905b81548152906001019060200180831161247057829003601f168201915b50505050509050919050565b6124a16120bb565b6124e0576040517f08c379a00000000000000000000000000000000000000000000000000000000081526004016124d7906144d7565b60405180910390fd5b8060038190555050565b60008054905090565b6124fb6120bb565b61253a576040517f08c379a0000000000000000000000000000000000000000000000000000000008152600401612531906144d7565b60405180910390fd5b8060028190555050565b60045481565b60035434101561258f576040517f08c379a000000000000000000000000000000000000000000000000000000000815260040161258690614a12565b60405180910390fd5b600060018111156125a3576125a2613791565b5b6008600083815260200190815260200160002060060160009054906101000a900460ff1660018111156125d9576125d8613791565b5b14612619576040517f08c379a000000000000000000000000000000000000000000000000000000000815260040161261090614a7e565b60405180910390fd5b600454600860008381526020019081526020016000206005018054905010612676576040517f08c379a000000000000000000000000000000000000000000000000000000000815260040161266d90614aea565b60405180910390fd5b6008600082815260200190815260200160002060090160009054906101000a900473ffffffffffffffffffffffffffffffffffffffff1673ffffffffffffffffffffffffffffffffffffffff163373ffffffffffffffffffffffffffffffffffffffff16141561271b576040517f08c379a000000000000000000000000000000000000000000000000000000000815260040161271290614b56565b60405180910390fd5b60005b6008600083815260200190815260200160002060050180549050811015612813573373ffffffffffffffffffffffffffffffffffffffff1660086000848152602001908152602001600020600501828154811061277e5761277d6141a9565b5b9060005260206000200160009054906101000a900473ffffffffffffffffffffffffffffffffffffffff1673ffffffffffffffffffffffffffffffffffffffff161415612800576040517f08c379a00000000000000000000000000000000000000000000000000000000081526004016127f790614bc2565b60405180910390fd5b808061280b90614207565b91505061271e565b5060086000828152602001908152602001600020600501339080600181540180825580915050600190039060005260206000200160009091909190916101000a81548173ffffffffffffffffffffffffffffffffffffffff021916908373ffffffffffffffffffffffffffffffffffffffff16021790555050565b81612963600760003373ffffffffffffffffffffffffffffffffffffffff1673ffffffffffffffffffffffffffffffffffffffff16815260200190815260200160002060000180546128df90614459565b80601f016020809104026020016040519081016040528092919081815260200182805461290b90614459565b80156129585780601f1061292d57610100808354040283529160200191612958565b820191906000526020600020905b81548152906001019060200180831161293b57829003601f168201915b505050505082612d99565b6129a2576040517f08c379a0000000000000000000000000000000000000000000000000000000008152600401612999906145f5565b60405180910390fd5b833373ffffffffffffffffffffffffffffffffffffffff166008600083815260200190815260200160002060090160009054906101000a900473ffffffffffffffffffffffffffffffffffffffff1673ffffffffffffffffffffffffffffffffffffffff1614612a47576040517f08c379a0000000000000000000000000000000000000000000000000000000008152600401612a3e90614661565b60405180910390fd5b6000600860008781526020019081526020016000206007018054905090506000811415612ab7576001845114612ab2576040517f08c379a0000000000000000000000000000000000000000000000000000000008152600401612aa990614c2e565b60405180910390fd5b612afb565b83518114612afa576040517f08c379a0000000000000000000000000000000000000000000000000000000008152600401612af190614c9a565b60405180910390fd5b5b60004290506008600088815260200190815260200160002060030154811015612b59576040517f08c379a0000000000000000000000000000000000000000000000000000000008152600401612b5090614d06565b60405180910390fd5b60005b8551811015612d8f573373ffffffffffffffffffffffffffffffffffffffff16868281518110612b8f57612b8e6141a9565b5b602002602001015173ffffffffffffffffffffffffffffffffffffffff161415612bee576040517f08c379a0000000000000000000000000000000000000000000000000000000008152600401612be590614d72565b60405180910390fd5b612cac868281518110612c0457612c036141a9565b5b6020026020010151600860008b8152602001908152602001600020600501805480602002602001604051908101604052809291908181526020018280548015612ca257602002820191906000526020600020905b8160009054906101000a900473ffffffffffffffffffffffffffffffffffffffff1673ffffffffffffffffffffffffffffffffffffffff1681526020019060010190808311612c58575b5050505050612e0f565b612ceb576040517f08c379a0000000000000000000000000000000000000000000000000000000008152600401612ce290614dde565b60405180910390fd5b60086000898152602001908152602001600020600801868281518110612d1457612d136141a9565b5b60200260200101519080600181540180825580915050600190039060005260206000200160009091909190916101000a81548173ffffffffffffffffffffffffffffffffffffffff021916908373ffffffffffffffffffffffffffffffffffffffff1602179055508080612d8790614207565b915050612b5c565b5050505050505050565b60008151835114612dad5760009050612dff565b81604051602001612dbe9190614e3a565b6040516020818303038152906040528051906020012083604051602001612de59190614e3a565b604051602081830303815290604052805190602001201490505b92915050565b8060068190555050565b600080600090505b8251811015612e8b57828181518110612e3357612e326141a9565b5b602002602001015173ffffffffffffffffffffffffffffffffffffffff168473ffffffffffffffffffffffffffffffffffffffff161415612e78576001915050612e91565b8080612e8390614207565b915050612e17565b50600090505b92915050565b828054612ea390614459565b90600052602060002090601f016020900481019282612ec55760008555612f0c565b82601f10612ede57805160ff1916838001178555612f0c565b82800160010185558215612f0c579182015b82811115612f0b578251825591602001919060010190612ef0565b5b509050612f1991906130ba565b5090565b604051806101400160405280606081526020016000815260200160008152602001600081526020016000151581526020016060815260200160006001811115612f6957612f68613791565b5b81526020016060815260200160608152602001600073ffffffffffffffffffffffffffffffffffffffff1681525090565b828054828255906000526020600020908101928215613013579160200282015b828111156130125782518260006101000a81548173ffffffffffffffffffffffffffffffffffffffff021916908373ffffffffffffffffffffffffffffffffffffffff16021790555091602001919060010190612fba565b5b50905061302091906130ba565b5090565b828054828255906000526020600020908101928215613073579160200282015b82811115613072578251829080519060200190613062929190612e97565b5091602001919060010190613044565b5b50905061308091906130d7565b5090565b6040518060c001604052806060815260200160608152602001606081526020016000815260200160008152602001606081525090565b5b808211156130d35760008160009055506001016130bb565b5090565b5b808211156130f757600081816130ee91906130fb565b506001016130d8565b5090565b50805461310790614459565b6000825580601f106131195750613138565b601f01602090049060005260206000209081019061313791906130ba565b5b50565b6000604051905090565b600080fd5b600080fd5b6000819050919050565b6131628161314f565b811461316d57600080fd5b50565b60008135905061317f81613159565b92915050565b600080fd5b6000601f19601f8301169050919050565b7f4e487b7100000000000000000000000000000000000000000000000000000000600052604160045260246000fd5b6131d38261318a565b810181811067ffffffffffffffff821117156131f2576131f161319b565b5b80604052505050565b600061320561313b565b905061321182826131ca565b919050565b600067ffffffffffffffff8211156132315761323061319b565b5b602082029050602081019050919050565b600080fd5b600060ff82169050919050565b61325d81613247565b811461326857600080fd5b50565b60008135905061327a81613254565b92915050565b600061329361328e84613216565b6131fb565b905080838252602082019050602084028301858111156132b6576132b5613242565b5b835b818110156132df57806132cb888261326b565b8452602084019350506020810190506132b8565b5050509392505050565b600082601f8301126132fe576132fd613185565b5b813561330e848260208601613280565b91505092915050565b600067ffffffffffffffff8211156133325761333161319b565b5b602082029050602081019050919050565b600080fd5b600067ffffffffffffffff8211156133635761336261319b565b5b61336c8261318a565b9050602081019050919050565b82818337600083830152505050565b600061339b61339684613348565b6131fb565b9050828152602081018484840111156133b7576133b6613343565b5b6133c2848285613379565b509392505050565b600082601f8301126133df576133de613185565b5b81356133ef848260208601613388565b91505092915050565b600061340b61340684613317565b6131fb565b9050808382526020820190506020840283018581111561342e5761342d613242565b5b835b8181101561347557803567ffffffffffffffff81111561345357613452613185565b5b80860161346089826133ca565b85526020850194505050602081019050613430565b5050509392505050565b600082601f83011261349457613493613185565b5b81356134a48482602086016133f8565b91505092915050565b600080600080600060a086880312156134c9576134c8613145565b5b60006134d788828901613170565b955050602086013567ffffffffffffffff8111156134f8576134f761314a565b5b613504888289016132e9565b945050604086013567ffffffffffffffff8111156135255761352461314a565b5b6135318882890161347f565b935050606086013567ffffffffffffffff8111156135525761355161314a565b5b61355e8882890161347f565b925050608086013567ffffffffffffffff81111561357f5761357e61314a565b5b61358b8882890161347f565b9150509295509295909350565b6135a18161314f565b82525050565b60006020820190506135bc6000830184613598565b92915050565b6000602082840312156135d8576135d7613145565b5b60006135e684828501613170565b91505092915050565b600081519050919050565b600082825260208201905092915050565b60005b8381101561362957808201518184015260208101905061360e565b83811115613638576000848401525b50505050565b6000613649826135ef565b61365381856135fa565b935061366381856020860161360b565b61366c8161318a565b840191505092915050565b6136808161314f565b82525050565b60008115159050919050565b61369b81613686565b82525050565b600081519050919050565b600082825260208201905092915050565b6000819050602082019050919050565b600073ffffffffffffffffffffffffffffffffffffffff82169050919050565b60006136f8826136cd565b9050919050565b613708816136ed565b82525050565b600061371a83836136ff565b60208301905092915050565b6000602082019050919050565b600061373e826136a1565b61374881856136ac565b9350613753836136bd565b8060005b8381101561378457815161376b888261370e565b975061377683613726565b925050600181019050613757565b5085935050505092915050565b7f4e487b7100000000000000000000000000000000000000000000000000000000600052602160045260246000fd5b600281106137d1576137d0613791565b5b50565b60008190506137e2826137c0565b919050565b60006137f2826137d4565b9050919050565b613802816137e7565b82525050565b600081519050919050565b600082825260208201905092915050565b6000819050602082019050919050565b6000613840838361363e565b905092915050565b6000602082019050919050565b600061386082613808565b61386a8185613813565b93508360208202850161387c85613824565b8060005b858110156138b857848403895281516138998582613834565b94506138a483613848565b925060208a01995050600181019050613880565b50829750879550505050505092915050565b60006101408301600083015184820360008601526138e8828261363e565b91505060208301516138fd6020860182613677565b5060408301516139106040860182613677565b5060608301516139236060860182613677565b5060808301516139366080860182613692565b5060a083015184820360a086015261394e8282613733565b91505060c083015161396360c08601826137f9565b5060e083015184820360e086015261397b8282613855565b9150506101008301518482036101008601526139978282613733565b9150506101208301516139ae6101208601826136ff565b508091505092915050565b600060208201905081810360008301526139d381846138ca565b905092915050565b600067ffffffffffffffff8211156139f6576139f561319b565b5b602082029050602081019050919050565b613a10816136ed565b8114613a1b57600080fd5b50565b600081359050613a2d81613a07565b92915050565b6000613a46613a41846139db565b6131fb565b90508083825260208201905060208402830185811115613a6957613a68613242565b5b835b81811015613a925780613a7e8882613a1e565b845260208401935050602081019050613a6b565b5050509392505050565b600082601f830112613ab157613ab0613185565b5b8135613ac1848260208601613a33565b91505092915050565b600080600060608486031215613ae357613ae2613145565b5b6000613af186828701613170565b935050602084013567ffffffffffffffff811115613b1257613b1161314a565b5b613b1e868287016133ca565b925050604084013567ffffffffffffffff811115613b3f57613b3e61314a565b5b613b4b86828701613a9c565b9150509250925092565b60028110613b6257600080fd5b50565b600081359050613b7481613b55565b92915050565b60008060008060008060c08789031215613b9757613b96613145565b5b600087013567ffffffffffffffff811115613bb557613bb461314a565b5b613bc189828a016133ca565b9650506020613bd289828a01613170565b9550506040613be389828a01613170565b9450506060613bf489828a01613170565b9350506080613c0589828a01613b65565b92505060a087013567ffffffffffffffff811115613c2657613c2561314a565b5b613c3289828a0161347f565b9150509295509295509295565b60008060408385031215613c5657613c55613145565b5b600083013567ffffffffffffffff811115613c7457613c7361314a565b5b613c8085828601613a9c565b9250506020613c9185828601613a1e565b9150509250929050565b613ca481613686565b82525050565b6000602082019050613cbf6000830184613c9b565b92915050565b600060208284031215613cdb57613cda613145565b5b6000613ce984828501613a1e565b91505092915050565b600081519050919050565b600082825260208201905092915050565b6000819050602082019050919050565b6000613d2a8383613677565b60208301905092915050565b6000602082019050919050565b6000613d4e82613cf2565b613d588185613cfd565b9350613d6383613d0e565b8060005b83811015613d94578151613d7b8882613d1e565b9750613d8683613d36565b925050600181019050613d67565b5085935050505092915050565b600060c0830160008301518482036000860152613dbe828261363e565b91505060208301518482036020860152613dd8828261363e565b91505060408301518482036040860152613df2828261363e565b9150506060830151613e076060860182613677565b506080830151613e1a6080860182613677565b5060a083015184820360a0860152613e328282613d43565b9150508091505092915050565b60006020820190508181036000830152613e598184613da1565b905092915050565b600082825260208201905092915050565b6000613e7d826136a1565b613e878185613e61565b9350613e92836136bd565b8060005b83811015613ec3578151613eaa888261370e565b9750613eb583613726565b925050600181019050613e96565b5085935050505092915050565b60006020820190508181036000830152613eea8184613e72565b905092915050565b600080600060608486031215613f0b57613f0a613145565b5b600084013567ffffffffffffffff811115613f2957613f2861314a565b5b613f35868287016133ca565b935050602084013567ffffffffffffffff811115613f5657613f5561314a565b5b613f62868287016133ca565b925050604084013567ffffffffffffffff811115613f8357613f8261314a565b5b613f8f868287016133ca565b9150509250925092565b6000613fa4826136cd565b9050919050565b613fb481613f99565b82525050565b6000602082019050613fcf6000830184613fab565b92915050565b600081519050919050565b600082825260208201905092915050565b6000819050602082019050919050565b600060a0830160008301516140196000860182613677565b5060208301518482036020860152614031828261363e565b915050604083015161404660408601826136ff565b506060830151848203606086015261405e828261363e565b91505060808301518482036080860152614078828261363e565b9150508091505092915050565b60006140918383614001565b905092915050565b6000602082019050919050565b60006140b182613fd5565b6140bb8185613fe0565b9350836020820285016140cd85613ff1565b8060005b8581101561410957848403895281516140ea8582614085565b94506140f583614099565b925060208a019950506001810190506140d1565b50829750879550505050505092915050565b6000602082019050818103600083015261413581846140a6565b905092915050565b600082825260208201905092915050565b6000614159826135ef565b614163818561413d565b935061417381856020860161360b565b61417c8161318a565b840191505092915050565b600060208201905081810360008301526141a1818461414e565b905092915050565b7f4e487b7100000000000000000000000000000000000000000000000000000000600052603260045260246000fd5b7f4e487b7100000000000000000000000000000000000000000000000000000000600052601160045260246000fd5b60006142128261314f565b91507fffffffffffffffffffffffffffffffffffffffffffffffffffffffffffffffff821415614245576142446141d8565b5b600182019050919050565b7f6e6f745f7061727469636970616e740000000000000000000000000000000000600082015250565b6000614286600f8361413d565b915061429182614250565b602082019050919050565b600060208201905081810360008301526142b581614279565b9050919050565b7f6973737565725f6261645f646f63747970650000000000000000000000000000600082015250565b60006142f260128361413d565b91506142fd826142bc565b602082019050919050565b60006020820190508181036000830152614321816142e5565b9050919050565b7f7061727469636970616e745f6261645f646f6374797065000000000000000000600082015250565b600061435e60178361413d565b915061436982614328565b602082019050919050565b6000602082019050818103600083015261438d81614351565b9050919050565b7f656e645f726563656976696e675f726561636865640000000000000000000000600082015250565b60006143ca60158361413d565b91506143d582614394565b602082019050919050565b600060208201905081810360008301526143f9816143bd565b9050919050565b600061440b82613247565b915060ff82141561441f5761441e6141d8565b5b600182019050919050565b7f4e487b7100000000000000000000000000000000000000000000000000000000600052602260045260246000fd5b6000600282049050600182168061447157607f821691505b602082108114156144855761448461442a565b5b50919050565b7f4f6e6c795f6f776e65725f616c6c6f775f776974686472617700000000000000600082015250565b60006144c160198361413d565b91506144cc8261448b565b602082019050919050565b600060208201905081810360008301526144f0816144b4565b9050919050565b600081905092915050565b50565b60006145126000836144f7565b915061451d82614502565b600082019050919050565b600061453382614505565b9150819050919050565b7f4661696c656420746f2077697468647261772062616c616e6365000000000000600082015250565b6000614573601a8361413d565b915061457e8261453d565b602082019050919050565b600060208201905081810360008301526145a281614566565b9050919050565b7f4f6e6c795f61646d696e5f63616e5f706572666f726d00000000000000000000600082015250565b60006145df60168361413d565b91506145ea826145a9565b602082019050919050565b6000602082019050818103600083015261460e816145d2565b9050919050565b7f4f6e6c795f6973737565725f63616e5f706572666f726d000000000000000000600082015250565b600061464b60178361413d565b915061465682614615565b602082019050919050565b6000602082019050818103600083015261467a8161463e565b9050919050565b7f77726f6e675f636f6e746573745f747970650000000000000000000000000000600082015250565b60006146b760128361413d565b91506146c282614681565b602082019050919050565b600060208201905081810360008301526146e6816146aa565b9050919050565b60006146f88261314f565b91506147038361314f565b9250827fffffffffffffffffffffffffffffffffffffffffffffffffffffffffffffffff03821115614738576147376141d8565b5b828201905092915050565b7f746f6f5f6d616e795f6775657374730000000000000000000000000000000000600082015250565b6000614779600f8361413d565b915061478482614743565b602082019050919050565b600060208201905081810360008301526147a88161476c565b9050919050565b7f496e73756666696369656e745f7061796d656e74000000000000000000000000600082015250565b60006147e560148361413d565b91506147f0826147af565b602082019050919050565b60006020820190508181036000830152614814816147d8565b9050919050565b7f616464726573735f6e6f745f61646d696e000000000000000000000000000000600082015250565b600061485160118361413d565b915061485c8261481b565b602082019050919050565b6000602082019050818103600083015261488081614844565b9050919050565b7f696e697469616c5f646174655f77726f6e670000000000000000000000000000600082015250565b60006148bd60128361413d565b91506148c882614887565b602082019050919050565b600060208201905081810360008301526148ec816148b0565b9050919050565b7f726563656976696e675f646174655f77726f6e67000000000000000000000000600082015250565b600061492960148361413d565b9150614934826148f3565b602082019050919050565b600060208201905081810360008301526149588161491c565b9050919050565b60006040820190506149746000830185613598565b8181036020830152614986818461414e565b90509392505050565b600060408201905081810360008301526149a9818561414e565b905081810360208301526149bd818461414e565b90509392505050565b7f496e73756666696369656e745f7061796d656e745f6665650000000000000000600082015250565b60006149fc60188361413d565b9150614a07826149c6565b602082019050919050565b60006020820190508181036000830152614a2b816149ef565b9050919050565b7f6e6f745f6f70656e5f74656e6465720000000000000000000000000000000000600082015250565b6000614a68600f8361413d565b9150614a7382614a32565b602082019050919050565b60006020820190508181036000830152614a9781614a5b565b9050919050565b7f6d61785f7061727469636970616e74735f726561636865640000000000000000600082015250565b6000614ad460188361413d565b9150614adf82614a9e565b602082019050919050565b60006020820190508181036000830152614b0381614ac7565b9050919050565b7f63616e5f6e6f745f72656769737465725f73656c660000000000000000000000600082015250565b6000614b4060158361413d565b9150614b4b82614b0a565b602082019050919050565b60006020820190508181036000830152614b6f81614b33565b9050919050565b7f616c72656164795f70617274696369706174696e670000000000000000000000600082015250565b6000614bac60158361413d565b9150614bb782614b76565b602082019050919050565b60006020820190508181036000830152614bdb81614b9f565b9050919050565b7f746f6f5f6d616e795f77696e6e65727300000000000000000000000000000000600082015250565b6000614c1860108361413d565b9150614c2382614be2565b602082019050919050565b60006020820190508181036000830152614c4781614c0b565b9050919050565b7f6e6f745f6d61746368696e675f77696e6e657273000000000000000000000000600082015250565b6000614c8460148361413d565b9150614c8f82614c4e565b602082019050919050565b60006020820190508181036000830152614cb381614c77565b9050919050565b7f656e64646174655f6e6f745f726561636865645f796574000000000000000000600082015250565b6000614cf060178361413d565b9150614cfb82614cba565b602082019050919050565b60006020820190508181036000830152614d1f81614ce3565b9050919050565b7f63616e6e6f745f73656c665f6177617264000000000000000000000000000000600082015250565b6000614d5c60118361413d565b9150614d6782614d26565b602082019050919050565b60006020820190508181036000830152614d8b81614d4f565b9050919050565b7f696e76616c69645f77696e6e6572000000000000000000000000000000000000600082015250565b6000614dc8600e8361413d565b9150614dd382614d92565b602082019050919050565b60006020820190508181036000830152614df781614dbb565b9050919050565b600081905092915050565b6000614e14826135ef565b614e1e8185614dfe565b9350614e2e81856020860161360b565b80840191505092915050565b6000614e468284614e09565b91508190509291505056fea264697066735822122028e4c597749dfbf94b99ef726af4a7437f780359acdebbce4042b88814d19cf864736f6c63430008090033",
  "linkReferences": {},
  "deployedLinkReferences": {}
}