{
  "_format": "hh-sol-artifact-1",
  "contractName": "pro_pon",
  "sourceName": "contracts/pro-pon.sol",
  "abi": [
    {
      "inputs": [],
      "stateMutability": "payable",
      "type": "constructor"
    },
    {
      "anonymous": false,
      "inputs": [
        {
          "indexed": true,
          "internalType": "address",
          "name": "sender",
          "type": "address"
        },
        {
          "indexed": false,
          "internalType": "string",
          "name": "id",
          "type": "string"
        },
        {
          "indexed": false,
          "internalType": "string",
          "name": "name",
          "type": "string"
        }
      ],
      "name": "NewCompanyCreated",
      "type": "event"
    },
    {
      "anonymous": false,
      "inputs": [
        {
          "indexed": true,
          "internalType": "address",
          "name": "sender",
          "type": "address"
        },
        {
          "indexed": false,
          "internalType": "uint256",
          "name": "id",
          "type": "uint256"
        },
        {
          "indexed": false,
          "internalType": "string",
          "name": "name",
          "type": "string"
        }
      ],
      "name": "NewRFPCreated",
      "type": "event"
    },
    {
      "inputs": [],
      "name": "CREATE_COMPANY_PRICE",
      "outputs": [
        {
          "internalType": "uint256",
          "name": "",
          "type": "uint256"
        }
      ],
      "stateMutability": "view",
      "type": "function"
    },
    {
      "inputs": [],
      "name": "CREATE_INVITATION_RFP_PRICE",
      "outputs": [
        {
          "internalType": "uint256",
          "name": "",
          "type": "uint256"
        }
      ],
      "stateMutability": "view",
      "type": "function"
    },
    {
      "inputs": [],
      "name": "CREATE_OPEN_RFP_PRICE",
      "outputs": [
        {
          "internalType": "uint256",
          "name": "",
          "type": "uint256"
        }
      ],
      "stateMutability": "view",
      "type": "function"
    },
    {
      "inputs": [],
      "name": "MAX_GUEST_OPEN_TENDER",
      "outputs": [
        {
          "internalType": "uint256",
          "name": "",
          "type": "uint256"
        }
      ],
      "stateMutability": "view",
      "type": "function"
    },
    {
      "inputs": [],
      "name": "REGISTER_OPEN_RFP_PRICE",
      "outputs": [
        {
          "internalType": "uint256",
          "name": "",
          "type": "uint256"
        }
      ],
      "stateMutability": "view",
      "type": "function"
    },
    {
      "inputs": [
        {
          "internalType": "uint256",
          "name": "_rfpIdx",
          "type": "uint256"
        },
        {
          "internalType": "uint8",
          "name": "_docType",
          "type": "uint8"
        },
        {
          "internalType": "string[]",
          "name": "_names",
          "type": "string[]"
        },
        {
          "internalType": "string[]",
          "name": "_documentHashes",
          "type": "string[]"
        },
        {
          "internalType": "string[]",
          "name": "_idxs",
          "type": "string[]"
        }
      ],
      "name": "addDocuments",
      "outputs": [],
      "stateMutability": "nonpayable",
      "type": "function"
    },
    {
      "inputs": [
        {
          "internalType": "string",
          "name": "_id",
          "type": "string"
        },
        {
          "internalType": "string",
          "name": "_name",
          "type": "string"
        },
        {
          "internalType": "string",
          "name": "_country",
          "type": "string"
        }
      ],
      "name": "createCompany",
      "outputs": [],
      "stateMutability": "payable",
      "type": "function"
    },
    {
      "inputs": [
        {
          "internalType": "string",
          "name": "_name",
          "type": "string"
        },
        {
          "internalType": "uint256",
          "name": "_openDate",
          "type": "uint256"
        },
        {
          "internalType": "uint256",
          "name": "_endReceivingDate",
          "type": "uint256"
        },
        {
          "internalType": "uint256",
          "name": "_endDate",
          "type": "uint256"
        },
        {
          "internalType": "enum pro_pon.ContestType",
          "name": "_contestType",
          "type": "uint8"
        },
        {
          "internalType": "string[]",
          "name": "_items",
          "type": "string[]"
        }
      ],
      "name": "createRFP",
      "outputs": [],
      "stateMutability": "payable",
      "type": "function"
    },
    {
      "inputs": [
        {
          "internalType": "string",
          "name": "a",
          "type": "string"
        },
        {
          "internalType": "string",
          "name": "b",
          "type": "string"
        }
      ],
      "name": "equals",
      "outputs": [
        {
          "internalType": "bool",
          "name": "",
          "type": "bool"
        }
      ],
      "stateMutability": "pure",
      "type": "function"
    },
    {
      "inputs": [
        {
          "internalType": "address",
          "name": "admin",
          "type": "address"
        }
      ],
      "name": "getCompany",
      "outputs": [
        {
          "components": [
            {
              "internalType": "string",
              "name": "id",
              "type": "string"
            },
            {
              "internalType": "string",
              "name": "name",
              "type": "string"
            },
            {
              "internalType": "string",
              "name": "country",
              "type": "string"
            },
            {
              "internalType": "uint256",
              "name": "RFPSent",
              "type": "uint256"
            },
            {
              "internalType": "uint256",
              "name": "RPFsWon",
              "type": "uint256"
            },
            {
              "internalType": "uint256[]",
              "name": "company_RFPs",
              "type": "uint256[]"
            }
          ],
          "internalType": "struct pro_pon.Company",
          "name": "",
          "type": "tuple"
        }
      ],
      "stateMutability": "view",
      "type": "function"
    },
    {
      "inputs": [
        {
          "internalType": "address",
          "name": "admin",
          "type": "address"
        }
      ],
      "name": "getCompanyId",
      "outputs": [
        {
          "internalType": "string",
          "name": "companyId",
          "type": "string"
        }
      ],
      "stateMutability": "view",
      "type": "function"
    },
    {
      "inputs": [
        {
          "internalType": "uint256",
          "name": "_rfpIdx",
          "type": "uint256"
        }
      ],
      "name": "getDocumentsfromRFP",
      "outputs": [
        {
          "components": [
            {
              "internalType": "uint256",
              "name": "docType",
              "type": "uint256"
            },
            {
              "internalType": "string",
              "name": "name",
              "type": "string"
            },
            {
              "internalType": "address",
              "name": "owner",
              "type": "address"
            },
            {
              "internalType": "string",
              "name": "documentHash",
              "type": "string"
            },
            {
              "internalType": "string",
              "name": "idx",
              "type": "string"
            }
          ],
          "internalType": "struct pro_pon.Document[]",
          "name": "",
          "type": "tuple[]"
        }
      ],
      "stateMutability": "view",
      "type": "function"
    },
    {
      "inputs": [
        {
          "internalType": "uint256",
          "name": "_rfpId",
          "type": "uint256"
        }
      ],
      "name": "getRFPbyIndex",
      "outputs": [
        {
          "components": [
            {
              "internalType": "string",
              "name": "name",
              "type": "string"
            },
            {
              "internalType": "uint256",
              "name": "openDate",
              "type": "uint256"
            },
            {
              "internalType": "uint256",
              "name": "endReceivingDate",
              "type": "uint256"
            },
            {
              "internalType": "uint256",
              "name": "endDate",
              "type": "uint256"
            },
            {
              "internalType": "bool",
              "name": "canceled",
              "type": "bool"
            },
            {
              "internalType": "address[]",
              "name": "participants",
              "type": "address[]"
            },
            {
              "internalType": "enum pro_pon.ContestType",
              "name": "contestType",
              "type": "uint8"
            },
            {
              "internalType": "string[]",
              "name": "items",
              "type": "string[]"
            },
            {
              "internalType": "address[]",
              "name": "winners",
              "type": "address[]"
            },
            {
              "internalType": "address",
              "name": "issuer",
              "type": "address"
            }
          ],
          "internalType": "struct pro_pon.RFP",
          "name": "",
          "type": "tuple"
        }
      ],
      "stateMutability": "view",
      "type": "function"
    },
    {
      "inputs": [],
      "name": "getcurrentRFPIdx",
      "outputs": [
        {
          "internalType": "uint256",
          "name": "",
          "type": "uint256"
        }
      ],
      "stateMutability": "view",
      "type": "function"
    },
    {
      "inputs": [
        {
          "internalType": "uint256",
          "name": "_rfpId",
          "type": "uint256"
        },
        {
          "internalType": "string",
          "name": "companyId",
          "type": "string"
        },
        {
          "internalType": "address",
          "name": "invitedCompany",
          "type": "address"
        }
      ],
      "name": "inviteCompanytoRFP",
      "outputs": [],
      "stateMutability": "nonpayable",
      "type": "function"
    },
    {
      "inputs": [],
      "name": "isOwner",
      "outputs": [
        {
          "internalType": "bool",
          "name": "",
          "type": "bool"
        }
      ],
      "stateMutability": "view",
      "type": "function"
    },
    {
      "inputs": [],
      "name": "owner",
      "outputs": [
        {
          "internalType": "address payable",
          "name": "",
          "type": "address"
        }
      ],
      "stateMutability": "view",
      "type": "function"
    },
    {
      "inputs": [
        {
          "internalType": "uint256",
          "name": "_rfpId",
          "type": "uint256"
        }
      ],
      "name": "registertoOpenRFP",
      "outputs": [],
      "stateMutability": "payable",
      "type": "function"
    },
    {
      "inputs": [],
      "name": "withdraw",
      "outputs": [],
      "stateMutability": "nonpayable",
      "type": "function"
    }
  ],
  "bytecode": "0x6080604052655af3107a4000600055655af3107a400060015565b5e620f48000600255655af3107a40006003556005600455600060055533600960006101000a81548173ffffffffffffffffffffffffffffffffffffffff021916908373ffffffffffffffffffffffffffffffffffffffff16021790555061394c806100866000396000f3fe6080604052600436106101145760003560e01c80638da5cb5b116100a0578063cbfaf58011610064578063cbfaf58014610389578063d6f343c5146103b2578063ecbb7b4a146103ef578063ed72f89f1461041a578063fa8ef5de1461043657610114565b80638da5cb5b146102a05780638f32d59b146102cb578063afeff8d9146102f6578063be38013b14610321578063c64928951461034c57610114565b80634e289b88116100e75780634e289b88146101c3578063574f750a146101ee57806362bc56e61461020a5780637b60626d1461024757806388d8da5f1461026357610114565b80631393b9e814610119578063215cf05d1461014457806332f4b16a1461016f5780633ccfd60b146101ac575b600080fd5b34801561012557600080fd5b5061012e61045f565b60405161013b9190612284565b60405180910390f35b34801561015057600080fd5b50610159610469565b6040516101669190612284565b60405180910390f35b34801561017b57600080fd5b50610196600480360381019061019191906122df565b61046f565b6040516101a391906126e7565b60405180910390f35b3480156101b857600080fd5b506101c16107ee565b005b3480156101cf57600080fd5b506101d86108ea565b6040516101e59190612284565b60405180910390f35b61020860048036038101906102039190612949565b6108f0565b005b34801561021657600080fd5b50610231600480360381019061022c9190612a3a565b610d37565b60405161023e9190612bb4565b60405180910390f35b610261600480360381019061025c9190612bd6565b610fb8565b005b34801561026f57600080fd5b5061028a60048036038101906102859190612c7d565b611157565b6040516102979190612d04565b60405180910390f35b3480156102ac57600080fd5b506102b56111c3565b6040516102c29190612d40565b60405180910390f35b3480156102d757600080fd5b506102e06111e9565b6040516102ed9190612d04565b60405180910390f35b34801561030257600080fd5b5061030b611241565b6040516103189190612284565b60405180910390f35b34801561032d57600080fd5b50610336611247565b6040516103439190612284565b60405180910390f35b34801561035857600080fd5b50610373600480360381019061036e91906122df565b61124d565b6040516103809190612ea1565b60405180910390f35b34801561039557600080fd5b506103b060048036038101906103ab9190612ec3565b6114d5565b005b3480156103be57600080fd5b506103d960048036038101906103d49190612a3a565b6117ce565b6040516103e69190612f7c565b60405180910390f35b3480156103fb57600080fd5b506104046118a2565b6040516104119190612284565b60405180910390f35b610434600480360381019061042f91906122df565b6118a8565b005b34801561044257600080fd5b5061045d60048036038101906104589190612fd7565b611bec565b005b6000600554905090565b60005481565b610477611fc7565b60076000838152602001908152602001600020604051806101400160405290816000820180546104a6906130d5565b80601f01602080910402602001604051908101604052809291908181526020018280546104d2906130d5565b801561051f5780601f106104f45761010080835404028352916020019161051f565b820191906000526020600020905b81548152906001019060200180831161050257829003601f168201915b505050505081526020016001820154815260200160028201548152602001600382015481526020016004820160009054906101000a900460ff16151515158152602001600582018054806020026020016040519081016040528092919081815260200182805480156105e657602002820191906000526020600020905b8160009054906101000a900473ffffffffffffffffffffffffffffffffffffffff1673ffffffffffffffffffffffffffffffffffffffff168152602001906001019080831161059c575b505050505081526020016006820160009054906101000a900460ff166001811115610614576106136124bf565b5b6001811115610626576106256124bf565b5b815260200160078201805480602002602001604051908101604052809291908181526020016000905b828210156106fb57838290600052602060002001805461066e906130d5565b80601f016020809104026020016040519081016040528092919081815260200182805461069a906130d5565b80156106e75780601f106106bc576101008083540402835291602001916106e7565b820191906000526020600020905b8154815290600101906020018083116106ca57829003601f168201915b50505050508152602001906001019061064f565b5050505081526020016008820180548060200260200160405190810160405280929190818152602001828054801561078857602002820191906000526020600020905b8160009054906101000a900473ffffffffffffffffffffffffffffffffffffffff1673ffffffffffffffffffffffffffffffffffffffff168152602001906001019080831161073e575b505050505081526020016009820160009054906101000a900473ffffffffffffffffffffffffffffffffffffffff1673ffffffffffffffffffffffffffffffffffffffff1673ffffffffffffffffffffffffffffffffffffffff16815250509050919050565b6107f66111e9565b610835576040517f08c379a000000000000000000000000000000000000000000000000000000000815260040161082c90613153565b60405180910390fd5b600047905060003373ffffffffffffffffffffffffffffffffffffffff1682604051610860906131a4565b60006040518083038185875af1925050503d806000811461089d576040519150601f19603f3d011682016040523d82523d6000602084013e6108a2565b606091505b50509050806108e6576040517f08c379a00000000000000000000000000000000000000000000000000000000081526004016108dd90613205565b60405180910390fd5b5050565b60015481565b60006001811115610904576109036124bf565b5b826001811115610917576109166124bf565b5b141561096757600154341015610962576040517f08c379a000000000000000000000000000000000000000000000000000000000815260040161095990613271565b60405180910390fd5b6109ad565b6002543410156109ac576040517f08c379a00000000000000000000000000000000000000000000000000000000081526004016109a390613271565b60405180910390fd5b5b60006109b833610d37565b9050600081600001519050600081511415610a08576040517f08c379a00000000000000000000000000000000000000000000000000000000081526004016109ff906132dd565b60405180910390fd5b60006040518061014001604052808a8152602001898152602001888152602001878152602001600015158152602001600067ffffffffffffffff811115610a5257610a51612713565b5b604051908082528060200260200182016040528015610a805781602001602082028036833780820191505090505b508152602001866001811115610a9957610a986124bf565b5b8152602001858152602001600067ffffffffffffffff811115610abf57610abe612713565b5b604051908082528060200260200182016040528015610aed5781602001602082028036833780820191505090505b5081526020013373ffffffffffffffffffffffffffffffffffffffff1681525090506000610b1961045f565b905081600760008381526020019081526020016000206000820151816000019080519060200190610b4b929190612044565b5060208201518160010155604082015181600201556060820151816003015560808201518160040160006101000a81548160ff02191690831515021790555060a0820151816005019080519060200190610ba69291906120ca565b5060c08201518160060160006101000a81548160ff02191690836001811115610bd257610bd16124bf565b5b021790555060e0820151816007019080519060200190610bf3929190612154565b50610100820151816008019080519060200190610c119291906120ca565b506101208201518160090160006101000a81548173ffffffffffffffffffffffffffffffffffffffff021916908373ffffffffffffffffffffffffffffffffffffffff160217905550905050600660003373ffffffffffffffffffffffffffffffffffffffff1673ffffffffffffffffffffffffffffffffffffffff1681526020019081526020016000206005018190806001815401808255809150506001900390600052602060002001600090919091909150553373ffffffffffffffffffffffffffffffffffffffff167fae438a3ef380e4b013ba12bcb929a59140482304040a1d8cf54d25c8e85640e9828c604051610d0e9291906132fd565b60405180910390a2610d2b600182610d26919061335c565b611fbd565b50505050505050505050565b610d3f6121b4565b6000600660008473ffffffffffffffffffffffffffffffffffffffff1673ffffffffffffffffffffffffffffffffffffffff1681526020019081526020016000209050806040518060c0016040529081600082018054610d9e906130d5565b80601f0160208091040260200160405190810160405280929190818152602001828054610dca906130d5565b8015610e175780601f10610dec57610100808354040283529160200191610e17565b820191906000526020600020905b815481529060010190602001808311610dfa57829003601f168201915b50505050508152602001600182018054610e30906130d5565b80601f0160208091040260200160405190810160405280929190818152602001828054610e5c906130d5565b8015610ea95780601f10610e7e57610100808354040283529160200191610ea9565b820191906000526020600020905b815481529060010190602001808311610e8c57829003601f168201915b50505050508152602001600282018054610ec2906130d5565b80601f0160208091040260200160405190810160405280929190818152602001828054610eee906130d5565b8015610f3b5780601f10610f1057610100808354040283529160200191610f3b565b820191906000526020600020905b815481529060010190602001808311610f1e57829003601f168201915b50505050508152602001600382015481526020016004820154815260200160058201805480602002602001604051908101604052809291908181526020018280548015610fa757602002820191906000526020600020905b815481526020019060010190808311610f93575b505050505081525050915050919050565b600054341015610ffd576040517f08c379a0000000000000000000000000000000000000000000000000000000008152600401610ff490613271565b60405180910390fd5b82600660003373ffffffffffffffffffffffffffffffffffffffff1673ffffffffffffffffffffffffffffffffffffffff1681526020019081526020016000206000019080519060200190611053929190612044565b5081600660003373ffffffffffffffffffffffffffffffffffffffff1673ffffffffffffffffffffffffffffffffffffffff16815260200190815260200160002060010190805190602001906110aa929190612044565b5080600660003373ffffffffffffffffffffffffffffffffffffffff1673ffffffffffffffffffffffffffffffffffffffff1681526020019081526020016000206002019080519060200190611101929190612044565b503373ffffffffffffffffffffffffffffffffffffffff167fca91b92c76087c9c2ef1e3e1caa026c5de706bdbb1c952d8404727234974707b848460405161114a9291906133b2565b60405180910390a2505050565b6000815183511461116b57600090506111bd565b8160405160200161117c9190613425565b60405160208183030381529060405280519060200120836040516020016111a39190613425565b604051602081830303815290604052805190602001201490505b92915050565b600960009054906101000a900473ffffffffffffffffffffffffffffffffffffffff1681565b6000600960009054906101000a900473ffffffffffffffffffffffffffffffffffffffff1673ffffffffffffffffffffffffffffffffffffffff163373ffffffffffffffffffffffffffffffffffffffff1614905090565b60025481565b60035481565b606060086000838152602001908152602001600020805480602002602001604051908101604052809291908181526020016000905b828210156114ca57838290600052602060002090600502016040518060a0016040529081600082015481526020016001820180546112bf906130d5565b80601f01602080910402602001604051908101604052809291908181526020018280546112eb906130d5565b80156113385780601f1061130d57610100808354040283529160200191611338565b820191906000526020600020905b81548152906001019060200180831161131b57829003601f168201915b505050505081526020016002820160009054906101000a900473ffffffffffffffffffffffffffffffffffffffff1673ffffffffffffffffffffffffffffffffffffffff1673ffffffffffffffffffffffffffffffffffffffff1681526020016003820180546113a7906130d5565b80601f01602080910402602001604051908101604052809291908181526020018280546113d3906130d5565b80156114205780601f106113f557610100808354040283529160200191611420565b820191906000526020600020905b81548152906001019060200180831161140357829003601f168201915b50505050508152602001600482018054611439906130d5565b80601f0160208091040260200160405190810160405280929190818152602001828054611465906130d5565b80156114b25780601f10611487576101008083540402835291602001916114b2565b820191906000526020600020905b81548152906001019060200180831161149557829003601f168201915b50505050508152505081526020019060010190611282565b505050509050919050565b816115aa600660003373ffffffffffffffffffffffffffffffffffffffff1673ffffffffffffffffffffffffffffffffffffffff1681526020019081526020016000206000018054611526906130d5565b80601f0160208091040260200160405190810160405280929190818152602001828054611552906130d5565b801561159f5780601f106115745761010080835404028352916020019161159f565b820191906000526020600020905b81548152906001019060200180831161158257829003601f168201915b505050505082611157565b6115e9576040517f08c379a00000000000000000000000000000000000000000000000000000000081526004016115e090613488565b60405180910390fd5b8173ffffffffffffffffffffffffffffffffffffffff163373ffffffffffffffffffffffffffffffffffffffff161415611658576040517f08c379a000000000000000000000000000000000000000000000000000000000815260040161164f906134f4565b60405180910390fd5b60005b6007600086815260200190815260200160002060050180549050811015611750578273ffffffffffffffffffffffffffffffffffffffff166007600087815260200190815260200160002060050182815481106116bb576116ba613514565b5b9060005260206000200160009054906101000a900473ffffffffffffffffffffffffffffffffffffffff1673ffffffffffffffffffffffffffffffffffffffff16141561173d576040517f08c379a00000000000000000000000000000000000000000000000000000000081526004016117349061358f565b60405180910390fd5b8080611748906135af565b91505061165b565b5060076000858152602001908152602001600020600501829080600181540180825580915050600190039060005260206000200160009091909190916101000a81548173ffffffffffffffffffffffffffffffffffffffff021916908373ffffffffffffffffffffffffffffffffffffffff16021790555050505050565b6060600660008373ffffffffffffffffffffffffffffffffffffffff1673ffffffffffffffffffffffffffffffffffffffff168152602001908152602001600020600001805461181d906130d5565b80601f0160208091040260200160405190810160405280929190818152602001828054611849906130d5565b80156118965780601f1061186b57610100808354040283529160200191611896565b820191906000526020600020905b81548152906001019060200180831161187957829003601f168201915b50505050509050919050565b60045481565b6003543410156118ed576040517f08c379a00000000000000000000000000000000000000000000000000000000081526004016118e490613644565b60405180910390fd5b60006001811115611901576119006124bf565b5b6007600083815260200190815260200160002060060160009054906101000a900460ff166001811115611937576119366124bf565b5b14611977576040517f08c379a000000000000000000000000000000000000000000000000000000000815260040161196e906136b0565b60405180910390fd5b6004546007600083815260200190815260200160002060050180549050106119d4576040517f08c379a00000000000000000000000000000000000000000000000000000000081526004016119cb9061371c565b60405180910390fd5b6007600082815260200190815260200160002060090160009054906101000a900473ffffffffffffffffffffffffffffffffffffffff1673ffffffffffffffffffffffffffffffffffffffff163373ffffffffffffffffffffffffffffffffffffffff161415611a79576040517f08c379a0000000000000000000000000000000000000000000000000000000008152600401611a7090613788565b60405180910390fd5b60005b6007600083815260200190815260200160002060050180549050811015611b71573373ffffffffffffffffffffffffffffffffffffffff16600760008481526020019081526020016000206005018281548110611adc57611adb613514565b5b9060005260206000200160009054906101000a900473ffffffffffffffffffffffffffffffffffffffff1673ffffffffffffffffffffffffffffffffffffffff161415611b5e576040517f08c379a0000000000000000000000000000000000000000000000000000000008152600401611b559061358f565b60405180910390fd5b8080611b69906135af565b915050611a7c565b5060076000828152602001908152602001600020600501339080600181540180825580915050600190039060005260206000200160009091909190916101000a81548173ffffffffffffffffffffffffffffffffffffffff021916908373ffffffffffffffffffffffffffffffffffffffff16021790555050565b6007600086815260200190815260200160002060090160009054906101000a900473ffffffffffffffffffffffffffffffffffffffff1673ffffffffffffffffffffffffffffffffffffffff163373ffffffffffffffffffffffffffffffffffffffff161415611cb65760006001811115611c6a57611c696124bf565b5b60ff168460ff1614611cb1576040517f08c379a0000000000000000000000000000000000000000000000000000000008152600401611ca8906137f4565b60405180910390fd5b611e16565b600180811115611cc957611cc86124bf565b5b60ff168460ff1614611d10576040517f08c379a0000000000000000000000000000000000000000000000000000000008152600401611d0790613860565b60405180910390fd5b6000805b6007600088815260200190815260200160002060050180549050811015611dd357600760008881526020019081526020016000206005018181548110611d5d57611d5c613514565b5b9060005260206000200160009054906101000a900473ffffffffffffffffffffffffffffffffffffffff1673ffffffffffffffffffffffffffffffffffffffff163373ffffffffffffffffffffffffffffffffffffffff161415611dc057600191505b8080611dcb906135af565b915050611d14565b5080611e14576040517f08c379a0000000000000000000000000000000000000000000000000000000008152600401611e0b906138cc565b60405180910390fd5b505b60005b83518160ff161015611fb557600860008781526020019081526020016000206040518060a001604052808760ff168152602001868460ff1681518110611e6257611e61613514565b5b602002602001015181526020013373ffffffffffffffffffffffffffffffffffffffff168152602001858460ff1681518110611ea157611ea0613514565b5b60200260200101518152602001848460ff1681518110611ec457611ec3613514565b5b60200260200101518152509080600181540180825580915050600190039060005260206000209060050201600090919091909150600082015181600001556020820151816001019080519060200190611f1e929190612044565b5060408201518160020160006101000a81548173ffffffffffffffffffffffffffffffffffffffff021916908373ffffffffffffffffffffffffffffffffffffffff1602179055506060820151816003019080519060200190611f82929190612044565b506080820151816004019080519060200190611f9f929190612044565b5050508080611fad906138ec565b915050611e19565b505050505050565b8060058190555050565b604051806101400160405280606081526020016000815260200160008152602001600081526020016000151581526020016060815260200160006001811115612013576120126124bf565b5b81526020016060815260200160608152602001600073ffffffffffffffffffffffffffffffffffffffff1681525090565b828054612050906130d5565b90600052602060002090601f01602090048101928261207257600085556120b9565b82601f1061208b57805160ff19168380011785556120b9565b828001600101855582156120b9579182015b828111156120b857825182559160200191906001019061209d565b5b5090506120c691906121ea565b5090565b828054828255906000526020600020908101928215612143579160200282015b828111156121425782518260006101000a81548173ffffffffffffffffffffffffffffffffffffffff021916908373ffffffffffffffffffffffffffffffffffffffff160217905550916020019190600101906120ea565b5b50905061215091906121ea565b5090565b8280548282559060005260206000209081019282156121a3579160200282015b828111156121a2578251829080519060200190612192929190612044565b5091602001919060010190612174565b5b5090506121b09190612207565b5090565b6040518060c001604052806060815260200160608152602001606081526020016000815260200160008152602001606081525090565b5b808211156122035760008160009055506001016121eb565b5090565b5b80821115612227576000818161221e919061222b565b50600101612208565b5090565b508054612237906130d5565b6000825580601f106122495750612268565b601f01602090049060005260206000209081019061226791906121ea565b5b50565b6000819050919050565b61227e8161226b565b82525050565b60006020820190506122996000830184612275565b92915050565b6000604051905090565b600080fd5b600080fd5b6122bc8161226b565b81146122c757600080fd5b50565b6000813590506122d9816122b3565b92915050565b6000602082840312156122f5576122f46122a9565b5b6000612303848285016122ca565b91505092915050565b600081519050919050565b600082825260208201905092915050565b60005b8381101561234657808201518184015260208101905061232b565b83811115612355576000848401525b50505050565b6000601f19601f8301169050919050565b60006123778261230c565b6123818185612317565b9350612391818560208601612328565b61239a8161235b565b840191505092915050565b6123ae8161226b565b82525050565b60008115159050919050565b6123c9816123b4565b82525050565b600081519050919050565b600082825260208201905092915050565b6000819050602082019050919050565b600073ffffffffffffffffffffffffffffffffffffffff82169050919050565b6000612426826123fb565b9050919050565b6124368161241b565b82525050565b6000612448838361242d565b60208301905092915050565b6000602082019050919050565b600061246c826123cf565b61247681856123da565b9350612481836123eb565b8060005b838110156124b2578151612499888261243c565b97506124a483612454565b925050600181019050612485565b5085935050505092915050565b7f4e487b7100000000000000000000000000000000000000000000000000000000600052602160045260246000fd5b600281106124ff576124fe6124bf565b5b50565b6000819050612510826124ee565b919050565b600061252082612502565b9050919050565b61253081612515565b82525050565b600081519050919050565b600082825260208201905092915050565b6000819050602082019050919050565b600061256e838361236c565b905092915050565b6000602082019050919050565b600061258e82612536565b6125988185612541565b9350836020820285016125aa85612552565b8060005b858110156125e657848403895281516125c78582612562565b94506125d283612576565b925060208a019950506001810190506125ae565b50829750879550505050505092915050565b6000610140830160008301518482036000860152612616828261236c565b915050602083015161262b60208601826123a5565b50604083015161263e60408601826123a5565b50606083015161265160608601826123a5565b50608083015161266460808601826123c0565b5060a083015184820360a086015261267c8282612461565b91505060c083015161269160c0860182612527565b5060e083015184820360e08601526126a98282612583565b9150506101008301518482036101008601526126c58282612461565b9150506101208301516126dc61012086018261242d565b508091505092915050565b6000602082019050818103600083015261270181846125f8565b905092915050565b600080fd5b600080fd5b7f4e487b7100000000000000000000000000000000000000000000000000000000600052604160045260246000fd5b61274b8261235b565b810181811067ffffffffffffffff8211171561276a57612769612713565b5b80604052505050565b600061277d61229f565b90506127898282612742565b919050565b600067ffffffffffffffff8211156127a9576127a8612713565b5b6127b28261235b565b9050602081019050919050565b82818337600083830152505050565b60006127e16127dc8461278e565b612773565b9050828152602081018484840111156127fd576127fc61270e565b5b6128088482856127bf565b509392505050565b600082601f83011261282557612824612709565b5b81356128358482602086016127ce565b91505092915050565b6002811061284b57600080fd5b50565b60008135905061285d8161283e565b92915050565b600067ffffffffffffffff82111561287e5761287d612713565b5b602082029050602081019050919050565b600080fd5b60006128a76128a284612863565b612773565b905080838252602082019050602084028301858111156128ca576128c961288f565b5b835b8181101561291157803567ffffffffffffffff8111156128ef576128ee612709565b5b8086016128fc8982612810565b855260208501945050506020810190506128cc565b5050509392505050565b600082601f8301126129305761292f612709565b5b8135612940848260208601612894565b91505092915050565b60008060008060008060c08789031215612966576129656122a9565b5b600087013567ffffffffffffffff811115612984576129836122ae565b5b61299089828a01612810565b96505060206129a189828a016122ca565b95505060406129b289828a016122ca565b94505060606129c389828a016122ca565b93505060806129d489828a0161284e565b92505060a087013567ffffffffffffffff8111156129f5576129f46122ae565b5b612a0189828a0161291b565b9150509295509295509295565b612a178161241b565b8114612a2257600080fd5b50565b600081359050612a3481612a0e565b92915050565b600060208284031215612a5057612a4f6122a9565b5b6000612a5e84828501612a25565b91505092915050565b600081519050919050565b600082825260208201905092915050565b6000819050602082019050919050565b6000612a9f83836123a5565b60208301905092915050565b6000602082019050919050565b6000612ac382612a67565b612acd8185612a72565b9350612ad883612a83565b8060005b83811015612b09578151612af08882612a93565b9750612afb83612aab565b925050600181019050612adc565b5085935050505092915050565b600060c0830160008301518482036000860152612b33828261236c565b91505060208301518482036020860152612b4d828261236c565b91505060408301518482036040860152612b67828261236c565b9150506060830151612b7c60608601826123a5565b506080830151612b8f60808601826123a5565b5060a083015184820360a0860152612ba78282612ab8565b9150508091505092915050565b60006020820190508181036000830152612bce8184612b16565b905092915050565b600080600060608486031215612bef57612bee6122a9565b5b600084013567ffffffffffffffff811115612c0d57612c0c6122ae565b5b612c1986828701612810565b935050602084013567ffffffffffffffff811115612c3a57612c396122ae565b5b612c4686828701612810565b925050604084013567ffffffffffffffff811115612c6757612c666122ae565b5b612c7386828701612810565b9150509250925092565b60008060408385031215612c9457612c936122a9565b5b600083013567ffffffffffffffff811115612cb257612cb16122ae565b5b612cbe85828601612810565b925050602083013567ffffffffffffffff811115612cdf57612cde6122ae565b5b612ceb85828601612810565b9150509250929050565b612cfe816123b4565b82525050565b6000602082019050612d196000830184612cf5565b92915050565b6000612d2a826123fb565b9050919050565b612d3a81612d1f565b82525050565b6000602082019050612d556000830184612d31565b92915050565b600081519050919050565b600082825260208201905092915050565b6000819050602082019050919050565b600060a083016000830151612d9f60008601826123a5565b5060208301518482036020860152612db7828261236c565b9150506040830151612dcc604086018261242d565b5060608301518482036060860152612de4828261236c565b91505060808301518482036080860152612dfe828261236c565b9150508091505092915050565b6000612e178383612d87565b905092915050565b6000602082019050919050565b6000612e3782612d5b565b612e418185612d66565b935083602082028501612e5385612d77565b8060005b85811015612e8f5784840389528151612e708582612e0b565b9450612e7b83612e1f565b925060208a01995050600181019050612e57565b50829750879550505050505092915050565b60006020820190508181036000830152612ebb8184612e2c565b905092915050565b600080600060608486031215612edc57612edb6122a9565b5b6000612eea868287016122ca565b935050602084013567ffffffffffffffff811115612f0b57612f0a6122ae565b5b612f1786828701612810565b9250506040612f2886828701612a25565b9150509250925092565b600082825260208201905092915050565b6000612f4e8261230c565b612f588185612f32565b9350612f68818560208601612328565b612f718161235b565b840191505092915050565b60006020820190508181036000830152612f968184612f43565b905092915050565b600060ff82169050919050565b612fb481612f9e565b8114612fbf57600080fd5b50565b600081359050612fd181612fab565b92915050565b600080600080600060a08688031215612ff357612ff26122a9565b5b6000613001888289016122ca565b955050602061301288828901612fc2565b945050604086013567ffffffffffffffff811115613033576130326122ae565b5b61303f8882890161291b565b935050606086013567ffffffffffffffff8111156130605761305f6122ae565b5b61306c8882890161291b565b925050608086013567ffffffffffffffff81111561308d5761308c6122ae565b5b6130998882890161291b565b9150509295509295909350565b7f4e487b7100000000000000000000000000000000000000000000000000000000600052602260045260246000fd5b600060028204905060018216806130ed57607f821691505b60208210811415613101576131006130a6565b5b50919050565b7f4f6e6c795f6f776e65725f616c6c6f775f776974686472617700000000000000600082015250565b600061313d601983612f32565b915061314882613107565b602082019050919050565b6000602082019050818103600083015261316c81613130565b9050919050565b600081905092915050565b50565b600061318e600083613173565b91506131998261317e565b600082019050919050565b60006131af82613181565b9150819050919050565b7f4661696c656420746f2077697468647261772062616c616e6365000000000000600082015250565b60006131ef601a83612f32565b91506131fa826131b9565b602082019050919050565b6000602082019050818103600083015261321e816131e2565b9050919050565b7f496e73756666696369656e745f7061796d656e74000000000000000000000000600082015250565b600061325b601483612f32565b915061326682613225565b602082019050919050565b6000602082019050818103600083015261328a8161324e565b9050919050565b7f616464726573735f6e6f745f61646d696e000000000000000000000000000000600082015250565b60006132c7601183612f32565b91506132d282613291565b602082019050919050565b600060208201905081810360008301526132f6816132ba565b9050919050565b60006040820190506133126000830185612275565b81810360208301526133248184612f43565b90509392505050565b7f4e487b7100000000000000000000000000000000000000000000000000000000600052601160045260246000fd5b60006133678261226b565b91506133728361226b565b9250827fffffffffffffffffffffffffffffffffffffffffffffffffffffffffffffffff038211156133a7576133a661332d565b5b828201905092915050565b600060408201905081810360008301526133cc8185612f43565b905081810360208301526133e08184612f43565b90509392505050565b600081905092915050565b60006133ff8261230c565b61340981856133e9565b9350613419818560208601612328565b80840191505092915050565b600061343182846133f4565b915081905092915050565b7f4f6e6c795f61646d696e5f63616e5f706572666f726d00000000000000000000600082015250565b6000613472601683612f32565b915061347d8261343c565b602082019050919050565b600060208201905081810360008301526134a181613465565b9050919050565b7f63616e5f6e6f745f696e766974655f73656c6600000000000000000000000000600082015250565b60006134de601383612f32565b91506134e9826134a8565b602082019050919050565b6000602082019050818103600083015261350d816134d1565b9050919050565b7f4e487b7100000000000000000000000000000000000000000000000000000000600052603260045260246000fd5b7f616c72656164795f70617274696369706174696e670000000000000000000000600082015250565b6000613579601583612f32565b915061358482613543565b602082019050919050565b600060208201905081810360008301526135a88161356c565b9050919050565b60006135ba8261226b565b91507fffffffffffffffffffffffffffffffffffffffffffffffffffffffffffffffff8214156135ed576135ec61332d565b5b600182019050919050565b7f5f5052494345496e73756666696369656e745f7061796d656e745f6665650000600082015250565b600061362e601e83612f32565b9150613639826135f8565b602082019050919050565b6000602082019050818103600083015261365d81613621565b9050919050565b7f6e6f745f6f70656e5f74656e6465720000000000000000000000000000000000600082015250565b600061369a600f83612f32565b91506136a582613664565b602082019050919050565b600060208201905081810360008301526136c98161368d565b9050919050565b7f6d61785f7061727469636970616e74735f726561636865640000000000000000600082015250565b6000613706601883612f32565b9150613711826136d0565b602082019050919050565b60006020820190508181036000830152613735816136f9565b9050919050565b7f63616e5f6e6f745f72656769737465725f73656c660000000000000000000000600082015250565b6000613772601583612f32565b915061377d8261373c565b602082019050919050565b600060208201905081810360008301526137a181613765565b9050919050565b7f6973737565725f6261645f646f63747970650000000000000000000000000000600082015250565b60006137de601283612f32565b91506137e9826137a8565b602082019050919050565b6000602082019050818103600083015261380d816137d1565b9050919050565b7f7061727469636970616e745f6261645f646f6374797065000000000000000000600082015250565b600061384a601783612f32565b915061385582613814565b602082019050919050565b600060208201905081810360008301526138798161383d565b9050919050565b7f6e6f745f7061727469636970616e740000000000000000000000000000000000600082015250565b60006138b6600f83612f32565b91506138c182613880565b602082019050919050565b600060208201905081810360008301526138e5816138a9565b9050919050565b60006138f782612f9e565b915060ff82141561390b5761390a61332d565b5b60018201905091905056fea264697066735822122056fb1cc3b4cd00bf05d13f8e6682c6a70e1a45426ff109e82740fd17dea52b9e64736f6c63430008090033",
  "linkReferences": {},
  "deployedLinkReferences": {}
}