{
  "_format": "hh-sol-artifact-1",
  "contractName": "pro_pon",
  "sourceName": "contracts/pro-pon.sol",
  "abi": [
    {
      "inputs": [],
      "stateMutability": "payable",
      "type": "constructor"
    },
    {
      "anonymous": false,
      "inputs": [
        {
          "indexed": true,
          "internalType": "address",
          "name": "sender",
          "type": "address"
        },
        {
          "indexed": false,
          "internalType": "string",
          "name": "id",
          "type": "string"
        },
        {
          "indexed": false,
          "internalType": "string",
          "name": "name",
          "type": "string"
        }
      ],
      "name": "NewCompanyCreated",
      "type": "event"
    },
    {
      "anonymous": false,
      "inputs": [
        {
          "indexed": true,
          "internalType": "address",
          "name": "sender",
          "type": "address"
        },
        {
          "indexed": false,
          "internalType": "uint256",
          "name": "id",
          "type": "uint256"
        },
        {
          "indexed": false,
          "internalType": "string",
          "name": "name",
          "type": "string"
        }
      ],
      "name": "NewRFPCreated",
      "type": "event"
    },
    {
      "inputs": [],
      "name": "CREATE_COMPANY_PRICE",
      "outputs": [
        {
          "internalType": "uint256",
          "name": "",
          "type": "uint256"
        }
      ],
      "stateMutability": "view",
      "type": "function"
    },
    {
      "inputs": [],
      "name": "CREATE_INVITATION_RFP_PRICE",
      "outputs": [
        {
          "internalType": "uint256",
          "name": "",
          "type": "uint256"
        }
      ],
      "stateMutability": "view",
      "type": "function"
    },
    {
      "inputs": [],
      "name": "CREATE_OPEN_RFP_PRICE",
      "outputs": [
        {
          "internalType": "uint256",
          "name": "",
          "type": "uint256"
        }
      ],
      "stateMutability": "view",
      "type": "function"
    },
    {
      "inputs": [],
      "name": "MAX_GUEST_OPEN_TENDER",
      "outputs": [
        {
          "internalType": "uint256",
          "name": "",
          "type": "uint256"
        }
      ],
      "stateMutability": "view",
      "type": "function"
    },
    {
      "inputs": [],
      "name": "REGISTER_OPEN_RFP_PRICE",
      "outputs": [
        {
          "internalType": "uint256",
          "name": "",
          "type": "uint256"
        }
      ],
      "stateMutability": "view",
      "type": "function"
    },
    {
      "inputs": [
        {
          "internalType": "uint256",
          "name": "_rfpIdx",
          "type": "uint256"
        },
        {
          "internalType": "uint8",
          "name": "_docType",
          "type": "uint8"
        },
        {
          "internalType": "string[]",
          "name": "_names",
          "type": "string[]"
        },
        {
          "internalType": "string[]",
          "name": "_documentHashes",
          "type": "string[]"
        },
        {
          "internalType": "string[]",
          "name": "_idxs",
          "type": "string[]"
        }
      ],
      "name": "addDocuments",
      "outputs": [],
      "stateMutability": "nonpayable",
      "type": "function"
    },
    {
      "inputs": [
        {
          "internalType": "string",
          "name": "_id",
          "type": "string"
        },
        {
          "internalType": "string",
          "name": "_name",
          "type": "string"
        },
        {
          "internalType": "string",
          "name": "_country",
          "type": "string"
        }
      ],
      "name": "createCompany",
      "outputs": [],
      "stateMutability": "payable",
      "type": "function"
    },
    {
      "inputs": [
        {
          "internalType": "string",
          "name": "_name",
          "type": "string"
        },
        {
          "internalType": "uint256",
          "name": "_openDate",
          "type": "uint256"
        },
        {
          "internalType": "uint256",
          "name": "_endReceivingDate",
          "type": "uint256"
        },
        {
          "internalType": "uint256",
          "name": "_endDate",
          "type": "uint256"
        },
        {
          "internalType": "enum pro_pon.ContestType",
          "name": "_contestType",
          "type": "uint8"
        },
        {
          "internalType": "string[]",
          "name": "_items",
          "type": "string[]"
        }
      ],
      "name": "createRFP",
      "outputs": [],
      "stateMutability": "payable",
      "type": "function"
    },
    {
      "inputs": [
        {
          "internalType": "string",
          "name": "a",
          "type": "string"
        },
        {
          "internalType": "string",
          "name": "b",
          "type": "string"
        }
      ],
      "name": "equals",
      "outputs": [
        {
          "internalType": "bool",
          "name": "",
          "type": "bool"
        }
      ],
      "stateMutability": "pure",
      "type": "function"
    },
    {
      "inputs": [
        {
          "internalType": "address",
          "name": "admin",
          "type": "address"
        }
      ],
      "name": "getCompany",
      "outputs": [
        {
          "components": [
            {
              "internalType": "string",
              "name": "id",
              "type": "string"
            },
            {
              "internalType": "string",
              "name": "name",
              "type": "string"
            },
            {
              "internalType": "string",
              "name": "country",
              "type": "string"
            },
            {
              "internalType": "uint256",
              "name": "RFPSent",
              "type": "uint256"
            },
            {
              "internalType": "uint256",
              "name": "RPFsWon",
              "type": "uint256"
            },
            {
              "internalType": "uint256[]",
              "name": "company_RFPs",
              "type": "uint256[]"
            }
          ],
          "internalType": "struct pro_pon.Company",
          "name": "",
          "type": "tuple"
        }
      ],
      "stateMutability": "view",
      "type": "function"
    },
    {
      "inputs": [
        {
          "internalType": "address",
          "name": "admin",
          "type": "address"
        }
      ],
      "name": "getCompanyId",
      "outputs": [
        {
          "internalType": "string",
          "name": "companyId",
          "type": "string"
        }
      ],
      "stateMutability": "view",
      "type": "function"
    },
    {
      "inputs": [],
      "name": "getCreateCompanyPrice",
      "outputs": [
        {
          "internalType": "uint256",
          "name": "",
          "type": "uint256"
        }
      ],
      "stateMutability": "view",
      "type": "function"
    },
    {
      "inputs": [],
      "name": "getCreateInvitationRfpPrice",
      "outputs": [
        {
          "internalType": "uint256",
          "name": "",
          "type": "uint256"
        }
      ],
      "stateMutability": "view",
      "type": "function"
    },
    {
      "inputs": [],
      "name": "getCreateOpenRfpPrice",
      "outputs": [
        {
          "internalType": "uint256",
          "name": "",
          "type": "uint256"
        }
      ],
      "stateMutability": "view",
      "type": "function"
    },
    {
      "inputs": [
        {
          "internalType": "uint256",
          "name": "_rfpIdx",
          "type": "uint256"
        }
      ],
      "name": "getDocumentsfromRFP",
      "outputs": [
        {
          "components": [
            {
              "internalType": "uint256",
              "name": "docType",
              "type": "uint256"
            },
            {
              "internalType": "string",
              "name": "name",
              "type": "string"
            },
            {
              "internalType": "address",
              "name": "owner",
              "type": "address"
            },
            {
              "internalType": "string",
              "name": "documentHash",
              "type": "string"
            },
            {
              "internalType": "string",
              "name": "idx",
              "type": "string"
            }
          ],
          "internalType": "struct pro_pon.Document[]",
          "name": "",
          "type": "tuple[]"
        }
      ],
      "stateMutability": "view",
      "type": "function"
    },
    {
      "inputs": [],
      "name": "getMaxGuestOpenTender",
      "outputs": [
        {
          "internalType": "uint256",
          "name": "",
          "type": "uint256"
        }
      ],
      "stateMutability": "view",
      "type": "function"
    },
    {
      "inputs": [
        {
          "internalType": "uint256",
          "name": "_rfpId",
          "type": "uint256"
        }
      ],
      "name": "getRFPbyIndex",
      "outputs": [
        {
          "components": [
            {
              "internalType": "string",
              "name": "name",
              "type": "string"
            },
            {
              "internalType": "uint256",
              "name": "openDate",
              "type": "uint256"
            },
            {
              "internalType": "uint256",
              "name": "endReceivingDate",
              "type": "uint256"
            },
            {
              "internalType": "uint256",
              "name": "endDate",
              "type": "uint256"
            },
            {
              "internalType": "bool",
              "name": "canceled",
              "type": "bool"
            },
            {
              "internalType": "address[]",
              "name": "participants",
              "type": "address[]"
            },
            {
              "internalType": "enum pro_pon.ContestType",
              "name": "contestType",
              "type": "uint8"
            },
            {
              "internalType": "string[]",
              "name": "items",
              "type": "string[]"
            },
            {
              "internalType": "address[]",
              "name": "winners",
              "type": "address[]"
            },
            {
              "internalType": "address",
              "name": "issuer",
              "type": "address"
            }
          ],
          "internalType": "struct pro_pon.RFP",
          "name": "",
          "type": "tuple"
        }
      ],
      "stateMutability": "view",
      "type": "function"
    },
    {
      "inputs": [],
      "name": "getRegisterOpenRfpPrice",
      "outputs": [
        {
          "internalType": "uint256",
          "name": "",
          "type": "uint256"
        }
      ],
      "stateMutability": "view",
      "type": "function"
    },
    {
      "inputs": [],
      "name": "getcurrentRFPIdx",
      "outputs": [
        {
          "internalType": "uint256",
          "name": "",
          "type": "uint256"
        }
      ],
      "stateMutability": "view",
      "type": "function"
    },
    {
      "inputs": [
        {
          "internalType": "uint256",
          "name": "_rfpId",
          "type": "uint256"
        },
        {
          "internalType": "string",
          "name": "companyId",
          "type": "string"
        },
        {
          "internalType": "address[]",
          "name": "invitedCompanies",
          "type": "address[]"
        }
      ],
      "name": "inviteCompaniestoRFP",
      "outputs": [],
      "stateMutability": "nonpayable",
      "type": "function"
    },
    {
      "inputs": [
        {
          "internalType": "uint256",
          "name": "_rfpId",
          "type": "uint256"
        },
        {
          "internalType": "string",
          "name": "companyId",
          "type": "string"
        },
        {
          "internalType": "address",
          "name": "invitedCompany",
          "type": "address"
        }
      ],
      "name": "inviteCompanytoRFP",
      "outputs": [],
      "stateMutability": "nonpayable",
      "type": "function"
    },
    {
      "inputs": [
        {
          "internalType": "address[]",
          "name": "container",
          "type": "address[]"
        },
        {
          "internalType": "address",
          "name": "tocheck",
          "type": "address"
        }
      ],
      "name": "isContainedAddress",
      "outputs": [
        {
          "internalType": "bool",
          "name": "",
          "type": "bool"
        }
      ],
      "stateMutability": "pure",
      "type": "function"
    },
    {
      "inputs": [],
      "name": "isOwner",
      "outputs": [
        {
          "internalType": "bool",
          "name": "",
          "type": "bool"
        }
      ],
      "stateMutability": "view",
      "type": "function"
    },
    {
      "inputs": [],
      "name": "owner",
      "outputs": [
        {
          "internalType": "address payable",
          "name": "",
          "type": "address"
        }
      ],
      "stateMutability": "view",
      "type": "function"
    },
    {
      "inputs": [
        {
          "internalType": "uint256",
          "name": "_rfpId",
          "type": "uint256"
        }
      ],
      "name": "registertoOpenRFP",
      "outputs": [],
      "stateMutability": "payable",
      "type": "function"
    },
    {
      "inputs": [
        {
          "internalType": "uint256",
          "name": "newprice",
          "type": "uint256"
        }
      ],
      "name": "setCreateCompanyPrice",
      "outputs": [],
      "stateMutability": "nonpayable",
      "type": "function"
    },
    {
      "inputs": [
        {
          "internalType": "uint256",
          "name": "price",
          "type": "uint256"
        }
      ],
      "name": "setCreateInvitationRfpPrice",
      "outputs": [],
      "stateMutability": "nonpayable",
      "type": "function"
    },
    {
      "inputs": [
        {
          "internalType": "uint256",
          "name": "price",
          "type": "uint256"
        }
      ],
      "name": "setCreateOpenRfpPrice",
      "outputs": [],
      "stateMutability": "nonpayable",
      "type": "function"
    },
    {
      "inputs": [
        {
          "internalType": "uint256",
          "name": "MaxGuest",
          "type": "uint256"
        }
      ],
      "name": "setMaxGuestOpenTender",
      "outputs": [],
      "stateMutability": "nonpayable",
      "type": "function"
    },
    {
      "inputs": [
        {
          "internalType": "uint256",
          "name": "price",
          "type": "uint256"
        }
      ],
      "name": "setRegisterOpenRfpPrice",
      "outputs": [],
      "stateMutability": "nonpayable",
      "type": "function"
    },
    {
      "inputs": [],
      "name": "withdraw",
      "outputs": [],
      "stateMutability": "nonpayable",
      "type": "function"
    }
  ],
  "bytecode": "0x6080604052655af3107a4000600055655af3107a400060015565b5e620f48000600255655af3107a40006003556005600455600060055533600960006101000a81548173ffffffffffffffffffffffffffffffffffffffff021916908373ffffffffffffffffffffffffffffffffffffffff160217905550614321806100866000396000f3fe6080604052600436106101d85760003560e01c80638da5cb5b11610102578063cbfaf58011610095578063ea1b4b1d11610064578063ea1b4b1d14610694578063ecbb7b4a146106bd578063ed72f89f146106e8578063fa8ef5de14610704576101d8565b8063cbfaf580146105da578063d6f343c514610603578063d7a8529e14610640578063da2e186014610669576101d8565b8063afeff8d9116100d1578063afeff8d91461051c578063b929e7d914610547578063be38013b14610572578063c64928951461059d576101d8565b80638da5cb5b146104705780638f32d59b1461049b57806390646692146104c6578063ad26a9ad146104f1576101d8565b80634ccba2471161017a5780635d9c47f5116101495780635d9c47f5146103b157806362bc56e6146103da5780637b60626d1461041757806388d8da5f14610433576101d8565b80634ccba247146103045780634e289b881461032d578063574f750a146103585780635b6a96dc14610374576101d8565b806332f4b16a116101b657806332f4b16a1461025e5780633ccfd60b1461029b578063466c51fc146102b2578063482baf93146102db576101d8565b80631393b9e8146101dd578063215cf05d14610208578063325236fe14610233575b600080fd5b3480156101e957600080fd5b506101f261072d565b6040516101ff9190612aaf565b60405180910390f35b34801561021457600080fd5b5061021d610737565b60405161022a9190612aaf565b60405180910390f35b34801561023f57600080fd5b5061024861073d565b6040516102559190612aaf565b60405180910390f35b34801561026a57600080fd5b5061028560048036038101906102809190612b0a565b610747565b6040516102929190612f12565b60405180910390f35b3480156102a757600080fd5b506102b0610ac6565b005b3480156102be57600080fd5b506102d960048036038101906102d49190612b0a565b610bc2565b005b3480156102e757600080fd5b5061030260048036038101906102fd919061315d565b610c13565b005b34801561031057600080fd5b5061032b60048036038101906103269190612b0a565b610f22565b005b34801561033957600080fd5b50610342610f73565b60405161034f9190612aaf565b60405180910390f35b610372600480360381019061036d91906132ee565b610f79565b005b34801561038057600080fd5b5061039b600480360381019061039691906133b3565b6113c0565b6040516103a8919061341e565b60405180910390f35b3480156103bd57600080fd5b506103d860048036038101906103d39190612b0a565b611448565b005b3480156103e657600080fd5b5061040160048036038101906103fc9190613439565b611499565b60405161040e91906135b3565b60405180910390f35b610431600480360381019061042c91906135d5565b61171a565b005b34801561043f57600080fd5b5061045a6004803603810190610455919061367c565b6118b9565b604051610467919061341e565b60405180910390f35b34801561047c57600080fd5b50610485611925565b6040516104929190613715565b60405180910390f35b3480156104a757600080fd5b506104b061194b565b6040516104bd919061341e565b60405180910390f35b3480156104d257600080fd5b506104db6119a3565b6040516104e89190612aaf565b60405180910390f35b3480156104fd57600080fd5b506105066119ad565b6040516105139190612aaf565b60405180910390f35b34801561052857600080fd5b506105316119b7565b60405161053e9190612aaf565b60405180910390f35b34801561055357600080fd5b5061055c6119bd565b6040516105699190612aaf565b60405180910390f35b34801561057e57600080fd5b506105876119c7565b6040516105949190612aaf565b60405180910390f35b3480156105a957600080fd5b506105c460048036038101906105bf9190612b0a565b6119cd565b6040516105d19190613876565b60405180910390f35b3480156105e657600080fd5b5061060160048036038101906105fc9190613898565b611c55565b005b34801561060f57600080fd5b5061062a60048036038101906106259190613439565b611f4e565b6040516106379190613951565b60405180910390f35b34801561064c57600080fd5b5061066760048036038101906106629190612b0a565b612022565b005b34801561067557600080fd5b5061067e612073565b60405161068b9190612aaf565b60405180910390f35b3480156106a057600080fd5b506106bb60048036038101906106b69190612b0a565b61207c565b005b3480156106c957600080fd5b506106d26120cd565b6040516106df9190612aaf565b60405180910390f35b61070260048036038101906106fd9190612b0a565b6120d3565b005b34801561071057600080fd5b5061072b600480360381019061072691906139ac565b612417565b005b6000600554905090565b60005481565b6000600454905090565b61074f6127f2565b600760008381526020019081526020016000206040518061014001604052908160008201805461077e90613aaa565b80601f01602080910402602001604051908101604052809291908181526020018280546107aa90613aaa565b80156107f75780601f106107cc576101008083540402835291602001916107f7565b820191906000526020600020905b8154815290600101906020018083116107da57829003601f168201915b505050505081526020016001820154815260200160028201548152602001600382015481526020016004820160009054906101000a900460ff16151515158152602001600582018054806020026020016040519081016040528092919081815260200182805480156108be57602002820191906000526020600020905b8160009054906101000a900473ffffffffffffffffffffffffffffffffffffffff1673ffffffffffffffffffffffffffffffffffffffff1681526020019060010190808311610874575b505050505081526020016006820160009054906101000a900460ff1660018111156108ec576108eb612cea565b5b60018111156108fe576108fd612cea565b5b815260200160078201805480602002602001604051908101604052809291908181526020016000905b828210156109d357838290600052602060002001805461094690613aaa565b80601f016020809104026020016040519081016040528092919081815260200182805461097290613aaa565b80156109bf5780601f10610994576101008083540402835291602001916109bf565b820191906000526020600020905b8154815290600101906020018083116109a257829003601f168201915b505050505081526020019060010190610927565b50505050815260200160088201805480602002602001604051908101604052809291908181526020018280548015610a6057602002820191906000526020600020905b8160009054906101000a900473ffffffffffffffffffffffffffffffffffffffff1673ffffffffffffffffffffffffffffffffffffffff1681526020019060010190808311610a16575b505050505081526020016009820160009054906101000a900473ffffffffffffffffffffffffffffffffffffffff1673ffffffffffffffffffffffffffffffffffffffff1673ffffffffffffffffffffffffffffffffffffffff16815250509050919050565b610ace61194b565b610b0d576040517f08c379a0000000000000000000000000000000000000000000000000000000008152600401610b0490613b28565b60405180910390fd5b600047905060003373ffffffffffffffffffffffffffffffffffffffff1682604051610b3890613b79565b60006040518083038185875af1925050503d8060008114610b75576040519150601f19603f3d011682016040523d82523d6000602084013e610b7a565b606091505b5050905080610bbe576040517f08c379a0000000000000000000000000000000000000000000000000000000008152600401610bb590613bda565b60405180910390fd5b5050565b610bca61194b565b610c09576040517f08c379a0000000000000000000000000000000000000000000000000000000008152600401610c0090613b28565b60405180910390fd5b8060008190555050565b81610ce8600660003373ffffffffffffffffffffffffffffffffffffffff1673ffffffffffffffffffffffffffffffffffffffff1681526020019081526020016000206000018054610c6490613aaa565b80601f0160208091040260200160405190810160405280929190818152602001828054610c9090613aaa565b8015610cdd5780601f10610cb257610100808354040283529160200191610cdd565b820191906000526020600020905b815481529060010190602001808311610cc057829003601f168201915b5050505050826118b9565b610d27576040517f08c379a0000000000000000000000000000000000000000000000000000000008152600401610d1e90613c46565b60405180910390fd5b60005b8251811015610f1b57600060019050838281518110610d4c57610d4b613c66565b5b602002602001015173ffffffffffffffffffffffffffffffffffffffff163373ffffffffffffffffffffffffffffffffffffffff161415610d8d5750610f08565b60005b6007600088815260200190815260200160002060050180549050811015610e6d57848381518110610dc457610dc3613c66565b5b602002602001015173ffffffffffffffffffffffffffffffffffffffff16600760008981526020019081526020016000206005018281548110610e0a57610e09613c66565b5b9060005260206000200160009054906101000a900473ffffffffffffffffffffffffffffffffffffffff1673ffffffffffffffffffffffffffffffffffffffff161415610e5a5760009150610e6d565b8080610e6590613cc4565b915050610d90565b508015610f065760076000878152602001908152602001600020600501848381518110610e9d57610e9c613c66565b5b60200260200101519080600181540180825580915050600190039060005260206000200160009091909190916101000a81548173ffffffffffffffffffffffffffffffffffffffff021916908373ffffffffffffffffffffffffffffffffffffffff1602179055505b505b8080610f1390613cc4565b915050610d2a565b5050505050565b610f2a61194b565b610f69576040517f08c379a0000000000000000000000000000000000000000000000000000000008152600401610f6090613b28565b60405180910390fd5b8060048190555050565b60015481565b60006001811115610f8d57610f8c612cea565b5b826001811115610fa057610f9f612cea565b5b1415610ff057600154341015610feb576040517f08c379a0000000000000000000000000000000000000000000000000000000008152600401610fe290613d59565b60405180910390fd5b611036565b600254341015611035576040517f08c379a000000000000000000000000000000000000000000000000000000000815260040161102c90613d59565b60405180910390fd5b5b600061104133611499565b9050600081600001519050600081511415611091576040517f08c379a000000000000000000000000000000000000000000000000000000000815260040161108890613dc5565b60405180910390fd5b60006040518061014001604052808a8152602001898152602001888152602001878152602001600015158152602001600067ffffffffffffffff8111156110db576110da612f3e565b5b6040519080825280602002602001820160405280156111095781602001602082028036833780820191505090505b50815260200186600181111561112257611121612cea565b5b8152602001858152602001600067ffffffffffffffff81111561114857611147612f3e565b5b6040519080825280602002602001820160405280156111765781602001602082028036833780820191505090505b5081526020013373ffffffffffffffffffffffffffffffffffffffff16815250905060006111a261072d565b9050816007600083815260200190815260200160002060008201518160000190805190602001906111d492919061286f565b5060208201518160010155604082015181600201556060820151816003015560808201518160040160006101000a81548160ff02191690831515021790555060a082015181600501908051906020019061122f9291906128f5565b5060c08201518160060160006101000a81548160ff0219169083600181111561125b5761125a612cea565b5b021790555060e082015181600701908051906020019061127c92919061297f565b5061010082015181600801908051906020019061129a9291906128f5565b506101208201518160090160006101000a81548173ffffffffffffffffffffffffffffffffffffffff021916908373ffffffffffffffffffffffffffffffffffffffff160217905550905050600660003373ffffffffffffffffffffffffffffffffffffffff1673ffffffffffffffffffffffffffffffffffffffff1681526020019081526020016000206005018190806001815401808255809150506001900390600052602060002001600090919091909150553373ffffffffffffffffffffffffffffffffffffffff167fae438a3ef380e4b013ba12bcb929a59140482304040a1d8cf54d25c8e85640e9828c604051611397929190613de5565b60405180910390a26113b46001826113af9190613e15565b6127e8565b50505050505050505050565b600080600090505b835181101561143c578273ffffffffffffffffffffffffffffffffffffffff168482815181106113fb576113fa613c66565b5b602002602001015173ffffffffffffffffffffffffffffffffffffffff161415611429576001915050611442565b808061143490613cc4565b9150506113c8565b50600090505b92915050565b61145061194b565b61148f576040517f08c379a000000000000000000000000000000000000000000000000000000000815260040161148690613b28565b60405180910390fd5b8060018190555050565b6114a16129df565b6000600660008473ffffffffffffffffffffffffffffffffffffffff1673ffffffffffffffffffffffffffffffffffffffff1681526020019081526020016000209050806040518060c001604052908160008201805461150090613aaa565b80601f016020809104026020016040519081016040528092919081815260200182805461152c90613aaa565b80156115795780601f1061154e57610100808354040283529160200191611579565b820191906000526020600020905b81548152906001019060200180831161155c57829003601f168201915b5050505050815260200160018201805461159290613aaa565b80601f01602080910402602001604051908101604052809291908181526020018280546115be90613aaa565b801561160b5780601f106115e05761010080835404028352916020019161160b565b820191906000526020600020905b8154815290600101906020018083116115ee57829003601f168201915b5050505050815260200160028201805461162490613aaa565b80601f016020809104026020016040519081016040528092919081815260200182805461165090613aaa565b801561169d5780601f106116725761010080835404028352916020019161169d565b820191906000526020600020905b81548152906001019060200180831161168057829003601f168201915b5050505050815260200160038201548152602001600482015481526020016005820180548060200260200160405190810160405280929190818152602001828054801561170957602002820191906000526020600020905b8154815260200190600101908083116116f5575b505050505081525050915050919050565b60005434101561175f576040517f08c379a000000000000000000000000000000000000000000000000000000000815260040161175690613d59565b60405180910390fd5b82600660003373ffffffffffffffffffffffffffffffffffffffff1673ffffffffffffffffffffffffffffffffffffffff16815260200190815260200160002060000190805190602001906117b592919061286f565b5081600660003373ffffffffffffffffffffffffffffffffffffffff1673ffffffffffffffffffffffffffffffffffffffff168152602001908152602001600020600101908051906020019061180c92919061286f565b5080600660003373ffffffffffffffffffffffffffffffffffffffff1673ffffffffffffffffffffffffffffffffffffffff168152602001908152602001600020600201908051906020019061186392919061286f565b503373ffffffffffffffffffffffffffffffffffffffff167fca91b92c76087c9c2ef1e3e1caa026c5de706bdbb1c952d8404727234974707b84846040516118ac929190613e6b565b60405180910390a2505050565b600081518351146118cd576000905061191f565b816040516020016118de9190613ede565b60405160208183030381529060405280519060200120836040516020016119059190613ede565b604051602081830303815290604052805190602001201490505b92915050565b600960009054906101000a900473ffffffffffffffffffffffffffffffffffffffff1681565b6000600960009054906101000a900473ffffffffffffffffffffffffffffffffffffffff1673ffffffffffffffffffffffffffffffffffffffff163373ffffffffffffffffffffffffffffffffffffffff1614905090565b6000600354905090565b6000600254905090565b60025481565b6000600154905090565b60035481565b606060086000838152602001908152602001600020805480602002602001604051908101604052809291908181526020016000905b82821015611c4a57838290600052602060002090600502016040518060a001604052908160008201548152602001600182018054611a3f90613aaa565b80601f0160208091040260200160405190810160405280929190818152602001828054611a6b90613aaa565b8015611ab85780601f10611a8d57610100808354040283529160200191611ab8565b820191906000526020600020905b815481529060010190602001808311611a9b57829003601f168201915b505050505081526020016002820160009054906101000a900473ffffffffffffffffffffffffffffffffffffffff1673ffffffffffffffffffffffffffffffffffffffff1673ffffffffffffffffffffffffffffffffffffffff168152602001600382018054611b2790613aaa565b80601f0160208091040260200160405190810160405280929190818152602001828054611b5390613aaa565b8015611ba05780601f10611b7557610100808354040283529160200191611ba0565b820191906000526020600020905b815481529060010190602001808311611b8357829003601f168201915b50505050508152602001600482018054611bb990613aaa565b80601f0160208091040260200160405190810160405280929190818152602001828054611be590613aaa565b8015611c325780601f10611c0757610100808354040283529160200191611c32565b820191906000526020600020905b815481529060010190602001808311611c1557829003601f168201915b50505050508152505081526020019060010190611a02565b505050509050919050565b81611d2a600660003373ffffffffffffffffffffffffffffffffffffffff1673ffffffffffffffffffffffffffffffffffffffff1681526020019081526020016000206000018054611ca690613aaa565b80601f0160208091040260200160405190810160405280929190818152602001828054611cd290613aaa565b8015611d1f5780601f10611cf457610100808354040283529160200191611d1f565b820191906000526020600020905b815481529060010190602001808311611d0257829003601f168201915b5050505050826118b9565b611d69576040517f08c379a0000000000000000000000000000000000000000000000000000000008152600401611d6090613c46565b60405180910390fd5b8173ffffffffffffffffffffffffffffffffffffffff163373ffffffffffffffffffffffffffffffffffffffff161415611dd8576040517f08c379a0000000000000000000000000000000000000000000000000000000008152600401611dcf90613f41565b60405180910390fd5b60005b6007600086815260200190815260200160002060050180549050811015611ed0578273ffffffffffffffffffffffffffffffffffffffff16600760008781526020019081526020016000206005018281548110611e3b57611e3a613c66565b5b9060005260206000200160009054906101000a900473ffffffffffffffffffffffffffffffffffffffff1673ffffffffffffffffffffffffffffffffffffffff161415611ebd576040517f08c379a0000000000000000000000000000000000000000000000000000000008152600401611eb490613fad565b60405180910390fd5b8080611ec890613cc4565b915050611ddb565b5060076000858152602001908152602001600020600501829080600181540180825580915050600190039060005260206000200160009091909190916101000a81548173ffffffffffffffffffffffffffffffffffffffff021916908373ffffffffffffffffffffffffffffffffffffffff16021790555050505050565b6060600660008373ffffffffffffffffffffffffffffffffffffffff1673ffffffffffffffffffffffffffffffffffffffff1681526020019081526020016000206000018054611f9d90613aaa565b80601f0160208091040260200160405190810160405280929190818152602001828054611fc990613aaa565b80156120165780601f10611feb57610100808354040283529160200191612016565b820191906000526020600020905b815481529060010190602001808311611ff957829003601f168201915b50505050509050919050565b61202a61194b565b612069576040517f08c379a000000000000000000000000000000000000000000000000000000000815260040161206090613b28565b60405180910390fd5b8060038190555050565b60008054905090565b61208461194b565b6120c3576040517f08c379a00000000000000000000000000000000000000000000000000000000081526004016120ba90613b28565b60405180910390fd5b8060028190555050565b60045481565b600354341015612118576040517f08c379a000000000000000000000000000000000000000000000000000000000815260040161210f90614019565b60405180910390fd5b6000600181111561212c5761212b612cea565b5b6007600083815260200190815260200160002060060160009054906101000a900460ff16600181111561216257612161612cea565b5b146121a2576040517f08c379a000000000000000000000000000000000000000000000000000000000815260040161219990614085565b60405180910390fd5b6004546007600083815260200190815260200160002060050180549050106121ff576040517f08c379a00000000000000000000000000000000000000000000000000000000081526004016121f6906140f1565b60405180910390fd5b6007600082815260200190815260200160002060090160009054906101000a900473ffffffffffffffffffffffffffffffffffffffff1673ffffffffffffffffffffffffffffffffffffffff163373ffffffffffffffffffffffffffffffffffffffff1614156122a4576040517f08c379a000000000000000000000000000000000000000000000000000000000815260040161229b9061415d565b60405180910390fd5b60005b600760008381526020019081526020016000206005018054905081101561239c573373ffffffffffffffffffffffffffffffffffffffff1660076000848152602001908152602001600020600501828154811061230757612306613c66565b5b9060005260206000200160009054906101000a900473ffffffffffffffffffffffffffffffffffffffff1673ffffffffffffffffffffffffffffffffffffffff161415612389576040517f08c379a000000000000000000000000000000000000000000000000000000000815260040161238090613fad565b60405180910390fd5b808061239490613cc4565b9150506122a7565b5060076000828152602001908152602001600020600501339080600181540180825580915050600190039060005260206000200160009091909190916101000a81548173ffffffffffffffffffffffffffffffffffffffff021916908373ffffffffffffffffffffffffffffffffffffffff16021790555050565b6007600086815260200190815260200160002060090160009054906101000a900473ffffffffffffffffffffffffffffffffffffffff1673ffffffffffffffffffffffffffffffffffffffff163373ffffffffffffffffffffffffffffffffffffffff1614156124e1576000600181111561249557612494612cea565b5b60ff168460ff16146124dc576040517f08c379a00000000000000000000000000000000000000000000000000000000081526004016124d3906141c9565b60405180910390fd5b612641565b6001808111156124f4576124f3612cea565b5b60ff168460ff161461253b576040517f08c379a000000000000000000000000000000000000000000000000000000000815260040161253290614235565b60405180910390fd5b6000805b60076000888152602001908152602001600020600501805490508110156125fe5760076000888152602001908152602001600020600501818154811061258857612587613c66565b5b9060005260206000200160009054906101000a900473ffffffffffffffffffffffffffffffffffffffff1673ffffffffffffffffffffffffffffffffffffffff163373ffffffffffffffffffffffffffffffffffffffff1614156125eb57600191505b80806125f690613cc4565b91505061253f565b508061263f576040517f08c379a0000000000000000000000000000000000000000000000000000000008152600401612636906142a1565b60405180910390fd5b505b60005b83518160ff1610156127e057600860008781526020019081526020016000206040518060a001604052808760ff168152602001868460ff168151811061268d5761268c613c66565b5b602002602001015181526020013373ffffffffffffffffffffffffffffffffffffffff168152602001858460ff16815181106126cc576126cb613c66565b5b60200260200101518152602001848460ff16815181106126ef576126ee613c66565b5b6020026020010151815250908060018154018082558091505060019003906000526020600020906005020160009091909190915060008201518160000155602082015181600101908051906020019061274992919061286f565b5060408201518160020160006101000a81548173ffffffffffffffffffffffffffffffffffffffff021916908373ffffffffffffffffffffffffffffffffffffffff16021790555060608201518160030190805190602001906127ad92919061286f565b5060808201518160040190805190602001906127ca92919061286f565b50505080806127d8906142c1565b915050612644565b505050505050565b8060058190555050565b60405180610140016040528060608152602001600081526020016000815260200160008152602001600015158152602001606081526020016000600181111561283e5761283d612cea565b5b81526020016060815260200160608152602001600073ffffffffffffffffffffffffffffffffffffffff1681525090565b82805461287b90613aaa565b90600052602060002090601f01602090048101928261289d57600085556128e4565b82601f106128b657805160ff19168380011785556128e4565b828001600101855582156128e4579182015b828111156128e35782518255916020019190600101906128c8565b5b5090506128f19190612a15565b5090565b82805482825590600052602060002090810192821561296e579160200282015b8281111561296d5782518260006101000a81548173ffffffffffffffffffffffffffffffffffffffff021916908373ffffffffffffffffffffffffffffffffffffffff16021790555091602001919060010190612915565b5b50905061297b9190612a15565b5090565b8280548282559060005260206000209081019282156129ce579160200282015b828111156129cd5782518290805190602001906129bd92919061286f565b509160200191906001019061299f565b5b5090506129db9190612a32565b5090565b6040518060c001604052806060815260200160608152602001606081526020016000815260200160008152602001606081525090565b5b80821115612a2e576000816000905550600101612a16565b5090565b5b80821115612a525760008181612a499190612a56565b50600101612a33565b5090565b508054612a6290613aaa565b6000825580601f10612a745750612a93565b601f016020900490600052602060002090810190612a929190612a15565b5b50565b6000819050919050565b612aa981612a96565b82525050565b6000602082019050612ac46000830184612aa0565b92915050565b6000604051905090565b600080fd5b600080fd5b612ae781612a96565b8114612af257600080fd5b50565b600081359050612b0481612ade565b92915050565b600060208284031215612b2057612b1f612ad4565b5b6000612b2e84828501612af5565b91505092915050565b600081519050919050565b600082825260208201905092915050565b60005b83811015612b71578082015181840152602081019050612b56565b83811115612b80576000848401525b50505050565b6000601f19601f8301169050919050565b6000612ba282612b37565b612bac8185612b42565b9350612bbc818560208601612b53565b612bc581612b86565b840191505092915050565b612bd981612a96565b82525050565b60008115159050919050565b612bf481612bdf565b82525050565b600081519050919050565b600082825260208201905092915050565b6000819050602082019050919050565b600073ffffffffffffffffffffffffffffffffffffffff82169050919050565b6000612c5182612c26565b9050919050565b612c6181612c46565b82525050565b6000612c738383612c58565b60208301905092915050565b6000602082019050919050565b6000612c9782612bfa565b612ca18185612c05565b9350612cac83612c16565b8060005b83811015612cdd578151612cc48882612c67565b9750612ccf83612c7f565b925050600181019050612cb0565b5085935050505092915050565b7f4e487b7100000000000000000000000000000000000000000000000000000000600052602160045260246000fd5b60028110612d2a57612d29612cea565b5b50565b6000819050612d3b82612d19565b919050565b6000612d4b82612d2d565b9050919050565b612d5b81612d40565b82525050565b600081519050919050565b600082825260208201905092915050565b6000819050602082019050919050565b6000612d998383612b97565b905092915050565b6000602082019050919050565b6000612db982612d61565b612dc38185612d6c565b935083602082028501612dd585612d7d565b8060005b85811015612e115784840389528151612df28582612d8d565b9450612dfd83612da1565b925060208a01995050600181019050612dd9565b50829750879550505050505092915050565b6000610140830160008301518482036000860152612e418282612b97565b9150506020830151612e566020860182612bd0565b506040830151612e696040860182612bd0565b506060830151612e7c6060860182612bd0565b506080830151612e8f6080860182612beb565b5060a083015184820360a0860152612ea78282612c8c565b91505060c0830151612ebc60c0860182612d52565b5060e083015184820360e0860152612ed48282612dae565b915050610100830151848203610100860152612ef08282612c8c565b915050610120830151612f07610120860182612c58565b508091505092915050565b60006020820190508181036000830152612f2c8184612e23565b905092915050565b600080fd5b600080fd5b7f4e487b7100000000000000000000000000000000000000000000000000000000600052604160045260246000fd5b612f7682612b86565b810181811067ffffffffffffffff82111715612f9557612f94612f3e565b5b80604052505050565b6000612fa8612aca565b9050612fb48282612f6d565b919050565b600067ffffffffffffffff821115612fd457612fd3612f3e565b5b612fdd82612b86565b9050602081019050919050565b82818337600083830152505050565b600061300c61300784612fb9565b612f9e565b90508281526020810184848401111561302857613027612f39565b5b613033848285612fea565b509392505050565b600082601f8301126130505761304f612f34565b5b8135613060848260208601612ff9565b91505092915050565b600067ffffffffffffffff82111561308457613083612f3e565b5b602082029050602081019050919050565b600080fd5b6130a381612c46565b81146130ae57600080fd5b50565b6000813590506130c08161309a565b92915050565b60006130d96130d484613069565b612f9e565b905080838252602082019050602084028301858111156130fc576130fb613095565b5b835b81811015613125578061311188826130b1565b8452602084019350506020810190506130fe565b5050509392505050565b600082601f83011261314457613143612f34565b5b81356131548482602086016130c6565b91505092915050565b60008060006060848603121561317657613175612ad4565b5b600061318486828701612af5565b935050602084013567ffffffffffffffff8111156131a5576131a4612ad9565b5b6131b18682870161303b565b925050604084013567ffffffffffffffff8111156131d2576131d1612ad9565b5b6131de8682870161312f565b9150509250925092565b600281106131f557600080fd5b50565b600081359050613207816131e8565b92915050565b600067ffffffffffffffff82111561322857613227612f3e565b5b602082029050602081019050919050565b600061324c6132478461320d565b612f9e565b9050808382526020820190506020840283018581111561326f5761326e613095565b5b835b818110156132b657803567ffffffffffffffff81111561329457613293612f34565b5b8086016132a1898261303b565b85526020850194505050602081019050613271565b5050509392505050565b600082601f8301126132d5576132d4612f34565b5b81356132e5848260208601613239565b91505092915050565b60008060008060008060c0878903121561330b5761330a612ad4565b5b600087013567ffffffffffffffff81111561332957613328612ad9565b5b61333589828a0161303b565b965050602061334689828a01612af5565b955050604061335789828a01612af5565b945050606061336889828a01612af5565b935050608061337989828a016131f8565b92505060a087013567ffffffffffffffff81111561339a57613399612ad9565b5b6133a689828a016132c0565b9150509295509295509295565b600080604083850312156133ca576133c9612ad4565b5b600083013567ffffffffffffffff8111156133e8576133e7612ad9565b5b6133f48582860161312f565b9250506020613405858286016130b1565b9150509250929050565b61341881612bdf565b82525050565b6000602082019050613433600083018461340f565b92915050565b60006020828403121561344f5761344e612ad4565b5b600061345d848285016130b1565b91505092915050565b600081519050919050565b600082825260208201905092915050565b6000819050602082019050919050565b600061349e8383612bd0565b60208301905092915050565b6000602082019050919050565b60006134c282613466565b6134cc8185613471565b93506134d783613482565b8060005b838110156135085781516134ef8882613492565b97506134fa836134aa565b9250506001810190506134db565b5085935050505092915050565b600060c08301600083015184820360008601526135328282612b97565b9150506020830151848203602086015261354c8282612b97565b915050604083015184820360408601526135668282612b97565b915050606083015161357b6060860182612bd0565b50608083015161358e6080860182612bd0565b5060a083015184820360a08601526135a682826134b7565b9150508091505092915050565b600060208201905081810360008301526135cd8184613515565b905092915050565b6000806000606084860312156135ee576135ed612ad4565b5b600084013567ffffffffffffffff81111561360c5761360b612ad9565b5b6136188682870161303b565b935050602084013567ffffffffffffffff81111561363957613638612ad9565b5b6136458682870161303b565b925050604084013567ffffffffffffffff81111561366657613665612ad9565b5b6136728682870161303b565b9150509250925092565b6000806040838503121561369357613692612ad4565b5b600083013567ffffffffffffffff8111156136b1576136b0612ad9565b5b6136bd8582860161303b565b925050602083013567ffffffffffffffff8111156136de576136dd612ad9565b5b6136ea8582860161303b565b9150509250929050565b60006136ff82612c26565b9050919050565b61370f816136f4565b82525050565b600060208201905061372a6000830184613706565b92915050565b600081519050919050565b600082825260208201905092915050565b6000819050602082019050919050565b600060a0830160008301516137746000860182612bd0565b506020830151848203602086015261378c8282612b97565b91505060408301516137a16040860182612c58565b50606083015184820360608601526137b98282612b97565b915050608083015184820360808601526137d38282612b97565b9150508091505092915050565b60006137ec838361375c565b905092915050565b6000602082019050919050565b600061380c82613730565b613816818561373b565b9350836020820285016138288561374c565b8060005b85811015613864578484038952815161384585826137e0565b9450613850836137f4565b925060208a0199505060018101905061382c565b50829750879550505050505092915050565b600060208201905081810360008301526138908184613801565b905092915050565b6000806000606084860312156138b1576138b0612ad4565b5b60006138bf86828701612af5565b935050602084013567ffffffffffffffff8111156138e0576138df612ad9565b5b6138ec8682870161303b565b92505060406138fd868287016130b1565b9150509250925092565b600082825260208201905092915050565b600061392382612b37565b61392d8185613907565b935061393d818560208601612b53565b61394681612b86565b840191505092915050565b6000602082019050818103600083015261396b8184613918565b905092915050565b600060ff82169050919050565b61398981613973565b811461399457600080fd5b50565b6000813590506139a681613980565b92915050565b600080600080600060a086880312156139c8576139c7612ad4565b5b60006139d688828901612af5565b95505060206139e788828901613997565b945050604086013567ffffffffffffffff811115613a0857613a07612ad9565b5b613a14888289016132c0565b935050606086013567ffffffffffffffff811115613a3557613a34612ad9565b5b613a41888289016132c0565b925050608086013567ffffffffffffffff811115613a6257613a61612ad9565b5b613a6e888289016132c0565b9150509295509295909350565b7f4e487b7100000000000000000000000000000000000000000000000000000000600052602260045260246000fd5b60006002820490506001821680613ac257607f821691505b60208210811415613ad657613ad5613a7b565b5b50919050565b7f4f6e6c795f6f776e65725f616c6c6f775f776974686472617700000000000000600082015250565b6000613b12601983613907565b9150613b1d82613adc565b602082019050919050565b60006020820190508181036000830152613b4181613b05565b9050919050565b600081905092915050565b50565b6000613b63600083613b48565b9150613b6e82613b53565b600082019050919050565b6000613b8482613b56565b9150819050919050565b7f4661696c656420746f2077697468647261772062616c616e6365000000000000600082015250565b6000613bc4601a83613907565b9150613bcf82613b8e565b602082019050919050565b60006020820190508181036000830152613bf381613bb7565b9050919050565b7f4f6e6c795f61646d696e5f63616e5f706572666f726d00000000000000000000600082015250565b6000613c30601683613907565b9150613c3b82613bfa565b602082019050919050565b60006020820190508181036000830152613c5f81613c23565b9050919050565b7f4e487b7100000000000000000000000000000000000000000000000000000000600052603260045260246000fd5b7f4e487b7100000000000000000000000000000000000000000000000000000000600052601160045260246000fd5b6000613ccf82612a96565b91507fffffffffffffffffffffffffffffffffffffffffffffffffffffffffffffffff821415613d0257613d01613c95565b5b600182019050919050565b7f496e73756666696369656e745f7061796d656e74000000000000000000000000600082015250565b6000613d43601483613907565b9150613d4e82613d0d565b602082019050919050565b60006020820190508181036000830152613d7281613d36565b9050919050565b7f616464726573735f6e6f745f61646d696e000000000000000000000000000000600082015250565b6000613daf601183613907565b9150613dba82613d79565b602082019050919050565b60006020820190508181036000830152613dde81613da2565b9050919050565b6000604082019050613dfa6000830185612aa0565b8181036020830152613e0c8184613918565b90509392505050565b6000613e2082612a96565b9150613e2b83612a96565b9250827fffffffffffffffffffffffffffffffffffffffffffffffffffffffffffffffff03821115613e6057613e5f613c95565b5b828201905092915050565b60006040820190508181036000830152613e858185613918565b90508181036020830152613e998184613918565b90509392505050565b600081905092915050565b6000613eb882612b37565b613ec28185613ea2565b9350613ed2818560208601612b53565b80840191505092915050565b6000613eea8284613ead565b915081905092915050565b7f63616e5f6e6f745f696e766974655f73656c6600000000000000000000000000600082015250565b6000613f2b601383613907565b9150613f3682613ef5565b602082019050919050565b60006020820190508181036000830152613f5a81613f1e565b9050919050565b7f616c72656164795f70617274696369706174696e670000000000000000000000600082015250565b6000613f97601583613907565b9150613fa282613f61565b602082019050919050565b60006020820190508181036000830152613fc681613f8a565b9050919050565b7f496e73756666696369656e745f7061796d656e745f6665650000000000000000600082015250565b6000614003601883613907565b915061400e82613fcd565b602082019050919050565b6000602082019050818103600083015261403281613ff6565b9050919050565b7f6e6f745f6f70656e5f74656e6465720000000000000000000000000000000000600082015250565b600061406f600f83613907565b915061407a82614039565b602082019050919050565b6000602082019050818103600083015261409e81614062565b9050919050565b7f6d61785f7061727469636970616e74735f726561636865640000000000000000600082015250565b60006140db601883613907565b91506140e6826140a5565b602082019050919050565b6000602082019050818103600083015261410a816140ce565b9050919050565b7f63616e5f6e6f745f72656769737465725f73656c660000000000000000000000600082015250565b6000614147601583613907565b915061415282614111565b602082019050919050565b600060208201905081810360008301526141768161413a565b9050919050565b7f6973737565725f6261645f646f63747970650000000000000000000000000000600082015250565b60006141b3601283613907565b91506141be8261417d565b602082019050919050565b600060208201905081810360008301526141e2816141a6565b9050919050565b7f7061727469636970616e745f6261645f646f6374797065000000000000000000600082015250565b600061421f601783613907565b915061422a826141e9565b602082019050919050565b6000602082019050818103600083015261424e81614212565b9050919050565b7f6e6f745f7061727469636970616e740000000000000000000000000000000000600082015250565b600061428b600f83613907565b915061429682614255565b602082019050919050565b600060208201905081810360008301526142ba8161427e565b9050919050565b60006142cc82613973565b915060ff8214156142e0576142df613c95565b5b60018201905091905056fea2646970667358221220ca0a31cbddc94062cfba58a2088aef91fa8d9d96625798f737fba157dd256fcb64736f6c63430008090033",
  "linkReferences": {},
  "deployedLinkReferences": {}
}